:1000000092C10000C1C10000BFC10000BDC100001D
:10001000BBC10000B9C10000B7C10000B5C10000FC
:10002000B3C10000B1C10000AFC10000ADC100000C
:10003000ABC10000A9C10000A7C10000A5C100001C
:10004000A3C10000E8C500009FC100009DC10000E1
:100050009BC1000099C1000097C100000BC50000C2
:1000600093C10000C5C400009AC400008DC1000007
:100070008BC1000089C1000087C1000085C100005C
:100080009DC5000081C100007FC100007DC100004E
:100090007BC1000079C1000077C1000075C100007C
:1000A00073C1000071C100005CC500006DC100009B
:1000B0006BC1000069C1000067C1000025C50000D8
:1000C00063C1000061C100005FC100005DC10000AC
:1000D0005BC1000059C1000057C1000055C10000BC
:1000E00053C10000CC02CF02BE02C202C602060308
:1000F000D302D702DD02E102E502EB02EF02F302D6
:100100000603F902FD02010300407A10F35A00A031
:10011000724E18090010A5D4E80000E876481700D0
:1001200000E40B54020000CA9A3B000000E1F50510
:10013000000080969800000040420F000000A0865A
:1001400001000000102700000000E803000000008C
:100150006400000000000A00000000000100000030
:1001600000002C76D888DC674F0823DFC1DFAE594A
:10017000E1B1B796E5E3E453C63AE651997696E8DD
:10018000E6C28426EB898C9B62ED407C6FFCEFBC61
:100190009C9F40F2BAA56FA5F490055A2AF75C938C
:1001A0006B6CF9676DC11BFCE0E40D47FEF520E6C2
:1001B000B500D0ED902E0300943577050080841EA5
:1001C000080000204E0A000000C80C333333330F00
:1001D000986E12831141EF8D2114893BE65516CF9D
:1001E000FEE6DB18D1844B381BF77C1D901DA4BBA9
:1001F000E424203284725E228100C9F124ECA1E55E
:100200003D27000020002300260029002C002F009D
:100210003200000100000301060109010000210075
:10022000240027002A002D003000330001010000C7
:10023000040107010A0100002200250028002B000C
:100240002E003100340002010000050108010B01FD
:1002500005050505070508080808020202020A0A42
:100260000808040404040101010101010101030360
:10027000030303030303040707070C0C0C0C0C0C0B
:100280000C0C0202020206060606060606060B0B08
:100290000B0B0B0B0B0B0102102020080810204049
:1002A000102040800201020108040201010204083A
:1002B00010204080804020100804020180040201C8
:1002C0008040201008040201080402010102040811
:1002D00010204080010204081020408000000A0B1A
:1002E00002090C0D0E0807030401000000000000C5
:1002F00000000000000000000000000000000000FE
:1003000000000000000000001211100000000000BA
:1003100000000000000000000000000000000000DD
:1003200000006E0DBF0B11241FBECFEFD1E2DEBF68
:10033000CDBF00E00CBF12E0A0E0B2E0EEE4FAE2D4
:1003400000E00BBF02C007900D92A236B107D9F7AB
:1003500023E0A2E6B2E001C01D92A13FB207E1F79F
:1003600011E0C2E9D1E000E006C021970109802F29
:10037000FE010E94D112C139D10780E00807A9F718
:100380000E94C20B0C9416153BCE80E090E00895BD
:10039000FC01538D448D252F30E0842F90E0821B8B
:1003A000930B541710F0CF96089501970895FC0110
:1003B000918D828D981761F0828DDF01A80FB11D9C
:1003C0005D968C91928D9F5F9F73928F90E00895C0
:1003D0008FEF9FEF0895FC01918D828D981731F07A
:1003E000828DE80FF11D858D90E008958FEF9FEFCE
:1003F0000895FC01918D228D892F90E0805C9F4FA4
:10040000821B91098F739927089580E792E0F1DFAD
:1004100021E0892B09F420E0822F0895FC01848DCE
:10042000DF01A80FB11DA35ABF4F2C91848D90E01E
:1004300001968F739927848FA689B7892C93A089F9
:10044000B1898C91837080648C93938D848D981383
:1004500006C00288F389E02D80818F7D8083089516
:10046000EF92FF920F931F93CF93DF93EC0181E004
:10047000888F9B8D8C8D981305C0E889F9898081C0
:1004800085FD25C0F62E0B8D10E00F5F1F4F0F73FB
:100490001127E02E8C8DE8120BC00FB607FCFACFA7
:1004A000E889F989808185FFF5CFCE01B7DFF2CFEA
:1004B0008B8DFE01E80FF11DE35AFF4FF0829FB7CD
:1004C000F8940B8FEA89FB89808180620AC09FB70C
:1004D000F894EE89FF896083E889F98980818370C7
:1004E000806480839FBF81E090E0DF91CF911F9176
:1004F0000F91FF90EF900895CF93DF93EC01888DDB
:100500008823C1F0EA89FB89808185FD05C0A8891F
:10051000B9898C9186FD0EC00FB607FCF5CF80819E
:1005200085FFF2CFA889B9898C9185FFEDCFCE01E7
:1005300075DFE8CFDF91CF910895362F90E0FC0171
:10054000E452FD4F4491FC01EA56FD4F2491FC0119
:10055000E05BFD4F9491992309F46CC0442309F4A6
:1005600055C050E0FA013197E231F10508F04EC074
:100570008827EE58FF4F8F4F0C94D1128091800046
:100580008F7707C0809180008F7D03C080918000AD
:10059000877F809380003AC084B58F7702C084B58E
:1005A0008F7D84BD33C08091B0008F7703C0809170
:1005B000B0008F7D8093B00029C0809190008F772C
:1005C00007C0809190008F7D03C080919000877F4D
:1005D000809390001BC08091A0008F7707C080910E
:1005E000A0008F7D03C08091A000877F8093A00032
:1005F0000DC0809120018F7707C0809120018F7DF1
:1006000003C080912001877F80932001E92FF0E0D3
:10061000EE0FFF1FEA5CFD4FA591B4919FB7F894D0
:10062000311104C08C912095282302C0EC912E2B0F
:100630002C939FBF0895CF93DF9390E0FC01EA567F
:10064000FD4F2491FC01E05BFD4F8491882361F113
:1006500090E0880F991FFC01E45EFD4FC591D49195
:10066000FC01EA5CFD4FA591B491611109C09FB7EF
:10067000F8948881209582238883EC912E230BC0E7
:10068000623061F49FB7F8948881322F30958323CC
:100690008883EC912E2B2C939FBF06C08FB7F894C4
:1006A000E8812E2B28838FBFDF91CF9108953FB72C
:1006B000F89480916B0290916C02A0916D02B091C0
:1006C0006E0226B5A89B05C02F3F19F00196A11D0B
:1006D000B11D3FBFBA2FA92F982F8827820F911DD8
:1006E000A11DB11DBC01CD0142E0660F771F881F1F
:1006F000991F4A95D1F708958F929F92AF92BF921A
:10070000CF92DF92EF92FF926B017C01D0DF4B0121
:100710005C01C114D104E104F104E9F0C8DFDC019B
:10072000CB0188199909AA09BB09883E9340A10504
:10073000B10578F321E0C21AD108E108F10888EE8A
:10074000880E83E0981EA11CB11CC114D104E104E1
:10075000F10421F7DECFFF90EF90DF90CF90BF90B4
:10076000AF909F908F900895CF92DF92EF92FF927B
:100770000F931F93CF93DF936C018B017A01EC01F0
:10078000CE59DD4F888187FF04C0FB0111821082A2
:1007900024C02CE02C9DC0012D9D900D112428819A
:1007A000AC01420F511D27FD5A952091E30330E023
:1007B0004217530794F42881AC01420F511D27FDC5
:1007C0005A959A01FA01EE0FFF1F2E0F3F1FF901F4
:1007D000ED5AFC4F208126FD19C088818F5F8883E8
:1007E0002CE02C9DC0012D9D900D11242881AC0181
:1007F000420F511D27FD5A952091E30330E0421727
:100800005307B4F428812C303CF112C02881820FA8
:10081000911D27FD9A95FC01EE0FFF1F8E0F9F1F64
:10082000FC01ED5AFC4F808160E08F7386DED5CFEE
:10083000F80180819181049680349C4918F480E409
:100840009CE904C0F801808191810496F7019183AD
:1008500080838FEF888344C0F801408151812881D3
:10086000BC01620F711D27FD7A959B01FB01EE0F04
:10087000FF1F2E0F3F1FF901ED5AFC4F21813281DE
:10088000240F351FF701318320832881AC01420FEB
:10089000511D27FD5A959A01FA01EE0FFF1F2E0FE9
:1008A0003F1FF901ED5AFC4F208126FF19C0288116
:1008B000820F911D27FD9A95FC01EE0FFF1F8E0FF1
:1008C0009F1FFC01ED5AFC4F808161E08F73DF9127
:1008D000CF911F910F91FF90EF90DF90CF902DCE91
:1008E000DF91CF911F910F91FF90EF90DF90CF900C
:1008F00008950F931F9360E082E01FDE83E090E095
:100900000197F1F761E082E018DE83E290E0019761
:10091000F1F760E082E011DEE9E9F2E06491E3E5FD
:10092000F2E0E491F0E0EE0FFF1FEE5FFD4F8591E6
:10093000949100E412E42FE030E0462FDBD66115FD
:1009400071058105910549F0DC01CB010196A11DDE
:10095000B11DBC01CD019F7003C060E070E0CB0110
:100960000E94CB1020E030E048E652E40E941912C9
:1009700020E030E048EC52E40E9408110E9481120D
:10098000072E000C880B990B0E94CD1020E030E060
:1009900048EC52E40E9419121F910F9108951F9282
:1009A0000F920FB60F9211240BB60F922F933F9315
:1009B0004F935F936F937F938F939F93AF93BF9367
:1009C000EF93FF9380E792E029DDFF91EF91BF91D4
:1009D000AF919F918F917F916F915F914F913F91D7
:1009E0002F910F900BBE0F900FBE0F901F90189578
:1009F0001F920F920FB60F9211240BB60F922F93E6
:100A00008F939F93EF93FF93E0918002F091810287
:100A10008081E0918602F091870282FD12C0908170
:100A2000809189028F5F8F7320918A02821751F023
:100A3000E0918902F0E0E059FD4F958F80938902A3
:100A400001C08081FF91EF919F918F912F910F9025
:100A50000BBE0F900FBE0F901F9018952FB7F894F4
:100A600060916702709168028091690290916A02B8
:100A70002FBF08951F920F920FB60F9211242F933C
:100A80003F938F939F93AF93BF9380916702909111
:100A90006802A0916902B0916A023091660223E077
:100AA000230F2D3720F40196A11DB11D05C026E8A6
:100AB000230F0296A11DB11D209366028093670249
:100AC00090936802A0936902B0936A0280916B02CE
:100AD00090916C02A0916D02B0916E020196A11DE1
:100AE000B11D80936B0290936C02A0936D02B09342
:100AF0006E02BF91AF919F918F913F912F910F9077
:100B00000FBE0F901F9018951F920F920FB60F9265
:100B100011240BB60F922F933F934F935F936F93D4
:100B20007F938F939F93AF93BF93EF93FF9348E28D
:100B300051E064E271E080E090E016DEFF91EF9119
:100B4000BF91AF919F918F917F916F915F914F91E5
:100B50003F912F910F900BBE0F900FBE0F901F90E3
:100B600018951F920F920FB60F9211240BB60F9289
:100B70002F933F934F935F936F937F938F939F93A5
:100B8000AF93BF93EF93FF9348EA50E064EA70E0BD
:100B900083E090E0E9DDFF91EF91BF91AF919F91EC
:100BA0008F917F916F915F914F913F912F910F9016
:100BB0000BBE0F900FBE0F901F9018951F920F92B3
:100BC0000FB60F9211240BB60F922F933F934F93B2
:100BD0005F936F937F938F939F93AF93BF93EF93A5
:100BE000FF9348E950E064E970E082E090E0BCDD0A
:100BF000FF91EF91BF91AF919F918F917F916F91F5
:100C00005F914F913F912F910F900BBE0F900FBEB0
:100C10000F901F9018951F920F920FB60F921124EC
:100C20000BB60F922F933F934F935F936F937F93E6
:100C30008F939F93AF93BF93EF93FF9348E850E058
:100C400064E870E081E090E08FDDFF91EF91BF916B
:100C5000AF919F918F917F916F915F914F913F9154
:100C60002F910F900BBE0F900FBE0F901F901895F5
:100C70002F923F924F925F926F927F928F929F92AC
:100C8000AF92BF92CF92DF92EF92FF920F931F939A
:100C9000CF93DF93CDB7DEB7A4970FB6F894DEBF3E
:100CA0000FBECDBF2DE2222E312C38E8432E512C21
:100CB00048E5642E42E0742E54EB852E912CA12C35
:100CC000B12C80E792E095DB892B09F4F9C168E546
:100CD00072E0CE014996FAD4B0D397FD0EC08B33A3
:100CE000910559F089831A8241E050E0BE016F5F9F
:100CF0007F4FCE014996D3D3EFCF8D8D9E8D892B1B
:100D000009F4DBC1CE0149960DD38D8D9E8D892BC3
:100D100069F0E98CFA8C6AE370E0C7010E94FB1469
:100D2000009721F08C010E191F0902C00FEF1FEF71
:100D300068E572E0CE014396C9D468E572E0CE0161
:100D40000D96C4D40F3F4FEF140709F45FC068E558
:100D500072E0CE010196BAD48D8D9E8D0097B1F0D0
:100D600078018017910708F47C01E98DFA8DEE0D6A
:100D7000FF1DD0801082698D7A8DCE01019649D4F5
:100D8000898D9A8DFC01EE0DFF1DD082BE016F5F33
:100D90007F4FCE01439617D3CE01019679D4CD8CE7
:100DA000DE8C0F5F1F4FC016D10628F4902F812FC5
:100DB0008601C92ED82E68E572E0CE01019686D450
:100DC000ED8CFE8C0E151F05B8F4CE14DF0408F46C
:100DD0007601E98DFA8DEE0DFF1DD0801082698DB0
:100DE0007A8D600F711FCE01019613D4898D9A8D73
:100DF000FC01EE0DFF1DD082BE016F5F7F4FCE0163
:100E00000D96E1D2CE01019643D40EC0698D7A8D44
:100E10006115710531F04D8D5E8DCE014396DAD3AB
:100E200003C0CE01439668D364DD6B017C016AE1A7
:100E300072E0CE0101964AD4BE016F5F7F4FCE01B2
:100E4000439691D28C01CE01019622D4012B09F058
:100E5000BFC0FED18C01CE010D967BD26B017C010F
:100E6000061B170B17FF03C011950195110926E901
:100E7000209FC001219F900D1124B1010E94BE123C
:100E80008B01B60150E2C51652E0D506DCF5D7FC61
:100E900006C0653B71052CF064EB70E002C060E0B9
:100EA00070E08091EB036201C81AD10887FDD394EA
:100EB000D601AA0FBB1FAA0FBB1F6D01BB0FEE0807
:100EC000FF088091EC039301281B310987FD3395BE
:100ED000220F331F220F331FC901330FAA0BBB0B85
:100EE0009C01AD012C193D094E095F09DB010E94EF
:100EF0000412A50194010E94DE11C20ED31EE41E4D
:100F0000F51EB6012091EA03203380F58091EB03B2
:100F1000A201481B510987FD5395CA01880F991FEB
:100F2000880F991F6817790784F08091EC03A3015B
:100F3000481B510987FD5395440F551F440F551FFA
:100F4000CB01461757070CF4CA010297880F991F67
:100F50004FB7F89430E0F901EE0FFF1F2E0F3F1F3F
:100F6000F901ED5AFC4F928381834FBFB801110FF5
:100F7000880B990BC1DBBDDC6B017C01BE01635F9B
:100F80007F4FCE01079689D36FE172E0CE010796BD
:100F90000AD3B701A601D3D261E272E004D3BC0147
:100FA000CE0101967AD3CE01079672D363E272E046
:100FB000CE0107968BD3BE016F5F7F4FCE010796A0
:100FC000ADD2B0D1CE01079663D3CE01019643C016
:100FD00069E272E0CE01019679D3BE016F5F7F4F67
:100FE000CE014396C0D18C01CE01019651D3012B85
:100FF00009F033C02DD1BC01CE0107961FD3BE012D
:10100000695F7F4FCE014F9648D36FE172E0CE010A
:101010004F96C9D2B701A60192D261E272E0C3D263
:10102000BC01CE01019639D3CE014F9631D363E294
:1010300072E0CE014F964AD3BE016F5F7F4FCE0163
:101040004F966CD26FD1CE014F9622D3CE0101962E
:101050001FD3CE0107961CD326C067E372E0CE01F2
:10106000019634D3BE016F5F7F4FCE0143967BD193
:101070008C01CE0101960CD3012BA9F4CE010D9663
:1010800068D116161706180619061CF010926F0282
:101090000AC081E080936F02CE010D965AD1709301
:1010A000010260930002CE010D96F2D2CE0143966A
:1010B000EFD2CE014996ECD204CECE014996E8D2C9
:1010C000A4960FB6F894DEBF0FBECDBFDF91CF91CF
:1010D0001F910F91FF90EF90DF90CF90BF90AF9056
:1010E0009F908F907F906F905F904F903F902F9048
:1010F00008958BD9811125C080E090E0892B41F0C3
:1011000080E090E0892B21F00E94000081111BC03B
:1011100080E090E0892B41F080E090E0892B21F085
:101120000E940000811112C080E090E0892B99F0AC
:1011300080E090E0892B79F00E940000811109C0C5
:10114000089596DDD9CF0E940000E2CF0E940000F2
:10115000EBCF0C94000008950895CF92DF92EF92A8
:10116000FF920F931F93CF93DF936C017A018B0152
:10117000C0E0D0E0CE15DF0581F0D8016D918D0182
:10118000D601ED91FC910190F081E02DC6011995F9
:10119000892B11F02196EECF7E01C701DF91CF910F
:1011A0001F910F91FF90EF90DF90CF9008950E94D4
:1011B000EE140F931F93CF93DF93EC0188819981F5
:1011C000009729F02A813B812617370788F48B0185
:1011D0006F5F7F4F0E940E14009761F099838883A0
:1011E0001B830A832C813D81232B11F4FC01108287
:1011F00081E001C080E0DF91CF911F910F910895B0
:10120000E0E7F2E0A089B18982E08C93A485B585FE
:101210001C92A685B78580E18C93108EA489B58930
:1012200086E08C93A289B3898C9180618C93A2898A
:10123000B3898C9188608C93A289B3898C918068E2
:101240008C930288F389E02D80818F7D80830895BF
:101250008F929F92AF92BF92CF92DF92EF92FF92C6
:101260008091EC0328E532E06901C81AD10887FDB6
:10127000D394CC0CDD1CCC0CDD1C0D2C000CEE082A
:10128000FF088091EB0328E830E04901881A9108B3
:1012900087FD9394880C991C880C991C092C000CD0
:1012A000AA08BB088091EA038F3FC1F090E0FC01DF
:1012B000EE0FFF1F8E0F9F1FFC01ED5AFC4F218187
:1012C000328143E0220F331F4A95E1F754E036950F
:1012D00027955A95E1F72E5F3F4F02C020E030E09E
:1012E0002F5F3F4FC901330FAA0BBB0B9C01AD0110
:1012F000281939094A095B09A4EBB0E00E94FA11E8
:10130000A7019601281939094A095B090E94DE11D3
:10131000C901FF90EF90DF90CF90BF90AF909F906A
:101320008F900895CF93DF93FC01448155816081B4
:10133000718180E792E011DFEC0142E050E066E568
:1013400072E080E792E009DF8C0F9D1FDF91CF9163
:101350000895FC0180819181009709F060C460E0EC
:1013600070E0CB010895CF93DF93DC01ED91FC9108
:10137000EB01A881B981309711F01097C9F410974B
:1013800059F0EB012C813D81232B31F08C9190E0C1
:1013900091958195910914C0309781F0DC011496E4
:1013A0008D919C911597892B49F0808190E008C020
:1013B000BD01CF01DF91CF910C94061580E090E044
:1013C000DF91CF9108950F931F93CF93DF938C01FB
:1013D000EB01FC0180819181009739F0688179816E
:1013E00061157105A1F40E94851388819981F80126
:1013F000918380838A819B81938382838C819D8169
:1014000095838483198218821B821A820FC0F80187
:10141000428153812C813D814217530720F30E9462
:101420000F158C819D81F801958384831D821C8218
:10143000DF91CF911F910F9108950F931F930EDBB2
:10144000609378027093790280937A0290937B0282
:1014500080E792E00E94D70197FF1EC0FFDA00915B
:1014600078021091790220917A0230917B02DC019E
:10147000CB01801B910BA20BB30B00917402109156
:101480007502209176023091770280179107A207AA
:10149000B307F0F28FEF9FEF1F910F910895EF9236
:1014A000FF920F931F93CF93DF936115710511F492
:1014B00080E01BC041155105B9F07B01EC018C8126
:1014C0009D818A01080F191FB801CE0172DE8823A1
:1014D00079F3288139818C819D81B701820F931F17
:1014E0000E940F151D830C8381E0DF91CF911F9126
:1014F0000F91FF90EF900895CF93DF93EC018881D7
:101500009981009711F00E948513198218821D821B
:101510001C821B821A82DF91CF910895CF93DF93B3
:10152000EC01FB014481558160817181B8DF81113B
:1015300002C0CE01E1DFCE01DF91CF910895EF929D
:10154000FF920F931F93CF93DF93CDB7DEB76497CE
:101550000FB6F894DEBF0FBECDBF7C01CB01BA0140
:101560008E010F5F1F4F22E044E03AD3FC0101904F
:101570000020E9F73197AF01481B590BBC01C701A7
:101580008EDF811102C0C701B7DFC70164960FB6B5
:10159000F894DEBF0FBECDBFDF91CF911F910F91A9
:1015A000FF90EF900895CF93DF93EC0161157105E3
:1015B00059F0FB0101900020E9F73197AF01461B7C
:1015C000570B6DDF811102C0CE0196DFCE01DF9196
:1015D000CF910895EF92FF920F931F93CF93DF93D4
:1015E000EC017B018A01BA01E4DD811103C0CE0167
:1015F00083DF07C01D830C83B701888199810E9416
:101600000F15CE01DF91CF911F910F91FF90EF90B9
:101610000895CF93DF93EC016115710551F0FB0143
:1016200001900020E9F73197AF01461B570BD2DF3D
:1016300001C062DFCE01DF91CF9108950F931F9318
:10164000CF93DF93CDB7DEB762970FB6F894DEBFC6
:101650000FBECDBF8C01CB01F80111821082138225
:101660001282158214824AE0BE016F5F7F4FFDD265
:10167000BE016F5F7F4FC801CCDF62960FB6F89452
:10168000DEBF0FBECDBFDF91CF911F910F910895A7
:10169000FC01808191810C948513FB01DC01119682
:1016A0001C921E9213961C921E92129715961C92D3
:1016B0001E9214978617970741F06081718161151A
:1016C000710519F04481558185CF0895FC0111827F
:1016D000108213821282158214826115710549F0FD
:1016E000FB0101900020E9F73197AF01461B570B32
:1016F00071CF0895CF92DF92EF92FF920F931F93D5
:10170000E82FF92F05C0015011092109310961F1B4
:10171000908196239417B9F305C00150110921094E
:10172000310911F1908196239413F7CFC12CD12C5C
:10173000E12CF12C0AC08FEFC81AD80AE80AF80A7F
:101740000C151D052E053F0579F080818623841731
:1017500091F36C2D7D2D8E2D9F2D1F910F91FF905C
:10176000EF90DF90CF90089560E070E080E090E02F
:101770001F910F91FF90EF90DF90CF90089584EE2E
:1017800093E086CFCF93DF93CDB7DEB7E3970FB665
:10179000F894DEBF0FBECDBF789484B5826084BD5F
:1017A00084B5816084BD85B5826085BD85B5816065
:1017B00085BD80916E00816080936E0010928100E3
:1017C000809181008260809381008091810081609E
:1017D000809381008091800081608093800080915F
:1017E000B10084608093B1008091B00081608093EB
:1017F000B00080919100826080939100809191006F
:10180000816080939100809190008160809390002E
:101810008091A10082608093A1008091A1008160ED
:101820008093A1008091A00081608093A0008091AE
:101830002101826080932101809121018160809348
:1018400021018091200181608093200180917A00A4
:10185000846080937A0080917A00826080937A001D
:1018600080917A00816080937A0080917A0080680C
:1018700080937A001092C10010924F03109250038F
:10188000109251031092520310920F031092100302
:101890001092110310921203E1D86B017C014B01ED
:1018A0005C0188EB880E8BE0981EA11CB11CD6D879
:1018B0006C157D058E059F0528F086169706A806EF
:1018C000B906A8F768EE73E080E090E00E947C0320
:1018D00097DCC4D860930F037093100380931103B7
:1018E0009093120341E150E067E472E080E792E0F8
:1018F00034DCB4D86B017C014B015C019AE0890EA9
:10190000911CA11CB11CAAD86C157D058E059F05E4
:1019100028F086169706A806B906A8F781E08093F6
:1019200023036EDC61E082E00E941B0360E083E041
:101930000E941B038091EA03803308F051C061E0EC
:1019400089E00E941B038091EA03E82FF0E09F01E9
:10195000220F331FE20FF31FED5AFC4F9081907C52
:10196000996090831092EB031092EC036CE0FAD52F
:101970009CE0899FB001112440E050E09B01240FBE
:10198000351FF901EE0FFF1F2E0F3F1FF901ED5A12
:10199000FC4F908196FD17C04F5F5F4F4C30510553
:1019A00069F7813009F06EC01092800082E0809368
:1019B00081001092850010928400B19A80916F008E
:1019C000826080936F00E091EA03F0E0CF01880F1E
:1019D000991FE80FF91FED5AFC4F808180648083C6
:1019E00080916F02882309F44BC0609100027091CE
:1019F0000102072E000C880B990B0E947C030E94A9
:101A0000790419A618A61BA61AA61DA61CA68E0147
:101A10000F5F1F4F22E044E0E3D0BC01CE01889667
:101A2000F8DD16DCBC01C80109DEB801CE018296E2
:101A300034DE6FE172E0CE018296B5DDBE01685DF5
:101A40007F4F6CDD61E272E0AEDDBC01CE018E96AF
:101A500024DECE0182961CDEC8011ADECE018896F5
:101A600017DE69E572E0C80131DEBE01625D7F4FBD
:101A7000C80154DD57DCC8010BDECE018E9608DEAE
:101A800038DBAECF823061F41092900080939100E9
:101A9000109295001092940088BB8093710093CFB0
:101AA000833069F41092A00082E08093A10010922C
:101AB000A5001092A40089BB8093720084CF81118D
:101AC00082CF1092200182E08093210110922501A3
:101AD000109224018ABB8093730075CF1092730219
:101AE0001092720288EE93E0A0E0B0E0809374025E
:101AF00090937502A0937602B09377028CE092E007
:101B0000909371028093700285EC90E090937D0237
:101B100080937C0284EC90E090937F0280937E021D
:101B200080EC90E0909381028093800281EC90E0C1
:101B3000909383028093820282EC90E090938502DE
:101B40008093840286EC90E09093870280938602D3
:101B50001092890210928A0210928B0210928C02CB
:101B6000109213031092140310921503109216038F
:101B700010921703109218031092190310921A036F
:101B800010921B0310921C0310921D0310921E034F
:101B900010921F031092200310922103109222032F
:101BA0008091E3038033A0F491E0980F9093E303D6
:101BB0008093EA0390E0FC01EE0FFF1F8E0F9F1F42
:101BC000FC01ED5AFC4F88EB9BE09283818303C0BC
:101BD0008FEF8093EA0368E572E084EE93E076CDC0
:101BE000EF920F931F93CF93DF93E80147FD02C05D
:101BF00034E001C034E1042E000C550B57FF03C044
:101C0000519541955109E32E022F242FAE0165D045
:101C1000CE01DF91CF911F910F91EF9008951F9307
:101C2000FC0199278827BC01E89411911032E9F34F
:101C3000193010F01E30C8F31B3249F01D3241F448
:101C4000689405C01CD0610F711D811D911D1191FB
:101C500010531A30B8F33EF49095809570956195C5
:101C60007F4F8F4F9F4F1F910895BB274A3031F40C
:101C7000992322F4BDE2909581959F4F16C0592F6C
:101C8000482F372F262F660F771F881F991F660F43
:101C9000771F881F991F620F731F841F951F660F80
:101CA000771F881F991F0895BB27FB015527AA2777
:101CB000880F991FAA1FA41710F0A41B83955051D9
:101CC000B9F7A05DAA3308F0A95DA193009779F751
:101CD000B111B1931192CB014EC28F929F92AF92EC
:101CE000BF92CF92DF92EF92FF920F931F93CF9309
:101CF000DF93CDB7DEB729970FB6F894DEBF0FBEDE
:101D0000CDBF6A01122FB02E2BE3201720F0FF2445
:101D1000F394F00E02C02CE3F22E0F2D27E0AE015B
:101D20004F5F5F4F50D1BC014981842F8970813052
:101D300031F0E1FC06C0E0FE06C090E205C09DE285
:101D400003C09BE201C090E05E2D507143FF3CC098
:101D5000911102C083E001C084E0811718F4212FA3
:101D6000281B01C020E051110BC0F601822F30E288
:101D7000882319F031938150FBCFC20ED11C20E093
:101D8000992329F0D6019C93F60131966F01C60183
:101D90000396E2FE0AC03EE4D6013C9341E411966C
:101DA0004C93119712963C9306C03EE6F6013083A1
:101DB00041E641833283FC01322F40E2332309F4B0
:101DC00042C041933150FACF42FF44C0911102C04A
:101DD00083E001C084E0811718F4212F281B01C083
:101DE00020E051110BC0F601822F30E2882319F058
:101DF00031938150FBCFC20ED11C20E0992329F0F2
:101E0000D6019C93F60131966F01C6010396E2FE5E
:101E10000BC039E4D6013C933EE411963C931197F4
:101E200036E412963C9307C039E6F60130833EE66D
:101E3000318336E63283FC01322F40E2332319F03E
:101E400041933150FBCFFC01E20FF11D10828EEF68
:101E50009FEFA6C021E030E0911102C020E030E009
:101E6000161617061CF4FB01319602C0E1E0F0E003
:101E70002E0F3F1FBB2021F0EB2DF0E0319602C06A
:101E8000E0E0F0E02E0F3F1FE12FF0E02E173F07BC
:101E90001CF4121B212F01C020E08E2D887159F4F3
:101EA000F601822F30E2882319F031938150FBCF65
:101EB000C20ED11C20E0992329F0D6019C93F60193
:101EC00031966F0151110BC0F601822F90E38823E8
:101ED00019F091938150FBCFC20ED11C20E00F2D41
:101EE000060F9A81342F307144FF03C0913309F4F7
:101EF0000150101624F4093018F008E001C001E088
:101F0000AB0177FF02C040E050E0FB01E41BF50BA2
:101F1000A1E0B0E0AC0FBD1FEA0FFB1F8EE2A82EC0
:101F20004B01801A91080B2D10E0119501951109B4
:101F30004F3FBFEF5B0721F4D601AC9211966D01C4
:101F4000641775072CF08416950614F4818101C07E
:101F500080E3415051093196D60111967D01401719
:101F6000510724F0D6018C936701E2CF64177507FF
:101F700039F4963320F4953319F4311101C081E31B
:101F8000F6018083F701822F90E2882319F0919364
:101F90008150FBCFF701E20FF11D108280E090E04D
:101FA00029960FB6F894DEBF0FBECDBFDF91CF915B
:101FB0001F910F91FF90EF90DF90CF90BF90AF9067
:101FC0009F908F900895283008F027E03327DA019A
:101FD000990F311D87FD916000966105710539F4F7
:101FE00032602E5F3D9330E32A95E1F708959F3FDD
:101FF00030F080387105610509F03C5F3C5F3D932E
:10200000913008F08068911DDF93CF931F930F9359
:10201000FF92EF92192F987F9695E92F96959695B6
:10202000E90FFF27EE59FE4F99273327EE24FF24AF
:10203000A701E70105900894079428F4360FE71EDE
:10204000F81E491F511D660F771F881F991F0694A0
:10205000A1F70590079428F4E70EF81E491F561FB4
:10206000C11D770F881F991F661F0694A1F7059061
:10207000079428F4F80E491F561FC71FD11D880F5B
:10208000991F661F771F0694A1F70590079420F407
:10209000490F561FC71FD81F990F661F771F881F2C
:1020A0000694A9F784911095177041F0D695C795BD
:1020B00057954795F794E7941A95C1F7E8E0F1E052
:1020C00068941590159135916591959105907FE2F1
:1020D0007395E118F10A430B560BC90BD009C0F7F1
:1020E000E10CF11E431F561FC91FD01D7EF4703333
:1020F00011F48A95E6CFE894015030F0080F0AF405
:102100000027021708F4202F2395022F7A3328F096
:1021100079E37D932A95E9F710C07D932A9589F696
:10212000069497956795379517951794E118F10AD6
:10213000430B560BC90BD00998F023957E917395EC
:102140007A3308F070E37C932013B8F77E917061C6
:102150007D9330F0839571E37D9370E32A95E1F7E9
:102160001124EF90FF900F911F91CF91DF9199274C
:1021700087FD90950895DC01FC01672F719177230D
:10218000E1F7329704C07C916D9370836291AE1732
:10219000BF07C8F30895E89409C097FB3EF49095F3
:1021A0008095709561957F4F8F4F9F4F9923A9F030
:1021B000F92F96E9BB279395F695879577956795BF
:1021C000B795F111F8CFFAF4BB0F11F460FF1BC003
:1021D0006F5F7F4F8F4F9F4F16C0882311F096E996
:1021E00011C0772321F09EE8872F762F05C0662344
:1021F00071F096E8862F70E060E02AF09A95660FFD
:10220000771F881FDAF7880F9695879597F90895B5
:102210000BD078C069D028F06ED018F0952309F063
:102220005AC05FC01124A2C07ED0A0F3959FD1F305
:10223000950F50E0551F629FF001729FBB27F00D74
:10224000B11D639FAA27F00DB11DAA1F649F6627C9
:10225000B00DA11D661F829F2227B00DA11D621F18
:10226000739FB00DA11D621F839FA00D611D221FD2
:10227000749F3327A00D611D231F849F600D211DB6
:10228000822F762F6A2F11249F5750408AF0E1F059
:1022900088234AF0EE0FFF1FBB1F661F771F881FA2
:1022A00091505040A9F79E3F510570F014C05EC098
:1022B0005F3FECF3983EDCF3869577956795B7958D
:1022C000F795E7959F5FC1F7FE2B880F911D9695B7
:1022D000879597F9089597F99F6780E870E060E027
:1022E00008959FEF80EC089500240A9416161706AF
:1022F00018060906089500240A94121613061406F7
:1023000005060895092E0394000C11F4882352F059
:10231000BB0F40F4BF2B11F460FF04C06F5F7F4F11
:102320008F4F9F4F089557FD9058440F551F59F0F8
:102330005F3F71F04795880F97FB991F61F09F3FB2
:1023400079F087950895121613061406551FF2CFDB
:102350004695F1DF08C0161617061806991FF1CF2B
:1023600086957105610508940895E894BB27662752
:102370007727CB0197F90895A1E21A2EAA1BBB1B60
:10238000FD010DC0AA1FBB1FEE1FFF1FA217B30741
:10239000E407F50720F0A21BB30BE40BF50B661F57
:1023A000771F881F991F1A9469F76095709580951B
:1023B00090959B01AC01BD01CF010895052E97FBBF
:1023C00016F400940FD057FD05D0D6DF07FC02D0DD
:1023D00046F408C050954095309521953F4F4F4F9A
:1023E0005F4F089590958095709561957F4F8F4FC1
:1023F0009F4F08950FD0A59F900DB49F900DA49F5F
:10240000800D911D11240895B7FFF4CFF3DF821BD7
:10241000930B0895A29FB001B39FC001A39F700DBD
:10242000811D1124911DB29F700D811D1124911DDC
:1024300008950CD067CF5FDF40F056DF30F021F415
:102440005F3F19F048CF511191CF4BCF6CDF98F31C
:102450009923C9F35523B1F3951B550BBB27AA2725
:1024600062177307840738F09F5F5F4F220F331F97
:10247000441FAA1FA9F333D00E2E3AF0E0E830D063
:1024800091505040E695001CCAF729D0FE2F27D066
:10249000660F771F881FBB1F261737074807AB0734
:1024A000B0E809F0BB0B802DBF01FF2793585F4FA9
:1024B0002AF09E3F510568F00ECF58CF5F3FECF3F6
:1024C000983EDCF3869577956795B795F7959F5F6E
:1024D000C9F7880F911D9695879597F90895E1E0C2
:1024E000660F771F881FBB1F621773078407BA0721
:1024F00020F0621B730B840BBA0BEE1F88F7E0957C
:10250000089504D06894B11131CF089514DF88F094
:102510009F5790F0B92F9927B751A0F0D1F0660FCF
:10252000771F881F991F1AF0BA95C9F712C0B130EA
:1025300081F01BDFB1E0089518CF672F782F88272F
:10254000B85F39F0B93FCCF3869577956795B39529
:10255000D9F73EF490958095709561957F4F8F4F98
:102560009F4F0895991B79E004C0991F961708F0B2
:10257000961B881F7A95C9F78095089597FB072EBB
:1025800016F4009406D077FD08D013D007FC05D0D0
:102590003EF4909581959F4F0895709561957F4F7A
:1025A0000895EE0FFF1F881F8BBF0790F691E02D57
:1025B0001994AA1BBB1B51E107C0AA1FBB1FA6177A
:1025C000B70710F0A61BB70B881F991F5A95A9F7DC
:1025D00080959095BC01CD0108950F931F93CF93E3
:1025E000DF938230910510F482E090E0E091EF03F8
:1025F000F091F00320E030E0A0E0B0E0309719F176
:10260000408151810281138148175907C8F084170E
:10261000950769F4109731F012960C931297139660
:102620001C9327C00093EF031093F00322C02115E1
:10263000310519F04217530718F49A01BD01EF0153
:10264000DF01F801DBCF21153105F9F0281B390B2B
:102650002430310580F48A819B816115710521F058
:10266000FB019383828304C09093F0038093EF0374
:10267000FE01329644C0FE01E20FF31F8193919355
:1026800022503109398328833AC02091ED033091DB
:10269000EE03232B41F42091040230910502309384
:1026A000EE032093ED0320910202309103022115E5
:1026B000310541F42DB73EB7409106025091070213
:1026C000241B350BE091ED03F091EE03E217F307C5
:1026D000A0F42E1B3F0B2817390778F0AC014E5F92
:1026E0005F4F2417350748F04E0F5F1F5093EE03DE
:1026F0004093ED038193919302C0E0E0F0E0CF01BD
:10270000DF91CF911F910F910895CF93DF930097A1
:1027100009F481C0FC01329713821282A091EF0369
:10272000B091F003109781F420813181820F931FC3
:102730002091ED033091EE032817390751F5F093FE
:10274000EE03E093ED0367C0ED0120E030E0CE172B
:10275000DF0740F44A815B819E0141155105F1F08C
:10276000EA01F5CFD383C28340815181840F951F45
:10277000C817D90759F488819981840F951F02964B
:10278000918380838A819B81938382832115310584
:1027900029F4F093F003E093EF033DC0E901FB83DC
:1027A000EA8349915991C40FD51FEC17FD0761F4D5
:1027B00080819181840F951F0296E9019983888316
:1027C000828193819B838A83E0E0F0E012968D9171
:1027D0009C911397009719F0FD01DC01F7CF8D91C3
:1027E0009C9111979D012E5F3F4F820F931F209167
:1027F000ED033091EE032817390769F4309729F477
:102800001092F0031092EF0302C013821282B09371
:10281000EE03A093ED03DF91CF9108956F927F9225
:102820008F929F92AF92BF92CF92DF92EF92FF92E0
:102830000F931F93CF93DF93009781F4CB01DF9128
:10284000CF911F910F91FF90EF90DF90CF90BF90AD
:10285000AF909F908F907F906F90BFCEFC01E60F5E
:10286000F71F9C0122503109E217F30708F4A5C0B5
:10287000EC01D9010D911C91119706171707A8F0CB
:102880000530110508F497C0C8010497861797070B
:1028900008F491C002501109061B170B0193119304
:1028A0006D937C93CF0131DF86C05B01A01AB10A22
:1028B0004C01800E911EA091EF03B091F003612CAA
:1028C000712CE12CF12C109709F446C08D919C914C
:1028D0001197A815B905B1F56C0142E0C40ED11CE1
:1028E000CA14DB0478F14C018A189B08640142E0A9
:1028F000C40ED11C1296BC9012971396AC91B5E001
:10290000CB16D10440F0B282A38391828082D90198
:102910006D937C9309C00E5F1F4F800F911FF901CB
:1029200091838083EB2DFA2FE114F10431F0D7016C
:102930001396FC93EE9312973EC0F093F003E0934E
:10294000EF0339C06816790608F43C017D01129640
:102950000D90BC91A02DB7CF8091ED039091EE0327
:1029600088169906E1F466167706C8F4809102028B
:1029700090910302009741F48DB79EB740910602F3
:1029800050910702841B950BE817F907B0F4F093F8
:10299000EE03E093ED03F901718360830CC0CB017A
:1029A0001CDE7C01009749F0A801BE011BD0CE01BE
:1029B000ACDEC70104C0CE0102C080E090E0DF9130
:1029C000CF911F910F91FF90EF90DF90CF90BF902C
:1029D000AF909F908F907F906F90089581E090E0EE
:1029E000F89424C0FB01DC0102C001900D9241501B
:1029F0005040D8F70895FC018191861721F0882373
:102A0000D9F7992708953197CF010895FB01DC018B
:102A10008D91019080190110D9F3990B0895FB0154
:102A2000DC0101900D920020E1F7089511E0C2E968
:102A3000D1E000E005C0802FFE01B3DD2196011D2D
:0E2A4000C339D10780E00807B1F7F894FFCF43
:102A4E00E8030000F1038000000000003002AD0832
:102A5E00C8017C02F901D701EB017475726E002C6E
:102A6E00003B00726561643A00726561645F64697F
:102A7E007374616E6365006465746563745F646925
:102A8E007374616E636500564D4450565F317C31F0
:102A9E005F564D4450560D0A006465746563743A72
:022AAE00000026
:00000001FF
