:1000000027C100001AC60000EDC50000C0C50000F1
:1000100093C5000066C5000039C500000CC500008E
:10002000DFC4000046C1000044C1000042C100001E
:1000300040C100003EC100003CC1000070C600008D
:1000400038C1000036C1000034C1000032C10000D8
:1000500030C100002EC100002CC1000077C4000098
:1000600028C100000C940D0D0C94E30C22C100007B
:1000700020C100001EC100001CC100001AC1000008
:1000800018C1000016C1000014C1000012C1000018
:1000900010C100000EC100000CC100000AC1000028
:1000A00008C1000006C1000004C1000002C1000038
:1000B00000C10000FEC00000FCC00000FAC000004B
:1000C000F8C00000F6C00000F4C00000F2C000005C
:1000D000F0C00000EEC00000ECC00000EAC000006C
:1000E000E8C00000EB01EE01DD01E101E7012502BE
:1000F000F201F601FC01000204020A020E021202E1
:10010000250218021C02200298039D03A203AC03DF
:10011000B6032F04C003C803D003DA03E403EE03DD
:10012000FD0307042F0411041B0425040000210013
:10013000240027002A002D003000330001010000B8
:10014000040107010A0100002200250028002B00FD
:100150002E003100340002010000050108010B01EE
:10016000000020002300260029002C002F00320070
:100170000001000003010601090105050505070549
:1001800008080808020202020A0A08080404040413
:10019000010101010101010103030303030303033F
:1001A000040707070C0C0C0C0C0C0C0C02020202CE
:1001B00006060606060606060B0B0B0B0B0B0B0BB7
:1001C0000102102020080810204010204080020169
:1001D000020108040201010204081020408080404E
:1001E000201008040201800402018040201008044D
:1001F00002010804020101020408102040800102EB
:1002000004081020408000000A0B02090C0D0E08A3
:1002100007030401000000000000000000000000CF
:1002200000000000000000000000000000000000CE
:10023000000012111000000000000000000000008B
:10024000000000000000000000000000E10E670D4B
:1002500011241FBECFEFD1E2DEBFCDBF00E00CBF47
:1002600013E0A0E0B2E0EEE4F8E200E00BBF02C071
:1002700007900D92AA3EB107D9F725E0AAEEB3E0A8
:1002800001C01D92A838B207E1F711E0C7E2D1E042
:1002900000E006C021970109802FFE010E94E511B0
:1002A000C632D10780E00807A9F70E94850D0C949B
:1002B0001614A6CEFC01538D448D252F30E0842FDB
:1002C00090E0821B930B541710F0CF96089501977E
:1002D0000895FC01918D828D981761F0828DDF0168
:1002E000A80FB11D5D968C91928D9F5F9F73928F29
:1002F00090E008958FEF9FEF0895FC01918D828D1E
:10030000981731F0828DE80FF11D858D90E00895EA
:100310008FEF9FEF0895FC01918D228D892F90E042
:10032000805C9F4F821B91098F739927089580E00D
:1003300090E0892B21F00E94400B811125C080E0C4
:1003400090E0892B41F080E090E0892B21F00E9421
:10035000000081111CC080E090E0892B41F080E01A
:1003600090E0892B21F00E940000811113C080E0F1
:1003700090E0892BA1F080E090E0892B81F00E9431
:10038000000081110AC008950E940000D8CF0E9489
:100390000000E1CF0E940000EACF0C940000089515
:1003A00090E0FC013197E231F10508F04EC088275A
:1003B000EE58FF4F8F4F0C94E511809180008F779E
:1003C00003C0809180008F7D80938000089580918C
:1003D0008000877FF9CF84B58F7702C084B58F7D89
:1003E00084BD08958091B0008F7703C08091B000E4
:1003F0008F7D8093B0000895809190008F7707C023
:10040000809190008F7D03C080919000877F8093C2
:10041000900008958091A0008F7707C08091A00080
:100420008F7D03C08091A000877F8093A0000895F6
:10043000809120018F7707C0809120018F7D03C0BC
:1004400080912001877F8093200108951F93CF938F
:10045000DF93282F30E0F901EA5FFD4F8491F90125
:10046000E054FE4FD491F901E658FE4FC491CC23DD
:10047000B9F0162F811194DFEC2FF0E0EE0FFF1F83
:10048000EA5BFE4FA591B4919FB7F894111104C097
:100490008C91D095D82302C0EC91DE2BDC939FBFCA
:1004A000DF91CF911F910895089508952091EE0353
:1004B0003091EF0380911F05909120052230310586
:1004C0001CF062E370E002C06AE070E00C94680C1B
:1004D000EDCFECCF6CE370E080911F05909120058B
:1004E0000C94680CFC01848DDF01A80FB11DA35A88
:1004F000BF4F2C91848D90E001968F739927848F44
:10050000A689B7892C93A089B1898C918370806466
:100510008C93938D848D981306C00288F389E02D07
:1005200080818F7D80830895EF92FF920F931F93B8
:10053000CF93DF93EC0181E0888F9B8D8C8D981396
:1005400005C0E889F989808185FD25C0F62E0B8DCF
:1005500010E00F5F1F4F0F731127E02E8C8DE812F4
:100560000BC00FB607FCFACFE889F989808185FFB7
:10057000F5CFCE01B7DFF2CF8B8DFE01E80FF11D75
:10058000E35AFF4FF0829FB7F8940B8FEA89FB89FB
:10059000808180620AC09FB7F894EE89FF896083EA
:1005A000E889F98980818370806480839FBF81E0BE
:1005B00090E0DF91CF911F910F91FF90EF90089500
:1005C000CF93DF93EC01888D8823C1F0EA89FB8902
:1005D000808185FD05C0A889B9898C9186FD0EC0F2
:1005E0000FB607FCF5CF808185FFF2CFA889B989C6
:1005F0008C9185FFEDCFCE0175DFE8CFDF91CF91F4
:100600000895CF93DF93282F30E0F901EA5FFD4F83
:100610008491F901E054FE4FD491F901E658FE4F60
:10062000C491CC2389F08111BBDEEC2FF0E0EE0FFA
:10063000FF1FE05AFE4FA591B491EC91ED2381E0AC
:1006400090E021F480E002C080E090E0DF91CF9163
:100650000895CF93DF9390E0FC01E054FE4F249186
:10066000FC01E658FE4F8491882361F190E0880FE9
:10067000991FFC01E45DFE4FC591D491FC01EA5B3A
:10068000FE4FA591B491611109C09FB7F89488817C
:10069000209582238883EC912E230BC0623061F475
:1006A0009FB7F8948881322F309583238883EC910B
:1006B0002E2B2C939FBF06C08FB7F894E8812E2B6A
:1006C00028838FBFDF91CF9108950F931F93CF930E
:1006D000DF93FC0177FF02C060E070E0EB016F3F49
:1006E000710519F014F0CFEFD0E0D587C487D38718
:1006F000C2870681178161E0802FABDF209709F464
:10070000B1C0CF3FD10509F4AFC0F801FF27EA5FC0
:10071000FD4FE4918E2F90E0FC013197E231F1051D
:1007200008F09DC08827EC57FF4F8F4F0C94E511C0
:1007300084B5806884BDC7BD9EC084B5806284BD19
:10074000C8BD99C080918000806880938000D0935C
:100750008900C09388008FC0809180008062809360
:100760008000D0938B00C0938A0085C08091800068
:10077000886080938000D0938D00C0938C007BC0F4
:100780008091B00080688093B000C093B30073C0C4
:100790008091B00080628093B000C093B4006BC0C1
:1007A00080919000806880939000D0939900C093CE
:1007B000980061C080919000806280939000D093F7
:1007C0009B00C0939A0057C08091900088608093EE
:1007D0009000D0939D00C0939C004DC08091A000DC
:1007E00080688093A0008091A0008F7B8093A00000
:1007F000D093A900C093A8003EC08091A000806261
:100800008093A000D093AB00C093AA0034C0809125
:10081000A00088608093A000D093AD00C093AC008E
:100820002AC080912001806880932001D093290103
:10083000C093280120C08091200180628093200114
:10084000D0932B01C0932A0116C0809120018860AB
:1008500080932001D0932D01C0932C010CC0C0388F
:10086000D10514F460E001C061E0802FDF91CF91E9
:100870001F910F91EBCDDF91CF911F910F910895B3
:100880003FB7F8948091FC039091FD03A091FE0383
:10089000B091FF0326B5A89B05C02F3F19F0019624
:1008A000A11DB11D3FBFBA2FA92F982F8827820FF6
:1008B000911DA11DB11DBC01CD0142E0660F771F46
:1008C000881F991F4A95D1F708952FB7F894609122
:1008D000F8037091F9038091FA039091FB032FBF05
:1008E0000895E0911F05F091200581E083838283C4
:1008F000ECDF2091EA033091EB03AB01421B530B79
:100900009A01293E334058F42091EE033091EF03D1
:100910002F5F3F4F3093EF032093EE0304C01092FC
:10092000EF031092EE03DC01CB01AA27BB278093D3
:10093000EA039093EB03A093EC03B093ED0369E615
:1009400072E080911F05909120057FC71F920F9242
:100950000FB60F9211242F933F938F939F93AF93D2
:10096000BF938091F8039091F903A091FA03B0919D
:10097000FB033091F70323E0230F2D3720F401967A
:10098000A11DB11D05C026E8230F0296A11DB11DB2
:100990002093F7038093F8039093F903A093FA034D
:1009A000B093FB038091FC039091FD03A091FE03A3
:1009B000B091FF030196A11DB11D8093FC0390939C
:1009C000FD03A093FE03B093FF03BF91AF919F91EE
:1009D0008F913F912F910F900FBE0F901F90189500
:1009E0001F920F920FB60F9211240BB60F922F93F6
:1009F0003F934F935F936F937F938F939F93AF93A7
:100A0000BF93EF93FF93E0910E02F0910F021995BF
:100A1000FF91EF91BF91AF919F918F917F916F91D6
:100A20005F914F913F912F910F900BBE0F900FBE92
:100A30000F901F9018951F920F920FB60F921124CE
:100A40000BB60F922F933F934F935F936F937F93C8
:100A50008F939F93AF93BF93EF93FF93E0910C021B
:100A6000F0910D021995FF91EF91BF91AF919F9178
:100A70008F917F916F915F914F913F912F910F9047
:100A80000BBE0F900FBE0F901F9018951F920F92E4
:100A90000FB60F9211240BB60F922F933F934F93E3
:100AA0005F936F937F938F939F93AF93BF93EF93D6
:100AB000FF93E0910202F09103021995FF91EF91EB
:100AC000BF91AF919F918F917F916F915F914F9166
:100AD0003F912F910F900BBE0F900FBE0F901F9064
:100AE00018951F920F920FB60F9211240BB60F920A
:100AF0002F933F934F935F936F937F938F939F9326
:100B0000AF93BF93EF93FF93E0910002F091010246
:100B10001995FF91EF91BF91AF919F918F917F9127
:100B20006F915F914F913F912F910F900BBE0F905E
:100B30000FBE0F901F9018951F920F920FB60F9235
:100B400011240BB60F922F933F934F935F936F93A4
:100B50007F938F939F93AF93BF93EF93FF93E09116
:100B60000A02F0910B021995FF91EF91BF91AF919D
:100B70009F918F917F916F915F914F913F912F91B5
:100B80000F900BBE0F900FBE0F901F9018951F92E5
:100B90000F920FB60F9211240BB60F922F933F9323
:100BA0004F935F936F937F938F939F93AF93BF9375
:100BB000EF93FF93E0910802F09109021995FF91DC
:100BC000EF91BF91AF919F918F917F916F915F91C5
:100BD0004F913F912F910F900BBE0F900FBE0F9032
:100BE0001F9018951F920F920FB60F9211240BB6FB
:100BF0000F922F933F934F935F936F937F938F93B6
:100C00009F93AF93BF93EF93FF93E0910602F09110
:100C100007021995FF91EF91BF91AF919F918F912D
:100C20007F916F915F914F913F912F910F900BBEEC
:100C30000F900FBE0F901F9018951F920F920FB636
:100C40000F9211240BB60F922F933F934F935F9304
:100C50006F937F938F939F93AF93BF93EF93FF9384
:100C6000E0910402F09105021995FF91EF91BF9177
:100C7000AF919F918F917F916F915F914F913F9134
:100C80002F910F900BBE0F900FBE0F901F901895D5
:100C9000CF93DF93EC0161E08A81D8DB60E08C8147
:100CA000D5DB82E090E099878887DF91CF91089526
:100CB000CF93DF93EC0160E08A81C8DB61E08C8137
:100CC000C5DB81E090E099878887DF91CF91089517
:100CD0000F931F93CF93DF93EC018B017B876A8780
:100CE00088819981F2DCB8018A819B81EEDCFE016A
:100CF000E05CFF4F80819181019761F4B8018C81A4
:100D00009D81E3DCB8018E819F81DF91CF911F919E
:100D10000F91DBCCDF91CF911F910F9108951F921E
:100D20000F920FB60F9211240BB60F922F933F9391
:100D30004F935F936F937F938F939F93AF93BF93E3
:100D4000EF93FF938091F5039091F6038093B200A7
:100D50008091F1039091F203A091F303B091F40319
:100D60000196A11DB11D8093F1039093F203A0930E
:100D7000F303B093F4038091F1039091F203A091F7
:100D8000F303B091F4038091F003811118C081E066
:100D90008093F0038091F1039091F203A091F3030B
:100DA000B091F4038093F1039093F203A093F303C3
:100DB000B093F403E0E0F0E019951092F003FF9196
:100DC000EF91BF91AF919F918F917F916F915F91C3
:100DD0004F913F912F910F900BBE0F900FBE0F9030
:100DE0001F9018950F931F93CF93DF9300D000D0DF
:100DF000CDB7DEB78C01FC01138E128E158E148ECA
:100E0000168E118E108E6CE272E0CE01019609D51D
:100E1000CE0101963FD4CE010196FFD4F80112A273
:100E200011A214A213A215A210A2178E60E472E000
:100E3000CE010196F6D4CE0101962CD4CE010196B6
:100E4000ECD426960FB6F894DEBF0FBECDBFDF916F
:100E5000CF911F910F910895CF93DF9300D000D0D1
:100E6000CDB7DEB7FC0172A361A354A343A381E015
:100E700085A365E572E0CE010196D3D4CE0101963B
:100E800009D4CE010196C9D426960FB6F894DEBFD8
:100E90000FBECDBFDF91CF910895CF92DF92EF9239
:100EA000FF920F931F93CF93DF93EC017B016A01B5
:100EB0008C01045F1F4FC80195DFA601B701C8016F
:100EC000CBDF81E090E09987888788819981F0DE87
:100ED0008A819B81EDDEFE01E05CFF4F8081918184
:100EE000019731F48C819D81E3DE8E819F81E0DE6C
:100EF0006A857B85CE01DF91CF911F910F91FF9085
:100F0000EF90DF90CF90E4CE0F931F93CF93DF93BA
:100F100000D000D0CDB7DEB7009121051091220599
:100F2000D80195968C919597882309F444C05F96D3
:100F30008D919C919097019690969C938E935F973C
:100F400062E370E00E94D211892B91F467E672E0AF
:100F5000CE01019666D4CE0101969CD3CE010196B6
:100F60005CD4F801878D90A1A4D380E094E028DBC5
:100F7000D8015F962D913C91909791968D919C917F
:100F8000929728173907B9F49396ED91FC919497AD
:100F900080E090E01995F801878D90A18AD3D8015F
:100FA00094961C921E92939795961C929597909664
:100FB0001C921E925F97F801828193810196938320
:100FC000828382A993A9019693AB82AB26960FB632
:100FD000F894DEBF0FBECDBFDF91CF911F910F916F
:100FE00008950F931F93CF93DF9300D000D0CDB718
:100FF000DEB70091210510912205D8015E968C91F3
:101000005E97882309F44CC058968D919C9159970E
:10101000019659969C938E93589762E370E00E94D4
:10102000D211892B91F46EE772E0CE010196F9D3CB
:10103000CE0101962FD3CE010196EFD3F801808D1A
:10104000918D37D380E094E0BBDAD80158962D918A
:101050003C9159975A968D919C915B972817390727
:10106000F9F45C968D919C915D97892BC9F064E9A8
:1010700072E0CE010196D5D3CE0101960BD3CE01FD
:101080000196CBD3D8015C96ED91FC915D9780E001
:1010900090E01995F801158E148E168E118E108E13
:1010A000D8018D919C911197019611969C938E93E6
:1010B000D0968D919C91D1970196D1969C938E93C9
:1010C000D09726960FB6F894DEBF0FBECDBFDF9146
:1010D000CF911F910F910895CF92DF92EF92FF92DF
:1010E0000F931F93CF93DF9300D000D0CDB7DEB71F
:1010F000FC01208531852230310591F17A016B01A7
:101100008C010C966FDEF801D7A2C6A2F1A6E0A66C
:1011100081E082A76FEA72E0CE01019682D3CE0110
:101120000196B8D2CE01019678D382E090E0F80122
:101130009187808780819181ABDDF80182819381E5
:10114000A7DDF801E05CFF4F80819181019741F4B8
:10115000F801848195819CDDF8018681978198DD75
:1011600026960FB6F894DEBF0FBECDBFDF91CF91AC
:101170001F910F91FF90EF90DF90CF9008950F9304
:101180001F93CF93DF93CDB7DEB72C970FB6F894AC
:10119000DEBF0FBECDBF60EC72E0CE01019641D341
:1011A000CE01019677D2CE01019637D300911F056B
:1011B00010912005F80180819181FC012085318505
:1011C0002230310509F14FE059E068EC70E084DF2E
:1011D00065E973E0CE01079624D31A8219821C8236
:1011E0001B821E821D82BE01695F7F4FCE01019668
:1011F000D7D2BE016F5F7F4FC801F1D2CE010196F9
:101200000CD3CE01079609D32C960FB6F894DEBF07
:101210000FBECDBFDF91CF911F910F910895CF9356
:10122000DF9300D000D0CDB7DEB763ED72E0CE0122
:101230000196F7D2CE0101962DD2CE010196EDD2C4
:10124000E0911F05F091200581E0838326960FB67B
:10125000F894DEBF0FBECDBFDF91CF910895CF933D
:10126000DF9300D000D0CDB7DEB76EED72E0CE01D7
:101270000196D7D2CE0101960DD2CE010196CDD2E4
:10128000E0911F05F091200581E0838382831DDBBF
:101290002091EA033091EB03AB01421B530B9A01FF
:1012A000293E334058F42091EE033091EF032F5F35
:1012B0003F4F3093EF032093EE0304C01092EF03EF
:1012C0001092EE03DC01CB01AA27BB278093EA032F
:1012D0009093EB03A093EC03B093ED0368E672E008
:1012E00080911F0590912005B0D226960FB6F894F4
:1012F000DEBF0FBECDBFDF91CF910895CF93DF93B7
:1013000000D000D0CDB7DEB762EF72E0CE0101961B
:1013100088D2CE010196BED1CE0101967ED2E09157
:101320001F05F091200581E08383828346EA59E01E
:101330006EE571E080819181CFDE26960FB6F8943C
:10134000DEBF0FBECDBFDF91CF910895CF92DF9268
:10135000EF92FF920F931F93CF93DF93CDB7DEB73A
:101360002C970FB6F894DEBF0FBECDBF69E073E0D7
:10137000CE01019656D2CE0101968CD1CE010196B6
:101380004CD2C0901F05D0902005F601008111813C
:10139000F801808591858530910509F461C0079732
:1013A00009F442C07801FCE0EF0EF11CC7011ADD20
:1013B00087E090E0F8019187808747E75AE06CE387
:1013C00070E0C70149DDF8018081918161DCF8019D
:1013D000828193816DDCF801E05CFF4F8081918117
:1013E000019791F4F8018481958162DCF801E6802F
:1013F000F78060E0F701828129D860E0F7018481FD
:1014000025D8F70111861086F80162857385C80119
:101410005FDC66E273E0CE01019603D2CE01019655
:1014200039D1CE010196F9D16CE673E0CE01079671
:10143000F8D11A8219821C821B821E821D82BE0173
:10144000695F7F4FCE010196ABD1BE016F5F7F4FC9
:10145000C601C5D1CE010196E0D1CE010796DDD1FE
:101460002C960FB6F894DEBF0FBECDBFDF91CF91A3
:101470001F910F91FF90EF90DF90CF900895CF9341
:10148000DF9300D000D0CDB7DEB767E373E0CE01C5
:101490000196C7D1CE010196FDD0CE010196BDD1F6
:1014A000E0911F05F091200581E08383828384E32E
:1014B000A8D884E3A6D880E3A4D88EE2A2D884E397
:1014C000A0D882E39ED8E0911F05F09120054AE65E
:1014D00052E06EE571E080819181FEDD26960FB6C7
:1014E000F894DEBF0FBECDBFDF91CF910895CF93AB
:1014F000DF9300D000D0CDB7DEB76EE473E0CE014D
:1015000001968FD1CE010196C5D0CE01019685D12D
:10151000E0911F05F0912005128281E083832696D9
:101520000FB6F894DEBF0FBECDBFDF91CF91089507
:10153000E0E0F4E0A089B18982E08C93A485B585D0
:101540001C92A685B78580E18C93108EA489B589FD
:1015500086E08C93A289B3898C9180618C93A28957
:10156000B3898C9188608C93A289B3898C918068AF
:101570008C930288F389E02D80818F7D808308958C
:10158000CF92DF92EF92FF920F931F93CF93DF934F
:101590006C017A018B01C0E0D0E0CE15DF0581F04F
:1015A000D8016D918D01D601ED91FC910190F081F2
:1015B000E02DC6011995892B11F02196EECF7E0101
:1015C000C701DF91CF911F910F91FF90EF90DF90B6
:1015D000CF900895089580E090E00895009761F01D
:1015E000FC0101900020E9F73197AF01481B590B2E
:1015F000BC0180E094E0C4CF80E090E008950E94B8
:101600000214EF92FF920F931F93CF93DF93EC019D
:101610007B018A0188819981009729F02A813B8189
:1016200024173507F0F4B8016F5F7F4F0E94221333
:10163000009759F0998388831B830A832C813D810D
:10164000232B79F4FC0110820CC0888199810097CA
:1016500009F06FD7198218821D821C821B821A82A0
:1016600007C01D830C83B701888199810E940F14E4
:10167000CE01DF91CF911F910F91FF90EF900895D0
:1016800080E094E00E948B0121E0892B09F420E0A6
:10169000822F0895FC01448155816081718180E031
:1016A00094E06EDF8CE593E099DF80E094E00C94A9
:1016B000E0028F929F92AF92BF92CF92DF92EF9211
:1016C000FF920F931F93CF93DF93CDB7DEB7A19710
:1016D0000FB6F894DEBF0FBECDBF6C01990FEE08B8
:1016E000FF08F7FE29C06DE280E094E00E949402BA
:1016F0008C0122273327A9012C193D094E095F09C6
:1017000019A2CE0181967C019AE0892E912CA12C00
:10171000B12CCA01B901A5019401E7D5605DF701BB
:1017200062937F01211531054105510591F7CF01E4
:1017300055DF080F191F1CC0A701960119A28E01C1
:101740000F5D1F4F8AE0C82ED12CE12CF12CCA016D
:10175000B901A7019601C9D5605DF80162938F01B7
:10176000211531054105510591F7CF0137DF8C0176
:101770008CE593E033DF800F911FA1960FB6F894AC
:10178000DEBF0FBECDBFDF91CF911F910F91FF90B4
:10179000EF90DF90CF90BF90AF909F908F90089583
:1017A000CF93DF93EC01FB0186179707A1F06081CF
:1017B00071816115710521F04481558122DF0BC0D3
:1017C00088819981009709F0B4D6198218821D8208
:1017D0001C821B821A82CE01DF91CF910895FC01F9
:1017E000E45AFD4F208131812336310521F42FEF5A
:1017F0003FEF31832083208131812F5F3F4F318341
:101800002083E6E0E29FA001E39F500D11249A019E
:101810002C5F3F4F820F931FC3CFFC0180819181CA
:1018200088C6FC01118210821382128215821482F2
:101830006115710549F0FB0101900020E9F731972E
:10184000AF01461B570BDDCE08950F931F93CF9327
:10185000DF93CDB7DEB72C970FB6F894DEBF0FBE7F
:10186000CDBFFC0180819181DC0118962D913C91C6
:1018700019972130310509F1AB018F0168EC70E057
:101880000CDB67E274E0CE010796CBDF1A82198287
:101890001C821B821E821D82BE01695F7F4FCE01AA
:1018A00001967EDFBE016F5F7F4FC80198DFCE01DA
:1018B0000196B3DFCE010796B0DF2C960FB6F894F1
:1018C000DEBF0FBECDBFDF91CF911F910F91089565
:1018D000AF92BF92CF92DF92EF92FF920F931F933E
:1018E000CF93DF93CDB7DEB72C970FB6F894DEBF5A
:1018F0000FBECDBFFC0100811181F801208531852B
:101900002430310509F44EC07B016C0128303105CB
:1019100061F15801FCE0AF0EB11CC50163DA88E04B
:1019200090E0F8019187808747E75AE0B701C50149
:1019300093DAF80180819181BBD9F801828193818A
:10194000A7D9F801E05CFF4F80819181019741F4B4
:10195000F80184819581ACD9F8018681978198D965
:10196000F80162857385C801B3D9B70168597C4F06
:10197000CE01079656DF1A8219821C821B821E82B4
:101980001D82BE01695F7F4FCE01019609DFBE0156
:101990006F5F7F4FC60123DFCE0101963EDFCE0190
:1019A00007963BDF2C960FB6F894DEBF0FBECDBF77
:1019B000DF91CF911F910F91FF90EF90DF90CF902B
:1019C000BF90AF9008951F920F920FB60F921124FF
:1019D0000BB60F922F933F934F935F936F937F9329
:1019E0008F939F93AF93BF93EF93FF9380E094E027
:1019F0000E947202FF91EF91BF91AF919F918F91E1
:101A00007F916F915F914F913F912F910F900BBEFE
:101A10000F900FBE0F901F9018951F920F920FB648
:101A20000F9211240BB60F922F938F939F93EF93E6
:101A3000FF93E0911004F09111048081E09116046D
:101A4000F091170482FD12C09081809119048F5F7C
:101A50008F7320911A04821751F0E0911904F0E07D
:101A6000E050FC4F958F8093190401C08081FF9155
:101A7000EF919F918F912F910F900BBE0F900FBE02
:101A80000F901F9018951F93CF93DF93FC01D62FD3
:101A9000C42F122F62837383448355832683378335
:101AA00061E08D2F0E94290361E08C2F0E942903A1
:101AB00061E0812F0E94290360E08D2F0E942602A1
:101AC00060E08C2FDF91CF911F910C94260283EE62
:101AD00094E0A3DE89EE94E0A0DE8FEE94E09DDE3C
:101AE00085EF94E09ADE8BEF94E097DE81E095E05D
:101AF00094DE87E095E091DE8DE095E08EDE83E177
:101B000095E08BDE89E195E088CECF93DF9300D01E
:101B100000D0CDB7DEB7789484B5826084BD84B53B
:101B2000816084BD85B5826085BD85B5816085BDD8
:101B300080916E00816080936E0010928100809190
:101B40008100826080938100809181008160809318
:101B50008100809180008160809380008091B1003D
:101B600084608093B1008091B00081608093B00068
:101B700080919100826080939100809191008160BA
:101B8000809391008091900081608093900080917B
:101B9000A10082608093A1008091A1008160809368
:101BA000A1008091A00081608093A000809121011C
:101BB00082608093210180912101816080932101C5
:101BC0008091200181608093200180917A0084605F
:101BD00080937A0080917A00826080937A0080916D
:101BE0007A00816080937A0080917A008068809387
:101BF0007A001092C1001092DF041092E00410925B
:101C0000E1041092E20410929F041092A00410923A
:101C1000A1041092A2040E9465046B017C014B0197
:101C20005C0128EB820E2BE0921EA11CB11C0E94CD
:101C300065046C157D058E059F0528F086169706B0
:101C4000A806B906A0F70E9440044B015C0188EE8B
:101C5000C82E83E0D82EE12CF12C0E944004DC0138
:101C6000CB0188199909AA09BB09883E9340A105AF
:101C7000B10598F381E0C81AD108E108F108E8EE4F
:101C80008E0EE3E09E1EA11CB11CC114D104E10420
:101C9000F10419F74DDC0E94650460939F04709372
:101CA000A0048093A1049093A2048EE693E096DCB6
:101CB0000E9465046B017C014B015C012AE0820EED
:101CC000911CA11CB11C0E9465046C157D058E053C
:101CD0009F0528F086169706A806B906A0F781E0AA
:101CE0008093B30425DC8091A100887F8560809378
:101CF000A1006FE773E0CE01019693DDCE0101965E
:101D0000C9DCCE01019689DD62E370E085E295E0F1
:101D10000E94680680917B00877F80937B0080E42F
:101D200080937C0080917A00806480937A00809117
:101D30007A0086FDFCCF609178008091790070E098
:101D4000782B072E000C880B990B61157105810506
:101D5000910509F0C1D284E30E94010384E30E944B
:101D600001038CE20E9401038AE20E940103E091D8
:101D70001F05F09120058281811120C08381882375
:101D8000E9F066E973E0CE0101964BDDCE010196E4
:101D900081DCCE01019641DDE0911F05F091200527
:101DA000138280819181FC012085318521303105AC
:101DB00029F04FEB58E060E971E06FD80E9497017D
:101DC000CACFEF92FF920F931F93CF93DF9310929E
:101DD00003041092020488EE93E0A0E0B0E0809348
:101DE000040490930504A0930604B09307048EE1C5
:101DF00092E0909301048093000485EC90E090932E
:101E00000D0480930C0484EC90E090930F04809375
:101E10000E0480EC90E0909311048093100481EC08
:101E200090E0909313048093120482EC90E09093DE
:101E300015048093140486EC90E09093170480932B
:101E400016041092190410921A0410921B04109296
:101E50001C041092A3041092A4041092A5041092E2
:101E6000A6041092A7041092A8041092A90410923C
:101E7000AA041092AB041092AC041092AD0410921C
:101E8000AE041092AF041092B0041092B1041092FC
:101E9000B20460EA73E089E195E0C3DC68EA73E0CC
:101EA00083E195E0BEDC62EB73E08DE095E0B9DCA8
:101EB0006AEB73E087E095E0B4DC6FEB73E081E000
:101EC00095E0AFDC6AEC73E08BEF94E0AADC60EDA8
:101ED00073E085EF94E0A5DC6CED73E08FEE94E0A9
:101EE000A0DC6AEA72E089EE94E09BDC64EE73E0C9
:101EF00083EE94E096DC06E715E0109277051092E9
:101F0000760510927F0510927E0510928105109241
:101F10008005109283051092820526E030E040E2B1
:101F200050E06EE170E0C801AEDDC8E6D5E0109289
:101F30006905109268051092710510927005109253
:101F4000730510927205109275051092740527E0C2
:101F500030E04AE150E06CE170E0CE0194DD109297
:101F60002E0510922D051092300510922F0510921B
:101F700032051092310510923405109233051092FB
:101F800035051092360510923705109238051092DB
:101F9000390510923A0510923B0510923C051092BB
:101FA0003D0510923E0510923F051092400510929B
:101FB000410510924205109243051092440510927B
:101FC000450510924605109247051092480510925B
:101FD0004A051092490510925E0510925D05109217
:101FE000600510925F0510926205109261051092D3
:101FF00064051092630510926705D0932605C0937F
:102000002505109328050093270582E090E0909322
:1020100066058093650581E395E0909322058093A2
:10202000210510935C0500935B05D0935A05C0937E
:10203000590581EF97E0909301028093000280910F
:102040006A008C7F826080936A00EC9A84E897E053
:10205000909303028093020280916A00837F8860DC
:1020600080936A00ED9A85E592E0909358058093FD
:10207000570580E692E0C5D1EC011A821B828C01E3
:102080000C5F1F4F7C0184EAE81A8DEFF80A6EE5B9
:1020900073E0C801C6DB0A5F1F4F0E151F05B9F7B5
:1020A0008FEF9FEFF80191838083FE01E25AFD4F8D
:1020B0001182108285E295E099838883D093200570
:1020C000C0931F0560E082E20E94290360E084E281
:1020D0000E94290360E086E20E94290360E088E212
:1020E0000E94290360E08AE20E94290360E08CE2FA
:1020F0000E94290360E08EE20E94290360E080E3F1
:102100000E94290360E082E30E94290360E084E3E7
:102110000E94290362E085E10E94290362E084E1D4
:102120000E94290362E082E10E94290362E083E1C8
:102130000E94290381E794E09093050280930402B2
:10214000809169008C7F826080936900E89A8FE2B9
:1021500099E0909307028093060280916900837F43
:10216000886080936900E99A8EE799E090930B026A
:1021700080930A02809169008F7380688093690060
:10218000EB9A8FE39AE09093090280930802809182
:1021900069008F7C806280936900EA9A109224051E
:1021A00010922305DF91CF911F910F91FF90EF9037
:1021B00008958F929F92AF92BF92CF92DF92EF924B
:1021C000FF92CF93DF93EC01688179818A819B81B3
:1021D000611571058105910521F464E279ED8BE5C6
:1021E00097E02DE133EF41E050E0A1D049015A01E1
:1021F0009B01AC01A7EAB1E4B6D06B017C01ACEE67
:10220000B4EFA5019401BBD0DC01CB018C0D9D1D69
:10221000AE1DBF1DB7FF03C00197A109B048888359
:102220009983AA83BB83BC01CD019F77DF91CF91B6
:10223000FF90EF90DF90CF90BF90AF909F908F90E6
:1022400008958F929F92AF92BF92CF92DF92EF92BA
:10225000FF92609110027091110280911202909190
:102260001302611571058105910521F464E279ED90
:102270008BE597E02DE133EF41E050E058D0490184
:102280005A019B01AC01A7EAB1E46DD06B017C015E
:10229000ACEEB4EFA501940172D0DC01CB018C0D42
:1022A0009D1DAE1DBF1DB7FF03C00197A109B0481A
:1022B0008093100290931102A0931202B093130224
:1022C000BC01CD019F77FF90EF90DF90CF90BF9042
:1022D000AF909F908F9008956093100270931102B9
:1022E00080931202909313020895A1E21A2EAA1B62
:1022F000BB1BFD010DC0AA1FBB1FEE1FFF1FA217B6
:10230000B307E407F50720F0A21BB30BE40BF50BB2
:10231000661F771F881F991F1A9469F7609570953B
:10232000809590959B01AC01BD01CF010895052ECC
:1023300097FB16F400940FD057FD05D0D6DF07FCAD
:1023400002D046F408C050954095309521953F4FF6
:102350004F4F5F4F089590958095709561957F4F91
:102360008F4F9F4F08950FD0A59F900DB49F900D54
:10237000A49F800D911D11240895B7FFF4CFF3DFC2
:10238000821B930B0895A29FB001B39FC001A39F2E
:10239000700D811D1124911DB29F700D811D11249E
:1023A000911D089597FB072E16F4009406D077FD33
:1023B00008D013D007FC05D03EF4909581959F4F2F
:1023C0000895709561957F4F0895EE0FFF1F881F48
:1023D0008BBF0790F691E02D1994AA1BBB1B51E10E
:1023E00007C0AA1FBB1FA617B70710F0A61BB70B85
:1023F000881F991F5A95A9F780959095BC01CD012A
:1024000008950F931F93CF93DF938230910510F4BB
:1024100082E090E0E0918605F091870520E030E0D1
:10242000A0E0B0E0309719F1408151810281138121
:1024300048175907C8F08417950769F4109731F0C9
:1024400012960C93129713961C9327C0009386053F
:102450001093870522C02115310519F04217530743
:1024600018F49A01BD01EF01DF01F801DBCF21155E
:102470003105F9F0281B390B2430310580F48A81AD
:102480009B816115710521F0FB019383828304C058
:102490009093870580938605FE01329644C0FE0125
:1024A000E20FF31F819391932250310939832883DE
:1024B0003AC02091840530918505232B41F4209169
:1024C00016023091170230938505209384052091E0
:1024D0001402309115022115310541F42DB73EB794
:1024E0004091180250911902241B350BE09184058C
:1024F000F0918505E217F307A0F42E1B3F0B281778
:10250000390778F0AC014E5F5F4F2417350748F06C
:102510004E0F5F1F509385054093840581939193DF
:1025200002C0E0E0F0E0CF01DF91CF911F910F9169
:102530000895CF93DF93009709F481C0FC0132978F
:1025400013821282A0918605B0918705109781F4BD
:1025500020813181820F931F209184053091850560
:102560002817390751F5F0938505E093840567C076
:10257000ED0120E030E0CE17DF0740F44A815B81B7
:102580009E0141155105F1F0EA01F5CFD383C283D5
:1025900040815181840F951FC817D90759F488814C
:1025A0009981840F951F0296918380838A819B81F4
:1025B000938382832115310529F4F0938705E093F5
:1025C00086053DC0E901FB83EA8349915991C40F17
:1025D000D51FEC17FD0761F480819181840F951F51
:1025E0000296E90199838883828193819B838A8300
:1025F000E0E0F0E012968D919C911397009719F00E
:10260000FD01DC01F7CF8D919C9111979D012E5F0B
:102610003F4F820F931F2091840530918505281725
:10262000390769F4309729F41092870510928605CE
:1026300002C013821282B0938505A0938405DF91B6
:10264000CF9108956F927F928F929F92AF92BF9297
:10265000CF92DF92EF92FF920F931F93CF93DF936E
:10266000009781F4CB01DF91CF911F910F91FF90E3
:10267000EF90DF90CF90BF90AF909F908F907F9022
:102680006F90BFCEFC01E60FF71F9C01225031096D
:10269000E217F30708F4A5C0EC01D9010D911C91D4
:1026A000119706171707A8F00530110508F497C011
:1026B000C80104978617970708F491C002501109C2
:1026C000061B170B019311936D937C93CF0131DFA0
:1026D00086C05B01A01AB10A4C01800E911EA09128
:1026E0008605B0918705612C712CE12CF12C109797
:1026F00009F446C08D919C911197A815B905B1F5C3
:102700006C0142E0C40ED11CCA14DB0478F14C0108
:102710008A189B08640142E0C40ED11C1296BC903A
:1027200012971396AC91B5E0CB16D10440F0B2826B
:10273000A38391828082D9016D937C9309C00E5F3F
:102740001F4F800F911FF90191838083EB2DFA2F8A
:10275000E114F10431F0D7011396FC93EE93129734
:102760003EC0F0938705E093860539C06816790668
:1027700008F43C017D0112960D90BC91A02DB7CFBD
:10278000809184059091850588169906E1F4661676
:102790007706C8F48091140290911502009741F4D5
:1027A0008DB79EB74091180250911902841B950B6A
:1027B000E817F907B0F4F0938505E0938405F90173
:1027C000718360830CC0CB011CDE7C01009749F053
:1027D000A801BE011BD0CE01ACDEC70104C0CE01F2
:1027E00002C080E090E0DF91CF911F910F91FF90A8
:1027F000EF90DF90CF90BF90AF909F908F907F90A1
:102800006F90089581E090E0F89410C0FB01DC0126
:1028100002C001900D9241505040D8F70895FB013D
:10282000DC0101900D920020E1F7089511E0C7E26C
:10283000D1E000E005C0802FFE01C7DD2196011D1B
:0E284000C832D10780E00807B1F7F894FFCF47
:10284E0054025402540254025402540254025402CA
:10285E0001000000000088058000000000009402C6
:10286E00C00A5A01E0028B0169017D0172656D6F2C
:10287E0076654C6566745065646F6D65746572003F
:10288E0072656D6F766552696768745065646F6DB9
:10289E00657465720061646452696768745065643A
:1028AE006F6D657465720063757272656E745269D0
:1028BE0067687447726964436F756E743A00637526
:1028CE007272656E744C65667447726964436F7597
:1028DE006E743A006F6E4C6566745065646F6D650C
:1028EE007465723A2063616C6C206261636B006187
:1028FE0064644C656C745065646F6D6574657200CC
:10290E003132333435363637373838380062616312
:10291E006B3A0039393939393939393939006F6EED
:10292E005F6261636B5F72696768745F6372617324
:10293E0068006F6E5F666F72776172645F6C65665A
:10294E00745F637261736820006F6E5F666F72777B
:10295E006172645F6C6566745F6372617368206632
:10296E00696E736869007475726E52696768740077
:10297E0072696768743A006F6E5F666F7277617224
:10298E00645F72696768745F637261736800636223
:10299E002D2D2D2D2D2D2D2D2D2D2D000D0A0066BD
:1029AE006F72776172643A006C6566743A00564DC8
:1029BE004450565F317C315F564D4450560A007775
:1029CE00656C636F6D6520746F20636C65616E203E
:1029DE00726F626F74006B6B6B6B6B6B6B6B6B0000
:1029EE0073706565647570007370656564646F7788
:1029FE006E0073706565646174006C656674007456
:102A0E0075726E6C656674617400726967687400C5
:102A1E007475726E7269676874617400666F72772E
:0A2A2E006172640073746F700000A1
:020000023000CC
:10E000000D9489F10D94B2F10D94B2F10D94B2F129
:10E010000D94B2F10D94B2F10D94B2F10D94B2F1F0
:10E020000D94B2F10D94B2F10D94B2F10D94B2F1E0
:10E030000D94B2F10D94B2F10D94B2F10D94B2F1D0
:10E040000D94B2F10D94B2F10D94B2F10D94B2F1C0
:10E050000D94B2F10D94B2F10D94B2F10D94B2F1B0
:10E060000D94B2F10D94B2F10D94B2F10D94B2F1A0
:10E070000D94B2F10D94B2F10D94B2F10D94B2F190
:10E080000D94B2F10D94B2F10D94B2F10D94B2F180
:10E090000D94B2F10D94B2F10D94B2F10D94B2F170
:10E0A0000D94B2F10D94B2F10D94B2F10D94B2F160
:10E0B0000D94B2F10D94B2F10D94B2F10D94B2F150
:10E0C0000D94B2F10D94B2F10D94B2F10D94B2F140
:10E0D0000D94B2F10D94B2F10D94B2F10D94B2F130
:10E0E0000D94B2F141546D656761323536300041AF
:10E0F000726475696E6F206578706C6F72657220DE
:10E1000073746B3530305632206279204D4C530099
:10E11000426F6F746C6F616465723E004875683F52
:10E1200000436F6D70696C6564206F6E203D200048
:10E130004350552054797065202020203D20005FF9
:10E140005F4156525F415243485F5F3D2000415658
:10E1500052204C696243205665723D20004743437C
:10E160002056657273696F6E203D20004350552024
:10E1700049442020202020203D20004C6F7720663D
:10E18000757365202020203D20004869676820665F
:10E190007573652020203D200045787420667573D6
:10E1A00065202020203D20004C6F636B2066757336
:10E1B000652020203D20004D617220203720323024
:10E1C000313300312E362E3800342E332E350056A2
:10E1D00023202020414444522020206F7020636F70
:10E1E00064652020202020696E73747275637469E1
:10E1F0006F6E2061646472202020496E74657272B3
:10E20000757074006E6F20766563746F7200726A49
:10E210006D702020006A6D70200057686174207056
:10E220006F72743A00506F7274206E6F7420737541
:10E2300070706F72746564004D7573742062652030
:10E2400061206C6574746572002000577269747483
:10E25000696E672045450052656164696E672045B7
:10E26000450045452065727220636E743D00504F35
:10E27000525400303D5A65726F2061646472003FF1
:10E280003D43505520737461747300403D454550C3
:10E29000524F4D207465737400423D426C696E6B41
:10E2A000204C454400453D44756D70204545505215
:10E2B0004F4D00463D44756D7020464C415348001B
:10E2C000483D48656C70004C3D4C69737420492F83
:10E2D0004F20506F72747300513D51756974005234
:10E2E0003D44756D702052414D00563D73686F7707
:10E2F00020696E7465727275707420566563746FF0
:10E30000727300593D506F727420626C696E6B00BD
:10E310002A0011241FBECFEFD1E2DEBFCDBF01E046
:10E320000CBF12E0A0E0B2E0EEE1FDEF03E00BBFB6
:10E3300002C007900D92A030B107D9F712E0A0E01B
:10E34000B2E001C01D92AE30B107E1F70F9460F367
:10E350000D948DFE01E20EBF0FEF0DBF11241FBE05
:10E360000D9460F30D9400F020E030E040ED57E0B4
:10E3700005C0FA013197F1F72F5F3F4F2817390792
:10E38000C0F308959C01260F311DC901A0E0B0E043
:10E390002F5F3F4FABBFFC018791882361F08093D3
:10E3A000C6008091C00086FFFCCF8091C0008064D1
:10E3B0008093C000EACF08958DE08093C6008091DD
:10E3C000C00086FFFCCF8091C00080648093C000B5
:10E3D0008AE08093C6008091C00086FFFCCF8091C8
:10E3E000C00080648093C00008950F94C2F10F9420
:10E3F000DCF10895FC019081992359F09093C600B7
:10E400008091C00086FFFCCF8091C0008064809323
:10E41000C0003196992379F70895282F982F929567
:10E420009F70892F805D8A3308F0895F8093C600D2
:10E430008091C00086FFFCCF8091C00080648093F3
:10E44000C000822F8F70982F905D9A3308F0995FEB
:10E450009093C6008091C00086FFFCCF8091C000E1
:10E4600080648093C00008959C01FB01853691056E
:10E470001CF46330710594F0C90164E670E00F94F8
:10E480002EFE605D7F4F6093C6008091C00086FFC6
:10E49000FCCF8091C00080648093C0002B30310598
:10E4A00014F43297B4F0C90164E670E00F942EFEC4
:10E4B0006AE070E00F942EFE605D7F4F6093C600AF
:10E4C0008091C00086FFFCCF8091C0008064809363
:10E4D000C000C9016AE070E00F942EFEC0968093E0
:10E4E000C6008091C00086FFFCCF8091C000806490
:10E4F0008093C00008951F93182F8EE692EE60E07F
:10E500000F94C2F11093C6008091C00086FFFCCF2B
:10E510008091C00080648093C0000F94DCF11F9153
:10E5200008952F923F924F925F926F927F928F92B7
:10E530009F92AF92BF92CF92DF92EF92FF920F9392
:10E540001F93DF93CF93CDB7DEB762970FB6F894E2
:10E55000DEBF0FBECDBF382E622ECA01DB015C01CB
:10E560006D01772420E2222E2E010894411C511CBB
:10E570008BC081E0A81680E0B80681E0C80680E084
:10E58000D80628F0C601AA27BB270F940DF2BB2797
:10E59000AD2D9C2D8B2D0F940DF28A2D0F940DF225
:10E5A0002092C6008091C00086FFFCCF8091C00001
:10E5B00080648093C0009DE29093C6008091C0006B
:10E5C00086FFFCCF8091C00080648093C0002092C1
:10E5D000C6008091C00086FFFCCF8091C00080649F
:10E5E0008093C00019828601750188249924A1E0D6
:10E5F0003A1651F03A1620F0B2E03B1661F409C029
:10E600000BBFF701779007C0C7010F9477FE782EF4
:10E6100002C0F7017080872D0F940DF22092C60082
:10E620008091C00086FFFCCF8091C0008064809301
:10E63000C000872D8052F401EF70F0708F3520F408
:10E64000E40DF51D708204C0E40DF51D8EE280839B
:10E650000894E11CF11C011D111D0894811C911CE2
:10E6600090E18916910409F0C2CF80E190E0A0E02A
:10E67000B0E0A80EB91ECA1EDB1E198AC2010F9493
:10E68000FAF10F94DCF16A94662009F072CF629679
:10E690000FB6F894DEBF0FBECDBFCF91DF911F91B3
:10E6A0000F91FF90EF90DF90CF90BF90AF909F9031
:10E6B0008F907F906F905F904F903F902F90089534
:10E6C0002F923F924F925F926F927F928F929F9282
:10E6D000AF92BF92CF92DF92EF92FF920F931F9370
:10E6E000DF93CF93CDB7DEB7CD53D1400FB6F894BB
:10E6F000DEBF0FBECDBF01E20EBF0FEF0DBF94B75F
:10E70000F894A89514BE80916000886180936000A1
:10E7100010926000789493FF05C0E0910002F091A0
:10E7200001021995279A2F9A8091C00082608093E8
:10E73000C00080E18093C40088E18093C1000000A4
:10E74000EE24FF24870144E0A42EB12CCC24DD2448
:10E7500024C0C5010197F1F70894E11CF11C011DCB
:10E76000111D21E2E2162EE4F20620E0020720E06D
:10E77000120718F031E0C32ED12CC801B70127ECE5
:10E780003BE140E050E00F9441FE611571058105C9
:10E79000910519F485B1805885B98091C00087FD35
:10E7A00003C0C114D104A9F2A6014F5F5F4FC25E3E
:10E7B000DE4F59834883CE51D140C25EDE4F8881FF
:10E7C0009981CE51D140019711F00D9410FEC05D9A
:10E7D000DE4F19821882C053D14060E0C15DDE4F28
:10E7E0001882CF52D14088249924C35DDE4F19820C
:10E7F0001882CD52D140C05EDE4F188219821A8233
:10E800001B82C052D140CE5CDE4F188219821A8220
:10E810001B82C253D140EE24FF2487010BBFF701B6
:10E8200007911691C45CDE4F19830883CC53D14005
:10E830000D940BFEC25EDE4F28813981CE51D1404E
:10E840002130310509F52091C600C25EDE4F1982E4
:10E850001882CE51D14022C02F5F3F4F4F4F5F4FA4
:10E86000213082E138078AE7480780E0580780F0C6
:10E87000C45CDE4FE881F981CC53D140EF5FFF4F9C
:10E8800019F0EE27FF27099420E030E040E050E047
:10E890008091C00087FFE0CF2091C600C35DDE4FAE
:10E8A00048815981CD52D1404F5F5F4FC35DDE4FEC
:10E8B00059834883CD52D140213209F063C64A3092
:10E8C000510508F05FC60894811C911C53E0851621
:10E8D000910409F059C600E010E018C081E280936D
:10E8E000C6008091C00086FFFCCF8091C00080648C
:10E8F0008093C0002F5F3F4F2931310579F70F9486
:10E90000DCF10F5F1F4F0530110519F020E030E0FA
:10E91000E5CF10920A0210920B0210920C02109294
:10E920000D02109206021092070210920802109235
:10E930000902109202021092030210920402109235
:10E9400005028FEE90EE60E00F94F5F180E191EE1C
:10E9500060E00F94C2F18091C00087FFFCCF9091DE
:10E96000C600903608F09F759032B8F09093C600BC
:10E970008091C00086FFFCCF8091C00080648093AE
:10E98000C000A0E2A093C6008091C00086FFFCCF2B
:10E990008091C00080648093C000983409F4D7C18E
:10E9A0009934B8F4923409F459C1933458F490333B
:10E9B00019F1903308F4E3C59F33A1F1903409F0C5
:10E9C000DEC5BDC0953409F470C1963409F0D7C5D1
:10E9D00098C1923509F42BC2933538F49C3409F46C
:10E9E000F5C1913509F0CBC518C2963509F445C279
:10E9F000993509F0C4C567C483E792EE62E00F94CD
:10EA0000F5F110920602109207021092080210927D
:10EA1000090210920A0210920B0210920C0210923C
:10EA20000D0213C18FE792EE62E00F94F5F18FEEC5
:10EA300090EE60E00F94F5F181E291EE60E00F94CA
:10EA4000C2F187EB91EE60E00F94F5F180E391EE77
:10EA500060E00F94C2F184EE90EE60E00F94F5F167
:10EA60008FE391EE60E00F94C2F186E090E061E008
:10EA700070E00F9434F20F94DCF18DE591EE60E0DC
:10EA80000F94C2F189EC91EE60E00F94F5F18EE401
:10EA900091EE60E00F94C2F183EC91EE60E00F9490
:10EAA000F5F18CE691EE60E00F94C2F18EE10F94E7
:10EAB0000DF288E90F940DF281E00F940DF20F949E
:10EAC000DCF18BE791EE60E00F94C2F119E0E0E039
:10EAD000F0E010935700E4918E2F0F940DF20F94F5
:10EAE000DCF18AE891EE60E00F94C2F1E3E0F0E03F
:10EAF00010935700E4918E2F0F940DF20F94DCF1D8
:10EB000089E991EE60E00F94C2F1E2E0F0E0109349
:10EB10005700E4918E2F0F940DF20F94DCF188EAE8
:10EB200091EE60E00F94C2F1E1E0F0E01093570045
:10EB30001491812F0F940DF20F94DCF107CF8BE825
:10EB400092EE62E00F94F5F18BE492EE60E00F94A8
:10EB5000F5F10F94DCF100E010E019C0C8016F2D51
:10EB60000F947FFEFF2031F489E492EE60E00F9471
:10EB7000C2F10BC0F092C6008091C00086FFFCCFAE
:10EB80008091C00080648093C0000F5F1F4FC80158
:10EB900081519F41A0E0B0E0ABBFFC01F790BAE229
:10EBA000FB1621F0E2E000301E07C1F60F94DCF105
:10EBB0000F94DCF187E592EE60E00F94F5F10F948D
:10EBC000DCF1CC24DD2400E010E01EC0C8010F946D
:10EBD00077FEF82E882331F489E492EE60E00F94FA
:10EBE000C2F10BC08093C6008091C00086FFFCCFAD
:10EBF0008091C00080648093C000FE1419F00894D6
:10EC0000C11CD11C0F5F1F4FC80181519F41A0E063
:10EC1000B0E0ABBFFC01E790FAE2EF1621F022E092
:10EC20000030120799F60F94DCF10F94DCF182E6C4
:10EC300092EE60E00F94C2F1C60161E070E00F94C3
:10EC400034F20F94DCF10F94DCF110920202109276
:10EC50000302109204021092050278CE89E992EE26
:10EC600062E00F94F5F1279A2F9A16C02F9880E052
:10EC700090E0E0EDF7E03197F1F7019684369105E9
:10EC8000C1F72F9A80E090E0E0EDF7E03197F1F7DF
:10EC9000019684369105C1F78091C00087FFE6CFC9
:10ECA0008091C00087FFFCCF64C485EA92EE62E0E9
:10ECB0000F94F5F140910202509103026091040219
:10ECC0007091050281E020E10F9491F2809102029F
:10ECD00090910302A0910402B091050280509F4FD1
:10ECE000AF4FBF4F8093020290930302A0930402A0
:10ECF000B093050280509041A040B04008F426CE69
:10ED0000A4CF83EB92EE62E00F94F5F140910602FE
:10ED100050910702609108027091090280E020E1A1
:10ED20000F9491F28091060290910702A09108023F
:10ED3000B091090280509F4FAF4FBF4F80930602A2
:10ED400090930702A0930802B0930902FFCD80ECD4
:10ED500092EE62E00F94F5F183E792EE60E00F949B
:10ED6000F5F18FE792EE60E00F94F5F18BE892EE0B
:10ED700060E00F94F5F189E992EE60E00F94F5F10F
:10ED800085EA92EE60E00F94F5F183EB92EE60E09D
:10ED90000F94F5F180EC92EE60E00F94F5F187ECC2
:10EDA00092EE60E00F94F5F188ED92EE60E00F9442
:10EDB000F5F18FED92EE60E00F94F5F18AEE92EEB0
:10EDC00060E00F94F5F183E093EEBDCD87EC92EE19
:10EDD00062E00F94F5F181E40F947BF282E40F94EA
:10EDE0007BF283E40F947BF284E40F947BF285E45E
:10EDF0000F947BF286E40F947BF287E40F947BF20E
:10EE000088E40F947BF28AE40F947BF28BE40F94F6
:10EE10007BF28CE40F947BF299CD88ED92EE62E068
:10EE20000F94F5F1772473948824992409C48FED05
:10EE300092EE62E00F94F5F140910A0250910B02BC
:10EE400060910C0270910D0282E020E10F9491F22A
:10EE500080910A0290910B02A0910C02B0910D02D8
:10EE600080509F4FAF4FBF4F80930A0290930B0289
:10EE7000A0930C02B0930D0269CD8AEE92EE62E08F
:10EE80000F94F5F184EE90EE60E00F94F5F18FECC5
:10EE900091EE60E00F94F5F1662477244301CC5D98
:10EEA000DE4F19821882C452D140D401C301B695F5
:10EEB000A79597958795CA5DDE4F88839983AA8326
:10EEC000BB83C652D140CC5DDE4FA881B981C4520C
:10EED000D1401196CC5DDE4FB983A883C452D14096
:10EEE000CD0162E070E00F9434F2B0E2B093C6005E
:10EEF0008091C00086FFFCCF8091C0008064809329
:10EF0000C000EDE2E093C6008091C00086FFFCCF18
:10EF10008091C00080648093C000F0E2F093C6004E
:10EF20008091C00086FFFCCF8091C00080648093F8
:10EF3000C000CA5DDE4FE880F9800A811B81C6529D
:10EF4000D140BB27A12F902F8F2D0F940DF2CA5DBA
:10EF5000DE4F8881C652D1400F940DF2B0E2FB2EF5
:10EF6000F092C6008091C00086FFFCCF8091C00067
:10EF700080648093C0000DE30093C6008091C000C0
:10EF800086FFFCCF8091C00080648093C00010E2B7
:10EF90001093C6008091C00086FFFCCF8091C00016
:10EFA00080648093C0008BBEF3012791C65DDE4F65
:10EFB0002883CA52D140A22EBB24CC24DD2408943D
:10EFC000611C711C811C911C8BBEF3018791282E42
:10EFD0003324442455240894611C711C811C911C09
:10EFE0008BBEF3013791C55DDE4F3883CB52D140E4
:10EFF0000894611C711C811C911C8BBEF30147910C
:10F00000C45DDE4F4883CC52D140ADEFEA2EAFEF66
:10F01000FA2EAFEF0A2FAFEF1A2F6E0C7F1C801E57
:10F02000911E142D032DF22CEE24EA0CFB1C0C1D5A
:10F030001D1D0F940DF220E22093C6008091C000A8
:10F0400086FFFCCF8091C00080648093C000C65DC5
:10F05000DE4F8881CA52D1400F940DF230E23093D6
:10F06000C6008091C00086FFFCCF8091C000806404
:10F070008093C000C45DDE4F8881CC52D1400F9494
:10F080000DF240E24093C6008091C00086FFFCCFA5
:10F090008091C00080648093C000C55DDE4F888190
:10F0A000CB52D1400F940DF250E25093C6008091A4
:10F0B000C00086FFFCCF8091C00080648093C000B8
:10F0C0008FEFE8168FEFF80680E0080780E018075A
:10F0D00031F484E092EE60E00F94C2F1DFC0D80119
:10F0E000C7018070907CA070B0708050904CA040A0
:10F0F000B040D1F52FEF3FE340E050E0E222F322B1
:10F1000004231523CA5DDE4FA880B980CA80DB8046
:10F11000C652D140AE0CBF1CC01ED11EAA0CBB1CD7
:10F12000CC1CDD1C8EE092EE60E00F94C2F1BB2798
:10F13000A12F902F8F2D0F940DF28E2D0F940DF285
:10F1400030E23093C6008091C00086FFFCCF8091F2
:10F15000C00080648093C0004EE34093C60080915D
:10F16000C00086FFFCCF87C08EE09EEFA0E0B0E03D
:10F17000E822F9220A231B239CE0E91694E9F90608
:10F1800090E0090790E0190709F088C0C45DDE4FE0
:10F19000A881CC52D140EA2EFF2400E010E0102FCD
:10F1A0000F2DFE2CEE24C55DDE4FB881CB52D14031
:10F1B000EB0EF11C011D111DD601C501817090706F
:10F1C000A070B070DC0199278827E80EF91E0A1F8D
:10F1D0001B1F20EF30E040E050E0A222B322C42207
:10F1E000D52241E1AA0CBB1CCC1CDD1C4A95D1F7F1
:10F1F000EA0CFB1C0C1D1D1D81E090E0A0E0B0E0BE
:10F20000282239224A225B2235E1220C331C441C7D
:10F21000551C3A95D1F7E20CF31C041D151D57013E
:10F220006801AA0CBB1CCC1CDD1C85E192EE60E0E1
:10F230000F94C2F1C801AA27BB270F940DF2BB2778
:10F24000A12F902F8F2D0F940DF28E2D0F940DF274
:10F2500090E29093C6008091C00086FFFCCF809121
:10F26000C00080648093C000AEE3A093C60080918C
:10F27000C00086FFFCCF8091C00080648093C000F6
:10F28000C601AA27BB270F940DF2BB27AD2D9C2DDD
:10F290008B2D0F940DF28A2D0F940DF20F94DCF14B
:10F2A000CC5DDE4FE881F981C452D140F99709F471
:10F2B0004DCBF4E0EF2EF12C012D112D6E0C7F1CA7
:10F2C000801E911EF2CD83E093EE62E00F94F5F183
:10F2D0008AE192EE60E00F94C2F18091C00087FF56
:10F2E000FCCF1091C6001F751093C6008091C0001E
:10F2F00086FFFCCF8091C00080648093C0000F9493
:10F30000DCF1812F81548A3108F036C1163409F4BA
:10F3100095C0173490F4133409F44EC0143430F40B
:10F320001134F1F0123409F01DC130C0143409F465
:10F3300059C0153409F016C16BC01A3409F4C4C0A1
:10F340001B3438F4173409F48FC0183409F00AC19B
:10F35000A1C01B3409F4D2C01C3409F003C1E8C0B9
:10F360008FEF81B90DC082B1809582B980E090E0C5
:10F37000E0EDF7E03197F1F70196883C9105C1F790
:10F380008091C00087FFEFCF12B8EFC08FEF84B934
:10F390000DC085B1809585B980E090E0E0EDF7E0A3
:10F3A0003197F1F70196883C9105C1F78091C00033
:10F3B00087FFEFCF15B8D9C08FEF87B90DC088B1DF
:10F3C000809588B980E090E0E0EDF7E03197F1F7C3
:10F3D0000196883C9105C1F78091C00087FFEFCF6F
:10F3E00018B8C3C08FEF8AB90DC08BB180958BB9A7
:10F3F00080E090E0E0EDF7E03197F1F70196883C8E
:10F400009105C1F78091C00087FFEFCF1BB8ADC059
:10F410008FEF8DB90DC08EB180958EB980E090E0F0
:10F42000E0EDF7E03197F1F70196883C9105C1F7DF
:10F430008091C00087FFEFCF1EB897C08FEF80BBD1
:10F440000DC081B3809581BB80E090E0E0EDF7E0F6
:10F450003197F1F70196883C9105C1F78091C00082
:10F4600087FFEFCF11BA81C08FEF83BB0DC084B38C
:10F47000809584BB80E090E0E0EDF7E03197F1F714
:10F480000196883C9105C1F78091C00087FFEFCFBE
:10F4900014BA6BC08FEF809301010FC080910201FD
:10F4A00080958093020180E090E0E0EDF7E03197F5
:10F4B000F1F70196883C9105C1F78091C00087FF64
:10F4C000EDCF1092020151C08FEF809304010FC065
:10F4D0008091050180958093050180E090E0E0ED4A
:10F4E000F7E03197F1F70196883C9105C1F78091DB
:10F4F000C00087FFEDCF1092050137C08FEF8093DA
:10F5000007010FC08091080180958093080180E079
:10F5100090E0E0EDF7E03197F1F70196883C910536
:10F52000C1F78091C00087FFEDCF109208011DC088
:10F530008FEF80930A010FC080910B01809580931B
:10F540000B0180E090E0E0EDF7E03197F1F70196F4
:10F55000883C9105C1F78091C00087FFEDCF1092E4
:10F560000B0103C085E292EEEEC98091C00087FFD7
:10F57000FCCF8091C600EAC988E392EEE4C98CE131
:10F5800091EEE1C988249924933011F1943028F444
:10F59000913089F09230B8F408C0953061F195301F
:10F5A000F0F0963009F048C043C02B3109F042C951
:10F5B00091E06BE13FC96227C15DDE4F2883CF52E6
:10F5C000D14092E037C9B22FA0E0622793E032C960
:10F5D000822F90E0A82BB92B622794E02BC92E3004
:10F5E00009F039C3622795E0C05DDE4F19821882A9
:10F5F000C053D1401FC9E1E0F0E0EC0FFD1FC05D3A
:10F60000DE4F08811981C053D140E00FF11F2083E4
:10F610000F5F1F4FC05DDE4F19830883C053D14079
:10F6200062270A171B0709F005C9D80196E002C92D
:10F63000261709F010C303C0973009F0FBC87724E0
:10F640009981933109F412C19431C8F4963009F4C8
:10F65000D8C0973050F4923009F406C1933009F4C1
:10F660006DC0913009F059C253C0913109F477C08F
:10F67000923108F0BBC0903109F04FC2F5C098310B
:10F6800009F487C0993150F4953109F4EFC09531F0
:10F6900008F4C6C1963109F040C2C2C19A3109F4DA
:10F6A0006CC09A3108F491C09B3109F45BC09D3164
:10F6B00009F033C29D81903359F48F81882311F46E
:10F6C0009EE11CC0813011F091E018C098E916C08D
:10F6D000892F807591F0903539F4E0E0F0E089E011
:10F6E0008093570094910AC0983539F4E3E0F0E034
:10F6F00089E080935700949101C090E01A821B82A8
:10F700008D818C831D829E831F8227E030E009C299
:10F710001A8288E08B8381E48C8386E58D8382E581
:10F720008E8389E48F8383E5888780E589878FE5E9
:10F730008A8782E38B872BE030E0F3C18A818139AD
:10F7400041F0823941F0803911F48FE005C080E04A
:10F7500003C082E001C08AE01A828B8344C0772410
:10F76000739482C08D81882311F48EE12CC0813086
:10F7700011F081E028C088E926C01A82E1E0F0E0BB
:10F7800089E08093570084918B831C8224E030E0D1
:10F79000C8C18B81803589F48C81883039F4E2E0EE
:10F7A000F0E089E08093570084910DC0E0E0F0E044
:10F7B00089E080935700849106C0E3E0F0E089E09F
:10F7C0008093570084911A82DFCF8D81836C99E0FA
:10F7D000E1E0F0E0082E90935700E89507B600FCB2
:10F7E000FDCF1A821B8223E030E09BC180EC8A832C
:10F7F000CE5CDE4F188219821A821B82C253D1401E
:10F800008EC18A8190E0A0E0B0E0582F44273327D2
:10F8100022278B8190E0A0E0B0E0DC0199278827C7
:10F82000282B392B4A2B5B2B8D8190E0A0E0B0E098
:10F83000282B392B4A2B5B2B8C8190E0A0E0B0E089
:10F84000BA2FA92F982F8827282B392B4A2B5B2BCF
:10F85000220F331F441F551FC05EDE4F288339839C
:10F860004A835B83C052D1401A8259C13A81C95C34
:10F87000DE4F3883C753D140CA5CDE4F1882C6536F
:10F88000D1408B81C82EDD24CA5CDE4F488159816E
:10F89000C653D140C42AD52A933109F082C0CE5C28
:10F8A000DE4F88819981AA81BB81C253D1408050AB
:10F8B000904CA340B04030F583E0CE5CDE4FE88052
:10F8C000F9800A811B81C253D140F70100935B008C
:10F8D00080935700E89507B600FCFDCFCE5CDE4F65
:10F8E000088119812A813B81C253D14000501F4FAA
:10F8F0002F4F3F4FCE5CDE4F088319832A833B8313
:10F90000C253D140C05EDE4F488159816A817B81FC
:10F91000C052D140DE011B9631E08C9111962C91A2
:10F9200011971296C75CDE4F2883C953D140C85C3B
:10F93000DE4F1882C853D14090E0C85CDE4FE881AA
:10F94000F981C853D1408E2B9F2B0C01FA01609393
:10F950005B0030935700E89511244E5F5F4F6F4F67
:10F960007F4F0EEFE02E0FEFF02ECE0CDF1CC114F8
:10F97000D10499F685E0C05EDE4F088119812A81A5
:10F980003B81C052D140F80120935B008093570027
:10F99000E89507B600FCFDCF81E180935700E8951C
:10F9A00035C0C05EDE4F88819981AA81BB81C0527B
:10F9B000D140B695A795979587957C018601ABE0D8
:10F9C000AA2EB12CAC0EBD1E0BC0D5016D915D01F0
:10F9D000C7010F947FFE0894E11CF11C01501040F8
:10F9E0000115110591F7A60160E070E0440F551F65
:10F9F000661F771FC05EDE4FE880F9800A811B8199
:10FA0000C052D1404E0D5F1D601F711F1A82C05E33
:10FA1000DE4F488359836A837B83C052D1407FC0C5
:10FA2000FA80C55CDE4FF882CB53D140C65CDE4F16
:10FA30001882CA53D1408B81C82EDD24C65CDE4FAC
:10FA400008811981CA53D140C02AD12A1A828981DA
:10FA5000BE016D5F7F4F843121F59601C05EDE4FA0
:10FA6000E880F9800A811B81C052D1400BBFF701A9
:10FA700087919691DB018C9311969C936E5F7F4FDB
:10FA8000D801C7010296A11DB11DC05EDE4F88835B
:10FA90009983AA83BB83C052D14022503040F1F6F3
:10FAA00036C0C05EDE4F288139814A815B81C052F9
:10FAB000D1400894C108D108760100E010E0089414
:10FAC000C11CD11C0894E11CF11C011D111DE20E8A
:10FAD000F31E041F151F21BDBB27A52F942F832FB5
:10FAE00082BD2F5F3F4F4F4F5F4FF89A80B5DB01CC
:10FAF0008D93BD012E153F054007510761F7C05E8C
:10FB0000DE4F288339834A835B83C052D1409601FC
:10FB10002D5F3F4FFB01108204C080EC8A8322E0FE
:10FB200030E08BE18093C6008091C00086FFFCCF5F
:10FB30008091C00080648093C000C15DDE4FF88179
:10FB4000CF52D140F093C6008091C00086FFFCCF19
:10FB50008091C00080648093C000432F3093C60022
:10FB60008091C00086FFFCCF8091C00080648093AC
:10FB7000C000922F2093C6008091C00086FFFCCF6A
:10FB80008091C00080648093C0008EE08093C600A6
:10FB90008091C00086FFFCCF8091C000806480937C
:10FBA000C00065E1C15DDE4FE880CF52D1406E25D7
:10FBB00069276427FE01319610C090819093C6009A
:10FBC0008091C00086FFFCCF31968091C000806498
:10FBD0008093C0006927215030402115310569F715
:10FBE0006093C6008091C00086FFFCCF8091C0006A
:10FBF00080648093C00085B1805885B9772081F4F6
:10FC0000C15DDE4F0881CF52D1400F5FC15DDE4F35
:10FC10000883CF52D14090E0A0E0B0E00D941AF4F8
:10FC200027982F9880E090E020ED37E0F901319798
:10FC3000F1F7019684369105C9F700008091C00064
:10FC40008D7F8093C00081E180935700E895EE2777
:10FC5000FF270994FFCF90E00D941AF497FB092E2B
:10FC600007260AD077FD04D02ED006D000201AF443
:10FC7000709561957F4F0895F6F7909581959F4F08
:10FC80000895A1E21A2EAA1BBB1BFD010DC0AA1FDD
:10FC9000BB1FEE1FFF1FA217B307E407F50720F0F5
:10FCA000A21BB30BE40BF50B661F771F881F991F70
:10FCB0001A9469F760957095809590959B01AC01B9
:10FCC000BD01CF010895AA1BBB1B51E107C0AA1FAC
:10FCD000BB1FA617B70710F0A61BB70B881F991FED
:10FCE0005A95A9F780959095BC01CD010895F99991
:10FCF000FECF92BD81BDF89A992780B50895262F31
:10FD0000F999FECF1FBA92BD81BD20BD0FB6F89400
:0EFD1000FA9AF99A0FBE01960895F894FFCF63
:040000033000E000E9
:00000001FF