:1000000027C1000014C60000E7C50000BAC5000003
:100010008DC5000060C5000033C5000006C50000A6
:10002000D9C4000046C1000044C1000042C1000024
:1000300040C100003EC100003CC100006AC6000093
:1000400038C1000036C1000034C1000032C10000D8
:1000500030C100002EC100002CC1000071C400009E
:1000600028C100000C943F0D0C94150D22C1000016
:1000700020C100001EC100001CC100001AC1000008
:1000800018C1000016C1000014C1000012C1000018
:1000900010C100000EC100000CC100000AC1000028
:1000A00008C1000006C1000004C1000002C1000038
:1000B00000C10000FEC00000FCC00000FAC000004B
:1000C000F8C00000F6C00000F4C00000F2C000005C
:1000D000F0C00000EEC00000ECC00000EAC000006C
:1000E000E8C00000BA01BD01AC01B001B601F401E5
:1000F000C101C501CB01CF01D301D901DD01E1016E
:10010000F401E701EB01EF01B403B903BE03C80337
:10011000D2034B04DC03E403EC03F60300040A04FB
:10012000190423044B042D0437044104000021006A
:10013000240027002A002D003000330001010000B8
:10014000040107010A0100002200250028002B00FD
:100150002E003100340002010000050108010B01EE
:10016000000020002300260029002C002F00320070
:100170000001000003010601090105050505070549
:1001800008080808020202020A0A08080404040413
:10019000010101010101010103030303030303033F
:1001A000040707070C0C0C0C0C0C0C0C02020202CE
:1001B00006060606060606060B0B0B0B0B0B0B0BB7
:1001C0000102102020080810204010204080020169
:1001D000020108040201010204081020408080404E
:1001E000201008040201800402018040201008044D
:1001F00002010804020101020408102040800102EB
:1002000004081020408000000A0B02090C0D0E08A3
:1002100007030401000000000000000000000000CF
:1002200000000000000000000000000000000000CE
:10023000000012111000000000000000000000008B
:100240000000000000000000000000000A0F750D13
:1002500011241FBECFEFD1E2DEBFCDBF00E00CBF47
:1002600013E0A0E0B2E0E8EFF7E200E00BBF02C06D
:1002700007900D92AA38B107D9F725E0AAE8B3E0B4
:1002800001C01D92AE32B207E1F711E0C7E2D1E042
:1002900000E006C021970109802FFE010E94BA11DB
:1002A000C632D10780E00807A9F70E94930D0C948D
:1002B000EB13A6CEFC01918D228D892F90E0805CFE
:1002C0009F4F821B91098F739927089580E090E0DA
:1002D000892B21F00E94210B811125C080E090E044
:1002E000892B41F080E090E0892B21F00E940000F2
:1002F00081111CC080E090E0892B41F080E090E00B
:10030000892B21F00E940000811113C080E090E051
:10031000892BA1F080E090E0892B81F00E94000001
:1003200081110AC008950E940000D8CF0E940000E9
:10033000E1CF0E940000EACF0C940000089590E005
:10034000FC013197E231F10508F04EC08827EE58E4
:10035000FF4F8F4F0C94BA11809180008F7703C0AC
:10036000809180008F7D809380000895809180002F
:10037000877FF9CF84B58F7702C084B58F7D84BD28
:1003800008958091B0008F7703C08091B0008F7D79
:100390008093B0000895809190008F7707C080917E
:1003A00090008F7D03C080919000877F80939000A4
:1003B00008958091A0008F7707C08091A0008F7D65
:1003C00003C08091A000877F8093A0000895809152
:1003D00020018F7707C0809120018F7D03C080911D
:1003E0002001877F809320010895CF93DF93282FEA
:1003F00030E0F901EA5FFD4F8491F901E054FE4FCE
:10040000D491F901E658FE4FC491CC2389F08111B3
:1004100096DFEC2FF0E0EE0FFF1FE05AFE4FA591A4
:10042000B491EC91ED2381E090E021F480E002C0F2
:1004300080E090E0DF91CF9108953FB7F8948091EC
:10044000950390919603A0919703B091980326B5D8
:10045000A89B05C02F3F19F00196A11DB11D3FBFFC
:10046000BA2FA92F982F8827820F911DA11DB11D8A
:10047000BC01CD0142E0660F771F881F991F4A9586
:10048000D1F7089508950895E091C504F091C60448
:1004900081E083830895E091C504F091C60412823F
:1004A000089586EA93E00E94780BA091C704B0916A
:1004B000C8042D913C91119712968D919C911397A0
:1004C00011961C921E9213961C921E9212979A9647
:1004D000ED91FC919B97318320839896ED91FC914F
:1004E0009997918380839696ED91FC919797309799
:1004F00019F0CD018C96199408950E94E90B86EAB3
:1005000093E00C94780B80918E0390918F03029767
:1005100054F0E091C504F091C60462E370E080817C
:1005200091810E94A80BE091C504F091C6046AE095
:1005300070E0808191810C94A80BE5CFE4CFE0912D
:10054000C504F091C6046AE570E0808191810C9445
:10055000A80BE091C504F091C6046CE370E08081C3
:1005600091810C94A80BE091C504F091C6046AE552
:1005700070E0808191810C94A80BE091C504F0910A
:10058000C6046CE370E0808191810C94AE0CE09124
:10059000C504F091C6046AE570E0808191810C94F5
:1005A000AE0CE091C504F091C6046AE570E080816C
:1005B00091810C94AE0C0E94F61028EE33E040E0DE
:1005C00050E00E946C11E091C504F091C60460FDFA
:1005D00006C06AE570E0808191810C94A80B6AE501
:1005E00070E0808191810C94AE0CFC01848DDF0160
:1005F000A80FB11DA35ABF4F2C91848D90E0019696
:100600008F739927848FA689B7892C93A089B18984
:100610008C91837080648C93938D848D981306C025
:100620000288F389E02D80818F7D808308951F9358
:10063000CF93DF93282F30E0F901EA5FFD4F8491DB
:10064000F901E054FE4FD491F901E658FE4FC491F0
:10065000CC23B9F0162F811172DEEC2FF0E0EE0FF3
:10066000FF1FEA5BFE4FA591B4919FB7F89411115B
:1006700004C08C91D095D82302C0EC91DE2BDC9382
:100680009FBFDF91CF911F910895CF93DF9390E0AB
:10069000FC01E054FE4F2491FC01E658FE4F84918A
:1006A000882361F190E0880F991FFC01E45DFE4F03
:1006B000C591D491FC01EA5BFE4FA591B491611103
:1006C00009C09FB7F8948881209582238883EC9194
:1006D0002E230BC0623061F49FB7F8948881322FCB
:1006E000309583238883EC912E2B2C939FBF06C0DB
:1006F0008FB7F894E8812E2B28838FBFDF91CF919D
:1007000008950F931F93CF93DF93FC0177FF02C0EF
:1007100060E070E0EB016F3F710519F014F0CFEF6E
:10072000D0E0D587C487D387C2870681178161E06F
:10073000802FABDF209709F4B1C0CF3FD10509F47A
:10074000AFC0F801FF27EA5FFD4FE4918E2F90E0E4
:10075000FC013197E231F10508F09DC08827EC5784
:10076000FF4F8F4F0C94BA1184B5806884BDC7BD0C
:100770009EC084B5806284BDC8BD99C08091800050
:10078000806880938000D0938900C09388008FC0D8
:1007900080918000806280938000D0938B00C09312
:1007A0008A0085C080918000886080938000D0930B
:1007B0008D00C0938C007BC08091B00080688093D6
:1007C000B000C093B30073C08091B000806280938A
:1007D000B000C093B4006BC080919000806880939B
:1007E0009000D0939900C093980061C080919000D0
:1007F000806280939000D0939B00C0939A0057C072
:1008000080919000886080939000D0939D00C09369
:100810009C004DC08091A00080688093A0008091D2
:10082000A0008F7B8093A000D093A900C093A80064
:100830003EC08091A00080628093A000D093AB0066
:10084000C093AA0034C08091A00088608093A0006B
:10085000D093AD00C093AC002AC080912001806885
:1008600080932001D0932901C093280120C080915A
:100870002001806280932001D0932B01C0932A0134
:1008800016C080912001886080932001D0932D01B3
:10089000C0932C010CC0C038D10514F460E001C035
:1008A00061E0802FDF91CF911F910F91C0CEDF913A
:1008B000CF911F910F9108958F929F92AF92BF9207
:1008C000CF92DF92EF92FF926B017C01B6DD4B017C
:1008D0005C01C114D104E104F104E9F0AEDDDC01F6
:1008E000CB0188199909AA09BB09883E9340A10543
:1008F000B10578F321E0C21AD108E108F10888EEC9
:10090000880E83E0981EA11CB11CC114D104E1041F
:10091000F10421F7DECFFF90EF90DF90CF90BF90F2
:10092000AF909F908F9008952FB7F89460919103A6
:100930007091920380919303909194032FBF089537
:100940001F920F920FB60F9211242F933F938F9304
:100950009F93AF93BF938091910390919203A09145
:100960009303B09194033091900323E0230F2D372C
:1009700020F40196A11DB11D05C026E8230F0296A3
:10098000A11DB11D20939003809391039093920336
:10099000A0939303B0939403809195039091960351
:1009A000A0919703B09198030196A11DB11D80936A
:1009B000950390939603A0939703B0939803BF91E8
:1009C000AF919F918F913F912F910F900FBE0F90FC
:1009D0001F9018951F920F920FB60F9211240BB60D
:1009E0000F922F933F934F935F936F937F938F93C8
:1009F0009F93AF93BF93EF93FF93E0910E02F0911B
:100A00000F021995FF91EF91BF91AF919F918F9137
:100A10007F916F915F914F913F912F910F900BBEFE
:100A20000F900FBE0F901F9018951F920F920FB648
:100A30000F9211240BB60F922F933F934F935F9316
:100A40006F937F938F939F93AF93BF93EF93FF9396
:100A5000E0910C02F0910D021995FF91EF91BF9179
:100A6000AF919F918F917F916F915F914F913F9146
:100A70002F910F900BBE0F900FBE0F901F901895E7
:100A80001F920F920FB60F9211240BB60F922F9355
:100A90003F934F935F936F937F938F939F93AF9306
:100AA000BF93EF93FF93E0910202F0910302199537
:100AB000FF91EF91BF91AF919F918F917F916F9136
:100AC0005F914F913F912F910F900BBE0F900FBEF2
:100AD0000F901F9018951F920F920FB60F9211242E
:100AE0000BB60F922F933F934F935F936F937F9328
:100AF0008F939F93AF93BF93EF93FF93E091000287
:100B0000F09101021995FF91EF91BF91AF919F91E3
:100B10008F917F916F915F914F913F912F910F90A6
:100B20000BBE0F900FBE0F901F9018951F920F9243
:100B30000FB60F9211240BB60F922F933F934F9342
:100B40005F936F937F938F939F93AF93BF93EF9335
:100B5000FF93E0910A02F0910B021995FF91EF913A
:100B6000BF91AF919F918F917F916F915F914F91C5
:100B70003F912F910F900BBE0F900FBE0F901F90C3
:100B800018951F920F920FB60F9211240BB60F9269
:100B90002F933F934F935F936F937F938F939F9385
:100BA000AF93BF93EF93FF93E0910802F091090296
:100BB0001995FF91EF91BF91AF919F918F917F9187
:100BC0006F915F914F913F912F910F900BBE0F90BE
:100BD0000FBE0F901F9018951F920F920FB60F9295
:100BE00011240BB60F922F933F934F935F936F9304
:100BF0007F938F939F93AF93BF93EF93FF93E09176
:100C00000602F09107021995FF91EF91BF91AF9104
:100C10009F918F917F916F915F914F913F912F9114
:100C20000F900BBE0F900FBE0F901F9018951F9244
:100C30000F920FB60F9211240BB60F922F933F9382
:100C40004F935F936F937F938F939F93AF93BF93D4
:100C5000EF93FF93E0910402F09105021995FF9143
:100C6000EF91BF91AF919F918F917F916F915F9124
:100C70004F913F912F910F900BBE0F900FBE0F9091
:100C80001F901895CF93DF93EC0161E08A81CFDC50
:100C900060E08C81CCDC82E090E099878887DF91EE
:100CA000CF910895CF93DF93EC0160E08A81BFDCA0
:100CB00061E08C81BCDC81E090E099878887DF91DE
:100CC000CF9108950F931F93CF93DF93EC018B0186
:100CD0007B876A878881998114DDB8018A819B812D
:100CE00010DDFE01E05CFF4F80819181019761F48E
:100CF000B8018C819D8105DDB8018E819F81DF91D6
:100D0000CF911F910F91FDCCDF91CF911F910F914A
:100D100008951F920F920FB60F9211240BB60F92E7
:100D20002F933F934F935F936F937F938F939F93F3
:100D3000AF93BF93EF93FF9380919F039091A00394
:100D40008093B2008091A2039091A303A091A40389
:100D5000B091A5030196A11DB11D8093A2039093AC
:100D6000A303A093A403B093A5038091A203909141
:100D7000A303A091A403B091A50340919B035091BC
:100D80009C0360919D0370919E0384179507A607AD
:100D9000B70710F18091A10381111EC081E08093FB
:100DA000A1038091A2039091A303A091A403B09109
:100DB000A503841B950BA60BB70B8093A2039093FE
:100DC000A303A093A403B093A503E0919903F0912A
:100DD0009A0319951092A103FF91EF91BF91AF91E2
:100DE0009F918F917F916F915F914F913F912F9143
:100DF0000F900BBE0F900FBE0F901F9018950F9382
:100E00001F93CF93DF9300D000D0CDB7DEB78C0116
:100E1000FC01138E128E158E148E168E6CE272E00B
:100E2000CE01019650D5CE01019684D4CE01019613
:100E300046D5F80112A211A214A213A215A260E4D1
:100E400072E0CE0101963FD5CE01019673D4CE015A
:100E5000019635D526960FB6F894DEBF0FBECDBFEE
:100E6000DF91CF911F910F910895CF93DF9300D021
:100E700000D0CDB7DEB7FC0172A361A354A343A396
:100E800081E085A365E572E0CE0101961CD5CE0117
:100E9000019650D4CE01019612D526960FB6F8943D
:100EA000DEBF0FBECDBFDF91CF910895CF92DF920D
:100EB000EF92FF920F931F93CF93DF93EC017B018F
:100EC0006A018C01045F1F4FC80199DFA601B701B9
:100ED000C801CBDF81E090E099878887888199817C
:100EE000E1DE8A819B81DEDEFE01E05CFF4F8081D6
:100EF0009181019731F48C819D81D4DE8E819F8117
:100F0000D1DE6A857B85CE01DF91CF911F910F9154
:100F1000FF90EF90DF90CF90D5CEE091C504F09197
:100F2000C60481E083838283FFDC20918A033091B1
:100F30008B03AB01421B530B9A01293E334058F4FB
:100F400020918E0330918F032F5F3F4F30938F039B
:100F500020938E0304C010928F0310928E03DC0145
:100F6000CB01AA27BB2780938A0390938B03A0937E
:100F70008C03B0938D03E091C504F091C604808189
:100F80009181FC01208531852130310529F04DE921
:100F900052E068EC70E08ACF08950F931F93CF93CF
:100FA000DF9300D000D0CDB7DEB70091C704109119
:100FB000C804D80195968C919597882309F441C06F
:100FC0005F968D919C919097019690969C938E93AD
:100FD0005F9762E370E00E94A711892B79F467E6BE
:100FE00072E0CE0101966FD4CE010196A3D3CE015B
:100FF000019665D4F801878D90A17FDAD8015F96BC
:101000002D913C91909791968D919C919297281754
:101010003907B9F49396ED91FC91949780E090E0B4
:101020001995F801878D90A1D4D3D80194961C927C
:101030001E92939795961C92959790961C921E924D
:101040005F97F8018281938101969383828382A9BD
:1010500093A9019693AB82AB26960FB6F894DEBFA8
:101060000FBECDBFDF91CF911F910F9108950F93C8
:101070001F93CF93DF9300D000D0CDB7DEB70091A0
:10108000C7041091C804D801D0968D919C91D19736
:1010900062E370E00E94A711892BD9F46EE772E039
:1010A000CE01019610D44D815E8169817A8186EAF4
:1010B00093E055D286EA93E01BD3CE010196FFD38D
:1010C000F80180A991A919DAD8015E968C9190E077
:1010D00014DAF801868D882309F441C0808D918D42
:1010E0000196918F808F62E370E00E94A711892B97
:1010F00089F467E872E0CE010196E5D3CE0101964E
:1011000019D3CE010196DBD3D80158968D919C91CD
:101110005997F3D9F801208D318D828D938D281741
:101120003907E9F4848D958D892BC9F06DE972E05A
:10113000CE010196C8D3CE010196FCD2CE01019614
:10114000BED3D8015C96ED91FC915D9780E090E074
:101150001995F801158E148E168E118E108ED801E9
:101160008D919C911197019611969C938E93D09698
:101170008D919C91D1970196D1969C938E93D09707
:1011800026960FB6F894DEBF0FBECDBFDF91CF918C
:101190001F910F910895CF92DF92EF92FF920F93DC
:1011A0001F93CF93DF9300D000D0CDB7DEB7FC0103
:1011B000208531852230310591F17A016B018C0156
:1011C0000C961DDEF801D7A2C6A2F1A6E0A681E02A
:1011D00082A768EB72E0CE01019675D3CE0101962D
:1011E000A9D2CE0101966BD382E090E0F8019187FD
:1011F00080878081918146DDF8018281938142DD83
:10120000F801E05CFF4F80819181019741F4F80182
:101210008481958137DDF8018681978133DD2696BB
:101220000FB6F894DEBF0FBECDBFDF91CF911F91F7
:101230000F91FF90EF90DF90CF900895E091C5045B
:10124000F091C60444E452E068EC70E08081918142
:10125000A2CFCF93DF9300D000D0CDB7DEB769EC3B
:1012600072E0CE0101962FD3CE01019663D2CE015A
:10127000019625D3E091C504F091C60481E08383F3
:10128000828352DB20918A0330918B03AB01421B96
:10129000530B9A01293E334058F420918E0330912C
:1012A0008F032F5F3F4F30938F0320938E0304C033
:1012B00010928F0310928E03DC01CB01AA27BB276B
:1012C00080938A0390938B03A0938C03B0938D0338
:1012D000E091C504F091C60480819181FC012085D4
:1012E00031852130310529F04EE952E068EC70E09B
:1012F000DDDD26960FB6F894DEBF0FBECDBFDF91C1
:10130000CF9108958F929F92AF92BF92CF92DF922A
:10131000EF92FF920F931F93CF93DF9300D000D0F3
:10132000CDB7DEB76DED72E0CE010196CCD2CE0125
:10133000019600D2CE010196C2D2E091C504F0918F
:10134000C60481E08383828384E34FD85C0184E315
:101350004CD84C0180E349D86C018EE246D87C0120
:1013600084E343D88C0182E340D8E091C504F09136
:10137000C604892819F5AB2809F521E0C216D10465
:1013800069F421E0E216F10459F40130110569F421
:101390008130910561F44BED52E00DC0CD2811F084
:1013A000EF2819F447EC52E006C0012B11F0892B0D
:1013B00029F44FE952E064E670E004C04DEB52E0DE
:1013C0006EE571E080819181E6DE26960FB6F89495
:1013D000DEBF0FBECDBFDF91CF911F910F91FF9068
:1013E000EF90DF90CF90BF90AF909F908F90089537
:1013F0007F928F929F92AF92BF92CF92DF92EF92A5
:10140000FF920F931F93CF93DF9300D000D0CDB7FF
:10141000DEB764EF72E0CE01019655D2CE0101969F
:1014200089D1CE0101964BD2E091C504F091C6045A
:1014300081E08383828384E30E94F5014C0184E38D
:101440000E94F501782E80E30E94F5015C018EE296
:101450000E94F5016C0184E30E94F5017C0182E3A6
:101460000E94F5018C01892899F5872D0E94F501CC
:10147000892BC9F581E0A816B10491F481E0C81662
:10148000D10481F481E0E816F104A9F401301105DA
:10149000A1F4E091C504F091C6044BED52E015C0F3
:1014A000AB2811F0CD2839F4E091C504F091C604C1
:1014B00041ED52E00AC0EF2811F0012BA1F4E091B8
:1014C000C504F091C60443EB52E064E670E008C046
:1014D000E091C504F091C60449EA52E06EE571E07E
:1014E0008081918158DE26960FB6F894DEBF0FBE3C
:1014F000CDBFDF91CF911F910F91FF90EF90DF90C3
:10150000CF90BF90AF909F908F907F900895E6EA24
:10151000F3E0A089B18982E08C93A485B5851C9203
:10152000A685B78580E18C93108EA489B58986E065
:101530008C93A289B3898C9180618C93A289B389A1
:101540008C9188608C93A289B3898C9180688C93EC
:101550000288F389E02D80818F7D80830895CF926A
:10156000DF92EF92FF920F931F93CF93DF936C0163
:101570007A018B01C0E0D0E0CE15DF0581F0D80103
:101580006D918D01D601ED91FC910190F081E02DDE
:10159000C6011995892B11F02196EECF7E01C70166
:1015A000DF91CF911F910F91FF90EF90DF90CF903F
:1015B0000895089580E090E00895FC01538D448DD6
:1015C000252F30E0842F90E0821B930B541710F0EE
:1015D000CF96089501970895FC01918D828D9817FB
:1015E00061F0828DDF01A80FB11D5D968C91928D07
:1015F0009F5F9F73928F90E008958FEF9FEF089504
:10160000FC01918D828D981731F0828DE80FF11DCC
:10161000858D90E008958FEF9FEF0895009761F01A
:10162000FC0101900020E9F73197AF01481B590BED
:10163000BC0186EA93E093CF80E090E008950E9499
:10164000D71386EA93E00E945A0121E0892B09F41E
:1016500020E0822F0895EF92FF920F931F93CF9374
:10166000DF93EC0181E0888F9B8D8C8D981305C0F2
:10167000E889F989808185FD26C0F62E0B8D10E062
:101680000F5F1F4F0F731127E02E8C8DE8120CC0D7
:101690000FB607FCFACFE889F989808185FFF5CF7D
:1016A000CE010E94F502F1CF8B8DFE01E80FF11DF6
:1016B000E35AFF4FF0829FB7F8940B8FEA89FB89BA
:1016C000808180620AC09FB7F894EE89FF896083A9
:1016D000E889F98980818370806480839FBF81E07D
:1016E00090E0DF91CF911F910F91FF90EF900895BF
:1016F000CF93DF93EC01888D8823C9F0EA89FB89B9
:10170000808185FD05C0A889B9898C9186FD0FC0AF
:101710000FB607FCF5CF808185FFF2CFA889B98984
:101720008C9185FFEDCFCE010E94F502E7CFDF91CE
:10173000CF910895FC01448155816081718186EAD1
:1017400093E00DDF8BE093E069DF86EA93E0D0CF92
:10175000EF92FF920F931F93CF93DF93FC012085AD
:1017600031852830310571F18B01EC017C01FCE001
:10177000EF0EF11CC70143DB88E090E09987888772
:101780004BE452E0B801C70170DB888199818ADAA5
:101790008A819B8177DAFE01E05CFF4F8081918135
:1017A000019731F48C819D817DDA8E819F816ADA87
:1017B0006A857B85CE01DF91CF911F910F91FF90BC
:1017C000EF9080CADF91CF911F910F91FF90EF9022
:1017D00008958F929F92AF92BF92CF92DF92EF9235
:1017E000FF920F931F93CF93DF93CDB7DEB7A197EF
:1017F0000FB6F894DEBF0FBECDBF6C01990FEE0897
:10180000FF08F7FE28C06DE286EA93E024DF8C0132
:1018100022273327A9012C193D094E095F0919A276
:10182000CE0181967C019AE0892E912CA12CB12CBD
:10183000CA01B901A50194012DD5605DF70162933C
:101840007F01211531054105510591F7CF01E6DEF4
:10185000080F191F1CC0A701960119A28E010F5D68
:101860001F4F8AE0C82ED12CE12CF12CCA01B901FE
:10187000A70196010FD5605DF80162938F012115D4
:1018800031054105510591F7CF01C8DE8C018BE090
:1018900093E0C4DE800F911FA1960FB6F894DEBFCF
:1018A0000FBECDBFDF91CF911F910F91FF90EF90B1
:1018B000DF90CF90BF90AF909F908F900895FC01E4
:1018C000808191810BC6EF92FF920F931F93CF936C
:1018D000DF93EC01198218821B821A821D821C82FE
:1018E00061157105A1F17B01FB0101900020E9F771
:1018F00031978F01061B170BB8016F5F7F4F80E098
:1019000090E075D6009759F0998388831B830A83EA
:101910002C813D81232B79F4FC0110820CC088813D
:101920009981009709F0DAD5198218821D821C82EC
:101930001B821A820CC01D830C83B7018881998198
:10194000DF91CF911F910F91FF90EF903DC7DF91F5
:10195000CF911F910F91FF90EF900895CF92DF925A
:10196000EF92FF920F931F93CF93DF9300D000D09D
:10197000CDB7DEB7FC01208531852730310509F46C
:1019800045C07B018C016C01FCE0CF0ED11CC6016F
:1019900036DA87E090E0F801918780874BE452E0E7
:1019A000B701C60162DAF801808191816BD9F80133
:1019B0008281938177D9F801E05CFF4F808191812A
:1019C0000197A1F4F801848195816CD9F801E68032
:1019D000F78060E0F70182810E94170360E0F70161
:1019E00084810E941703F70111861086F801628531
:1019F0007385C80167D96EE073E0CE01019663DF9D
:101A0000CE01019697DECE01019659DF26960FB6DC
:101A1000F894DEBF0FBECDBFDF91CF911F910F9124
:101A2000FF90EF90DF90CF9008951F920F920FB626
:101A30000F9211240BB60F922F933F934F935F9306
:101A40006F937F938F939F93AF93BF93EF93FF9386
:101A500086EA93E00E94F502FF91EF91BF91AF916A
:101A60009F918F917F916F915F914F913F912F91B6
:101A70000F900BBE0F900FBE0F901F9018951F92E6
:101A80000F920FB60F9211240BB60F922F938F93D4
:101A90009F93EF93FF93E091B603F091B70380819A
:101AA000E091BC03F091BD0382FD12C09081809152
:101AB000BF038F5F8F732091C003821751F0E091B5
:101AC000BF03F0E0EA55FC4F958F8093BF0301C040
:101AD0008081FF91EF919F918F912F910F900BBE7D
:101AE0000F900FBE0F901F90189589E894E0E7DEE5
:101AF0008FE894E0E4DE85E994E0E1DE8BE994E0B0
:101B0000DEDE81EA94E0DBDE87EA94E0D8DE8DEA6F
:101B100094E0D5DE83EB94E0D2DE89EB94E0CFDE77
:101B20008FEB94E0CCCECF93DF9300D000D0CDB735
:101B3000DEB7789484B5826084BD84B5816084BD4D
:101B400085B5826085BD85B5816085BD80916E005B
:101B5000816080936E00109281008091810082608C
:101B600080938100809181008160809381008091C9
:101B700080008160809380008091B10084608093B8
:101B8000B1008091B00081608093B000809191009D
:101B90008260809391008091910081608093910098
:101BA000809190008160809390008091A10082607C
:101BB0008093A1008091A10081608093A100809119
:101BC000A00081608093A0008091210182608093B9
:101BD0002101809121018160809321018091200168
:101BE00081608093200180917A00846080937A00E4
:101BF00080917A00826080937A0080917A0081607F
:101C000080937A0080917A00806880937A001092A5
:101C1000C1001092850410928604109287041092DD
:101C200088041092450410924604109247041092C2
:101C300048040E9494046B017C014B015C0188EB19
:101C4000880E8BE0981EA11CB11C0E9494046C1598
:101C50007D058E059F0528F086169706A806B9060D
:101C6000A0F768EE73E080E090E00E945C044FDC37
:101C70000E94940460934504709346048093470443
:101C80009093480488E193E0C9DC0E9494046B01BE
:101C90007C014B015C01EAE08E0E911CA11CB11C81
:101CA0000E9494046C157D058E059F0528F086160C
:101CB0009706A806B906A0F781E08093590427DCAF
:101CC0008091A100887F85608093A10069E273E024
:101CD000CE010196F8DDCE0101962CDDCE010196F4
:101CE000EEDD88EE93E0A0E0B0E080939B0390935C
:101CF0009C03A0939D03B0939E0381E592E0909393
:101D00009A0380939903809170008E7F8093700076
:101D10008091B0008C7F8093B0008091B100877F6C
:101D20008093B1008091B6008F7D8093B600809142
:101D300070008D7F809370008091B10084608093EB
:101D4000B1008091B1008C7F8093B10086E090E07B
:101D50009093A00380939F031092A2031092A30379
:101D60001092A4031092A5031092A10380919F03E7
:101D70009091A0038093B200809170008160809365
:101D8000700066E970E08BEC94E00E94620680913E
:101D90007B00877F80937B0080E480937C00809130
:101DA0007A00806480937A0080917A0086FDFCCF6F
:101DB000609178008091790070E0782B072E000CFC
:101DC000880B990B611571058105910509F059D2B0
:101DD0000091C9041091CA046AE070E080E090E0CC
:101DE0000E945C04F8018281811111C083818823E3
:101DF00071F0138280819181FC0120853185213031
:101E0000310529F04EE159E060E971E04FD80E94B8
:101E10006601DECFEF92FF920F931F93CF93DF9374
:101E2000E6EAF3E01382128288EE93E0A0E0B0E0ED
:101E300084839583A683B7838EE192E09183808328
:101E400085EC90E09587848784EC90E0978786877F
:101E500080EC90E0918B808B81EC90E0938B828B77
:101E600082EC90E0958B848B86EC90E0978B868B50
:101E7000118E128E138E148EE3E4F4E01682178214
:101E80001086118612861386148615861686178686
:101E9000108A118A128A138A148A158A60E473E000
:101EA0008FEB94E010DD68E473E089EB94E00BDDE8
:101EB00062E573E083EB94E006DD6AE573E08DEAAA
:101EC00094E001DD6FE573E087EA94E0FCDC6AE60C
:101ED00073E081EA94E0F7DC60E773E08BE994E07B
:101EE000F2DC6CE773E085E994E0EDDC63EB72E033
:101EF0008FE894E0E8DC64E873E089E894E0E3DCF0
:101F00008CE1E82E85E0F82ED70111961C921E92E6
:101F100019961C921E9218971B961C921E921A9745
:101F20001D961C921E921C9780E290E013969C9343
:101F30008E9312978EE190E015969C938E93149752
:101F400086E090E017969C938E93169761E080E26E
:101F50000E94450361E08EE10E94450361E086E056
:101F60000E9445030EE015E0F801118210821186EF
:101F7000108613861286158614868AE190E0938374
:101F800082838CE190E09583848387E090E097835F
:101F9000868361E08AE10E94450361E08CE10E9452
:101FA000450361E087E00E944503CBECD4E019864D
:101FB00018861B861A861D861C861F861E86188A12
:101FC000198A1A8A1B8A1C8A1D8A1E8A1F8A188EE1
:101FD000198E1A8E1B8E1C8E1D8E1E8E1F8E18A2A1
:101FE00019A21AA21BA21DA21CA219AE18AE1BAEEA
:101FF0001AAE1DAE1CAE1FAE1EAE10920D0519839B
:102000000883FB82EA8282E090E090930C05809343
:102010000B0587ED94E09093C8048093C704FFAA52
:10202000EEAA1DAB0CAB00E012E087E398E0D8010C
:1020300011969C938E93EAE6F0E080818C7F82601B
:102040008083EC9A8DEC97E013969C938E93129775
:102050008081837F88608083ED9A83E492E09BABEC
:102060008AAB84E090E0A2D1FC0112821382D1837A
:10207000C0839093C6048093C50460E082E20E940E
:10208000450360E084E20E94450360E086E20E942E
:10209000450360E088E20E94450360E08AE20E9416
:1020A000450360E08CE20E94450360E08EE20E94FE
:1020B000450360E080E30E94450360E082E30E9404
:1020C000450360E084E30E94450362E085E10E94ED
:1020D000450362E084E10E94450362E082E10E94E0
:1020E000450362E083E10E9445038DE897E0F80133
:1020F00095838483E9E6F0E080818C7F8260808331
:10210000E89A89E299E0D80117969C938E931697E6
:102110008081837F88608083E99A82E899E01B96BA
:102120009C938E931A9780818F7380688083EB9A3B
:1021300088EF99E019969C938E93189780818F7CF5
:1021400080628083EA9A1092CA041092C904DF91D7
:10215000CF911F910F91FF90EF9008958F929F92D2
:10216000AF92BF92CF92DF92EF92FF92CF93DF9325
:10217000EC01688179818A819B81611571058105F6
:10218000910521F464E279ED8BE597E02DE133EFE1
:1021900041E050E0A1D049015A019B01AC01A7EAFE
:1021A000B1E4B6D06B017C01ACEEB4EFA5019401B3
:1021B000BBD0DC01CB018C0D9D1DAE1DBF1DB7FF3B
:1021C00003C00197A109B04888839983AA83BB8380
:1021D000BC01CD019F77DF91CF91FF90EF90DF9011
:1021E000CF90BF90AF909F908F9008958F929F92C5
:1021F000AF92BF92CF92DF92EF92FF926091100266
:102200007091110280911202909113026115710573
:102210008105910521F464E279ED8BE597E02DE1EC
:1022200033EF41E050E058D049015A019B01AC0125
:10223000A7EAB1E46DD06B017C01ACEEB4EFA5016F
:10224000940172D0DC01CB018C0D9D1DAE1DBF1D14
:10225000B7FF03C00197A109B04880931002909383
:102260001102A0931202B0931302BC01CD019F771B
:10227000FF90EF90DF90CF90BF90AF909F908F90A6
:10228000089560931002709311028093120290934C
:1022900013020895A1E21A2EAA1BBB1BFD010DC05B
:1022A000AA1FBB1FEE1FFF1FA217B307E407F50706
:1022B00020F0A21BB30BE40BF50B661F771F881FE2
:1022C000991F1A9469F760957095809590959B0178
:1022D000AC01BD01CF010895052E97FB16F40094C3
:1022E0000FD057FD05D0D6DF07FC02D046F408C05A
:1022F00050954095309521953F4F4F4F5F4F089532
:1023000090958095709561957F4F8F4F9F4F089561
:102310000FD0A59F900DB49F900DA49F800D911D8F
:1023200011240895B7FFF4CFF3DF821B930B0895B8
:10233000A29FB001B39FC001A39F700D811D112406
:10234000911DB29F700D811D1124911D089597FB61
:10235000072E16F4009406D077FD08D013D007FCA2
:1023600005D03EF4909581959F4F089570956195A5
:102370007F4F0895EE0FFF1F881F8BBF0790F691C8
:10238000E02D1994AA1BBB1B51E107C0AA1FBB1F5C
:10239000A617B70710F0A61BB70B881F991F5A95F1
:1023A000A9F780959095BC01CD0108950F931F93D7
:1023B000CF93DF938230910510F482E090E0E091BA
:1023C0002C05F0912D0520E030E0A0E0B0E0309742
:1023D00019F1408151810281138148175907C8F0D2
:1023E0008417950769F4109731F012960C931297A1
:1023F00013961C9327C000932C0510932D0522C023
:102400002115310519F04217530718F49A01BD013F
:10241000EF01DF01F801DBCF21153105F9F0281BB1
:10242000390B2430310580F48A819B816115710557
:1024300021F0FB019383828304C090932D05809348
:102440002C05FE01329644C0FE01E20FF31F81937A
:10245000919322503109398328833AC020912A056B
:1024600030912B05232B41F4209116023091170255
:1024700030932B0520932A052091140230911502E8
:102480002115310541F42DB73EB740911802509106
:102490001902241B350BE0912A05F0912B05E21758
:1024A000F307A0F42E1B3F0B2817390778F0AC0177
:1024B0004E5F5F4F2417350748F04E0F5F1F509354
:1024C0002B0540932A058193919302C0E0E0F0E050
:1024D000CF01DF91CF911F910F910895CF93DF939B
:1024E000009709F481C0FC01329713821282A091F7
:1024F0002C05B0912D05109781F420813181820F38
:10250000931F20912A0530912B052817390751F583
:10251000F0932B05E0932A0567C0ED0120E030E041
:10252000CE17DF0740F44A815B819E0141155105BA
:10253000F1F0EA01F5CFD383C28340815181840F4A
:10254000951FC817D90759F488819981840F951F61
:102550000296918380838A819B8193838283211554
:10256000310529F4F0932D05E0932C053DC0E901D8
:10257000FB83EA8349915991C40FD51FEC17FD07DE
:1025800061F480819181840F951F0296E9019983FE
:102590008883828193819B838A83E0E0F0E01296B6
:1025A0008D919C911397009719F0FD01DC01F7CFF5
:1025B0008D919C9111979D012E5F3F4F820F931F2C
:1025C00020912A0530912B052817390769F4309797
:1025D00029F410922D0510922C0502C0138212824C
:1025E000B0932B05A0932A05DF91CF9108956F92A8
:1025F0007F928F929F92AF92BF92CF92DF92EF9293
:10260000FF920F931F93CF93DF93009781F4CB0139
:10261000DF91CF911F910F91FF90EF90DF90CF90BE
:10262000BF90AF909F908F907F906F90BFCEFC0136
:10263000E60FF71F9C0122503109E217F30708F457
:10264000A5C0EC01D9010D911C9111970617170730
:10265000A8F00530110508F497C0C8010497861743
:10266000970708F491C002501109061B170B01933C
:1026700011936D937C93CF0131DF86C05B01A01A6B
:10268000B10A4C01800E911EA0912C05B0912D0530
:10269000612C712CE12CF12C109709F446C08D911E
:1026A0009C911197A815B905B1F56C0142E0C40ED3
:1026B000D11CCA14DB0478F14C018A189B08640110
:1026C00042E0C40ED11C1296BC9012971396AC91A6
:1026D000B5E0CB16D10440F0B282A3839182808210
:1026E000D9016D937C9309C00E5F1F4F800F911F1E
:1026F000F90191838083EB2DFA2FE114F10431F07D
:10270000D7011396FC93EE9312973EC0F0932D05DC
:10271000E0932C0539C06816790608F43C017D0168
:1027200012960D90BC91A02DB7CF80912A05909163
:102730002B0588169906E1F466167706C8F4809191
:10274000140290911502009741F48DB79EB7409105
:10275000180250911902841B950BE817F907B0F481
:10276000F0932B05E0932A05F901718360830CC077
:10277000CB011CDE7C01009749F0A801BE011BD0F3
:10278000CE01ACDEC70104C0CE0102C080E090E003
:10279000DF91CF911F910F91FF90EF90DF90CF903D
:1027A000BF90AF909F908F907F906F90089581E041
:1027B00090E0F89410C0FB01DC0102C001900D9282
:1027C00041505040D8F70895FB01DC0101900D9273
:1027D0000020E1F7089511E0C7E2D1E000E005C074
:1027E000802FFE01C7DD2196011DC832D10780E090
:0827F0000807B1F7F894FFCFD0
:1027F80042024202420242024202420242024202B1
:102808000100000000002E058000000000002B0BD6
:10281800AF0ADD0A780B5A01EC0A000B72656D6F7E
:1028280076654C6566745065646F6D657465720095
:1028380072656D6F766552696768745065646F6D0F
:102848006574657200616464526967687450656490
:102858006F6D657465720063757272656E74526926
:1028680067687447726964436F756E743A006C6583
:10287800667453756D3A0063757272656E744C6553
:10288800667447726964436F756E743A006F6E4C74
:102898006566745065646F6D657465723A2063612E
:1028A8006C6C206261636B006164644C656C74508D
:1028B80065646F6D65746572006F6E5F6261636BEE
:1028C8005F72696768745F6372617368006F6E5FD7
:1028D800666F72776172645F6C6566745F6372615C
:1028E800736820006F6E5F666F72776172645F72E3
:1028F800696768745F6372617368000D0A007475B4
:10290800726E526967687400564D4450565F317C48
:10291800315F564D4450560A0077656C636F6D659C
:1029280020746F20636C65616E20726F626F740033
:1029380073706565647570007370656564646F773E
:102948006E0073706565646174006C65667400740C
:1029580075726E6C6566746174007269676874007C
:102968007475726E7269676874617400666F7277E5
:0A2978006172640073746F70000058
:00000001FF
