:1000000027C1000013C60000E6C50000B9C5000006
:100010008CC500005FC5000032C5000005C50000AA
:10002000D8C4000046C1000044C1000042C1000025
:1000300040C100003EC100003CC1000069C6000094
:1000400038C1000036C1000034C1000032C10000D8
:1000500030C100002EC100002CC1000070C400009F
:1000600028C100000C943E0D0C94140D22C1000018
:1000700020C100001EC100001CC100001AC1000008
:1000800018C1000016C1000014C1000012C1000018
:1000900010C100000EC100000CC100000AC1000028
:1000A00008C1000006C1000004C1000002C1000038
:1000B00000C10000FEC00000FCC00000FAC000004B
:1000C000F8C00000F6C00000F4C00000F2C000005C
:1000D000F0C00000EEC00000ECC00000EAC000006C
:1000E000E8C00000BA01BD01AC01B001B601F401E5
:1000F000C101C501CB01CF01D301D901DD01E1016E
:10010000F401E701EB01EF01B303B803BD03C7033B
:10011000D1034A04DB03E303EB03F503FF03090404
:10012000180422044A042C04360440040000210070
:10013000240027002A002D003000330001010000B8
:10014000040107010A0100002200250028002B00FD
:100150002E003100340002010000050108010B01EE
:10016000000020002300260029002C002F00320070
:100170000001000003010601090105050505070549
:1001800008080808020202020A0A08080404040413
:10019000010101010101010103030303030303033F
:1001A000040707070C0C0C0C0C0C0C0C02020202CE
:1001B00006060606060606060B0B0B0B0B0B0B0BB7
:1001C0000102102020080810204010204080020169
:1001D000020108040201010204081020408080404E
:1001E000201008040201800402018040201008044D
:1001F00002010804020101020408102040800102EB
:1002000004081020408000000A0B02090C0D0E08A3
:1002100007030401000000000000000000000000CF
:1002200000000000000000000000000000000000CE
:10023000000012111000000000000000000000008B
:10024000000000000000000000000000740D041118
:1002500011241FBECFEFD1E2DEBFCDBF00E00CBF47
:1002600013E0A0E0B2E0EEEFF8E200E00BBF02C066
:1002700007900D92AA38B107D9F729E0AAE8B3E0B0
:1002800001C01D92A03EB207E1F711E0C7E2D1E044
:1002900000E006C021970109802FFE010E943D1257
:1002A000C632D10780E00807A9F70E948C0F0C9492
:1002B0006E14A6CEFC01918D228D892F90E0805C7A
:1002C0009F4F821B91098F739927089580E090E0DA
:1002D000892B21F00E94D60B811125C080E090E08F
:1002E000892B41F080E090E0892B21F00E940000F2
:1002F00081111CC080E090E0892B41F080E090E00B
:10030000892B21F00E940000811113C080E090E051
:10031000892BA1F080E090E0892B81F00E94000001
:1003200081110AC008950E940000D8CF0E940000E9
:10033000E1CF0E940000EACF0C940000089590E005
:10034000FC013197E231F10508F04EC08827EE58E4
:10035000FF4F8F4F0C943D12809180008F7703C028
:10036000809180008F7D809380000895809180002F
:10037000877FF9CF84B58F7702C084B58F7D84BD28
:1003800008958091B0008F7703C08091B0008F7D79
:100390008093B0000895809190008F7707C080917E
:1003A00090008F7D03C080919000877F80939000A4
:1003B00008958091A0008F7707C08091A0008F7D65
:1003C00003C08091A000877F8093A0000895809152
:1003D00020018F7707C0809120018F7D03C080911D
:1003E0002001877F809320010895CF93DF93282FEA
:1003F00030E0F901EA5FFD4F8491F901E054FE4FCE
:10040000D491F901E658FE4FC491CC2389F08111B3
:1004100096DFEC2FF0E0EE0FFF1FE05AFE4FA591A4
:10042000B491EC91ED2381E090E021F480E002C0F2
:1004300080E090E0DF91CF9108953FB7F8948091EC
:10044000950390919603A0919703B091980326B5D8
:10045000A89B05C02F3F19F00196A11DB11D3FBFFC
:10046000BA2FA92F982F8827820F911DA11DB11D8A
:10047000BC01CD0142E0660F771F881F991F4A9586
:10048000D1F7089508950895E0917C04F0917D04DA
:1004900081E083830895E0917C04F0917D041282D1
:1004A000089589E993E00E942D0CA0917E04B091FB
:1004B0007F042D913C91119712968D919C911397E9
:1004C00011961C921E9213961C921E9212979A9647
:1004D000ED91FC919B97318320839896ED91FC914F
:1004E0009997918380839696ED91FC919797309799
:1004F00019F0CD018C96199408950E944F0C89E94A
:1005000093E00C942D0C80918E0390918F030297B1
:1005100054F0E0917C04F0917D0462E370E080810E
:1005200091810E94CD0AE0917C04F0917D046AE003
:1005300070E0808191810C94CD0AE5CFE4CFE09109
:100540007C04F0917D046AE570E0808191810C94D7
:10055000CD0AE0917C04F0917D046CE370E0808131
:1005600091810C94CD0AE0917C04F0917D046AE5C0
:1005700070E0808191810C94CD0AE0917C04F0912F
:100580007D046CE370E0808191810C940E0BE0910E
:100590007C04F0917D046AE570E0808191810C9487
:1005A0000E0BE0917C04F0917D046AE570E080819F
:1005B00091810C940E0B0E94791128EE33E040E0FB
:1005C00050E00E94EF11E0917C04F0917D0460FD09
:1005D00005C06AE570E080819181DFC76AE570E05F
:1005E000808191810C940E0BFC01848DDF01A80F9A
:1005F000B11DA35ABF4F2C91848D90E001968F734B
:100600009927848FA689B7892C93A089B1898C9169
:10061000837080648C93938D848D981306C00288B8
:10062000F389E02D80818F7D808308951F93CF9380
:10063000DF93282F30E0F901EA5FFD4F8491F90143
:10064000E054FE4FD491F901E658FE4FC491CC23FB
:10065000B9F0162F811173DEEC2FF0E0EE0FFF1FC3
:10066000EA5BFE4FA591B4919FB7F894111104C0B5
:100670008C91D095D82302C0EC91DE2BDC939FBFE8
:10068000DF91CF911F910895CF93DF9390E0FC010C
:10069000E054FE4F2491FC01E658FE4F84918823DC
:1006A00061F190E0880F991FFC01E45DFE4FC59158
:1006B000D491FC01EA5BFE4FA591B491611109C090
:1006C0009FB7F8948881209582238883EC912E230C
:1006D0000BC0623061F49FB7F8948881322F309557
:1006E00083238883EC912E2B2C939FBF06C08FB75A
:1006F000F894E8812E2B28838FBFDF91CF91089546
:100700000F931F93CF93DF93FC0177FF02C060E04C
:1007100070E0EB016F3F710519F014F0CFEFD0E0FE
:10072000D587C487D387C2870681178161E0802F70
:10073000ABDF209709F4B1C0CF3FD10509F4AFC0BA
:10074000F801FF27EA5FFD4FE4918E2F90E0FC0156
:100750003197E231F10508F09DC08827EC57FF4F33
:100760008F4F0C943D1284B5806884BDC7BD9EC078
:1007700084B5806284BDC8BD99C0809180008068C6
:1007800080938000D0938900C09388008FC08091AF
:100790008000806280938000D0938B00C0938A0099
:1007A00085C080918000886080938000D0938D0008
:1007B000C0938C007BC08091B00080688093B000B3
:1007C000C093B30073C08091B00080628093B0008A
:1007D000C093B4006BC080919000806880939000BB
:1007E000D0939900C093980061C08091900080627E
:1007F00080939000D0939B00C0939A0057C0809143
:100800009000886080939000D0939D00C0939C00DE
:100810004DC08091A00080688093A0008091A000CE
:100820008F7B8093A000D093A900C093A8003EC006
:100830008091A00080628093A000D093AB00C09311
:10084000AA0034C08091A00088608093A000D0935B
:10085000AD00C093AC002AC08091200180688093D5
:100860002001D0932901C093280120C0809120014C
:10087000806280932001D0932B01C0932A0116C07F
:1008800080912001886080932001D0932D01C09336
:100890002C010CC0C038D10514F460E001C061E047
:1008A000802FDF91CF911F910F91C0CEDF91CF911B
:1008B0001F910F9108958F929F92AF92BF92CF9206
:1008C000DF92EF92FF926B017C01B7DD4B015C017F
:1008D000C114D104E104F104E9F0AFDDDC01CB0186
:1008E00088199909AA09BB09883E9340A105B10559
:1008F00078F321E0C21AD108E108F10888EE880EE9
:1009000083E0981EA11CB11CC114D104E104F104C0
:1009100021F7DECFFF90EF90DF90CF90BF90AF90A8
:100920009F908F9008952FB7F894609191037091E4
:10093000920380919303909194032FBF08951F9287
:100940000F920FB60F9211242F933F938F939F9383
:10095000AF93BF938091910390919203A0919303E1
:10096000B09194033091900323E0230F2D3720F4AE
:100970000196A11DB11D05C026E8230F0296A11DF9
:10098000B11D209390038093910390939203A093C1
:100990009303B09394038091950390919603A09153
:1009A0009703B09198030196A11DB11D8093950303
:1009B00090939603A0939703B0939803BF91AF9140
:1009C0009F918F913F912F910F900FBE0F901F908D
:1009D00018951F920F920FB60F9211240BB60F921B
:1009E0002F933F934F935F936F937F938F939F9337
:1009F000AF93BF93EF93FF93E0910E02F0910F023C
:100A00001995FF91EF91BF91AF919F918F917F9138
:100A10006F915F914F913F912F910F900BBE0F906F
:100A20000FBE0F901F9018951F920F920FB60F9246
:100A300011240BB60F922F933F934F935F936F93B5
:100A40007F938F939F93AF93BF93EF93FF93E09127
:100A50000C02F0910D021995FF91EF91BF91AF91AA
:100A60009F918F917F916F915F914F913F912F91C6
:100A70000F900BBE0F900FBE0F901F9018951F92F6
:100A80000F920FB60F9211240BB60F922F933F9334
:100A90004F935F936F937F938F939F93AF93BF9386
:100AA000EF93FF93E0910202F09103021995FF91F9
:100AB000EF91BF91AF919F918F917F916F915F91D6
:100AC0004F913F912F910F900BBE0F900FBE0F9043
:100AD0001F9018951F920F920FB60F9211240BB60C
:100AE0000F922F933F934F935F936F937F938F93C7
:100AF0009F93AF93BF93EF93FF93E0910002F09128
:100B000001021995FF91EF91BF91AF919F918F9144
:100B10007F916F915F914F913F912F910F900BBEFD
:100B20000F900FBE0F901F9018951F920F920FB647
:100B30000F9211240BB60F922F933F934F935F9315
:100B40006F937F938F939F93AF93BF93EF93FF9395
:100B5000E0910A02F0910B021995FF91EF91BF917C
:100B6000AF919F918F917F916F915F914F913F9145
:100B70002F910F900BBE0F900FBE0F901F901895E6
:100B80001F920F920FB60F9211240BB60F922F9354
:100B90003F934F935F936F937F938F939F93AF9305
:100BA000BF93EF93FF93E0910802F091090219952A
:100BB000FF91EF91BF91AF919F918F917F916F9135
:100BC0005F914F913F912F910F900BBE0F900FBEF1
:100BD0000F901F9018951F920F920FB60F9211242D
:100BE0000BB60F922F933F934F935F936F937F9327
:100BF0008F939F93AF93BF93EF93FF93E091060280
:100C0000F09107021995FF91EF91BF91AF919F91DC
:100C10008F917F916F915F914F913F912F910F90A5
:100C20000BBE0F900FBE0F901F9018951F920F9242
:100C30000FB60F9211240BB60F922F933F934F9341
:100C40005F936F937F938F939F93AF93BF93EF9334
:100C5000FF93E0910402F09105021995FF91EF9145
:100C6000BF91AF919F918F917F916F915F914F91C4
:100C70003F912F910F900BBE0F900FBE0F901F90C2
:100C80001895CF93DF93EC0161E08A81CFDC60E0BF
:100C90008C81CCDC82E090E099878887DF91CF91CE
:100CA0000895CF93DF93EC0160E08A81BFDC61E0BF
:100CB0008C81BCDC81E090E099878887DF91CF91BF
:100CC00008950F931F93CF93DF93EC018B017B87E4
:100CD0006A878881998114DDB8018A819B8110DD42
:100CE000FE01E05CFF4F80819181019761F4B801C2
:100CF0008C819D8105DDB8018E819F81DF91CF912F
:100D00001F910F91FDCCDF91CF911F910F9108950D
:100D10001F920F920FB60F9211240BB60F922F93C2
:100D20003F934F935F936F937F938F939F93AF9373
:100D3000BF93EF93FF938091A4049091A5048093B7
:100D4000B2008091A7049091A804A091A904B09149
:100D5000AA040196A11DB11D8093A7049093A80435
:100D6000A093A904B093AA048091A7049091A80429
:100D7000A091A904B091AA044091A0045091A104AB
:100D80006091A2047091A30484179507A607B70782
:100D900010F18091A60481111EC081E08093A60409
:100DA0008091A7049091A804A091A904B091AA04ED
:100DB000841B950BA60BB70B8093A7049093A804F4
:100DC000A093A904B093AA04E0919E04F0919F041B
:100DD00019951092A604FF91EF91BF91AF919F9149
:100DE0008F917F916F915F914F913F912F910F90D4
:100DF0000BBE0F900FBE0F901F9018950F931F936F
:100E0000CF93DF9300D000D0CDB7DEB78C01FC01CB
:100E1000138E128E158E148E168E6CE272E0CE0139
:100E20000196B7D5CE010196AAD3CE010196ADD5D4
:100E3000F80112A211A214A213A215A260E472E09A
:100E4000CE010196A6D5CE01019699D3CE01019689
:100E50009CD526960FB6F894DEBF0FBECDBFDF91AE
:100E6000CF911F910F910895CF93DF9300D000D0C1
:100E7000CDB7DEB7FC0172A361A354A343A381E005
:100E800085A365E572E0CE01019683D5CE0101967A
:100E900076D3CE01019679D526960FB6F894DEBFAB
:100EA0000FBECDBFDF91CF910895CF92DF92EF9229
:100EB000FF920F931F93CF93DF93EC017B016A01A5
:100EC0008C01045F1F4FC80199DFA601B701C8015B
:100ED000CBDF81E090E09987888788819981E1DE86
:100EE0008A819B81DEDEFE01E05CFF4F8081918183
:100EF000019731F48C819D81D4DE8E819F81D1DE7A
:100F00006A857B85CE01DF91CF911F910F91FF9074
:100F1000EF90DF90CF90D5CEE0917C04F0917D04EE
:100F200081E083838283FFDC20918A0330918B03ED
:100F3000AB01421B530B9A01293E334058F42091D8
:100F40008E0330918F032F5F3F4F30938F03209399
:100F50008E0304C010928F0310928E03DC01CB012C
:100F6000AA27BB2780938A0390938B03A0938C03BB
:100F7000B0938D03E0917C04F0917D048081918198
:100F8000FC01208531852130310529F04DE952E001
:100F900068EC70E08ACF08950F931F93CF93DF938F
:100FA00000D000D0CDB7DEB700917E0410917F0451
:100FB000D80195968C919597882309F441C05F9646
:100FC0008D919C919097019690969C938E935F97AC
:100FD00062E370E00E942A12892B79F467E672E0DE
:100FE000CE010196D6D4CE010196C9D2CE0101968A
:100FF000CCD4F801878D90A180DAD8015F962D912D
:101000003C91909791968D919C91929728173907D2
:10101000B9F49396ED91FC91949780E090E0199546
:10102000F801878D90A13BD4D80194961C921E9212
:10103000939795961C92959790961C921E925F9707
:10104000F8018281938101969383828382A993A977
:10105000019693AB82AB26960FB6F894DEBF0FBE17
:10106000CDBFDF91CF911F910F9108950F931F93E3
:10107000CF93DF9300D000D0CDB7DEB700917E04D0
:1010800010917F04D801D0968D919C91D19762E305
:1010900070E00E942A12892BD9F46EE772E0CE012B
:1010A000019677D44D815E8169817A8189E993E0E7
:1010B0001CD389E993E0D1D3CE01019666D4F8011F
:1010C00080A991A91ADAD8015E968C9190E015DA80
:1010D000F801868D882309F441C0808D918D019699
:1010E000918F808F62E370E00E942A12892B89F42D
:1010F00067E872E0CE0101964CD4CE0101963FD252
:10110000CE01019642D4D80158968D919C91599761
:10111000F4D9F801208D318D828D938D28173907F0
:10112000E9F4848D958D892BC9F06DE972E0CE01CB
:1011300001962FD4CE01019622D2CE01019625D45C
:10114000D8015C96ED91FC915D9780E090E0199557
:10115000F801158E148E168E118E108ED8018D9179
:101160009C911197019611969C938E93D0968D9198
:101170009C91D1970196D1969C938E93D097269669
:101180000FB6F894DEBF0FBECDBFDF91CF911F9198
:101190000F910895CF92DF92EF92FF920F931F93DA
:1011A000CF93DF9300D000D0CDB7DEB7FC01208510
:1011B00031852230310591F17A016B018C010C9659
:1011C0001DDEF801D7A2C6A2F1A6E0A681E082A7A3
:1011D00068EB72E0CE010196DCD3CE010196CFD14F
:1011E000CE010196D2D382E090E0F801918780870A
:1011F0008081918146DDF8018281938142DDF80191
:10120000E05CFF4F80819181019741F4F801848176
:10121000958137DDF8018681978133DD26960FB6FB
:10122000F894DEBF0FBECDBFDF91CF911F910F911C
:10123000FF90EF90DF90CF900895E0917C04F091C3
:101240007D0444E452E068EC70E080819181A2CF9B
:10125000CF93DF9300D000D0CDB7DEB769EC72E05A
:10126000CE01019696D3CE01019689D1CE01019689
:101270008CD3E0917C04F0917D0481E083838283B0
:1012800052DB20918A0330918B03AB01421B530B3D
:101290009A01293E334058F420918E0330918F03F8
:1012A0002F5F3F4F30938F0320938E0304C0109223
:1012B0008F0310928E03DC01CB01AA27BB278093FA
:1012C0008A0390938B03A0938C03B0938D03E091DA
:1012D0007C04F0917D0480819181FC012085318521
:1012E0002130310529F04EE952E068EC70E0DDDD97
:1012F00026960FB6F894DEBF0FBECDBFDF91CF911B
:1013000008958F929F92AF92BF92CF92DF92EF9209
:10131000FF920F931F93CF93DF9300D000D0CDB7F0
:10132000DEB76DED72E0CE01019633D3CE010196AA
:1013300026D1CE01019629D3E0917C04F0917D0461
:1013400081E08383828384E350D85C0184E34DD8B9
:101350004C0180E34AD86C018EE247D87C0184E3DB
:1013600044D88C0182E341D8E0917C04F0917D0463
:10137000892819F5AB2809F521E0C216D10469F4D2
:1013800021E0E216F10459F40130110569F48130CD
:10139000910561F44BED52E00DC0CD2811F0EF281E
:1013A00019F447EC52E006C0012B11F0892B29F407
:1013B0004FE952E064E670E004C04DEB52E06EE5A8
:1013C00071E080819181E6DE26960FB6F894DEBF4B
:1013D0000FBECDBFDF91CF911F910F91FF90EF9086
:1013E000DF90CF90BF90AF909F908F9008957F92A5
:1013F0008F929F92AF92BF92CF92DF92EF92FF9225
:101400000F931F93CF93DF9300D000D0CDB7DEB7FB
:1014100064EF72E0CE010196BCD2CE010196AFD04E
:10142000CE010196B2D2E0917C04F0917D0481E07E
:101430008383828384E30E94F5014C0184E30E944C
:10144000F501782E80E30E94F5015C018EE20E9496
:10145000F5016C0184E30E94F5017C0182E30E94A6
:10146000F5018C01892899F5872D0E94F501892BBA
:10147000C9F581E0A816B10491F481E0C816D10441
:1014800081F481E0E816F104A9F401301105A1F41A
:10149000E0917C04F0917D044BED52E015C0AB2847
:1014A00011F0CD2839F4E0917C04F0917D0441EDF8
:1014B00052E00AC0EF2811F0012BA1F4E0917C0466
:1014C000F0917D0443EB52E064E670E008C0E091E7
:1014D0007C04F0917D0449EA52E06EE571E0808180
:1014E000918158DE26960FB6F894DEBF0FBECDBFB1
:1014F000DF91CF911F910F91FF90EF90DF90CF90F0
:10150000BF90AF909F908F907F900895E9E9F3E0AE
:10151000A089B18982E08C93A485B5851C92A685AB
:10152000B78580E18C93108EA489B58986E08C9371
:10153000A289B3898C9180618C93A289B3898C91A3
:1015400088608C93A289B3898C9180688C9302887F
:10155000F389E02D80818F7D80830895009761F06D
:10156000FC0101900020E9F73197AF01481B590BAE
:10157000BC0189E993E0B9C080E090E00895FC01E6
:10158000448155816081718189E993E0AED084E521
:1015900093E0E4DF89E993E060C1EF92FF920F935B
:1015A0001F93CF93DF93FC012085318528303105CF
:1015B00071F18B01EC017C01FCE0EF0EF11CC70125
:1015C0001DDC88E090E0998788874BE452E0B80101
:1015D000C7014ADC8881998164DB8A819B8151DB68
:1015E000FE01E05CFF4F80819181019731F48C8195
:1015F0009D8157DB8E819F8144DB6A857B85CE018F
:10160000DF91CF911F910F91FF90EF905ACBDF9117
:10161000CF911F910F91FF90EF900895CF92DF929D
:10162000EF92FF920F931F93CF93DF9300D000D0E0
:10163000CDB7DEB7FC01208531852730310509F4AF
:1016400045C07B018C016C01FCE0CF0ED11CC601B2
:10165000D5DB87E090E0F801918780874BE452E08A
:10166000B701C60101DCF801808191810ADBF80134
:101670008281938116DBF801E05CFF4F80819181CC
:101680000197A1F4F801848195810BDBF801E680D4
:10169000F78060E0F70182810E94160360E0F701A5
:1016A00084810E941603F70111861086F801628575
:1016B0007385C80106DB67E573E0CE01019669D149
:1016C000CE0101965CDFCE0101965FD126960FB662
:1016D000F894DEBF0FBECDBFDF91CF911F910F9168
:1016E000FF90EF90DF90CF900895CF92DF92EF922E
:1016F000FF920F931F93CF93DF936C017A018B01BD
:10170000C0E0D0E0CE15DF0581F0D8016D918D01EC
:10171000D601ED91FC910190F081E02DC601199563
:10172000892B11F02196EECF7E01C701DF91CF9179
:101730001F910F91FF90EF90DF90CF900895089543
:1017400080E090E00895FC01538D448D252F30E01A
:10175000842F90E0821B930B541710F0CF960895BE
:1017600001970895FC01918D828D981761F0828D0B
:10177000DF01A80FB11D5D968C91928D9F5F9F73C5
:10178000928F90E008958FEF9FEF0895FC01918D67
:10179000828D981731F0828DE80FF11D858D90E0D4
:1017A00008958FEF9FEF08950E945A1489E993E0FE
:1017B0000E945A0121E0892B09F420E0822F08952C
:1017C000EF92FF920F931F93CF93DF93EC0181E091
:1017D000888F9B8D8C8D981305C0E889F98980814D
:1017E00085FD26C0F62E0B8D10E00F5F1F4F0F7387
:1017F0001127E02E8C8DE8120CC00FB607FCFACF33
:10180000E889F989808185FFF5CFCE010E94F40235
:10181000F1CF8B8DFE01E80FF11DE35AFF4FF082EF
:101820009FB7F8940B8FEA89FB89808180620AC098
:101830009FB7F894EE89FF896083E889F9898081F0
:101840008370806480839FBF81E090E0DF91CF91BF
:101850001F910F91FF90EF900895CF93DF93EC01CC
:10186000888D8823C9F0EA89FB89808185FD05C0C0
:10187000A889B9898C9186FD0FC00FB607FCF5CFFA
:10188000808185FFF2CFA889B9898C9185FFEDCF42
:10189000CE010E94F402E7CFDF91CF9108958F929D
:1018A0009F92AF92BF92CF92DF92EF92FF920F93EF
:1018B0001F93CF93DF93CDB7DEB7A1970FB6F89400
:1018C000DEBF0FBECDBF6C01990FEE08FF08F7FE1B
:1018D00028C06DE289E993E073DF8C01222733276A
:1018E000A9012C193D094E095F0919A2CE01819663
:1018F0007C019AE0892E912CA12CB12CCA01B9014E
:10190000A50194014AD5605DF70162937F0121151D
:1019100031054105510591F7CF0120DE080F191F50
:101920001CC0A701960119A28E010F5D1F4F8AE00E
:10193000C82ED12CE12CF12CCA01B901A7019601C6
:101940002CD5605DF80162938F01211531054105A9
:10195000510591F7CF0102DE8C0184E593E0FEDDB5
:10196000800F911FA1960FB6F894DEBF0FBECDBFBA
:10197000DF91CF911F910F91FF90EF90DF90CF906B
:10198000BF90AF909F908F900895FC0180819181CE
:1019900028C6EF92FF920F931F93CF93DF93EC0132
:1019A000198218821B821A821D821C8261157105A0
:1019B000A1F17B01FB0101900020E9F731978F0134
:1019C000061B170BB8016F5F7F4F80E090E092D647
:1019D000009759F0998388831B830A832C813D816A
:1019E000232B79F4FC0110820CC088819981009727
:1019F00009F0F7D5198218821D821C821B821A8277
:101A00000CC01D830C83B70188819981DF91CF9130
:101A10001F910F91FF90EF905AC7DF91CF911F91C7
:101A20000F91FF90EF9008951F920F920FB60F92B3
:101A300011240BB60F922F933F934F935F936F93A5
:101A40007F938F939F93AF93BF93EF93FF9389E916
:101A500093E00E94F402FF91EF91BF91AF919F91AB
:101A60008F917F916F915F914F913F912F910F9047
:101A70000BBE0F900FBE0F901F9018951F920F92E4
:101A80000FB60F9211240BB60F922F938F939F9343
:101A9000EF93FF93E091A903F091AA038081E09175
:101AA000AF03F091B00382FD12C090818091B20328
:101AB0008F5F8F732091B303821751F0E091B203CF
:101AC000F0E0E756FC4F958F8093B20301C0808110
:101AD000FF91EF919F918F912F910F900BBE0F90DF
:101AE0000FBE0F901F901895CF93DF9310929C0319
:101AF00010929B0388EE93E0A0E0B0E080939D03FA
:101B000090939E03A0939F03B093A0038EE192E075
:101B100090939A038093990385EC90E09093A603A9
:101B20008093A50384EC90E09093A8038093A7038F
:101B300080EC90E09093AA038093A90381EC90E05D
:101B40009093AC038093AB0382EC90E09093AE0350
:101B50008093AD0386EC90E09093B0038093AF0345
:101B60001092B2031092B3031092B4031092B50313
:101B700010923C0410923D0410923E0410923F04D7
:101B800010924004109241041092420410924304B7
:101B90001092440410924504109246041092470497
:101BA000109248041092490410924A0410924B0477
:101BB0006BE073E086ED99E0ECDE63E173E080EDCD
:101BC00099E0E7DE6DE173E08AEC99E0E2DE65E240
:101BD00073E084EC99E0DDDE6AE273E08EEB99E07D
:101BE000D8DE65E373E088EB99E0D3DE6BE373E066
:101BF00082EB99E0CEDE67E473E08CEA99E0C9DE1F
:101C000063EB72E086EA99E0C4DE6FE473E080EA99
:101C100099E0BFDE10929104109290041092990402
:101C20001092980410929B0410929A0410929D04B2
:101C300010929C0480E290E090939304809392042D
:101C40008EE190E0909395048093940486E090E078
:101C5000909397048093960461E080E20E9444038D
:101C600061E08EE10E94440361E086E00E9444034B
:101C7000109283041092820410928B0410928A04B2
:101C800010928D0410928C0410928F0410928E0486
:101C90008AE190E090938504809384048CE190E045
:101CA000909387048093860487E090E09093890462
:101CB0008093880461E08AE10E94440361E08CE142
:101CC0000E94440361E087E00E9444031092B40440
:101CD0001092B3041092B6041092B5041092B80496
:101CE0001092B7041092BA041092B9041092BB0477
:101CF0001092BC041092BD041092BE041092BF0456
:101D00001092C0041092C1041092C2041092C30435
:101D10001092C4041092C5041092C6041092C70415
:101D20001092C8041092C9041092CA041092CB04F5
:101D30001092CC041092CD041092CE041092D004D4
:101D40001092CF041092E4041092E3041092E6047F
:101D50001092E5041092E8041092E7041092EA044D
:101D60001092E90481E090E09093EC048093EB04FE
:101D70001092ED04C0E0D0E066E573E0CE01825140
:101D80009B4F07DE2696C03B84E0D807A9F7109248
:101D90009F0910929E0982E894E09093AC0480938E
:101DA000AB0420E934E03093AE042093AD0442E06C
:101DB00050E05093EC044093EB0447EB54E0509315
:101DC0007F0440937E043093E2042093E1049093D7
:101DD000E0048093DF0486E398E09093010280930F
:101DE000000280916A008C7F826080936A00EC9A86
:101DF0008CEC97E0909303028093020280916A003A
:101E0000837F886080936A00ED9A83E492E09093E8
:101E1000DE048093DD0484E090E04BD3FC01128269
:101E200013828BEA94E091838083F0937D04E093A6
:101E30007C0460E082E20E94440360E084E20E944D
:101E4000440360E086E20E94440360E088E20E946E
:101E5000440360E08AE20E94440360E08CE20E9456
:101E6000440360E08EE20E94440360E080E30E944D
:101E7000440360E082E30E94440360E084E30E9444
:101E8000440362E085E10E94440362E084E10E9431
:101E9000440362E082E10E94440362E083E10E9425
:101EA00044038CE897E090930502809304028091AC
:101EB00069008C7F826080936900E89A88E299E0EB
:101EC000909307028093060280916900837F886067
:101ED00080936900E99A81E899E090930B028093DE
:101EE0000A02809169008F73806880936900EB9A81
:101EF00087EF99E09093090280930802809169002E
:101F00008F7C806280936900EA9A1092810410921B
:101F10008004DF91CF910895CF93DF9300D000D05C
:101F2000CDB7DEB7789484B5826084BD84B5816016
:101F300084BD85B5826085BD85B5816085BD809194
:101F40006E00816080936E0010928100809181000C
:101F50008260809381008091810081608093810004
:101F6000809180008160809380008091B1008460C6
:101F70008093B1008091B00081608093B000809127
:101F800091008260809391008091910081608093A4
:101F90009100809190008160809390008091A100D9
:101FA00082608093A1008091A10081608093A10054
:101FB0008091A00081608093A000809121018260C7
:101FC0008093210180912101816080932101809182
:101FD000200181608093200180917A008460809349
:101FE0007A0080917A00826080937A0080917A00F2
:101FF000816080937A0080917A00806880937A0073
:102000001092C100109278041092790410927A0410
:1020100010927B04109238041092390410923A0402
:1020200010923B040E9493046B017C014B015C0104
:1020300088EB880E8BE0981EA11CB11C0E949304B3
:102040006C157D058E059F0528F086169706A80657
:10205000B906A0F768EE73E080E090E00E945B04B0
:1020600055DA0E9493046093380470933904809386
:102070003A0490933B0481E693E070DA0E94930463
:102080006B017C014B015C01EAE08E0E911CA11CEE
:10209000B11C0E9493046C157D058E059F0528F0E8
:1020A00086169706A806B906A0F781E080934C042F
:1020B0002DDA8091A100887F85608093A10062E77E
:1020C00073E0CE01019665DCCE01019658DACE01AF
:1020D00001965BDC88EE93E0A0E0B0E08093A00482
:1020E0009093A104A093A204B093A30481E592E08D
:1020F00090939F0480939E04809170008E7F8093C4
:1021000070008091B0008C7F8093B0008091B1000E
:10211000877F8093B1008091B6008F7D8093B60059
:10212000809170008D7F809370008091B1008460F9
:102130008093B1008091B1008C7F8093B10086E0E4
:1021400090E09093A5048093A4041092A7041092A9
:10215000A8041092A9041092AA041092A6048091D7
:10216000A4049091A5048093B200809170008160D6
:102170008093700066E970E08BEA94E00E9461064B
:1021800080917B00877F80937B0080E480937C003C
:1021900080917A00806480937A0080917A0086FD35
:1021A000FCCF609178008091790070E0782B072E49
:1021B000000C880B990B611571058105910509F0DB
:1021C000E3D000918004109181046AE070E080E027
:1021D00090E00E945B04F8018281811112C083812A
:1021E000882379F0138280819181FC0120853185DB
:1021F0002130310531F04DE159E060E971E00E9494
:1022000055070E946601DDCFCF93DF93C0E0D0E099
:10221000CE018856964FB9DB2697C0358BEFD8078D
:10222000B9F780EA99E0B1DB86EA99E0AEDB8CEAA7
:1022300099E0ABDB82EB99E0A8DB88EB99E0A5DBCA
:102240008EEB99E0A2DB84EC99E09FDB8AEC99E0CD
:102250009CDB80ED99E099DB86ED99E0DF91CF91F1
:1022600094CB8F929F92AF92BF92CF92DF92EF92D8
:10227000FF92CF93DF93EC01688179818A819B8102
:10228000611571058105910521F464E279ED8BE515
:1022900097E02DE133EF41E050E0A1D049015A0130
:1022A0009B01AC01A7EAB1E4B6D06B017C01ACEEB6
:1022B000B4EFA5019401BBD0DC01CB018C0D9D1DB9
:1022C000AE1DBF1DB7FF03C00197A109B0488883A9
:1022D0009983AA83BB83BC01CD019F77DF91CF9106
:1022E000FF90EF90DF90CF90BF90AF909F908F9036
:1022F00008958F929F92AF92BF92CF92DF92EF920A
:10230000FF926091100270911102809112029091DF
:102310001302611571058105910521F464E279EDDF
:102320008BE597E02DE133EF41E050E058D04901D3
:102330005A019B01AC01A7EAB1E46DD06B017C01AD
:10234000ACEEB4EFA501940172D0DC01CB018C0D91
:102350009D1DAE1DBF1DB7FF03C00197A109B04869
:102360008093100290931102A0931202B093130273
:10237000BC01CD019F77FF90EF90DF90CF90BF9091
:10238000AF909F908F900895609310027093110208
:1023900080931202909313020895A1E21A2EAA1BB1
:1023A000BB1BFD010DC0AA1FBB1FEE1FFF1FA21705
:1023B000B307E407F50720F0A21BB30BE40BF50B02
:1023C000661F771F881F991F1A9469F7609570958B
:1023D000809590959B01AC01BD01CF010895052E1C
:1023E00097FB16F400940FD057FD05D0D6DF07FCFD
:1023F00002D046F408C050954095309521953F4F46
:102400004F4F5F4F089590958095709561957F4FE0
:102410008F4F9F4F08950FD0A59F900DB49F900DA3
:10242000A49F800D911D11240895B7FFF4CFF3DF11
:10243000821B930B0895A29FB001B39FC001A39F7D
:10244000700D811D1124911DB29F700D811D1124ED
:10245000911D089597FB072E16F4009406D077FD82
:1024600008D013D007FC05D03EF4909581959F4F7E
:102470000895709561957F4F0895EE0FFF1F881F97
:102480008BBF0790F691E02D1994AA1BBB1B51E15D
:1024900007C0AA1FBB1FA617B70710F0A61BB70BD4
:1024A000881F991F5A95A9F780959095BC01CD0179
:1024B00008950F931F93CF93DF938230910510F40B
:1024C00082E090E0E091DE09F091DF0920E030E069
:1024D000A0E0B0E0309719F1408151810281138171
:1024E00048175907C8F08417950769F4109731F019
:1024F00012960C93129713961C9327C00093DE0933
:102500001093DF0922C02115310519F04217530736
:1025100018F49A01BD01EF01DF01F801DBCF2115AD
:102520003105F9F0281B390B2430310580F48A81FC
:102530009B816115710521F0FB019383828304C0A7
:102540009093DF098093DE09FE01329644C0FE01BC
:10255000E20FF31F8193919322503109398328832D
:102560003AC02091DC093091DD09232B41F4209100
:102570001602309117023093DD092093DC09209177
:102580001402309115022115310541F42DB73EB7E3
:102590004091180250911902241B350BE091DC097F
:1025A000F091DD09E217F307A0F42E1B3F0B28176B
:1025B000390778F0AC014E5F5F4F2417350748F0BC
:1025C0004E0F5F1F5093DD094093DC098193919377
:1025D00002C0E0E0F0E0CF01DF91CF911F910F91B9
:1025E0000895CF93DF93009709F481C0FC013297DF
:1025F00013821282A091DE09B091DF09109781F455
:1026000020813181820F931F2091DC093091DD09F7
:102610002817390751F5F093DD09E093DC0967C00D
:10262000ED0120E030E0CE17DF0740F44A815B8106
:102630009E0141155105F1F0EA01F5CFD383C28324
:1026400040815181840F951FC817D90759F488819B
:102650009981840F951F0296918380838A819B8143
:10266000938382832115310529F4F093DF09E093E8
:10267000DE093DC0E901FB83EA8349915991C40F0A
:10268000D51FEC17FD0761F480819181840F951FA0
:102690000296E90199838883828193819B838A834F
:1026A000E0E0F0E012968D919C911397009719F05D
:1026B000FD01DC01F7CF8D919C9111979D012E5F5B
:1026C0003F4F820F931F2091DC093091DD092817BD
:1026D000390769F4309729F41092DF091092DE0966
:1026E00002C013821282B093DD09A093DC09DF914E
:1026F000CF9108956F927F928F929F92AF92BF92E7
:10270000CF92DF92EF92FF920F931F93CF93DF93BD
:10271000009781F4CB01DF91CF911F910F91FF9032
:10272000EF90DF90CF90BF90AF909F908F907F9071
:102730006F90BFCEFC01E60FF71F9C0122503109BC
:10274000E217F30708F4A5C0EC01D9010D911C9123
:10275000119706171707A8F00530110508F497C060
:10276000C80104978617970708F491C00250110911
:10277000061B170B019311936D937C93CF0131DFEF
:1027800086C05B01A01AB10A4C01800E911EA09177
:10279000DE09B091DF09612C712CE12CF12C10972E
:1027A00009F446C08D919C911197A815B905B1F512
:1027B0006C0142E0C40ED11CCA14DB0478F14C0158
:1027C0008A189B08640142E0C40ED11C1296BC908A
:1027D00012971396AC91B5E0CB16D10440F0B282BB
:1027E000A38391828082D9016D937C9309C00E5F8F
:1027F0001F4F800F911FF90191838083EB2DFA2FDA
:10280000E114F10431F0D7011396FC93EE93129783
:102810003EC0F093DF09E093DE0939C068167906FF
:1028200008F43C017D0112960D90BC91A02DB7CF0C
:102830008091DC099091DD0988169906E1F466160D
:102840007706C8F48091140290911502009741F424
:102850008DB79EB74091180250911902841B950BB9
:10286000E817F907B0F4F093DD09E093DC09F9010A
:10287000718360830CC0CB011CDE7C01009749F0A2
:10288000A801BE011BD0CE01ACDEC70104C0CE0141
:1028900002C080E090E0DF91CF911F910F91FF90F7
:1028A000EF90DF90CF90BF90AF909F908F907F90F0
:1028B0006F90089581E090E0F89410C0FB01DC0176
:1028C00002C001900D9241505040D8F70895FB018D
:1028D000DC0101900D920020E1F7089511E0C7E2BC
:1028E000D1E000E005C0802FFE01C7DD2196011D6B
:0E28F000C832D10780E00807B1F7F894FFCF97
:1028FE0042024202420242024202420242024202AA
:10290E00010000000000E009800000000000E00B64
:10291E00750BA30B2D0C5A01B20BC60B72656D6FA6
:10292E0076654C6566745065646F6D65746572008E
:10293E0072656D6F766552696768745065646F6D08
:10294E006574657200616464526967687450656489
:10295E006F6D657465720063757272656E7452691F
:10296E0067687447726964436F756E743A006C657C
:10297E00667453756D3A0063757272656E744C654C
:10298E00667447726964436F756E743A006F6E4C6D
:10299E006566745065646F6D657465723A20636127
:1029AE006C6C206261636B006164644C656C745086
:1029BE0065646F6D65746572006F6E5F6261636BE7
:1029CE005F72696768745F6372617368006F6E5FD0
:1029DE00666F72776172645F6C6566745F63726155
:1029EE00736820006F6E5F666F72776172645F72DC
:1029FE00696768745F63726173680073706565649C
:102A0E007570007370656564646F776E00737065C2
:102A1E0065646174006C656674007475726E6C65C5
:102A2E0066746174007269676874007475726E7290
:102A3E0069676874617400666F727761726400739F
:102A4E00746F70000D0A007475726E526967687447
:102A5E0000564D4450565F317C315F564D445056B2
:102A6E000A0077656C636F6D6520746F20636C650B
:0A2A7E00616E20726F626F74000039
:00000001FF
