:1000000027C1000057C500002AC50000FDC400003C
:10001000D0C40000A3C4000076C4000049C400009E
:100020001CC4000046C1000044C1000042C10000E1
:1000300040C100003EC100003CC100008DC5000071
:1000400038C1000036C1000034C1000032C10000D8
:1000500030C100002EC100002CC10000B4C300005C
:1000600028C100000C94AC0B0C94820B22C1000040
:1000700020C100001EC100001CC100001AC1000008
:1000800018C1000016C1000014C1000012C1000018
:1000900010C100000EC100000CC100000AC1000028
:1000A00008C1000006C1000004C1000002C1000038
:1000B00000C10000FEC00000FCC00000FAC000004B
:1000C000F8C00000F6C00000F4C00000F2C000005C
:1000D000F0C00000EEC00000ECC00000EAC000006C
:1000E000E8C000001E022102100214021A02580287
:1000F000250229022F02330237023D024102450246
:1001000058024B024F02530216031B0320032A031B
:100110003403AD033E0346034E03580362036C03EE
:100120007B038503AD038F039903A3030000210024
:10013000240027002A002D003000330001010000B8
:10014000040107010A0100002200250028002B00FD
:100150002E003100340002010000050108010B01EE
:10016000000020002300260029002C002F00320070
:100170000001000003010601090105050505070549
:1001800008080808020202020A0A08080404040413
:10019000010101010101010103030303030303033F
:1001A000040707070C0C0C0C0C0C0C0C02020202CE
:1001B00006060606060606060B0B0B0B0B0B0B0BB7
:1001C0000102102020080810204010204080020169
:1001D000020108040201010204081020408080404E
:1001E000201008040201800402018040201008044D
:1001F00002010804020101020408102040800102EB
:1002000004081020408000000A0B02090C0D0E08A3
:1002100007030401000000000000000000000000CF
:1002200000000000000000000000000000000000CE
:10023000000012111000000000000000000000008B
:10024000000000000000000000000000000CE20BB5
:1002500011241FBECFEFD1E2DEBFCDBF00E00CBF47
:1002600013E0A0E0B2E0EEE0F3E200E00BBF02C07A
:1002700007900D92A63CB107D9F725E0A6ECB3E0B4
:1002800001C01D92A536B207E1F711E0C7E2D1E047
:1002900000E006C021970109802FFE010E94450F52
:1002A000C632D10780E00807A9F70E94A10D0C947F
:1002B0007611A6CEFC01918D228D892F90E0805C75
:1002C0009F4F821B91098F739927089580E090E0DA
:1002D000892B21F00E94130A811125C080E090E053
:1002E000892B41F080E090E0892B21F00E940000F2
:1002F00081111CC080E090E0892B41F080E090E00B
:10030000892B21F00E940000811113C080E090E051
:10031000892BA1F080E090E0892B81F00E94000001
:1003200081110AC008950E940000D8CF0E940000E9
:10033000E1CF0E940000EACF0C94000008950895D8
:1003400008958DEC93E00E946A0AA091EE04B091AA
:10035000EF042D913C91119712968D919C911397DA
:1003600011961C921E9213961C921E9212979A96A8
:10037000ED91FC919B97318320839896ED91FC91B0
:100380009997918380839696ED91FC9197973097FA
:1003900019F0CD018C9619940895BC01990F880B22
:1003A000990B97FF03C00E940E0B03C04AE00E9406
:1003B000AB0A88E292E00E948C0A8DEC93E00C94E8
:1003C0006A0AFC01848DDF01A80FB11DA35ABF4F3B
:1003D0002C91848D90E001968F739927848FA68944
:1003E000B7892C93A089B1898C91837080648C9398
:1003F000938D848D981306C00288F389E02D808147
:100400008F7D8083089590E0FC013197E231F10502
:1004100008F04EC08827EE58FF4F8F4F0C94450FC1
:10042000809180008F7703C0809180008F7D8093C2
:100430008000089580918000877FF9CF84B58F7701
:1004400002C084B58F7D84BD08958091B0008F7700
:1004500003C08091B0008F7D8093B000089580919B
:1004600090008F7707C0809190008F7D03C08091AE
:100470009000877F8093900008958091A0008F77EF
:1004800007C08091A0008F7D03C08091A000877F6E
:100490008093A0000895809120018F7707C08091FC
:1004A00020018F7D03C080912001877F80932001F0
:1004B00008951F93CF93DF93282F30E0F901EA5F6F
:1004C000FD4F8491F901E054FE4FD491F901E658B3
:1004D000FE4FC491CC23B9F0162F811194DFEC2F7D
:1004E000F0E0EE0FFF1FEA5BFE4FA591B4919FB7BE
:1004F000F894111104C08C91D095D82302C0EC91CE
:10050000DE2BDC939FBFDF91CF911F910895CF9396
:10051000DF93EC0161E08A81CCDF60E08C81C9DF90
:1005200082E090E099878887DF91CF910895CF93FB
:10053000DF93EC0160E08A81BCDF61E08C81B9DF90
:1005400081E090E099878887DF91CF910895CF93DC
:10055000DF9390E0FC01E054FE4F2491FC01E6584B
:10056000FE4F8491882361F190E0880F991FFC0170
:10057000E45DFE4FC591D491FC01EA5BFE4FA5916D
:10058000B491611109C09FB7F894888120958223A6
:100590008883EC912E230BC0623061F49FB7F894EE
:1005A0008881322F309583238883EC912E2B2C93D6
:1005B0009FBF06C08FB7F894E8812E2B28838FBF8A
:1005C000DF91CF9108950F931F93CF93DF93FC0199
:1005D00077FF02C060E070E0EB016F3F710519F03A
:1005E00014F0CFEFD0E0D587C487D387C2870681C8
:1005F000178161E0802FABDF209709F4B1C0CF3FB6
:10060000D10509F4AFC0F801FF27EA5FFD4FE4917F
:100610008E2F90E0FC013197E231F10508F09DC08A
:100620008827EC57FF4F8F4F0C94450F84B5806897
:1006300084BDC7BD9EC084B5806284BDC8BD99C05D
:1006400080918000806880938000D0938900C0935F
:1006500088008FC080918000806280938000D0935A
:100660008B00C0938A0085C0809180008860809351
:100670008000D0938D00C0938C007BC08091B0002F
:1006800080688093B000C093B30073C08091B000C5
:1006900080628093B000C093B4006BC080919000E2
:1006A000806880939000D0939900C093980061C0B7
:1006B00080919000806280939000D0939B00C093C3
:1006C0009A0057C080919000886080939000D093EA
:1006D0009D00C0939C004DC08091A00080688093D5
:1006E000A0008091A0008F7B8093A000D093A900F0
:1006F000C093A8003EC08091A00080628093A000BB
:10070000D093AB00C093AA0034C08091A000886051
:100710008093A000D093AD00C093AC002AC080911C
:100720002001806880932001D0932901C093280183
:1007300020C080912001806280932001D0932B0102
:10074000C0932A0116C08091200188608093200107
:10075000D0932D01C0932C010CC0C038D10514F4E6
:1007600060E001C061E0802FDF91CF911F910F9178
:10077000A0CEDF91CF911F910F9108953FB7F894CC
:100780008091C9039091CA03A091CB03B091CC038F
:1007900026B5A89B05C02F3F19F00196A11DB11DDC
:1007A0003FBFBA2FA92F982F8827820F911DA11D17
:1007B000B11DBC01CD0142E0660F771F881F991F54
:1007C0004A95D1F708951F920F920FB60F921124F8
:1007D0002F933F938F939F93AF93BF9380915D052A
:1007E00090915E05A0915F05B09160053091C803BE
:1007F00023E0230F2D3720F40196A11DB11D05C064
:1008000026E8230F0296A11DB11D2093C8038093F3
:100810005D0590935E05A0935F05B09360058091A0
:10082000C9039091CA03A091CB03B091CC03019668
:10083000A11DB11D8093C9039093CA03A093CB035C
:10084000B093CC03BF91AF919F918F913F912F9126
:100850000F900FBE0F901F9018951F920F920FB61A
:100860000F9211240BB60F922F933F934F935F93E8
:100870006F937F938F939F93AF93BF93EF93FF9368
:10088000E0910E02F0910F021995FF91EF91BF9147
:10089000AF919F918F917F916F915F914F913F9118
:1008A0002F910F900BBE0F900FBE0F901F901895B9
:1008B0001F920F920FB60F9211240BB60F922F9327
:1008C0003F934F935F936F937F938F939F93AF93D8
:1008D000BF93EF93FF93E0910C02F0910D021995F5
:1008E000FF91EF91BF91AF919F918F917F916F9108
:1008F0005F914F913F912F910F900BBE0F900FBEC4
:100900000F901F9018951F920F920FB60F921124FF
:100910000BB60F922F933F934F935F936F937F93F9
:100920008F939F93AF93BF93EF93FF93E091020256
:10093000F09103021995FF91EF91BF91AF919F91B3
:100940008F917F916F915F914F913F912F910F9078
:100950000BBE0F900FBE0F901F9018951F920F9215
:100960000FB60F9211240BB60F922F933F934F9314
:100970005F936F937F938F939F93AF93BF93EF9307
:10098000FF93E0910002F09101021995FF91EF9120
:10099000BF91AF919F918F917F916F915F914F9197
:1009A0003F912F910F900BBE0F900FBE0F901F9095
:1009B00018951F920F920FB60F9211240BB60F923B
:1009C0002F933F934F935F936F937F938F939F9357
:1009D000AF93BF93EF93FF93E0910A02F0910B0264
:1009E0001995FF91EF91BF91AF919F918F917F9159
:1009F0006F915F914F913F912F910F900BBE0F9090
:100A00000FBE0F901F9018951F920F920FB60F9266
:100A100011240BB60F922F933F934F935F936F93D5
:100A20007F938F939F93AF93BF93EF93FF93E09147
:100A30000802F09109021995FF91EF91BF91AF91D2
:100A40009F918F917F916F915F914F913F912F91E6
:100A50000F900BBE0F900FBE0F901F9018951F9216
:100A60000F920FB60F9211240BB60F922F933F9354
:100A70004F935F936F937F938F939F93AF93BF93A6
:100A8000EF93FF93E0910602F09107021995FF9111
:100A9000EF91BF91AF919F918F917F916F915F91F6
:100AA0004F913F912F910F900BBE0F900FBE0F9063
:100AB0001F9018951F920F920FB60F9211240BB62C
:100AC0000F922F933F934F935F936F937F938F93E7
:100AD0009F93AF93BF93EF93FF93E0910402F09144
:100AE00005021995FF91EF91BF91AF919F918F9161
:100AF0007F916F915F914F913F912F910F900BBE1E
:100B00000F900FBE0F901F9018950F931F93CF93C8
:100B1000DF93EC018B017B876A878881998153DDA4
:100B2000B8018A819B814FDDFE01E05CFF4F80812F
:100B30009181019761F4B8018C819D8144DDB801F8
:100B40008E819F81DF91CF911F910F913CCDDF91DD
:100B5000CF911F910F9108951F920F920FB60F9290
:100B600011240BB60F922F933F934F935F936F9384
:100B70007F938F939F93AF93BF93EF93FF93809156
:100B80005605909157058093B20080915905909138
:100B90005A05A0915B05B0915C050196A11DB11DA0
:100BA0008093590590935A05A0935B05B0935C051B
:100BB0008091590590915A05A0915B05B0915C0513
:100BC000409152055091530560915405709155051F
:100BD00084179507A607B70710F180915805811172
:100BE0001EC081E0809358058091590590915A0567
:100BF000A0915B05B0915C05841B950BA60BB70B10
:100C00008093590590935A05A0935B05B0935C05BA
:100C1000E0915005F0915105199510925805FF91FA
:100C2000EF91BF91AF919F918F917F916F915F9164
:100C30004F913F912F910F900BBE0F900FBE0F90D1
:100C40001F9018950F931F93CF93DF9300D000D080
:100C5000CDB7DEB78C01FC01138E128E158E148E6B
:100C6000168E6BE272E0CE01019638D5CE01019668
:100C700064D4CE0101962ED5F80112A211A214A2BD
:100C800013A215A26FE372E0CE01019627D5CE0123
:100C9000019653D4CE0101961DD526960FB6F89431
:100CA000DEBF0FBECDBFDF91CF911F910F91089591
:100CB000CF93DF93FC012085318521303105F1F0A0
:100CC000EC010C96BFDF8881998131DC8A819B81A0
:100CD0002EDCFE01E05CFF4F80819181019731F4B1
:100CE0008C819D8124DC8E819F8121DC6A857B85BE
:100CF000CE010BDF81E090E099878887DF91CF916B
:100D000008950F931F93CF93DF9300D000D0CDB7FA
:100D1000DEB70091EE041091EF04D80195968C9106
:100D20009597882309F44DC05F968D919C9190977B
:100D3000019690969C938E935F9762E370E00E9479
:100D4000320F892B79F464E572E0CE010196C6D4A6
:100D5000CE010196F2D3CE010196BCD4F801878D65
:100D600090A11BDBD8015F962D913C9190979196B5
:100D70008D919C9192972817390719F59396ED91CB
:100D8000FC91949780E090E01995F801678D70A12F
:100D9000072E000C880B990B97FF02C03FD402C0AE
:100DA0004AE0D9D388E292E0B7D3D80194961C9256
:100DB0001E92939795961C92959790961C921E92D0
:100DC0005F97F8018281938101969383828382A940
:100DD00093A9019693AB82AB26960FB6F894DEBF2B
:100DE0000FBECDBFDF91CF911F910F9108950F934B
:100DF0001F93CF93DF9300D000D0CDB7DEB7009123
:100E0000EE041091EF04D801D0968D919C91D1976A
:100E100062E370E00E94320F892BD9F46BE672E036
:100E2000CE0101965BD44D815E8169817A818DEC22
:100E300093E099D28DEC93E04DD3CE0101964AD444
:100E4000F80180A991A9A9DAD8015E968C9190E069
:100E5000A4DAF801868D882309F440C0808D918D35
:100E60000196918F808F62E370E0FCD7892B89F423
:100E700064E772E0CE01019631D4CE0101965DD3D4
:100E8000CE01019627D4D80158968D919C915997FF
:100E900084DAF801208D318D828D938D28173907E2
:100EA000E9F4848D958D892BC9F06AE872E0CE0152
:100EB000019614D4CE01019640D3CE0101960AD4F6
:100EC000D8015C96ED91FC915D9780E090E01995DA
:100ED000F801158E148E168E118E108ED8018D91FC
:100EE0009C911197019611969C938E93D0968D911B
:100EF0009C91D1970196D1969C938E93D0972696EC
:100F00000FB6F894DEBF0FBECDBFDF91CF911F911A
:100F10000F910895EF92FF920F931F93CF93DF935A
:100F200000D000D0CDB7DEB78C017B01FC018085FD
:100F30009185089709F437C0C8010C9683DE88E0D4
:100F400090E0F80191878087F6A6E5A68EE498E008
:100F500090AB87A781E081AB65EA72E0CE01019694
:100F6000BDD3CE010196E9D2CE010196B3D3F801EB
:100F700080819181DCDAF80182819381C8DAF801FD
:100F8000E05CFF4F80819181019741F4F8018481F9
:100F90009581CDDAF80186819781B9DAF801628509
:100FA0007385C801B2DD67EB72E0CE01019696D37E
:100FB000CE010196C2D2CE0101968CD326960FB6F1
:100FC000F894DEBF0FBECDBFDF91CF911F910F917F
:100FD000FF90EF900895E091EC04F091ED04808192
:100FE0009181FC01208531852830310519F06CE3B1
:100FF00070E090CF0895CF92DF92EF92FF920F931F
:101000001F93CF93DF9300D000D0CDB7DEB7FC01A4
:10101000208531852230310591F17A016B018C01F7
:101020000C9610DEF801D7A2C6A2F1A6E0A681E0D8
:1010300082A760EC72E0CE01019650D3CE010196FA
:101040007CD2CE01019646D382E090E0F8019187F0
:101050008087808191815BDAF8018281938157DA00
:10106000F801E05CFF4F80819181019741F4F80124
:10107000848195814CDAF8018681978148DA269639
:101080000FB6F894DEBF0FBECDBFDF91CF911F9199
:101090000F91FF90EF90DF90CF900895CF93DF9363
:1010A00000D000D0CDB7DEB761ED72E0CE01019681
:1010B00015D3CE01019641D2CE0101960BD380917A
:1010C000F0049091F104F4DD26960FB6F894DEBF9B
:1010D0000FBECDBFDF91CF910895EF92FF920F9396
:1010E0001F93CF93DF93CDB7DEB768970FB6F89411
:1010F000DEBF0FBECDBF6ED27C011C8A1B8A1E8A4A
:101100001D8A188E1F8A4AE08E010F5F1F4FB8019B
:1011100054D6F80101900020E9F73197AF01401B48
:10112000510BB801CE01439698D2B7016F517D4F54
:10113000C801D4D2C80101D2C801CCD2E091EC04DC
:10114000F091ED0480819181B3DDCE014396C2D24E
:1011500068960FB6F894DEBF0FBECDBFDF91CF917A
:101160001F910F91FF90EF900895CF93DF9300D0E0
:1011700000D0CDB7DEB78091C6039091C70301962A
:101180009093C7038093C60365EF72E0CE0101968A
:10119000A5D2CE010196D1D1CE0101969BD28091EC
:1011A000C6039091C703F9D8E091EC04F091ED04E7
:1011B000808191817DDD26960FB6F894DEBF0FBE4B
:1011C000CDBFDF91CF910895CF93DF9300D000D0B2
:1011D000CDB7DEB769E073E0CE0101967FD2CE01D4
:1011E0000196ABD1CE01019675D2F4D1E091EC0419
:1011F000F091ED044AE059E06CE271E08081918168
:10120000FADE26960FB6F894DEBF0FBECDBFDF9193
:10121000CF910895CF93DF9300D000D0CDB7DEB744
:1012200060E273E0CE01019659D2CE01019685D1DC
:10123000CE0101964FD2E091EC04F091ED04808153
:101240009181FC01208531852830310519F062E358
:1012500070E060DE26960FB6F894DEBF0FBECDBFFD
:10126000DF91CF910895CF93DF9300D000D0CDB719
:10127000DEB76DE373E0CE01019630D2CE01019668
:101280005CD1CE01019626D2E091EC04F091ED0400
:101290004BEE57E06EE571E080819181ACDE2696E1
:1012A0000FB6F894DEBF0FBECDBFDF91CF9108958A
:1012B000EDECF3E0A089B18982E08C93A485B5853B
:1012C0001C92A685B78580E18C93108EA489B58980
:1012D00086E08C93A289B3898C9180618C93A289DA
:1012E000B3898C9188608C93A289B3898C91806832
:1012F0008C930288F389E02D80818F7D808308950F
:10130000CF92DF92EF92FF920F931F932FB7F89433
:10131000C0905D05D0905E05E0905F05F09060059F
:101320002FBFDC01CB018C0D9D1DAE1DBF1D4FB726
:10133000F89400915D0510915E0520915F05309154
:1013400060054FBF0C151D052E053F0528F08017C1
:101350009107A207B30758F71F910F91FF90EF90E5
:10136000DF90CF900895CF92DF92EF92FF920F938C
:101370001F93CF93DF936C017A018B01C0E0D0E023
:10138000CE15DF0581F0D8016D918D01D601ED916B
:10139000FC910190F081E02DC6011995892B11F087
:1013A0002196EECF7E01C701DF91CF911F910F9162
:1013B000FF90EF90DF90CF900895089580E090E047
:1013C0000895FC01538D448D252F30E0842F90E04B
:1013D000821B930B541710F0CF9608950197089530
:1013E000FC01918D828D981761F0828DDF01A80F2D
:1013F000B11D5D968C91928D9F5F9F73928F90E04F
:1014000008958FEF9FEF0895FC01918D828D9817BD
:1014100031F0828DE80FF11D858D90E008958FEFFA
:101420009FEF08954FD78DEC93E00E945A0121E081
:10143000892B09F420E0822F0895EF92FF920F93F9
:101440001F93CF93DF93EC0181E0888F9B8D8C8D70
:10145000981305C0E889F989808185FD26C0F62E9C
:101460000B8D10E00F5F1F4F0F731127E02E8C8D37
:10147000E8120CC00FB607FCFACFE889F989808121
:1014800085FFF5CFCE010E94E101F1CF8B8DFE01EA
:10149000E80FF11DE35AFF4FF0829FB7F8940B8FCE
:1014A000EA89FB89808180620AC09FB7F894EE893F
:1014B000FF896083E889F9898081837080648083F3
:1014C0009FBF81E090E0DF91CF911F910F91FF903E
:1014D000EF900895CF93DF93EC01888D8823C9F0B6
:1014E000EA89FB89808185FD05C0A889B9898C912D
:1014F00086FD0FC00FB607FCF5CF808185FFF2CFC8
:10150000A889B9898C9185FFEDCFCE010E94E101B8
:10151000E7CFDF91CF910895009761F0FC01019032
:101520000020E9F73197AF01481B590BBC018DEC46
:1015300093E019CF80E090E00895FC01448155814B
:10154000608171818DEC93E00EDF88E292E0E4DF50
:101550008DEC93E0BFCF8F929F92AF92BF920F938B
:101560001F93CF93DF93CDB7DEB7A1970FB6F89453
:10157000DEBF0FBECDBF19A2423008F44AE08E0193
:101580000F5D1F4F842E912CA12CB12CA50194012D
:1015900047D4E62FB901CA0101501109EA3014F409
:1015A000E05D01C0E95CD801EC93232B242B252BB3
:1015B00069F7C801B1DFA1960FB6F894DEBF0FBE80
:1015C000CDBFDF91CF911F910F91BF90AF909F90B2
:1015D0008F900895CF93DF93E8E1F2E08491E2EDFC
:1015E000F1E0D491ECE8F1E0C491CC2391F08111C9
:1015F0000E940302EC2FF0E0EE0FFF1FE05AFE4FB7
:10160000A591B491EC91ED2381E090E021F480E08C
:1016100002C080E090E0DF91CF910895CF92DF92F9
:10162000EF92FF92CF93DF936B017C016DE28DEC23
:1016300093E003DFEC0166277727CB016C197D0966
:101640008E099F094AE087DF8C0F9D1FDF91CF91A4
:10165000FF90EF90DF90CF900895EF92FF920F935D
:101660001F93CF93DF93EC017B018A0188819981DD
:10167000009729F02A813B8124173507E8F4B80147
:101680006F5F7F4F3FD5009759F0998388831B8305
:101690000A832C813D81232B79F4FC0110820CC03C
:1016A00088819981009709F0A4D4198218821D823B
:1016B0001C821B821A8206C01D830C83B70188819D
:1016C00099810DD6CE01DF91CF911F910F91FF909F
:1016D000EF900895FC01808191818BC4FC011182FF
:1016E000108213821282158214826115710549F0ED
:1016F000FB0101900020E9F73197AF01461B570B22
:10170000ACCF08951F920F920FB60F9211240BB613
:101710000F922F933F934F935F936F937F938F938A
:101720009F93AF93BF93EF93FF938DEC93E00E9451
:10173000E101FF91EF91BF91AF919F918F917F91C7
:101740006F915F914F913F912F910F900BBE0F9032
:101750000FBE0F901F9018951F920F920FB60F9209
:1017600011240BB60F922F938F939F93EF93FF93B8
:10177000E091DD03F091DE038081E091E303F091DD
:10178000E40382FD12C090818091E6038F5F8F7326
:101790002091E703821751F0E091E603F0E0E35374
:1017A000FC4F958F8093E60301C08081FF91EF91FC
:1017B0009F918F912F910F900BBE0F900FBE0F90A6
:1017C0001F90189580EB94E085DF86EB94E082DF34
:1017D0008CEB94E07FDF82EC94E07CDF88EC94E09B
:1017E00079DF8EEC94E076DF84ED94E073DF8AEDB0
:1017F00094E070DF80EE94E06DDF86EE94E06ACFD7
:10180000EF92FF920F931F93CF93DF93EDECF3E0F2
:101810001382128288EE93E0A0E0B0E08483958387
:10182000A683B7838AE192E09183808385EC90E080
:101830009587848784EC90E09787868780EC90E09A
:10184000918B808B81EC90E0938B828B82EC90E08B
:10185000958B848B86EC90E0978B868B118E128E05
:10186000138E148EEAE6F4E0168217821086118633
:10187000128613861486158616861786108A118A94
:10188000128A138A148A158A64E573E086EE94E05E
:1018900025DF6CE573E080EE94E020DF66E673E020
:1018A0008AED94E01BDF6EE673E084ED94E016DFD2
:1018B00063E773E08EEC94E011DF6EE773E088EC91
:1018C00094E00CDF64E873E082EC94E007DF60E909
:1018D00073E08CEB94E002DF60EA72E086EB94E068
:1018E000FDDE68E973E080EB94E0F8DE82E4E82E48
:1018F00085E0F82ED70111961C921E9219961C9223
:101900001E9218971B961C921E921A971D961C9257
:101910001E921C9780E290E013969C938E931297F0
:101920008EE190E015969C938E93149786E090E05C
:1019300017969C938E93169761E080E20E94A7020F
:1019400061E08EE10E94A70261E086E00E94A702AA
:1019500004E315E0F80111821082118610861386C7
:101960001286158614868AE190E0938382838CE147
:1019700090E09583848387E090E09783868361E09D
:101980008AE10E94A70261E08CE10E94A70261E067
:1019900087E00E94A702C2EFD4E0198618861B8652
:1019A0001A861D861C861F861E86188A198A1A8A20
:1019B0001B8A1C8A1D8A1E8A1F8A188E198E1A8EEF
:1019C0001B8E1C8E1D8E1E8E1F8E18A219A21AA28F
:1019D0001BA21DA21CA219AE18AE1BAE1AAE1DAEE4
:1019E0001CAE1FAE1EAE19830883FB82EA82D09321
:1019F000F104C093F00482E090E09093330580936B
:101A000032058EEF94E09093EF048093EE04FFAAEA
:101A1000EEAA1DAB0CAB00E012E087EF96E0D80118
:101A200011969C938E93EAE6F0E080818C7F826031
:101A30008083EC9A81E896E013969C938E9312979C
:101A40008081837F88608083ED9A80EA91E09BAB00
:101A50008AAB82E090E035D2FC01D183C0839093C1
:101A6000ED048093EC0460E082E20E94A70260E053
:101A700084E20E94A70260E086E20E94A70260E082
:101A800088E20E94A70260E08AE20E94A70260E06A
:101A90008CE20E94A70260E08EE20E94A70260E052
:101AA00080E30E94A70260E082E30E94A70260E058
:101AB00084E30E94A70262E085E10E94A70262E03F
:101AC00084E10E94A70262E082E10E94A70262E034
:101AD00083E10E94A7028DE698E0D80115969C93B9
:101AE0008E931497E9E6F0E080818C7F826080839A
:101AF000E89A85EB98E017969C938E9316978081D1
:101B0000837F88608083E99A84EE98E01B969C939B
:101B10008E931A9780818F7380688083EB9A83E31A
:101B200099E019969C938E93189780818F7C8062A0
:101B30008083EA9ADF91CF911F910F91FF90EF90F0
:101B40000895CF93DF9300D000D0CDB7DEB778945F
:101B500084B5826084BD84B5816084BD85B58260B2
:101B600085BD85B5816085BD80916E008160809363
:101B70006E001092810080918100826080938100CC
:101B800080918100816080938100809180008160DC
:101B9000809380008091B10084608093B100809137
:101BA000B00081608093B00080919100826080934A
:101BB00091008091910081608093910080919000CC
:101BC0008160809390008091A10082608093A10049
:101BD0008091A10081608093A1008091A00081602C
:101BE0008093A000809121018260809321018091E7
:101BF0002101816080932101809120018160809387
:101C0000200180917A00846080937A0080917A002C
:101C1000826080937A0080917A00816080937A005C
:101C200080917A00806880937A001092C1001092AF
:101C3000AC041092AD041092AE041092AF04109256
:101C40006C0410926D0410926E0410926F0468EB95
:101C50007BE080E090E054DB0E94BE034B015C011E
:101C600088EEC82E83E0D82EE12CF12C0E94BE0312
:101C7000DC01CB0188199909AA09BB09883E934068
:101C8000A105B10598F321E0C21AD108E108F108D5
:101C900088EE880E83E0981EA11CB11CC114D104EB
:101CA000E104F10419F704DB2FB7F89480915D0586
:101CB00090915E05A0915F05B09160052FBF809364
:101CC0006C0490936D04A0936E04B0936F048DE93F
:101CD00093E022DC6AE070E080E090E011DB81E0DC
:101CE00080938004E5DA8091A100887F85608093ED
:101CF000A1006EEA73E0CE010196F0DCCE01019600
:101D00001CDCCE010196E6DC88EE93E0A0E0B0E0BA
:101D10008093520590935305A0935405B0935505B5
:101D200081EA91E090935105809350058091700075
:101D30008E7F809370008091B0008C7F8093B00084
:101D40008091B100877F8093B1008091B6008F7D34
:101D50008093B600809170008D7F80937000809199
:101D6000B10084608093B1008091B1008C7F80933A
:101D7000B10086E090E0909357058093560510924D
:101D8000590510925A0510925B0510925C0510924D
:101D9000580580915605909157058093B200809127
:101DA000700081608093700066E970E082EF94E0DB
:101DB0000E9485050E946601FDCFBB274A3031F4A1
:101DC000992322F4BDE2909581959F4F01C0BB27D6
:101DD000FB015527AA27880F991FAA1FA41710F0E7
:101DE000A41B83955051B9F7A05DAA3308F0A95DF3
:101DF000A193009779F7B111B1931192CB0100C073
:101E0000DC01FC01672F71917723E1F7329704C061
:101E10007C916D9370836291AE17BF07C8F30895EC
:101E2000A1E21A2EAA1BBB1BFD010DC0AA1FBB1FDE
:101E3000EE1FFF1FA217B307E407F50720F0A21B50
:101E4000B30BE40BF50B661F771F881F991F1A94BD
:101E500069F760957095809590959B01AC01BD01E7
:101E6000CF01089597FB072E16F4009406D077FD56
:101E700008D013D007FC05D03EF4909581959F4F74
:101E80000895709561957F4F0895EE0FFF1F881F8D
:101E90008BBF0790F691E02D1994AA1BBB1B51E153
:101EA00007C0AA1FBB1FA617B70710F0A61BB70BCA
:101EB000881F991F5A95A9F780959095BC01CD016F
:101EC00008950F931F93CF93DF938230910510F401
:101ED00082E090E0E0916305F091640520E030E05D
:101EE000A0E0B0E0309719F1408151810281138167
:101EF00048175907C8F08417950769F4109731F00F
:101F000012960C93129713961C9327C000936305A7
:101F10001093640522C02115310519F042175307AB
:101F200018F49A01BD01EF01DF01F801DBCF2115A3
:101F30003105F9F0281B390B2430310580F48A81F2
:101F40009B816115710521F0FB019383828304C09D
:101F50009093640580936305FE01329644C0FE01B0
:101F6000E20FF31F81939193225031093983288323
:101F70003AC02091610530916205232B41F42091F4
:101F80001202309113023093620520936105209173
:101F90001002309111022115310541F42DB73EB7E1
:101FA0004091140250911502241B350BE0916105FC
:101FB000F0916205E217F307A0F42E1B3F0B2817E0
:101FC000390778F0AC014E5F5F4F2417350748F0B2
:101FD0004E0F5F1F5093620540936105819391936B
:101FE00002C0E0E0F0E0CF01DF91CF911F910F91AF
:101FF0000895CF93DF93009709F481C0FC013297D5
:1020000013821282A0916305B0916405109781F448
:1020100020813181820F931F2091610530916205EB
:102020002817390751F5F0936205E093610567C001
:10203000ED0120E030E0CE17DF0740F44A815B81FC
:102040009E0141155105F1F0EA01F5CFD383C2831A
:1020500040815181840F951FC817D90759F4888191
:102060009981840F951F0296918380838A819B8139
:10207000938382832115310529F4F0936405E0935D
:1020800063053DC0E901FB83EA8349915991C40F7F
:10209000D51FEC17FD0761F480819181840F951F96
:1020A0000296E90199838883828193819B838A8345
:1020B000E0E0F0E012968D919C911397009719F053
:1020C000FD01DC01F7CF8D919C9111979D012E5F51
:1020D0003F4F820F931F20916105309162052817B1
:1020E000390769F4309729F410926405109263055A
:1020F00002C013821282B0936205A0936105DF9142
:10210000CF9108956F927F928F929F92AF92BF92DC
:10211000CF92DF92EF92FF920F931F93CF93DF93B3
:10212000009781F4CB01DF91CF911F910F91FF9028
:10213000EF90DF90CF90BF90AF909F908F907F9067
:102140006F90BFCEFC01E60FF71F9C0122503109B2
:10215000E217F30708F4A5C0EC01D9010D911C9119
:10216000119706171707A8F00530110508F497C056
:10217000C80104978617970708F491C00250110907
:10218000061B170B019311936D937C93CF0131DFE5
:1021900086C05B01A01AB10A4C01800E911EA0916D
:1021A0006305B0916405612C712CE12CF12C109722
:1021B00009F446C08D919C911197A815B905B1F508
:1021C0006C0142E0C40ED11CCA14DB0478F14C014E
:1021D0008A189B08640142E0C40ED11C1296BC9080
:1021E00012971396AC91B5E0CB16D10440F0B282B1
:1021F000A38391828082D9016D937C9309C00E5F85
:102200001F4F800F911FF90191838083EB2DFA2FCF
:10221000E114F10431F0D7011396FC93EE93129779
:102220003EC0F0936405E093630539C068167906F3
:1022300008F43C017D0112960D90BC91A02DB7CF02
:10224000809161059091620588169906E1F4661601
:102250007706C8F48091100290911102009741F422
:102260008DB79EB74091140250911502841B950BB7
:10227000E817F907B0F4F0936205E0936105F901FE
:10228000718360830CC0CB011CDE7C01009749F098
:10229000A801BE011BD0CE01ACDEC70104C0CE0137
:1022A00002C080E090E0DF91CF911F910F91FF90ED
:1022B000EF90DF90CF90BF90AF909F908F907F90E6
:1022C0006F90089581E090E0F89410C0FB01DC016C
:1022D00002C001900D9241505040D8F70895FB0183
:1022E000DC0101900D920020E1F7089511E0C7E2B2
:1022F000D1E000E005C0802FFE01C7DD2196011D61
:0E230000C832D10780E00807B1F7F894FFCF8C
:10230E009F019F019F019F019F019F019F019F01BF
:10231E00000065058000000000001D0AB309E109F8
:10232E006A0A5A01F009040A0D0A0072656D6F7689
:10233E00654C6566745065646F6D65746572007288
:10234E00656D6F766552696768745065646F6D650B
:10235E007465720063757272656E74526967687423
:10236E0047726964436F756E743A006C6566745398
:10237E00756D3A0063757272656E744C656674475E
:10238E00726964436F756E743A006F6E4C65667455
:10239E005065646F6D657465723A2063616C6C2074
:1023AE006261636B0061646452696768745065644E
:1023BE006F6D65746572007475726E4C656674002F
:1023CE006164644C656C745065646F6D65746572A0
:1023DE00007475726E4C6566742066696E697368FA
:1023EE00006F6E5F6261636B5F6C6566745F6372D4
:1023FE006173683A006F6E5F6261636B5F726967EB
:10240E0068745F6372617368006F6E5F666F727778
:10241E006172645F6C6566745F63726173682000DD
:10242E006F6E5F666F72776172645F6C6566745F04
:10243E0063726173682066696E697368006F6E5FA0
:10244E00666F72776172645F72696768745F6372D8
:10245E00617368007370656564757000737065658F
:10246E0064646F776E0073706565646174006C658B
:10247E006674007475726E6C656674617400726950
:10248E00676874007475726E72696768746174003F
:10249E00666F72776172640073746F7000564D448C
:1024AE0050565F317C315F564D4450560A00776569
:1024BE006C636F6D6520746F20636C65616E207246
:0624CE006F626F74000054
:020000023000CC
:10E000000D9489F10D94B2F10D94B2F10D94B2F129
:10E010000D94B2F10D94B2F10D94B2F10D94B2F1F0
:10E020000D94B2F10D94B2F10D94B2F10D94B2F1E0
:10E030000D94B2F10D94B2F10D94B2F10D94B2F1D0
:10E040000D94B2F10D94B2F10D94B2F10D94B2F1C0
:10E050000D94B2F10D94B2F10D94B2F10D94B2F1B0
:10E060000D94B2F10D94B2F10D94B2F10D94B2F1A0
:10E070000D94B2F10D94B2F10D94B2F10D94B2F190
:10E080000D94B2F10D94B2F10D94B2F10D94B2F180
:10E090000D94B2F10D94B2F10D94B2F10D94B2F170
:10E0A0000D94B2F10D94B2F10D94B2F10D94B2F160
:10E0B0000D94B2F10D94B2F10D94B2F10D94B2F150
:10E0C0000D94B2F10D94B2F10D94B2F10D94B2F140
:10E0D0000D94B2F10D94B2F10D94B2F10D94B2F130
:10E0E0000D94B2F141546D656761323536300041AF
:10E0F000726475696E6F206578706C6F72657220DE
:10E1000073746B3530305632206279204D4C530099
:10E11000426F6F746C6F616465723E004875683F52
:10E1200000436F6D70696C6564206F6E203D200048
:10E130004350552054797065202020203D20005FF9
:10E140005F4156525F415243485F5F3D2000415658
:10E1500052204C696243205665723D20004743437C
:10E160002056657273696F6E203D20004350552024
:10E1700049442020202020203D20004C6F7720663D
:10E18000757365202020203D20004869676820665F
:10E190007573652020203D200045787420667573D6
:10E1A00065202020203D20004C6F636B2066757336
:10E1B000652020203D20004D617220203720323024
:10E1C000313300312E362E3800342E332E350056A2
:10E1D00023202020414444522020206F7020636F70
:10E1E00064652020202020696E73747275637469E1
:10E1F0006F6E2061646472202020496E74657272B3
:10E20000757074006E6F20766563746F7200726A49
:10E210006D702020006A6D70200057686174207056
:10E220006F72743A00506F7274206E6F7420737541
:10E2300070706F72746564004D7573742062652030
:10E2400061206C6574746572002000577269747483
:10E25000696E672045450052656164696E672045B7
:10E26000450045452065727220636E743D00504F35
:10E27000525400303D5A65726F2061646472003FF1
:10E280003D43505520737461747300403D454550C3
:10E29000524F4D207465737400423D426C696E6B41
:10E2A000204C454400453D44756D70204545505215
:10E2B0004F4D00463D44756D7020464C415348001B
:10E2C000483D48656C70004C3D4C69737420492F83
:10E2D0004F20506F72747300513D51756974005234
:10E2E0003D44756D702052414D00563D73686F7707
:10E2F00020696E7465727275707420566563746FF0
:10E30000727300593D506F727420626C696E6B00BD
:10E310002A0011241FBECFEFD1E2DEBFCDBF01E046
:10E320000CBF12E0A0E0B2E0EEE1FDEF03E00BBFB6
:10E3300002C007900D92A030B107D9F712E0A0E01B
:10E34000B2E001C01D92AE30B107E1F70F9460F367
:10E350000D948DFE01E20EBF0FEF0DBF11241FBE05
:10E360000D9460F30D9400F020E030E040ED57E0B4
:10E3700005C0FA013197F1F72F5F3F4F2817390792
:10E38000C0F308959C01260F311DC901A0E0B0E043
:10E390002F5F3F4FABBFFC018791882361F08093D3
:10E3A000C6008091C00086FFFCCF8091C0008064D1
:10E3B0008093C000EACF08958DE08093C6008091DD
:10E3C000C00086FFFCCF8091C00080648093C000B5
:10E3D0008AE08093C6008091C00086FFFCCF8091C8
:10E3E000C00080648093C00008950F94C2F10F9420
:10E3F000DCF10895FC019081992359F09093C600B7
:10E400008091C00086FFFCCF8091C0008064809323
:10E41000C0003196992379F70895282F982F929567
:10E420009F70892F805D8A3308F0895F8093C600D2
:10E430008091C00086FFFCCF8091C00080648093F3
:10E44000C000822F8F70982F905D9A3308F0995FEB
:10E450009093C6008091C00086FFFCCF8091C000E1
:10E4600080648093C00008959C01FB01853691056E
:10E470001CF46330710594F0C90164E670E00F94F8
:10E480002EFE605D7F4F6093C6008091C00086FFC6
:10E49000FCCF8091C00080648093C0002B30310598
:10E4A00014F43297B4F0C90164E670E00F942EFEC4
:10E4B0006AE070E00F942EFE605D7F4F6093C600AF
:10E4C0008091C00086FFFCCF8091C0008064809363
:10E4D000C000C9016AE070E00F942EFEC0968093E0
:10E4E000C6008091C00086FFFCCF8091C000806490
:10E4F0008093C00008951F93182F8EE692EE60E07F
:10E500000F94C2F11093C6008091C00086FFFCCF2B
:10E510008091C00080648093C0000F94DCF11F9153
:10E5200008952F923F924F925F926F927F928F92B7
:10E530009F92AF92BF92CF92DF92EF92FF920F9392
:10E540001F93DF93CF93CDB7DEB762970FB6F894E2
:10E55000DEBF0FBECDBF382E622ECA01DB015C01CB
:10E560006D01772420E2222E2E010894411C511CBB
:10E570008BC081E0A81680E0B80681E0C80680E084
:10E58000D80628F0C601AA27BB270F940DF2BB2797
:10E59000AD2D9C2D8B2D0F940DF28A2D0F940DF225
:10E5A0002092C6008091C00086FFFCCF8091C00001
:10E5B00080648093C0009DE29093C6008091C0006B
:10E5C00086FFFCCF8091C00080648093C0002092C1
:10E5D000C6008091C00086FFFCCF8091C00080649F
:10E5E0008093C00019828601750188249924A1E0D6
:10E5F0003A1651F03A1620F0B2E03B1661F409C029
:10E600000BBFF701779007C0C7010F9477FE782EF4
:10E6100002C0F7017080872D0F940DF22092C60082
:10E620008091C00086FFFCCF8091C0008064809301
:10E63000C000872D8052F401EF70F0708F3520F408
:10E64000E40DF51D708204C0E40DF51D8EE280839B
:10E650000894E11CF11C011D111D0894811C911CE2
:10E6600090E18916910409F0C2CF80E190E0A0E02A
:10E67000B0E0A80EB91ECA1EDB1E198AC2010F9493
:10E68000FAF10F94DCF16A94662009F072CF629679
:10E690000FB6F894DEBF0FBECDBFCF91DF911F91B3
:10E6A0000F91FF90EF90DF90CF90BF90AF909F9031
:10E6B0008F907F906F905F904F903F902F90089534
:10E6C0002F923F924F925F926F927F928F929F9282
:10E6D000AF92BF92CF92DF92EF92FF920F931F9370
:10E6E000DF93CF93CDB7DEB7CD53D1400FB6F894BB
:10E6F000DEBF0FBECDBF01E20EBF0FEF0DBF94B75F
:10E70000F894A89514BE80916000886180936000A1
:10E7100010926000789493FF05C0E0910002F091A0
:10E7200001021995279A2F9A8091C00082608093E8
:10E73000C00080E18093C40088E18093C1000000A4
:10E74000EE24FF24870144E0A42EB12CCC24DD2448
:10E7500024C0C5010197F1F70894E11CF11C011DCB
:10E76000111D21E2E2162EE4F20620E0020720E06D
:10E77000120718F031E0C32ED12CC801B70127ECE5
:10E780003BE140E050E00F9441FE611571058105C9
:10E79000910519F485B1805885B98091C00087FD35
:10E7A00003C0C114D104A9F2A6014F5F5F4FC25E3E
:10E7B000DE4F59834883CE51D140C25EDE4F8881FF
:10E7C0009981CE51D140019711F00D9410FEC05D9A
:10E7D000DE4F19821882C053D14060E0C15DDE4F28
:10E7E0001882CF52D14088249924C35DDE4F19820C
:10E7F0001882CD52D140C05EDE4F188219821A8233
:10E800001B82C052D140CE5CDE4F188219821A8220
:10E810001B82C253D140EE24FF2487010BBFF701B6
:10E8200007911691C45CDE4F19830883CC53D14005
:10E830000D940BFEC25EDE4F28813981CE51D1404E
:10E840002130310509F52091C600C25EDE4F1982E4
:10E850001882CE51D14022C02F5F3F4F4F4F5F4FA4
:10E86000213082E138078AE7480780E0580780F0C6
:10E87000C45CDE4FE881F981CC53D140EF5FFF4F9C
:10E8800019F0EE27FF27099420E030E040E050E047
:10E890008091C00087FFE0CF2091C600C35DDE4FAE
:10E8A00048815981CD52D1404F5F5F4FC35DDE4FEC
:10E8B00059834883CD52D140213209F063C64A3092
:10E8C000510508F05FC60894811C911C53E0851621
:10E8D000910409F059C600E010E018C081E280936D
:10E8E000C6008091C00086FFFCCF8091C00080648C
:10E8F0008093C0002F5F3F4F2931310579F70F9486
:10E90000DCF10F5F1F4F0530110519F020E030E0FA
:10E91000E5CF10920A0210920B0210920C02109294
:10E920000D02109206021092070210920802109235
:10E930000902109202021092030210920402109235
:10E9400005028FEE90EE60E00F94F5F180E191EE1C
:10E9500060E00F94C2F18091C00087FFFCCF9091DE
:10E96000C600903608F09F759032B8F09093C600BC
:10E970008091C00086FFFCCF8091C00080648093AE
:10E98000C000A0E2A093C6008091C00086FFFCCF2B
:10E990008091C00080648093C000983409F4D7C18E
:10E9A0009934B8F4923409F459C1933458F490333B
:10E9B00019F1903308F4E3C59F33A1F1903409F0C5
:10E9C000DEC5BDC0953409F470C1963409F0D7C5D1
:10E9D00098C1923509F42BC2933538F49C3409F46C
:10E9E000F5C1913509F0CBC518C2963509F445C279
:10E9F000993509F0C4C567C483E792EE62E00F94CD
:10EA0000F5F110920602109207021092080210927D
:10EA1000090210920A0210920B0210920C0210923C
:10EA20000D0213C18FE792EE62E00F94F5F18FEEC5
:10EA300090EE60E00F94F5F181E291EE60E00F94CA
:10EA4000C2F187EB91EE60E00F94F5F180E391EE77
:10EA500060E00F94C2F184EE90EE60E00F94F5F167
:10EA60008FE391EE60E00F94C2F186E090E061E008
:10EA700070E00F9434F20F94DCF18DE591EE60E0DC
:10EA80000F94C2F189EC91EE60E00F94F5F18EE401
:10EA900091EE60E00F94C2F183EC91EE60E00F9490
:10EAA000F5F18CE691EE60E00F94C2F18EE10F94E7
:10EAB0000DF288E90F940DF281E00F940DF20F949E
:10EAC000DCF18BE791EE60E00F94C2F119E0E0E039
:10EAD000F0E010935700E4918E2F0F940DF20F94F5
:10EAE000DCF18AE891EE60E00F94C2F1E3E0F0E03F
:10EAF00010935700E4918E2F0F940DF20F94DCF1D8
:10EB000089E991EE60E00F94C2F1E2E0F0E0109349
:10EB10005700E4918E2F0F940DF20F94DCF188EAE8
:10EB200091EE60E00F94C2F1E1E0F0E01093570045
:10EB30001491812F0F940DF20F94DCF107CF8BE825
:10EB400092EE62E00F94F5F18BE492EE60E00F94A8
:10EB5000F5F10F94DCF100E010E019C0C8016F2D51
:10EB60000F947FFEFF2031F489E492EE60E00F9471
:10EB7000C2F10BC0F092C6008091C00086FFFCCFAE
:10EB80008091C00080648093C0000F5F1F4FC80158
:10EB900081519F41A0E0B0E0ABBFFC01F790BAE229
:10EBA000FB1621F0E2E000301E07C1F60F94DCF105
:10EBB0000F94DCF187E592EE60E00F94F5F10F948D
:10EBC000DCF1CC24DD2400E010E01EC0C8010F946D
:10EBD00077FEF82E882331F489E492EE60E00F94FA
:10EBE000C2F10BC08093C6008091C00086FFFCCFAD
:10EBF0008091C00080648093C000FE1419F00894D6
:10EC0000C11CD11C0F5F1F4FC80181519F41A0E063
:10EC1000B0E0ABBFFC01E790FAE2EF1621F022E092
:10EC20000030120799F60F94DCF10F94DCF182E6C4
:10EC300092EE60E00F94C2F1C60161E070E00F94C3
:10EC400034F20F94DCF10F94DCF110920202109276
:10EC50000302109204021092050278CE89E992EE26
:10EC600062E00F94F5F1279A2F9A16C02F9880E052
:10EC700090E0E0EDF7E03197F1F7019684369105E9
:10EC8000C1F72F9A80E090E0E0EDF7E03197F1F7DF
:10EC9000019684369105C1F78091C00087FFE6CFC9
:10ECA0008091C00087FFFCCF64C485EA92EE62E0E9
:10ECB0000F94F5F140910202509103026091040219
:10ECC0007091050281E020E10F9491F2809102029F
:10ECD00090910302A0910402B091050280509F4FD1
:10ECE000AF4FBF4F8093020290930302A0930402A0
:10ECF000B093050280509041A040B04008F426CE69
:10ED0000A4CF83EB92EE62E00F94F5F140910602FE
:10ED100050910702609108027091090280E020E1A1
:10ED20000F9491F28091060290910702A09108023F
:10ED3000B091090280509F4FAF4FBF4F80930602A2
:10ED400090930702A0930802B0930902FFCD80ECD4
:10ED500092EE62E00F94F5F183E792EE60E00F949B
:10ED6000F5F18FE792EE60E00F94F5F18BE892EE0B
:10ED700060E00F94F5F189E992EE60E00F94F5F10F
:10ED800085EA92EE60E00F94F5F183EB92EE60E09D
:10ED90000F94F5F180EC92EE60E00F94F5F187ECC2
:10EDA00092EE60E00F94F5F188ED92EE60E00F9442
:10EDB000F5F18FED92EE60E00F94F5F18AEE92EEB0
:10EDC00060E00F94F5F183E093EEBDCD87EC92EE19
:10EDD00062E00F94F5F181E40F947BF282E40F94EA
:10EDE0007BF283E40F947BF284E40F947BF285E45E
:10EDF0000F947BF286E40F947BF287E40F947BF20E
:10EE000088E40F947BF28AE40F947BF28BE40F94F6
:10EE10007BF28CE40F947BF299CD88ED92EE62E068
:10EE20000F94F5F1772473948824992409C48FED05
:10EE300092EE62E00F94F5F140910A0250910B02BC
:10EE400060910C0270910D0282E020E10F9491F22A
:10EE500080910A0290910B02A0910C02B0910D02D8
:10EE600080509F4FAF4FBF4F80930A0290930B0289
:10EE7000A0930C02B0930D0269CD8AEE92EE62E08F
:10EE80000F94F5F184EE90EE60E00F94F5F18FECC5
:10EE900091EE60E00F94F5F1662477244301CC5D98
:10EEA000DE4F19821882C452D140D401C301B695F5
:10EEB000A79597958795CA5DDE4F88839983AA8326
:10EEC000BB83C652D140CC5DDE4FA881B981C4520C
:10EED000D1401196CC5DDE4FB983A883C452D14096
:10EEE000CD0162E070E00F9434F2B0E2B093C6005E
:10EEF0008091C00086FFFCCF8091C0008064809329
:10EF0000C000EDE2E093C6008091C00086FFFCCF18
:10EF10008091C00080648093C000F0E2F093C6004E
:10EF20008091C00086FFFCCF8091C00080648093F8
:10EF3000C000CA5DDE4FE880F9800A811B81C6529D
:10EF4000D140BB27A12F902F8F2D0F940DF2CA5DBA
:10EF5000DE4F8881C652D1400F940DF2B0E2FB2EF5
:10EF6000F092C6008091C00086FFFCCF8091C00067
:10EF700080648093C0000DE30093C6008091C000C0
:10EF800086FFFCCF8091C00080648093C00010E2B7
:10EF90001093C6008091C00086FFFCCF8091C00016
:10EFA00080648093C0008BBEF3012791C65DDE4F65
:10EFB0002883CA52D140A22EBB24CC24DD2408943D
:10EFC000611C711C811C911C8BBEF3018791282E42
:10EFD0003324442455240894611C711C811C911C09
:10EFE0008BBEF3013791C55DDE4F3883CB52D140E4
:10EFF0000894611C711C811C911C8BBEF30147910C
:10F00000C45DDE4F4883CC52D140ADEFEA2EAFEF66
:10F01000FA2EAFEF0A2FAFEF1A2F6E0C7F1C801E57
:10F02000911E142D032DF22CEE24EA0CFB1C0C1D5A
:10F030001D1D0F940DF220E22093C6008091C000A8
:10F0400086FFFCCF8091C00080648093C000C65DC5
:10F05000DE4F8881CA52D1400F940DF230E23093D6
:10F06000C6008091C00086FFFCCF8091C000806404
:10F070008093C000C45DDE4F8881CC52D1400F9494
:10F080000DF240E24093C6008091C00086FFFCCFA5
:10F090008091C00080648093C000C55DDE4F888190
:10F0A000CB52D1400F940DF250E25093C6008091A4
:10F0B000C00086FFFCCF8091C00080648093C000B8
:10F0C0008FEFE8168FEFF80680E0080780E018075A
:10F0D00031F484E092EE60E00F94C2F1DFC0D80119
:10F0E000C7018070907CA070B0708050904CA040A0
:10F0F000B040D1F52FEF3FE340E050E0E222F322B1
:10F1000004231523CA5DDE4FA880B980CA80DB8046
:10F11000C652D140AE0CBF1CC01ED11EAA0CBB1CD7
:10F12000CC1CDD1C8EE092EE60E00F94C2F1BB2798
:10F13000A12F902F8F2D0F940DF28E2D0F940DF285
:10F1400030E23093C6008091C00086FFFCCF8091F2
:10F15000C00080648093C0004EE34093C60080915D
:10F16000C00086FFFCCF87C08EE09EEFA0E0B0E03D
:10F17000E822F9220A231B239CE0E91694E9F90608
:10F1800090E0090790E0190709F088C0C45DDE4FE0
:10F19000A881CC52D140EA2EFF2400E010E0102FCD
:10F1A0000F2DFE2CEE24C55DDE4FB881CB52D14031
:10F1B000EB0EF11C011D111DD601C501817090706F
:10F1C000A070B070DC0199278827E80EF91E0A1F8D
:10F1D0001B1F20EF30E040E050E0A222B322C42207
:10F1E000D52241E1AA0CBB1CCC1CDD1C4A95D1F7F1
:10F1F000EA0CFB1C0C1D1D1D81E090E0A0E0B0E0BE
:10F20000282239224A225B2235E1220C331C441C7D
:10F21000551C3A95D1F7E20CF31C041D151D57013E
:10F220006801AA0CBB1CCC1CDD1C85E192EE60E0E1
:10F230000F94C2F1C801AA27BB270F940DF2BB2778
:10F24000A12F902F8F2D0F940DF28E2D0F940DF274
:10F2500090E29093C6008091C00086FFFCCF809121
:10F26000C00080648093C000AEE3A093C60080918C
:10F27000C00086FFFCCF8091C00080648093C000F6
:10F28000C601AA27BB270F940DF2BB27AD2D9C2DDD
:10F290008B2D0F940DF28A2D0F940DF20F94DCF14B
:10F2A000CC5DDE4FE881F981C452D140F99709F471
:10F2B0004DCBF4E0EF2EF12C012D112D6E0C7F1CA7
:10F2C000801E911EF2CD83E093EE62E00F94F5F183
:10F2D0008AE192EE60E00F94C2F18091C00087FF56
:10F2E000FCCF1091C6001F751093C6008091C0001E
:10F2F00086FFFCCF8091C00080648093C0000F9493
:10F30000DCF1812F81548A3108F036C1163409F4BA
:10F3100095C0173490F4133409F44EC0143430F40B
:10F320001134F1F0123409F01DC130C0143409F465
:10F3300059C0153409F016C16BC01A3409F4C4C0A1
:10F340001B3438F4173409F48FC0183409F00AC19B
:10F35000A1C01B3409F4D2C01C3409F003C1E8C0B9
:10F360008FEF81B90DC082B1809582B980E090E0C5
:10F37000E0EDF7E03197F1F70196883C9105C1F790
:10F380008091C00087FFEFCF12B8EFC08FEF84B934
:10F390000DC085B1809585B980E090E0E0EDF7E0A3
:10F3A0003197F1F70196883C9105C1F78091C00033
:10F3B00087FFEFCF15B8D9C08FEF87B90DC088B1DF
:10F3C000809588B980E090E0E0EDF7E03197F1F7C3
:10F3D0000196883C9105C1F78091C00087FFEFCF6F
:10F3E00018B8C3C08FEF8AB90DC08BB180958BB9A7
:10F3F00080E090E0E0EDF7E03197F1F70196883C8E
:10F400009105C1F78091C00087FFEFCF1BB8ADC059
:10F410008FEF8DB90DC08EB180958EB980E090E0F0
:10F42000E0EDF7E03197F1F70196883C9105C1F7DF
:10F430008091C00087FFEFCF1EB897C08FEF80BBD1
:10F440000DC081B3809581BB80E090E0E0EDF7E0F6
:10F450003197F1F70196883C9105C1F78091C00082
:10F4600087FFEFCF11BA81C08FEF83BB0DC084B38C
:10F47000809584BB80E090E0E0EDF7E03197F1F714
:10F480000196883C9105C1F78091C00087FFEFCFBE
:10F4900014BA6BC08FEF809301010FC080910201FD
:10F4A00080958093020180E090E0E0EDF7E03197F5
:10F4B000F1F70196883C9105C1F78091C00087FF64
:10F4C000EDCF1092020151C08FEF809304010FC065
:10F4D0008091050180958093050180E090E0E0ED4A
:10F4E000F7E03197F1F70196883C9105C1F78091DB
:10F4F000C00087FFEDCF1092050137C08FEF8093DA
:10F5000007010FC08091080180958093080180E079
:10F5100090E0E0EDF7E03197F1F70196883C910536
:10F52000C1F78091C00087FFEDCF109208011DC088
:10F530008FEF80930A010FC080910B01809580931B
:10F540000B0180E090E0E0EDF7E03197F1F70196F4
:10F55000883C9105C1F78091C00087FFEDCF1092E4
:10F560000B0103C085E292EEEEC98091C00087FFD7
:10F57000FCCF8091C600EAC988E392EEE4C98CE131
:10F5800091EEE1C988249924933011F1943028F444
:10F59000913089F09230B8F408C0953061F195301F
:10F5A000F0F0963009F048C043C02B3109F042C951
:10F5B00091E06BE13FC96227C15DDE4F2883CF52E6
:10F5C000D14092E037C9B22FA0E0622793E032C960
:10F5D000822F90E0A82BB92B622794E02BC92E3004
:10F5E00009F039C3622795E0C05DDE4F19821882A9
:10F5F000C053D1401FC9E1E0F0E0EC0FFD1FC05D3A
:10F60000DE4F08811981C053D140E00FF11F2083E4
:10F610000F5F1F4FC05DDE4F19830883C053D14079
:10F6200062270A171B0709F005C9D80196E002C92D
:10F63000261709F010C303C0973009F0FBC87724E0
:10F640009981933109F412C19431C8F4963009F4C8
:10F65000D8C0973050F4923009F406C1933009F4C1
:10F660006DC0913009F059C253C0913109F477C08F
:10F67000923108F0BBC0903109F04FC2F5C098310B
:10F6800009F487C0993150F4953109F4EFC09531F0
:10F6900008F4C6C1963109F040C2C2C19A3109F4DA
:10F6A0006CC09A3108F491C09B3109F45BC09D3164
:10F6B00009F033C29D81903359F48F81882311F46E
:10F6C0009EE11CC0813011F091E018C098E916C08D
:10F6D000892F807591F0903539F4E0E0F0E089E011
:10F6E0008093570094910AC0983539F4E3E0F0E034
:10F6F00089E080935700949101C090E01A821B82A8
:10F700008D818C831D829E831F8227E030E009C299
:10F710001A8288E08B8381E48C8386E58D8382E581
:10F720008E8389E48F8383E5888780E589878FE5E9
:10F730008A8782E38B872BE030E0F3C18A818139AD
:10F7400041F0823941F0803911F48FE005C080E04A
:10F7500003C082E001C08AE01A828B8344C0772410
:10F76000739482C08D81882311F48EE12CC0813086
:10F7700011F081E028C088E926C01A82E1E0F0E0BB
:10F7800089E08093570084918B831C8224E030E0D1
:10F79000C8C18B81803589F48C81883039F4E2E0EE
:10F7A000F0E089E08093570084910DC0E0E0F0E044
:10F7B00089E080935700849106C0E3E0F0E089E09F
:10F7C0008093570084911A82DFCF8D81836C99E0FA
:10F7D000E1E0F0E0082E90935700E89507B600FCB2
:10F7E000FDCF1A821B8223E030E09BC180EC8A832C
:10F7F000CE5CDE4F188219821A821B82C253D1401E
:10F800008EC18A8190E0A0E0B0E0582F44273327D2
:10F8100022278B8190E0A0E0B0E0DC0199278827C7
:10F82000282B392B4A2B5B2B8D8190E0A0E0B0E098
:10F83000282B392B4A2B5B2B8C8190E0A0E0B0E089
:10F84000BA2FA92F982F8827282B392B4A2B5B2BCF
:10F85000220F331F441F551FC05EDE4F288339839C
:10F860004A835B83C052D1401A8259C13A81C95C34
:10F87000DE4F3883C753D140CA5CDE4F1882C6536F
:10F88000D1408B81C82EDD24CA5CDE4F488159816E
:10F89000C653D140C42AD52A933109F082C0CE5C28
:10F8A000DE4F88819981AA81BB81C253D1408050AB
:10F8B000904CA340B04030F583E0CE5CDE4FE88052
:10F8C000F9800A811B81C253D140F70100935B008C
:10F8D00080935700E89507B600FCFDCFCE5CDE4F65
:10F8E000088119812A813B81C253D14000501F4FAA
:10F8F0002F4F3F4FCE5CDE4F088319832A833B8313
:10F90000C253D140C05EDE4F488159816A817B81FC
:10F91000C052D140DE011B9631E08C9111962C91A2
:10F9200011971296C75CDE4F2883C953D140C85C3B
:10F93000DE4F1882C853D14090E0C85CDE4FE881AA
:10F94000F981C853D1408E2B9F2B0C01FA01609393
:10F950005B0030935700E89511244E5F5F4F6F4F67
:10F960007F4F0EEFE02E0FEFF02ECE0CDF1CC114F8
:10F97000D10499F685E0C05EDE4F088119812A81A5
:10F980003B81C052D140F80120935B008093570027
:10F99000E89507B600FCFDCF81E180935700E8951C
:10F9A00035C0C05EDE4F88819981AA81BB81C0527B
:10F9B000D140B695A795979587957C018601ABE0D8
:10F9C000AA2EB12CAC0EBD1E0BC0D5016D915D01F0
:10F9D000C7010F947FFE0894E11CF11C01501040F8
:10F9E0000115110591F7A60160E070E0440F551F65
:10F9F000661F771FC05EDE4FE880F9800A811B8199
:10FA0000C052D1404E0D5F1D601F711F1A82C05E33
:10FA1000DE4F488359836A837B83C052D1407FC0C5
:10FA2000FA80C55CDE4FF882CB53D140C65CDE4F16
:10FA30001882CA53D1408B81C82EDD24C65CDE4FAC
:10FA400008811981CA53D140C02AD12A1A828981DA
:10FA5000BE016D5F7F4F843121F59601C05EDE4FA0
:10FA6000E880F9800A811B81C052D1400BBFF701A9
:10FA700087919691DB018C9311969C936E5F7F4FDB
:10FA8000D801C7010296A11DB11DC05EDE4F88835B
:10FA90009983AA83BB83C052D14022503040F1F6F3
:10FAA00036C0C05EDE4F288139814A815B81C052F9
:10FAB000D1400894C108D108760100E010E0089414
:10FAC000C11CD11C0894E11CF11C011D111DE20E8A
:10FAD000F31E041F151F21BDBB27A52F942F832FB5
:10FAE00082BD2F5F3F4F4F4F5F4FF89A80B5DB01CC
:10FAF0008D93BD012E153F054007510761F7C05E8C
:10FB0000DE4F288339834A835B83C052D1409601FC
:10FB10002D5F3F4FFB01108204C080EC8A8322E0FE
:10FB200030E08BE18093C6008091C00086FFFCCF5F
:10FB30008091C00080648093C000C15DDE4FF88179
:10FB4000CF52D140F093C6008091C00086FFFCCF19
:10FB50008091C00080648093C000432F3093C60022
:10FB60008091C00086FFFCCF8091C00080648093AC
:10FB7000C000922F2093C6008091C00086FFFCCF6A
:10FB80008091C00080648093C0008EE08093C600A6
:10FB90008091C00086FFFCCF8091C000806480937C
:10FBA000C00065E1C15DDE4FE880CF52D1406E25D7
:10FBB00069276427FE01319610C090819093C6009A
:10FBC0008091C00086FFFCCF31968091C000806498
:10FBD0008093C0006927215030402115310569F715
:10FBE0006093C6008091C00086FFFCCF8091C0006A
:10FBF00080648093C00085B1805885B9772081F4F6
:10FC0000C15DDE4F0881CF52D1400F5FC15DDE4F35
:10FC10000883CF52D14090E0A0E0B0E00D941AF4F8
:10FC200027982F9880E090E020ED37E0F901319798
:10FC3000F1F7019684369105C9F700008091C00064
:10FC40008D7F8093C00081E180935700E895EE2777
:10FC5000FF270994FFCF90E00D941AF497FB092E2B
:10FC600007260AD077FD04D02ED006D000201AF443
:10FC7000709561957F4F0895F6F7909581959F4F08
:10FC80000895A1E21A2EAA1BBB1BFD010DC0AA1FDD
:10FC9000BB1FEE1FFF1FA217B307E407F50720F0F5
:10FCA000A21BB30BE40BF50B661F771F881F991F70
:10FCB0001A9469F760957095809590959B01AC01B9
:10FCC000BD01CF010895AA1BBB1B51E107C0AA1FAC
:10FCD000BB1FA617B70710F0A61BB70B881F991FED
:10FCE0005A95A9F780959095BC01CD010895F99991
:10FCF000FECF92BD81BDF89A992780B50895262F31
:10FD0000F999FECF1FBA92BD81BD20BD0FB6F89400
:0EFD1000FA9AF99A0FBE01960895F894FFCF63
:040000033000E000E9
:00000001FF