:1000000027C1000057C500002AC50000FDC400003C
:10001000D0C40000A3C4000076C4000049C400009E
:100020001CC4000046C1000044C1000042C10000E1
:1000300040C100003EC100003CC100008DC5000071
:1000400038C1000036C1000034C1000032C10000D8
:1000500030C100002EC100002CC10000B4C300005C
:1000600028C100000C94AC0B0C94820B22C1000040
:1000700020C100001EC100001CC100001AC1000008
:1000800018C1000016C1000014C1000012C1000018
:1000900010C100000EC100000CC100000AC1000028
:1000A00008C1000006C1000004C1000002C1000038
:1000B00000C10000FEC00000FCC00000FAC000004B
:1000C000F8C00000F6C00000F4C00000F2C000005C
:1000D000F0C00000EEC00000ECC00000EAC000006C
:1000E000E8C000001E022102100214021A02580287
:1000F000250229022F02330237023D024102450246
:1001000058024B024F02530216031B0320032A031B
:100110003403AD033E0346034E03580362036C03EE
:100120007B038503AD038F039903A3030000210024
:10013000240027002A002D003000330001010000B8
:10014000040107010A0100002200250028002B00FD
:100150002E003100340002010000050108010B01EE
:10016000000020002300260029002C002F00320070
:100170000001000003010601090105050505070549
:1001800008080808020202020A0A08080404040413
:10019000010101010101010103030303030303033F
:1001A000040707070C0C0C0C0C0C0C0C02020202CE
:1001B00006060606060606060B0B0B0B0B0B0B0BB7
:1001C0000102102020080810204010204080020169
:1001D000020108040201010204081020408080404E
:1001E000201008040201800402018040201008044D
:1001F00002010804020101020408102040800102EB
:1002000004081020408000000A0B02090C0D0E08A3
:1002100007030401000000000000000000000000CF
:1002200000000000000000000000000000000000CE
:10023000000012111000000000000000000000008B
:10024000000000000000000000000000000CE20BB5
:1002500011241FBECFEFD1E2DEBFCDBF00E00CBF47
:1002600013E0A0E0B2E0EEE0F3E200E00BBF02C07A
:1002700007900D92A63CB107D9F725E0A6ECB3E0B4
:1002800001C01D92A536B207E1F711E0C7E2D1E047
:1002900000E006C021970109802FFE010E94450F52
:1002A000C632D10780E00807A9F70E94A10D0C947F
:1002B0007611A6CEFC01918D228D892F90E0805C75
:1002C0009F4F821B91098F739927089580E090E0DA
:1002D000892B21F00E94130A811125C080E090E053
:1002E000892B41F080E090E0892B21F00E940000F2
:1002F00081111CC080E090E0892B41F080E090E00B
:10030000892B21F00E940000811113C080E090E051
:10031000892BA1F080E090E0892B81F00E94000001
:1003200081110AC008950E940000D8CF0E940000E9
:10033000E1CF0E940000EACF0C94000008950895D8
:1003400008958DEC93E00E946A0AA091EE04B091AA
:10035000EF042D913C91119712968D919C911397DA
:1003600011961C921E9213961C921E9212979A96A8
:10037000ED91FC919B97318320839896ED91FC91B0
:100380009997918380839696ED91FC9197973097FA
:1003900019F0CD018C9619940895BC01990F880B22
:1003A000990B97FF03C00E940E0B03C04AE00E9406
:1003B000AB0A88E292E00E948C0A8DEC93E00C94E8
:1003C0006A0AFC01848DDF01A80FB11DA35ABF4F3B
:1003D0002C91848D90E001968F739927848FA68944
:1003E000B7892C93A089B1898C91837080648C9398
:1003F000938D848D981306C00288F389E02D808147
:100400008F7D8083089590E0FC013197E231F10502
:1004100008F04EC08827EE58FF4F8F4F0C94450FC1
:10042000809180008F7703C0809180008F7D8093C2
:100430008000089580918000877FF9CF84B58F7701
:1004400002C084B58F7D84BD08958091B0008F7700
:1004500003C08091B0008F7D8093B000089580919B
:1004600090008F7707C0809190008F7D03C08091AE
:100470009000877F8093900008958091A0008F77EF
:1004800007C08091A0008F7D03C08091A000877F6E
:100490008093A0000895809120018F7707C08091FC
:1004A00020018F7D03C080912001877F80932001F0
:1004B00008951F93CF93DF93282F30E0F901EA5F6F
:1004C000FD4F8491F901E054FE4FD491F901E658B3
:1004D000FE4FC491CC23B9F0162F811194DFEC2F7D
:1004E000F0E0EE0FFF1FEA5BFE4FA591B4919FB7BE
:1004F000F894111104C08C91D095D82302C0EC91CE
:10050000DE2BDC939FBFDF91CF911F910895CF9396
:10051000DF93EC0161E08A81CCDF60E08C81C9DF90
:1005200082E090E099878887DF91CF910895CF93FB
:10053000DF93EC0160E08A81BCDF61E08C81B9DF90
:1005400081E090E099878887DF91CF910895CF93DC
:10055000DF9390E0FC01E054FE4F2491FC01E6584B
:10056000FE4F8491882361F190E0880F991FFC0170
:10057000E45DFE4FC591D491FC01EA5BFE4FA5916D
:10058000B491611109C09FB7F894888120958223A6
:100590008883EC912E230BC0623061F49FB7F894EE
:1005A0008881322F309583238883EC912E2B2C93D6
:1005B0009FBF06C08FB7F894E8812E2B28838FBF8A
:1005C000DF91CF9108950F931F93CF93DF93FC0199
:1005D00077FF02C060E070E0EB016F3F710519F03A
:1005E00014F0CFEFD0E0D587C487D387C2870681C8
:1005F000178161E0802FABDF209709F4B1C0CF3FB6
:10060000D10509F4AFC0F801FF27EA5FFD4FE4917F
:100610008E2F90E0FC013197E231F10508F09DC08A
:100620008827EC57FF4F8F4F0C94450F84B5806897
:1006300084BDC7BD9EC084B5806284BDC8BD99C05D
:1006400080918000806880938000D0938900C0935F
:1006500088008FC080918000806280938000D0935A
:100660008B00C0938A0085C0809180008860809351
:100670008000D0938D00C0938C007BC08091B0002F
:1006800080688093B000C093B30073C08091B000C5
:1006900080628093B000C093B4006BC080919000E2
:1006A000806880939000D0939900C093980061C0B7
:1006B00080919000806280939000D0939B00C093C3
:1006C0009A0057C080919000886080939000D093EA
:1006D0009D00C0939C004DC08091A00080688093D5
:1006E000A0008091A0008F7B8093A000D093A900F0
:1006F000C093A8003EC08091A00080628093A000BB
:10070000D093AB00C093AA0034C08091A000886051
:100710008093A000D093AD00C093AC002AC080911C
:100720002001806880932001D0932901C093280183
:1007300020C080912001806280932001D0932B0102
:10074000C0932A0116C08091200188608093200107
:10075000D0932D01C0932C010CC0C038D10514F4E6
:1007600060E001C061E0802FDF91CF911F910F9178
:10077000A0CEDF91CF911F910F9108953FB7F894CC
:100780008091C9039091CA03A091CB03B091CC038F
:1007900026B5A89B05C02F3F19F00196A11DB11DDC
:1007A0003FBFBA2FA92F982F8827820F911DA11D17
:1007B000B11DBC01CD0142E0660F771F881F991F54
:1007C0004A95D1F708951F920F920FB60F921124F8
:1007D0002F933F938F939F93AF93BF9380915D052A
:1007E00090915E05A0915F05B09160053091C803BE
:1007F00023E0230F2D3720F40196A11DB11D05C064
:1008000026E8230F0296A11DB11D2093C8038093F3
:100810005D0590935E05A0935F05B09360058091A0
:10082000C9039091CA03A091CB03B091CC03019668
:10083000A11DB11D8093C9039093CA03A093CB035C
:10084000B093CC03BF91AF919F918F913F912F9126
:100850000F900FBE0F901F9018951F920F920FB61A
:100860000F9211240BB60F922F933F934F935F93E8
:100870006F937F938F939F93AF93BF93EF93FF9368
:10088000E0910E02F0910F021995FF91EF91BF9147
:10089000AF919F918F917F916F915F914F913F9118
:1008A0002F910F900BBE0F900FBE0F901F901895B9
:1008B0001F920F920FB60F9211240BB60F922F9327
:1008C0003F934F935F936F937F938F939F93AF93D8
:1008D000BF93EF93FF93E0910C02F0910D021995F5
:1008E000FF91EF91BF91AF919F918F917F916F9108
:1008F0005F914F913F912F910F900BBE0F900FBEC4
:100900000F901F9018951F920F920FB60F921124FF
:100910000BB60F922F933F934F935F936F937F93F9
:100920008F939F93AF93BF93EF93FF93E091020256
:10093000F09103021995FF91EF91BF91AF919F91B3
:100940008F917F916F915F914F913F912F910F9078
:100950000BBE0F900FBE0F901F9018951F920F9215
:100960000FB60F9211240BB60F922F933F934F9314
:100970005F936F937F938F939F93AF93BF93EF9307
:10098000FF93E0910002F09101021995FF91EF9120
:10099000BF91AF919F918F917F916F915F914F9197
:1009A0003F912F910F900BBE0F900FBE0F901F9095
:1009B00018951F920F920FB60F9211240BB60F923B
:1009C0002F933F934F935F936F937F938F939F9357
:1009D000AF93BF93EF93FF93E0910A02F0910B0264
:1009E0001995FF91EF91BF91AF919F918F917F9159
:1009F0006F915F914F913F912F910F900BBE0F9090
:100A00000FBE0F901F9018951F920F920FB60F9266
:100A100011240BB60F922F933F934F935F936F93D5
:100A20007F938F939F93AF93BF93EF93FF93E09147
:100A30000802F09109021995FF91EF91BF91AF91D2
:100A40009F918F917F916F915F914F913F912F91E6
:100A50000F900BBE0F900FBE0F901F9018951F9216
:100A60000F920FB60F9211240BB60F922F933F9354
:100A70004F935F936F937F938F939F93AF93BF93A6
:100A8000EF93FF93E0910602F09107021995FF9111
:100A9000EF91BF91AF919F918F917F916F915F91F6
:100AA0004F913F912F910F900BBE0F900FBE0F9063
:100AB0001F9018951F920F920FB60F9211240BB62C
:100AC0000F922F933F934F935F936F937F938F93E7
:100AD0009F93AF93BF93EF93FF93E0910402F09144
:100AE00005021995FF91EF91BF91AF919F918F9161
:100AF0007F916F915F914F913F912F910F900BBE1E
:100B00000F900FBE0F901F9018950F931F93CF93C8
:100B1000DF93EC018B017B876A878881998153DDA4
:100B2000B8018A819B814FDDFE01E05CFF4F80812F
:100B30009181019761F4B8018C819D8144DDB801F8
:100B40008E819F81DF91CF911F910F913CCDDF91DD
:100B5000CF911F910F9108951F920F920FB60F9290
:100B600011240BB60F922F933F934F935F936F9384
:100B70007F938F939F93AF93BF93EF93FF93809156
:100B80005605909157058093B20080915905909138
:100B90005A05A0915B05B0915C050196A11DB11DA0
:100BA0008093590590935A05A0935B05B0935C051B
:100BB0008091590590915A05A0915B05B0915C0513
:100BC000409152055091530560915405709155051F
:100BD00084179507A607B70710F180915805811172
:100BE0001EC081E0809358058091590590915A0567
:100BF000A0915B05B0915C05841B950BA60BB70B10
:100C00008093590590935A05A0935B05B0935C05BA
:100C1000E0915005F0915105199510925805FF91FA
:100C2000EF91BF91AF919F918F917F916F915F9164
:100C30004F913F912F910F900BBE0F900FBE0F90D1
:100C40001F9018950F931F93CF93DF9300D000D080
:100C5000CDB7DEB78C01FC01138E128E158E148E6B
:100C6000168E6BE272E0CE01019638D5CE01019668
:100C700064D4CE0101962ED5F80112A211A214A2BD
:100C800013A215A26FE372E0CE01019627D5CE0123
:100C9000019653D4CE0101961DD526960FB6F89431
:100CA000DEBF0FBECDBFDF91CF911F910F91089591
:100CB000CF93DF93FC012085318521303105F1F0A0
:100CC000EC010C96BFDF8881998131DC8A819B81A0
:100CD0002EDCFE01E05CFF4F80819181019731F4B1
:100CE0008C819D8124DC8E819F8121DC6A857B85BE
:100CF000CE010BDF81E090E099878887DF91CF916B
:100D000008950F931F93CF93DF9300D000D0CDB7FA
:100D1000DEB70091EE041091EF04D80195968C9106
:100D20009597882309F44DC05F968D919C9190977B
:100D3000019690969C938E935F9762E370E00E9479
:100D4000320F892B79F464E572E0CE010196C6D4A6
:100D5000CE010196F2D3CE010196BCD4F801878D65
:100D600090A11BDBD8015F962D913C9190979196B5
:100D70008D919C9192972817390719F59396ED91CB
:100D8000FC91949780E090E01995F801678D70A12F
:100D9000072E000C880B990B97FF02C03FD402C0AE
:100DA0004AE0D9D388E292E0B7D3D80194961C9256
:100DB0001E92939795961C92959790961C921E92D0
:100DC0005F97F8018281938101969383828382A940
:100DD00093A9019693AB82AB26960FB6F894DEBF2B
:100DE0000FBECDBFDF91CF911F910F9108950F934B
:100DF0001F93CF93DF9300D000D0CDB7DEB7009123
:100E0000EE041091EF04D801D0968D919C91D1976A
:100E100062E370E00E94320F892BD9F46BE672E036
:100E2000CE0101965BD44D815E8169817A818DEC22
:100E300093E099D28DEC93E04DD3CE0101964AD444
:100E4000F80180A991A9A9DAD8015E968C9190E069
:100E5000A4DAF801868D882309F440C0808D918D35
:100E60000196918F808F62E370E0FCD7892B89F423
:100E700064E772E0CE01019631D4CE0101965DD3D4
:100E8000CE01019627D4D80158968D919C915997FF
:100E900084DAF801208D318D828D938D28173907E2
:100EA000E9F4848D958D892BC9F06AE872E0CE0152
:100EB000019614D4CE01019640D3CE0101960AD4F6
:100EC000D8015C96ED91FC915D9780E090E01995DA
:100ED000F801158E148E168E118E108ED8018D91FC
:100EE0009C911197019611969C938E93D0968D911B
:100EF0009C91D1970196D1969C938E93D0972696EC
:100F00000FB6F894DEBF0FBECDBFDF91CF911F911A
:100F10000F910895EF92FF920F931F93CF93DF935A
:100F200000D000D0CDB7DEB78C017B01FC018085FD
:100F30009185089709F437C0C8010C9683DE88E0D4
:100F400090E0F80191878087F6A6E5A68EE498E008
:100F500090AB87A781E081AB65EA72E0CE01019694
:100F6000BDD3CE010196E9D2CE010196B3D3F801EB
:100F700080819181DCDAF80182819381C8DAF801FD
:100F8000E05CFF4F80819181019741F4F8018481F9
:100F90009581CDDAF80186819781B9DAF801628509
:100FA0007385C801B2DD67EB72E0CE01019696D37E
:100FB000CE010196C2D2CE0101968CD326960FB6F1
:100FC000F894DEBF0FBECDBFDF91CF911F910F917F
:100FD000FF90EF900895E091EC04F091ED04808192
:100FE0009181FC01208531852830310519F06CE3B1
:100FF00070E090CF0895CF92DF92EF92FF920F931F
:101000001F93CF93DF9300D000D0CDB7DEB7FC01A4
:10101000208531852230310591F17A016B018C01F7
:101020000C9610DEF801D7A2C6A2F1A6E0A681E0D8
:1010300082A760EC72E0CE01019650D3CE010196FA
:101040007CD2CE01019646D382E090E0F8019187F0
:101050008087808191815BDAF8018281938157DA00
:10106000F801E05CFF4F80819181019741F4F80124
:10107000848195814CDAF8018681978148DA269639
:101080000FB6F894DEBF0FBECDBFDF91CF911F9199
:101090000F91FF90EF90DF90CF900895CF93DF9363
:1010A00000D000D0CDB7DEB761ED72E0CE01019681
:1010B00015D3CE01019641D2CE0101960BD380917A
:1010C000F0049091F104F4DD26960FB6F894DEBF9B
:1010D0000FBECDBFDF91CF910895EF92FF920F9396
:1010E0001F93CF93DF93CDB7DEB768970FB6F89411
:1010F000DEBF0FBECDBF6ED27C011C8A1B8A1E8A4A
:101100001D8A188E1F8A4AE08E010F5F1F4FB8019B
:1011100054D6F80101900020E9F73197AF01401B48
:10112000510BB801CE01439698D2B7016F517D4F54
:10113000C801D4D2C80101D2C801CCD2E091EC04DC
:10114000F091ED0480819181B3DDCE014396C2D24E
:1011500068960FB6F894DEBF0FBECDBFDF91CF917A
:101160001F910F91FF90EF900895CF93DF9300D0E0
:1011700000D0CDB7DEB78091C6039091C70301962A
:101180009093C7038093C60365EF72E0CE0101968A
:10119000A5D2CE010196D1D1CE0101969BD28091EC
:1011A000C6039091C703F9D8E091EC04F091ED04E7
:1011B000808191817DDD26960FB6F894DEBF0FBE4B
:1011C000CDBFDF91CF910895CF93DF9300D000D0B2
:1011D000CDB7DEB769E073E0CE0101967FD2CE01D4
:1011E0000196ABD1CE01019675D2F4D1E091EC0419
:1011F000F091ED044AE059E06CE271E08081918168
:10120000FADE26960FB6F894DEBF0FBECDBFDF9193
:10121000CF910895CF93DF9300D000D0CDB7DEB744
:1012200060E273E0CE01019659D2CE01019685D1DC
:10123000CE0101964FD2E091EC04F091ED04808153
:101240009181FC01208531852830310519F062E358
:1012500070E060DE26960FB6F894DEBF0FBECDBFFD
:10126000DF91CF910895CF93DF9300D000D0CDB719
:10127000DEB76DE373E0CE01019630D2CE01019668
:101280005CD1CE01019626D2E091EC04F091ED0400
:101290004BEE57E06EE571E080819181ACDE2696E1
:1012A0000FB6F894DEBF0FBECDBFDF91CF9108958A
:1012B000EDECF3E0A089B18982E08C93A485B5853B
:1012C0001C92A685B78580E18C93108EA489B58980
:1012D00086E08C93A289B3898C9180618C93A289DA
:1012E000B3898C9188608C93A289B3898C91806832
:1012F0008C930288F389E02D80818F7D808308950F
:10130000CF92DF92EF92FF920F931F932FB7F89433
:10131000C0905D05D0905E05E0905F05F09060059F
:101320002FBFDC01CB018C0D9D1DAE1DBF1D4FB726
:10133000F89400915D0510915E0520915F05309154
:1013400060054FBF0C151D052E053F0528F08017C1
:101350009107A207B30758F71F910F91FF90EF90E5
:10136000DF90CF900895CF92DF92EF92FF920F938C
:101370001F93CF93DF936C017A018B01C0E0D0E023
:10138000CE15DF0581F0D8016D918D01D601ED916B
:10139000FC910190F081E02DC6011995892B11F087
:1013A0002196EECF7E01C701DF91CF911F910F9162
:1013B000FF90EF90DF90CF900895089580E090E047
:1013C0000895FC01538D448D252F30E0842F90E04B
:1013D000821B930B541710F0CF9608950197089530
:1013E000FC01918D828D981761F0828DDF01A80F2D
:1013F000B11D5D968C91928D9F5F9F73928F90E04F
:1014000008958FEF9FEF0895FC01918D828D9817BD
:1014100031F0828DE80FF11D858D90E008958FEFFA
:101420009FEF08954FD78DEC93E00E945A0121E081
:10143000892B09F420E0822F0895EF92FF920F93F9
:101440001F93CF93DF93EC0181E0888F9B8D8C8D70
:10145000981305C0E889F989808185FD26C0F62E9C
:101460000B8D10E00F5F1F4F0F731127E02E8C8D37
:10147000E8120CC00FB607FCFACFE889F989808121
:1014800085FFF5CFCE010E94E101F1CF8B8DFE01EA
:10149000E80FF11DE35AFF4FF0829FB7F8940B8FCE
:1014A000EA89FB89808180620AC09FB7F894EE893F
:1014B000FF896083E889F9898081837080648083F3
:1014C0009FBF81E090E0DF91CF911F910F91FF903E
:1014D000EF900895CF93DF93EC01888D8823C9F0B6
:1014E000EA89FB89808185FD05C0A889B9898C912D
:1014F00086FD0FC00FB607FCF5CF808185FFF2CFC8
:10150000A889B9898C9185FFEDCFCE010E94E101B8
:10151000E7CFDF91CF910895009761F0FC01019032
:101520000020E9F73197AF01481B590BBC018DEC46
:1015300093E019CF80E090E00895FC01448155814B
:10154000608171818DEC93E00EDF88E292E0E4DF50
:101550008DEC93E0BFCF8F929F92AF92BF920F938B
:101560001F93CF93DF93CDB7DEB7A1970FB6F89453
:10157000DEBF0FBECDBF19A2423008F44AE08E0193
:101580000F5D1F4F842E912CA12CB12CA50194012D
:1015900047D4E62FB901CA0101501109EA3014F409
:1015A000E05D01C0E95CD801EC93232B242B252BB3
:1015B00069F7C801B1DFA1960FB6F894DEBF0FBE80
:1015C000CDBFDF91CF911F910F91BF90AF909F90B2
:1015D0008F900895CF93DF93E8E1F2E08491E2EDFC
:1015E000F1E0D491ECE8F1E0C491CC2391F08111C9
:1015F0000E940302EC2FF0E0EE0FFF1FE05AFE4FB7
:10160000A591B491EC91ED2381E090E021F480E08C
:1016100002C080E090E0DF91CF910895CF92DF92F9
:10162000EF92FF92CF93DF936B017C016DE28DEC23
:1016300093E003DFEC0166277727CB016C197D0966
:101640008E099F094AE087DF8C0F9D1FDF91CF91A4
:10165000FF90EF90DF90CF900895EF92FF920F935D
:101660001F93CF93DF93EC017B018A0188819981DD
:10167000009729F02A813B8124173507E8F4B80147
:101680006F5F7F4F3FD5009759F0998388831B8305
:101690000A832C813D81232B79F4FC0110820CC03C
:1016A00088819981009709F0A4D4198218821D823B
:1016B0001C821B821A8206C01D830C83B70188819D
:1016C00099810DD6CE01DF91CF911F910F91FF909F
:1016D000EF900895FC01808191818BC4FC011182FF
:1016E000108213821282158214826115710549F0ED
:1016F000FB0101900020E9F73197AF01461B570B22
:10170000ACCF08951F920F920FB60F9211240BB613
:101710000F922F933F934F935F936F937F938F938A
:101720009F93AF93BF93EF93FF938DEC93E00E9451
:10173000E101FF91EF91BF91AF919F918F917F91C7
:101740006F915F914F913F912F910F900BBE0F9032
:101750000FBE0F901F9018951F920F920FB60F9209
:1017600011240BB60F922F938F939F93EF93FF93B8
:10177000E091DD03F091DE038081E091E303F091DD
:10178000E40382FD12C090818091E6038F5F8F7326
:101790002091E703821751F0E091E603F0E0E35374
:1017A000FC4F958F8093E60301C08081FF91EF91FC
:1017B0009F918F912F910F900BBE0F900FBE0F90A6
:1017C0001F90189580EB94E085DF86EB94E082DF34
:1017D0008CEB94E07FDF82EC94E07CDF88EC94E09B
:1017E00079DF8EEC94E076DF84ED94E073DF8AEDB0
:1017F00094E070DF80EE94E06DDF86EE94E06ACFD7
:10180000EF92FF920F931F93CF93DF93EDECF3E0F2
:101810001382128288EE93E0A0E0B0E08483958387
:10182000A683B7838AE192E09183808385EC90E080
:101830009587848784EC90E09787868780EC90E09A
:10184000918B808B81EC90E0938B828B82EC90E08B
:10185000958B848B86EC90E0978B868B118E128E05
:10186000138E148EEAE6F4E0168217821086118633
:10187000128613861486158616861786108A118A94
:10188000128A138A148A158A64E573E086EE94E05E
:1018900025DF6CE573E080EE94E020DF66E673E020
:1018A0008AED94E01BDF6EE673E084ED94E016DFD2
:1018B00063E773E08EEC94E011DF6EE773E088EC91
:1018C00094E00CDF64E873E082EC94E007DF60E909
:1018D00073E08CEB94E002DF60EA72E086EB94E068
:1018E000FDDE68E973E080EB94E0F8DE82E4E82E48
:1018F00085E0F82ED70111961C921E9219961C9223
:101900001E9218971B961C921E921A971D961C9257
:101910001E921C9780E290E013969C938E931297F0
:101920008EE190E015969C938E93149786E090E05C
:1019300017969C938E93169761E080E20E94A7020F
:1019400061E08EE10E94A70261E086E00E94A702AA
:1019500004E315E0F80111821082118610861386C7
:101960001286158614868AE190E0938382838CE147
:1019700090E09583848387E090E09783868361E09D
:101980008AE10E94A70261E08CE10E94A70261E067
:1019900087E00E94A702C2EFD4E0198618861B8652
:1019A0001A861D861C861F861E86188A198A1A8A20
:1019B0001B8A1C8A1D8A1E8A1F8A188E198E1A8EEF
:1019C0001B8E1C8E1D8E1E8E1F8E18A219A21AA28F
:1019D0001BA21DA21CA219AE18AE1BAE1AAE1DAEE4
:1019E0001CAE1FAE1EAE19830883FB82EA82D09321
:1019F000F104C093F00482E090E09093330580936B
:101A000032058EEF94E09093EF048093EE04FFAAEA
:101A1000EEAA1DAB0CAB00E012E087EF96E0D80118
:101A200011969C938E93EAE6F0E080818C7F826031
:101A30008083EC9A81E896E013969C938E9312979C
:101A40008081837F88608083ED9A80EA91E09BAB00
:101A50008AAB82E090E035D2FC01D183C0839093C1
:101A6000ED048093EC0460E082E20E94A70260E053
:101A700084E20E94A70260E086E20E94A70260E082
:101A800088E20E94A70260E08AE20E94A70260E06A
:101A90008CE20E94A70260E08EE20E94A70260E052
:101AA00080E30E94A70260E082E30E94A70260E058
:101AB00084E30E94A70262E085E10E94A70262E03F
:101AC00084E10E94A70262E082E10E94A70262E034
:101AD00083E10E94A7028DE698E0D80115969C93B9
:101AE0008E931497E9E6F0E080818C7F826080839A
:101AF000E89A85EB98E017969C938E9316978081D1
:101B0000837F88608083E99A84EE98E01B969C939B
:101B10008E931A9780818F7380688083EB9A83E31A
:101B200099E019969C938E93189780818F7C8062A0
:101B30008083EA9ADF91CF911F910F91FF90EF90F0
:101B40000895CF93DF9300D000D0CDB7DEB778945F
:101B500084B5826084BD84B5816084BD85B58260B2
:101B600085BD85B5816085BD80916E008160809363
:101B70006E001092810080918100826080938100CC
:101B800080918100816080938100809180008160DC
:101B9000809380008091B10084608093B100809137
:101BA000B00081608093B00080919100826080934A
:101BB00091008091910081608093910080919000CC
:101BC0008160809390008091A10082608093A10049
:101BD0008091A10081608093A1008091A00081602C
:101BE0008093A000809121018260809321018091E7
:101BF0002101816080932101809120018160809387
:101C0000200180917A00846080937A0080917A002C
:101C1000826080937A0080917A00816080937A005C
:101C200080917A00806880937A001092C1001092AF
:101C3000AC041092AD041092AE041092AF04109256
:101C40006C0410926D0410926E0410926F0468EB95
:101C50007BE080E090E054DB0E94BE034B015C011E
:101C600088EEC82E83E0D82EE12CF12C0E94BE0312
:101C7000DC01CB0188199909AA09BB09883E934068
:101C8000A105B10598F321E0C21AD108E108F108D5
:101C900088EE880E83E0981EA11CB11CC114D104EB
:101CA000E104F10419F704DB2FB7F89480915D0586
:101CB00090915E05A0915F05B09160052FBF809364
:101CC0006C0490936D04A0936E04B0936F048DE93F
:101CD00093E022DC6AE070E080E090E011DB81E0DC
:101CE00080938004E5DA8091A100887F85608093ED
:101CF000A1006EEA73E0CE010196F0DCCE01019600
:101D00001CDCCE010196E6DC88EE93E0A0E0B0E0BA
:101D10008093520590935305A0935405B0935505B5
:101D200081EA91E090935105809350058091700075
:101D30008E7F809370008091B0008C7F8093B00084
:101D40008091B100877F8093B1008091B6008F7D34
:101D50008093B600809170008D7F80937000809199
:101D6000B10084608093B1008091B1008C7F80933A
:101D7000B10086E090E0909357058093560510924D
:101D8000590510925A0510925B0510925C0510924D
:101D9000580580915605909157058093B200809127
:101DA000700081608093700066E970E082EF94E0DB
:101DB0000E9485050E946601FDCFBB274A3031F4A1
:101DC000992322F4BDE2909581959F4F01C0BB27D6
:101DD000FB015527AA27880F991FAA1FA41710F0E7
:101DE000A41B83955051B9F7A05DAA3308F0A95DF3
:101DF000A193009779F7B111B1931192CB0100C073
:101E0000DC01FC01672F71917723E1F7329704C061
:101E10007C916D9370836291AE17BF07C8F30895EC
:101E2000A1E21A2EAA1BBB1BFD010DC0AA1FBB1FDE
:101E3000EE1FFF1FA217B307E407F50720F0A21B50
:101E4000B30BE40BF50B661F771F881F991F1A94BD
:101E500069F760957095809590959B01AC01BD01E7
:101E6000CF01089597FB072E16F4009406D077FD56
:101E700008D013D007FC05D03EF4909581959F4F74
:101E80000895709561957F4F0895EE0FFF1F881F8D
:101E90008BBF0790F691E02D1994AA1BBB1B51E153
:101EA00007C0AA1FBB1FA617B70710F0A61BB70BCA
:101EB000881F991F5A95A9F780959095BC01CD016F
:101EC00008950F931F93CF93DF938230910510F401
:101ED00082E090E0E0916305F091640520E030E05D
:101EE000A0E0B0E0309719F1408151810281138167
:101EF00048175907C8F08417950769F4109731F00F
:101F000012960C93129713961C9327C000936305A7
:101F10001093640522C02115310519F042175307AB
:101F200018F49A01BD01EF01DF01F801DBCF2115A3
:101F30003105F9F0281B390B2430310580F48A81F2
:101F40009B816115710521F0FB019383828304C09D
:101F50009093640580936305FE01329644C0FE01B0
:101F6000E20FF31F81939193225031093983288323
:101F70003AC02091610530916205232B41F42091F4
:101F80001202309113023093620520936105209173
:101F90001002309111022115310541F42DB73EB7E1
:101FA0004091140250911502241B350BE0916105FC
:101FB000F0916205E217F307A0F42E1B3F0B2817E0
:101FC000390778F0AC014E5F5F4F2417350748F0B2
:101FD0004E0F5F1F5093620540936105819391936B
:101FE00002C0E0E0F0E0CF01DF91CF911F910F91AF
:101FF0000895CF93DF93009709F481C0FC013297D5
:1020000013821282A0916305B0916405109781F448
:1020100020813181820F931F2091610530916205EB
:102020002817390751F5F0936205E093610567C001
:10203000ED0120E030E0CE17DF0740F44A815B81FC
:102040009E0141155105F1F0EA01F5CFD383C2831A
:1020500040815181840F951FC817D90759F4888191
:102060009981840F951F0296918380838A819B8139
:10207000938382832115310529F4F0936405E0935D
:1020800063053DC0E901FB83EA8349915991C40F7F
:10209000D51FEC17FD0761F480819181840F951F96
:1020A0000296E90199838883828193819B838A8345
:1020B000E0E0F0E012968D919C911397009719F053
:1020C000FD01DC01F7CF8D919C9111979D012E5F51
:1020D0003F4F820F931F20916105309162052817B1
:1020E000390769F4309729F410926405109263055A
:1020F00002C013821282B0936205A0936105DF9142
:10210000CF9108956F927F928F929F92AF92BF92DC
:10211000CF92DF92EF92FF920F931F93CF93DF93B3
:10212000009781F4CB01DF91CF911F910F91FF9028
:10213000EF90DF90CF90BF90AF909F908F907F9067
:102140006F90BFCEFC01E60FF71F9C0122503109B2
:10215000E217F30708F4A5C0EC01D9010D911C9119
:10216000119706171707A8F00530110508F497C056
:10217000C80104978617970708F491C00250110907
:10218000061B170B019311936D937C93CF0131DFE5
:1021900086C05B01A01AB10A4C01800E911EA0916D
:1021A0006305B0916405612C712CE12CF12C109722
:1021B00009F446C08D919C911197A815B905B1F508
:1021C0006C0142E0C40ED11CCA14DB0478F14C014E
:1021D0008A189B08640142E0C40ED11C1296BC9080
:1021E00012971396AC91B5E0CB16D10440F0B282B1
:1021F000A38391828082D9016D937C9309C00E5F85
:102200001F4F800F911FF90191838083EB2DFA2FCF
:10221000E114F10431F0D7011396FC93EE93129779
:102220003EC0F0936405E093630539C068167906F3
:1022300008F43C017D0112960D90BC91A02DB7CF02
:10224000809161059091620588169906E1F4661601
:102250007706C8F48091100290911102009741F422
:102260008DB79EB74091140250911502841B950BB7
:10227000E817F907B0F4F0936205E0936105F901FE
:10228000718360830CC0CB011CDE7C01009749F098
:10229000A801BE011BD0CE01ACDEC70104C0CE0137
:1022A00002C080E090E0DF91CF911F910F91FF90ED
:1022B000EF90DF90CF90BF90AF909F908F907F90E6
:1022C0006F90089581E090E0F89410C0FB01DC016C
:1022D00002C001900D9241505040D8F70895FB0183
:1022E000DC0101900D920020E1F7089511E0C7E2B2
:1022F000D1E000E005C0802FFE01C7DD2196011D61
:0E230000C832D10780E00807B1F7F894FFCF8C
:10230E009F019F019F019F019F019F019F019F01BF
:10231E00000065058000000000001D0AB309E109F8
:10232E006A0A5A01F009040A0D0A0072656D6F7689
:10233E00654C6566745065646F6D65746572007288
:10234E00656D6F766552696768745065646F6D650B
:10235E007465720063757272656E74526967687423
:10236E0047726964436F756E743A006C6566745398
:10237E00756D3A0063757272656E744C656674475E
:10238E00726964436F756E743A006F6E4C65667455
:10239E005065646F6D657465723A2063616C6C2074
:1023AE006261636B0061646452696768745065644E
:1023BE006F6D65746572007475726E4C656674002F
:1023CE006164644C656C745065646F6D65746572A0
:1023DE00007475726E4C6566742066696E697368FA
:1023EE00006F6E5F6261636B5F6C6566745F6372D4
:1023FE006173683A006F6E5F6261636B5F726967EB
:10240E0068745F6372617368006F6E5F666F727778
:10241E006172645F6C6566745F63726173682000DD
:10242E006F6E5F666F72776172645F6C6566745F04
:10243E0063726173682066696E697368006F6E5FA0
:10244E00666F72776172645F72696768745F6372D8
:10245E00617368007370656564757000737065658F
:10246E0064646F776E0073706565646174006C658B
:10247E006674007475726E6C656674617400726950
:10248E00676874007475726E72696768746174003F
:10249E00666F72776172640073746F7000564D448C
:1024AE0050565F317C315F564D4450560A00776569
:1024BE006C636F6D6520746F20636C65616E207246
:0624CE006F626F74000054
:00000001FF
