:1000000027C100007DC7000050C7000023C70000C3
:10001000F6C60000C9C600009CC600006FC60000FE
:1000200042C6000046C1000044C1000042C10000B9
:1000300040C100003EC100003CC100000C945D08BE
:1000400038C1000036C1000034C1000032C10000D8
:1000500030C100002EC100002CC10000DAC5000034
:1000600028C1000090C3000065C3000022C1000049
:1000700020C100001EC100001CC100001AC1000008
:1000800018C1000016C1000014C1000012C1000018
:1000900010C100000EC100000CC100000AC1000028
:1000A00008C1000006C1000004C1000002C1000038
:1000B00000C10000FEC00000FCC00000FAC000004B
:1000C000F8C00000F6C00000F4C00000F2C000005C
:1000D000F0C00000EEC00000ECC00000EAC000006C
:1000E000E8C0000089028C027B027F028502C30205
:1000F000900294029A029E02A202A802AC02B002EE
:10010000C302B602BA02BE025C0461046604700453
:100110007A04F30484048C0494049E04A804B204B6
:10012000C104CB04F304D504DF04E904000021007A
:10013000240027002A002D003000330001010000B8
:10014000040107010A0100002200250028002B00FD
:100150002E003100340002010000050108010B01EE
:10016000000020002300260029002C002F00320070
:100170000001000003010601090105050505070549
:1001800008080808020202020A0A08080404040413
:10019000010101010101010103030303030303033F
:1001A000040707070C0C0C0C0C0C0C0C02020202CE
:1001B00006060606060606060B0B0B0B0B0B0B0BB7
:1001C0000102102020080810204010204080020169
:1001D000020108040201010204081020408080404E
:1001E000201008040201800402018040201008044D
:1001F00002010804020101020408102040800102EB
:1002000004081020408000000A0B02090C0D0E08A3
:1002100007030401000000000000000000000000CF
:1002200000000000000000000000000000000000CE
:10023000000012111000000000000000000000008B
:10024000000000000000000000000000750C160B0C
:1002500011241FBECFEFD1E2DEBFCDBF00E00CBF47
:1002600012E0A0E0B2E0E8EDFFE100E00BBF02C069
:1002700007900D92AC3CB107D9F724E0ACECB2E0AA
:1002800001C01D92AA36B207E1F711E0C7E2D1E042
:1002900000E006C021970109802FFE010E94BE0DDB
:1002A000C632D10780E00807A9F70E94340B0C94EE
:1002B000DB0FA6CE1092DE020895089580E090E054
:1002C0000895FC01538D448D252F30E0842F90E05C
:1002D000821B930B541710F0CF9608950197089541
:1002E000FC01918D828D981761F0828DDF01A80F3E
:1002F000B11D5D968C91928D9F5F9F73928F90E060
:1003000008958FEF9FEF0895FC01918D828D9817CE
:1003100031F0828DE80FF11D858D90E008958FEF0B
:100320009FEF0895FC01918D228D892F90E0805CD4
:100330009F4F821B91098F739927089583EE92E056
:10034000F1DF21E0892B09F420E0822F0895FC01E0
:10035000848DDF01A80FB11DA35ABF4F2C91848D4E
:1003600090E001968F739927848FA689B7892C9383
:10037000A089B1898C91837080648C93938D848DD6
:10038000981306C00288F389E02D80818F7D8083D9
:100390000895EF92FF920F931F93CF93DF93EC0199
:1003A00081E0888F9B8D8C8D981305C0E889F98931
:1003B000808185FD25C0F62E0B8D10E00F5F1F4F4D
:1003C0000F731127E02E8C8DE8120BC00FB607FCBF
:1003D000FACFE889F989808185FFF5CFCE01B7DFB3
:1003E000F2CF8B8DFE01E80FF11DE35AFF4FF08233
:1003F0009FB7F8940B8FEA89FB89808180620AC0DD
:100400009FB7F894EE89FF896083E889F989808134
:100410008370806480839FBF81E090E0DF91CF9103
:100420001F910F91FF90EF900895CF93DF93EC0110
:10043000888D8823C1F0EA89FB89808185FD05C00C
:10044000A889B9898C9186FD0EC00FB607FCF5CF3F
:10045000808185FFF2CFA889B9898C9185FFEDCF86
:10046000CE0175DFE8CFDF91CF91089580E090E075
:10047000892B19F063DF811125C080E090E0892B82
:1004800041F080E090E0892B21F00E940000811172
:100490001CC080E090E0892B41F080E090E0892B47
:1004A00021F00E940000811113C080E090E0892BB0
:1004B000A1F080E090E0892B81F00E940000811182
:1004C0000AC008950E940000D8CF0E940000E1CF2A
:1004D0000E940000EACF0C940000089590E0FC0117
:1004E0003197E231F10508F04EC08827EE58FF4FF2
:1004F0008F4F0C94BE0D809180008F7703C0809148
:1005000080008F7D80938000089580918000877F98
:10051000F9CF84B58F7702C084B58F7D84BD0895EF
:100520008091B0008F7703C08091B0008F7D809361
:10053000B0000895809190008F7707C0809190005F
:100540008F7D03C080919000877F809390000895F5
:100550008091A0008F7707C08091A0008F7D03C09D
:100560008091A000877F8093A00008958091200152
:100570008F7707C0809120018F7D03C0809120017B
:10058000877F809320010895CF93DF93282F30E059
:10059000F901EA5FFD4F8491F901E054FE4FD491D7
:1005A000F901E658FE4FC491CC2389F0811196DF02
:1005B000EC2FF0E0EE0FFF1FE05AFE4FA591B49133
:1005C000EC91ED2381E090E021F480E002C080E036
:1005D00090E0DF91CF9108951F93CF93DF93282F61
:1005E00030E0F901EA5FFD4F8491F901E054FE4FDC
:1005F000D491F901E658FE4FC491CC23B9F0162FDF
:1006000081116CDFEC2FF0E0EE0FFF1FEA5BFE4F75
:10061000A591B4919FB7F894111104C08C91D09515
:10062000D82302C0EC91DE2BDC939FBFDF91CF91EA
:100630001F9108953FB7F8948091DA029091DB0200
:10064000A091DC02B091DD0226B5A89B05C02F3F2A
:1006500019F00196A11DB11D3FBFBA2FA92F982FE8
:100660008827820F911DA11DB11DBC01CD0142E063
:10067000660F771F881F991F4A95D1F7089508952F
:10068000CF93DF93EC0160E08A81A6DF60E08C818C
:10069000A3DF19861886DF91CF910895CF93DF935A
:1006A000EC0160E08A8198DF61E08C8195DF81E078
:1006B00090E099878887DF91CF91089521E020937A
:1006C000D8022091D702222369F0E091D502F0915F
:1006D000D602309731F4E091D302F091D4023097F2
:1006E00009F01994089521E02093D7022091D802AF
:1006F000222369F0E091D502F091D602309731F4CF
:10070000E091D302F091D402309709F01994089542
:10071000E0910204F091030467E879E0808191811F
:1007200000C7E0910204F09103046FEE79E080814C
:100730009181F7C61F920F920FB60F9211240BB63C
:100740000F922F933F934F935F936F937F938F936A
:100750009F93AF93BF93EF93FF9383EE92E0F7DD08
:10076000FF91EF91BF91AF919F918F917F916F9189
:100770005F914F913F912F910F900BBE0F900FBE45
:100780000F901F9018951F920F920FB60F92112481
:100790000BB60F922F938F939F93EF93FF93E0915C
:1007A000F302F091F4028081E091F902F091FA02F3
:1007B00082FD12C090818091FC028F5F8F73209127
:1007C000FD02821751F0E091FC02F0E0ED51FD4F87
:1007D000958F8093FC0201C08081FF91EF919F91E2
:1007E0008F912F910F900BBE0F900FBE0F901F9007
:1007F0001895CF93DF9390E0FC01E054FE4F2491D5
:10080000FC01E658FE4F8491882361F190E0880F47
:10081000991FFC01E45DFE4FC591D491FC01EA5B98
:10082000FE4FA591B491611109C09FB7F8948881DA
:10083000209582238883EC912E230BC0623061F4D3
:100840009FB7F8948881322F309583238883EC9169
:100850002E2B2C939FBF06C08FB7F894E8812E2BC8
:1008600028838FBFDF91CF9108951F93CF93DF939C
:10087000182FEB0161E0BDDF209711F460E004C0A8
:10088000CF3FD10531F461E0812FDF91CF911F91EE
:10089000A3CEE12FF0E0EA5FFD4FE4918E2F90E0D0
:1008A000FC013197E231F10508F09DC08827EC5733
:1008B000FF4F8F4F0C94BE0D84B5806884BDC7BDBB
:1008C00097C084B5806284BDC8BD92C0809180000D
:1008D000806880938000D0938900C093880088C08E
:1008E00080918000806280938000D0938B00C093C1
:1008F0008A007EC080918000886080938000D093C1
:100900008D00C0938C0074C08091B000806880938B
:10091000B000C093B3006CC08091B000806280933F
:10092000B000C093B40064C0809190008068809350
:100930009000D0939900C09398005AC08091900085
:10094000806280939000D0939B00C0939A0050C027
:1009500080919000886080939000D0939D00C09318
:100960009C0046C08091A00080688093A000809188
:10097000A0008F7B8093A000D093A900C093A80013
:1009800037C08091A00080628093A000D093AB001C
:10099000C093AA002DC08091A00088608093A00021
:1009A000D093AD00C093AC0023C08091200180683B
:1009B00080932001D0932901C093280119C0809110
:1009C0002001806280932001D0932B01C0932A01E3
:1009D0000FC080912001886080932001D0932D0169
:1009E000C0932C0105C0C038D1050CF04CCF46CFC8
:1009F000DF91CF911F910895FC0120813181848581
:100A00009585281B390B82859385293E334014F048
:100A1000449701C00A979387828762857385868190
:100A200024CFFC012485358580819181281B390BD9
:100A300082859385293E334014F00A9601C00596BD
:100A4000938782876285738586810FCF0F931F936B
:100A5000CF93DF93C0910404D091050488859985D4
:100A60009C01215031092230310508F056C088819F
:100A70009981FC01408151812485358524173507F2
:100A80005CF4BADFFE01E05CFF4F80819181019749
:100A900019F48E819F81B0DF88819981FC014081AA
:100AA000518124853585421753075CF4BADFFE0176
:100AB000E05CFF4F80819181019719F48E819F81C5
:100AC000B0DF8A819B81FC0140815181248535857D
:100AD000241735075CF490DFFE01E05CFF4F808156
:100AE0009181019719F48C819D8186DF8A819B8198
:100AF000FC014485558520813181241735070CF090
:100B000072C08FDFFE01E05CFF4F80819181019711
:100B100009F069C08C819D814EC0089761F588817C
:100B20009981FC0140815181248535858E01005CCD
:100B30001F4F4217530784F474DF8A819B8171DF52
:100B4000F801808191810197B1F48C819D8169DFE9
:100B50008E819F8166DF0FC04FDF8A819B814CDFD2
:100B6000F80180819181019731F48C819D8144DF6E
:100B70008E819F8141DF888599850797A1F5EA815C
:100B8000FB814081518124853585888199818E0141
:100B9000005C1F4F421753079CF443DF8A819B81FF
:100BA00040DFF801808191810197E9F48C819D817A
:100BB00038DF8E819F81DF91CF911F910F9131CFCF
:100BC0001BDF8A819B8118DFF80180819181019769
:100BD00051F48C819D8110DF8E819F81DF91CF91B7
:100BE0001F910F9109CFDF91CF911F910F91089520
:100BF000FC0177FF02C060E070E06F3F710519F003
:100C000014F06FEF70E07587648773876287868161
:100C10002CCE1F920F920FB60F9211242F933F9359
:100C20008F939F93AF93BF938091DF029091E002E7
:100C3000A091E102B091E2023091D90223E0230FAA
:100C40002D3720F40196A11DB11D05C026E8230F04
:100C50000296A11DB11D2093D9028093DF029093CB
:100C6000E002A093E102B093E2028091DA02909157
:100C7000DB02A091DC02B091DD020196A11DB11D45
:100C80008093DA029093DB02A093DC02B093DD0242
:100C9000BF91AF919F918F913F912F910F900FBE78
:100CA0000F901F9018951F920F920FB60F9211245C
:100CB0000BB60F922F933F934F935F936F937F9356
:100CC0008F939F93AF93BF93EF93FF93E0910E02A7
:100CD000F0910F021995FF91EF91BF91AF919F9104
:100CE0008F917F916F915F914F913F912F910F90D5
:100CF0000BBE0F900FBE0F901F9018951F920F9272
:100D00000FB60F9211240BB60F922F933F934F9370
:100D10005F936F937F938F939F93AF93BF93EF9363
:100D2000FF93E0910C02F0910D021995FF91EF9164
:100D3000BF91AF919F918F917F916F915F914F91F3
:100D40003F912F910F900BBE0F900FBE0F901F90F1
:100D500018951F920F920FB60F9211240BB60F9297
:100D60002F933F934F935F936F937F938F939F93B3
:100D7000AF93BF93EF93FF93E0910202F0910302D0
:100D80001995FF91EF91BF91AF919F918F917F91B5
:100D90006F915F914F913F912F910F900BBE0F90EC
:100DA0000FBE0F901F9018951F920F920FB60F92C3
:100DB00011240BB60F922F933F934F935F936F9332
:100DC0007F938F939F93AF93BF93EF93FF93E091A4
:100DD0000002F09101021995FF91EF91BF91AF913F
:100DE0009F918F917F916F915F914F913F912F9143
:100DF0000F900BBE0F900FBE0F901F9018951F9273
:100E00000F920FB60F9211240BB60F922F933F93B0
:100E10004F935F936F937F938F939F93AF93BF9302
:100E2000EF93FF93E0910A02F0910B021995FF9165
:100E3000EF91BF91AF919F918F917F916F915F9152
:100E40004F913F912F910F900BBE0F900FBE0F90BF
:100E50001F9018951F920F920FB60F9211240BB688
:100E60000F922F933F934F935F936F937F938F9343
:100E70009F93AF93BF93EF93FF93E0910802F0919C
:100E800009021995FF91EF91BF91AF919F918F91B9
:100E90007F916F915F914F913F912F910F900BBE7A
:100EA0000F900FBE0F901F9018951F920F920FB6C4
:100EB0000F9211240BB60F922F933F934F935F9392
:100EC0006F937F938F939F93AF93BF93EF93FF9312
:100ED000E0910602F09107021995FF91EF91BF9101
:100EE000AF919F918F917F916F915F914F913F91C2
:100EF0002F910F900BBE0F900FBE0F901F90189563
:100F00001F920F920FB60F9211240BB60F922F93D0
:100F10003F934F935F936F937F938F939F93AF9381
:100F2000BF93EF93FF93E0910402F09105021995AE
:100F3000FF91EF91BF91AF919F918F917F916F91B1
:100F40005F914F913F912F910F900BBE0F900FBE6D
:100F50000F901F901895CF93DF93EC0161E08A8189
:100F60003BDB60E08C8138DB82E090E0998788870A
:100F7000DF91CF9108950F931F93CF93DF93EC01EF
:100F80008B017B876A878881998132DEB8018A81EB
:100F90009B812EDEFE01E05CFF4F808191810197F5
:100FA00061F4B8018C819D8123DEB8018E819F811F
:100FB000DF91CF911F910F911BCEDF91CF911F91A8
:100FC0000F910895CF93DF93EC011FA21EA219A6E3
:100FD00018A61AA61EA61DA618AA1FA619AA8881B9
:100FE00099815CDB8A819B8159DBFE01E05CFF4FCC
:100FF00080819181019731F48C819D814FDB8E81BD
:101000009F814CDB6A857B85CE01B5DF81E090E076
:1010100099878887DF91CF910895CF93DF93FC0163
:10102000208531852130310579F1EC0116A615A610
:1010300010AA17A611AA24E1269FC001279F900D90
:10104000112497A386A351A740A781E082A781E03E
:1010500090E0918780878081918120DB8A819B81CC
:101060001DDBFE01E05CFF4F80819181019731F42F
:101070008C819D8113DB8E819F8110DB6A857B854E
:10108000CE01DF91CF9177CFDF91CF910895E0919D
:101090000204F09103044AE859E065E070E08081C1
:1010A0009181BBCFE0910204F091030443EF59E03A
:1010B00065E070E080819181B0CF1F920F920FB6F2
:1010C0000F9211240BB60F922F933F934F935F9380
:1010D0006F937F938F939F93AF93BF93EF93FF9300
:1010E0008091D1029091D2028093B2008091CD0282
:1010F0009091CE02A091CF02B091D0020196A11D95
:10110000B11D8093CD029093CE02A093CF02B093F5
:10111000D0028091CD029091CE02A091CF02B091E9
:10112000D0028091CC02811118C081E08093CC0262
:101130008091CD029091CE02A091CF02B091D002C9
:101140008093CD029093CE02A093CF02B093D002B1
:10115000E0E0F0E019951092CC02FF91EF91BF9181
:10116000AF919F918F917F916F915F914F913F913F
:101170002F910F900BBE0F900FBE0F901F901895E0
:101180000F931F93CF93DF9300D000D0CDB7DEB77E
:1011900060E572E0CE010196FED1CE0101964FD1FD
:1011A000CE010196F4D10091040410910504F801D8
:1011B00080859185892B19F117A216A211A610A678
:1011C00012A616A615A610AA17A611AA80819181AB
:1011D00057DAF8018281938153DAF801E05CFF4F1E
:1011E00080819181019741F4F8018481958148DAE9
:1011F000F8018681978144DAF801118610862696D7
:101200000FB6F894DEBF0FBECDBFDF91CF911F9117
:101210000F910895CF93DF9300D000D0CDB7DEB704
:1012200061E672E0CE010196B6D1CE01019607D1FA
:10123000CE010196ACD18091040490910504FC018B
:10124000208531852130310509F0BCDE26960FB6A8
:10125000F894DEBF0FBECDBFDF91CF9108950F93FD
:101260001F93CF93DF9300D000D0CDB7DEB7E091CE
:101270000204F091030400811181F80180859185B9
:10128000079709F439C016A615A610AA17A611AA21
:1012900088E592E097A386A380EC98E091A780A7C9
:1012A00081E082A787E090E09187808780819181AB
:1012B00052DEF80182819381F1D9F801E05CFF4FA1
:1012C00080819181019741F4F80184819581E6D96B
:1012D000F80186819781D4D9F80162857385C801A8
:1012E0004ADE61E772E0CE01019655D1CE0101964A
:1012F000A6D0CE0101964BD126960FB6F894DEBF4C
:101300000FBECDBFDF91CF911F910F910895A7CF51
:10131000A6CFA5CFA4CF0F931F93CF93DF9300D079
:1013200000D0CDB7DEB7E0910204F0910304008154
:101330001181F80180859185089709F445C088E0FE
:1013400090E0918780878AE099E09093D60280931D
:10135000D5021092D4021092D30228E532E036A7CB
:1013600025A78EE593E090AB87A781E081AB37A3FB
:1013700026A323E733E031A720A782A780819181AC
:101380008DD9F80182819381E6DDF801E05CFF4FA1
:1013900080819181019741F4F801848195817ED902
:1013A000F80186819781D7DDF80162857385C801D0
:1013B000E2DD61E772E0CE010196EDD0CE0101964B
:1013C0003ED0CE010196E3D026960FB6F894DEBF4C
:1013D0000FBECDBFDF91CF911F910F9108959BCF8D
:1013E0009ACF99CF98CF97CFCF92DF92EF92FF927B
:1013F0000F931F93CF93DF936C017A018B01C0E0B1
:10140000D0E0CE15DF0581F0D8016D918D01D601B8
:10141000ED91FC910190F081E02DC6011995892B89
:1014200011F02196EECF7E01C701DF91CF911F9180
:101430000F91FF90EF90DF90CF900895A8D5CF93B4
:10144000DF93FC01448155816081718183EE92E0DC
:10145000CBDFEC0142E050E069EC72E083EE92E019
:10146000C3DF8C0F9D1FDF91CF910895E3EEF2E073
:10147000A089B18982E08C93A485B5851C92A6854C
:10148000B7858FEC8C93108EA489B58986E08C93F8
:10149000A289B3898C9180618C93A289B3898C9144
:1014A00088608C93A289B3898C9180688C93028820
:1014B000F389E02D80818F7D80830895CF92DF9224
:1014C000EF92FF920F931F932FB7F894C090DF0213
:1014D000D090E002E090E102F090E2022FBFDC0148
:1014E000CB018C0D9D1DAE1DBF1D4FB7F894009113
:1014F000DF021091E0022091E1023091E2024FBF41
:101500000C151D052E053F0528F080179107A20731
:10151000B30758F71F910F91FF90EF90DF90CF9096
:101520000895CF93DF93FC0120853185223031056A
:1015300059F1EC0116A615A610AA17A611AA84E661
:1015400090E097A386A371A760A781E082A782E0BD
:1015500090E09187808780819181FDDC8A819B81E9
:10156000FADCFE01E05CFF4F80819181019731F44C
:101570008C819D81F0DC8E819F81EDDC6A857B858D
:10158000CE01DF91CF91F7CCDF91CF910895FC018F
:101590008081918193C3EF92FF920F931F93CF931A
:1015A000DF93EC01198218821B821A821D821C8231
:1015B00061157105A1F17B01FB0101900020E9F7A4
:1015C00031978F01061B170BB8016F5F7F4F80E0CB
:1015D00090E0FDD3009759F0998388831B830A8399
:1015E0002C813D81232B79F4FC0110820CC0888171
:1015F0009981009709F062D3198218821D821C829A
:101600001B821A820CC01D830C83B70188819981CB
:10161000DF91CF911F910F91FF90EF90C5C4DF91A3
:10162000CF911F910F91FF90EF90089586EC93E07A
:10163000AEDF8CEC93E0ABDF82ED93E0A8DF88EDCA
:1016400093E0A5DF8EED93E0A2DF84EE93E09FDFD1
:101650008AEE93E09CDF80EF93E099DF86EF93E0E2
:1016600096DF8CEF93E093CFCF93DF9300D000D041
:10167000CDB7DEB7789484B5826084BD84B58160CF
:1016800084BD85B5826085BD85B5816085BD80914D
:101690006E00816080936E001092810080918100C5
:1016A00082608093810080918100816080938100BD
:1016B000809180008160809380008091B10084607F
:1016C0008093B1008091B00081608093B0008091E0
:1016D000910082608093910080919100816080935D
:1016E0009100809190008160809390008091A10092
:1016F00082608093A1008091A10081608093A1000D
:101700008091A00081608093A0008091210182607F
:10171000809321018091210181608093210180913A
:10172000200181608093200180917A008460809301
:101730007A0080917A00826080937A0080917A00AA
:10174000816080937A0080917A00806880937A002B
:101750001092C1001092C2031092C3031092C403EE
:101760001092C50310928203109283031092840397
:101770001092850368EB7BE080E090E09FDE0E94A2
:101780001A034B015C0188EEC82E83E0D82EE12CB1
:10179000F12C0E941A03DC01CB0188199909AA09CE
:1017A000BB09883E9340A105B10598F321E0C21A18
:1017B000D108E108F10888EE880E83E0981EA11C8C
:1017C000B11CC114D104E104F10419F74FDE2FB7A5
:1017D000F8948091DF029091E002A091E102B09133
:1017E000E2022FBF8093820390938303A09384032C
:1017F000B093850340E150E068E272E083EE92E04E
:10180000F3DD6AE070E080E090E058DE81E08093F4
:1018100096032CDE69E372E0CE010196BCDECE01B8
:1018200001960DDECE010196B2DE64EF71E088E034
:1018300094E0A1DB8091100490911104019719F0BC
:1018400088E094E0BFDB009106041091070482E277
:101850000E94C402019731F469E879E0F8018081BF
:1018600091815FDE82E20E94C402019741F442EF5F
:1018700059E065E070E0F80180819181CEDB88E27B
:101880000E94C402019731F468E879E0F801808190
:10189000918147DE88E20E94C402019731F461EF32
:1018A00079E0F801808191813CDE84E30E94C402EA
:1018B000892B31F460EF79E0F8018081918131DE8C
:1018C0008091DE02882341F0F80180819181FC0142
:1018D00020853185232B19F00E943602B4CF4AE5CA
:1018E00051E06EE170E099DBF7CFEF92FF920F933A
:1018F0001F93CF93DF93E3EEF2E01382128288EE20
:1019000093E0A0E0B0E084839583A683B7838AE167
:1019100092E09183808385EC90E09587848784ECC6
:1019200090E09787868780EC90E0918B808B81ECAC
:1019300090E0938B828B82EC90E0958B848B86EC8D
:1019400090E0978B868B118E128E138E148EE0E8AA
:10195000F3E016821782108611861286138614868B
:10196000158616861786108A118A128A138A148A97
:10197000158A6BE772E08CEF93E00DDE63E872E0AE
:1019800086EF93E008DE6DE872E080EF93E003DE1F
:1019900065E972E08AEE93E0FEDD6AE972E084EECA
:1019A00093E0F9DD65EA72E08EED93E0F4DD6BEA39
:1019B00072E088ED93E0EFDD67EB72E082ED93E09B
:1019C000EADD6FEB72E08CEC93E0E5DD64EC72E055
:1019D00086EC93E0E0DD88E5E82E84E0F82EF70160
:1019E000118210821186108613861286158614863F
:1019F00080E290E0938382838EE190E095838483FC
:101A000086E090E09783868361E080E20E94F9039C
:101A100061E08EE10E94F90361E086E00E94F90333
:101A20000AE414E0F80111821082118610861386F0
:101A30001286158614868AE190E0938382838CE176
:101A400090E09583848387E090E09783868361E0CC
:101A50008AE10E94F90361E08CE10E94F90361E0F0
:101A600087E00E94F903C8E0D4E0198618861B8637
:101A70001A861D861C861F861E86188A198A1A8A4F
:101A80001B8A1C8A1D8A1E8A1F8A188E198E1A8E1E
:101A90001B8E1C8E1D8E1E8E1F8E18A219A21AA2BE
:101AA0001BA21DA21CA219AE18AE1BAE1AAE1DAE13
:101AB0001CAE1FAE1EAE19830883FB82EA82D09350
:101AC0000504C093040482E090E09093490480935D
:101AD0004804FFAAEEAA1DAB0CAB86E295E09BABD7
:101AE0008AAB82E090E052D0FC01D183C083909316
:101AF00003048093020460E082E20E94F90360E044
:101B000084E20E94F90360E086E20E94F90360E04B
:101B100088E20E94F90360E08AE20E94F90360E033
:101B20008CE20E94F90360E08EE20E94F90360E01B
:101B300080E30E94F90360E082E30E94F90360E021
:101B400084E30E94F90360E084E30E94F90360E00B
:101B500084E30E94F90360E084E30E94F90360E0FB
:101B600084E30E94F9031092070410920604DF91A7
:101B7000CF911F910F91FF90EF900895EE0FFF1FEF
:101B8000881F8BBF0790F691E02D19940F931F9338
:101B9000CF93DF938230910510F482E090E0E091E2
:101BA0006804F091690420E030E0A0E0B0E03097F4
:101BB00019F1408151810281138148175907C8F0FA
:101BC0008417950769F4109731F012960C931297C9
:101BD00013961C9327C0009368041093690422C0D5
:101BE0002115310519F04217530718F49A01BD0168
:101BF000EF01DF01F801DBCF21153105F9F0281BDA
:101C0000390B2430310580F48A819B81611571057F
:101C100021F0FB019383828304C090936904809335
:101C20006804FE01329644C0FE01E20FF31F819367
:101C3000919322503109398328833AC02091660458
:101C400030916704232B41F420911202309113024A
:101C500030936704209366042091100230911102A2
:101C60002115310541F42DB73EB740911402509132
:101C70001502241B350BE0916604F0916704E2170E
:101C8000F307A0F42E1B3F0B2817390778F0AC019F
:101C90004E5F5F4F2417350748F04E0F5F1F50937C
:101CA0006704409366048193919302C0E0E0F0E002
:101CB000CF01DF91CF911F910F910895CF93DF93C3
:101CC000009709F481C0FC01329713821282A0911F
:101CD0006804B0916904109781F420813181820FEA
:101CE000931F20916604309167042817390751F536
:101CF000F0936704E093660467C0ED0120E030E0F4
:101D0000CE17DF0740F44A815B819E0141155105E2
:101D1000F1F0EA01F5CFD383C28340815181840F72
:101D2000951FC817D90759F488819981840F951F89
:101D30000296918380838A819B819383828321157C
:101D4000310529F4F0936904E09368043DC0E9018A
:101D5000FB83EA8349915991C40FD51FEC17FD0706
:101D600061F480819181840F951F0296E901998326
:101D70008883828193819B838A83E0E0F0E01296DE
:101D80008D919C911397009719F0FD01DC01F7CF1D
:101D90008D919C9111979D012E5F3F4F820F931F54
:101DA00020916604309167042817390769F4309749
:101DB00029F4109269041092680402C013821282FE
:101DC000B0936704A0936604DF91CF9108956F925A
:101DD0007F928F929F92AF92BF92CF92DF92EF92BB
:101DE000FF920F931F93CF93DF93009781F4CB0162
:101DF000DF91CF911F910F91FF90EF90DF90CF90E7
:101E0000BF90AF909F908F907F906F90BFCEFC015E
:101E1000E60FF71F9C0122503109E217F30708F47F
:101E2000A5C0EC01D9010D911C9111970617170758
:101E3000A8F00530110508F497C0C801049786176B
:101E4000970708F491C002501109061B170B019364
:101E500011936D937C93CF0131DF86C05B01A01A93
:101E6000B10A4C01800E911EA0916804B0916904E2
:101E7000612C712CE12CF12C109709F446C08D9146
:101E80009C911197A815B905B1F56C0142E0C40EFB
:101E9000D11CCA14DB0478F14C018A189B08640138
:101EA00042E0C40ED11C1296BC9012971396AC91CE
:101EB000B5E0CB16D10440F0B282A3839182808238
:101EC000D9016D937C9309C00E5F1F4F800F911F46
:101ED000F90191838083EB2DFA2FE114F10431F0A5
:101EE000D7011396FC93EE9312973EC0F0936904CA
:101EF000E093680439C06816790608F43C017D0156
:101F000012960D90BC91A02DB7CF80916604909150
:101F1000670488169906E1F466167706C8F480917E
:101F2000100290911102009741F48DB79EB7409135
:101F3000140250911502841B950BE817F907B0F4B1
:101F4000F0936704E0936604F901718360830CC029
:101F5000CB011CDE7C01009749F0A801BE011BD01B
:101F6000CE01ACDEC70104C0CE0102C080E090E02B
:101F7000DF91CF911F910F91FF90EF90DF90CF9065
:101F8000BF90AF909F908F907F906F90089581E069
:101F900090E0F89410C0FB01DC0102C001900D92AA
:101FA00041505040D8F70895FB01DC0101900D929B
:101FB0000020E1F7089511E0C7E2D1E000E005C09C
:101FC000802FFE01DBDD2196011DC832D10780E0A4
:081FD0000807B1F7F894FFCFF8
:101FD8003F033F033F033F033F033F033F033F03E9
:101FE80000006A04800000000000C901F4096101D2
:101FF8001502920170018401564D4450565F317CA0
:10200800315F564D4450560A0077656C636F6D65B5
:1020180020746F20636C65616E20726F626F74004C
:102028007475726E52696768742066696E69736840
:10203800007475726E4C6566742066696E697368A3
:10204800007475726E5269676874007370656564B0
:102058007570007370656564646F776E0073706582
:1020680065646174006C656674007475726E6C6585
:1020780066746174007269676874007475726E7250
:1020880069676874617400666F7277617264006270
:0C20980061636B0073746F70000D0A0030
:020000023000CC
:10E000000D9489F10D94B2F10D94B2F10D94B2F129
:10E010000D94B2F10D94B2F10D94B2F10D94B2F1F0
:10E020000D94B2F10D94B2F10D94B2F10D94B2F1E0
:10E030000D94B2F10D94B2F10D94B2F10D94B2F1D0
:10E040000D94B2F10D94B2F10D94B2F10D94B2F1C0
:10E050000D94B2F10D94B2F10D94B2F10D94B2F1B0
:10E060000D94B2F10D94B2F10D94B2F10D94B2F1A0
:10E070000D94B2F10D94B2F10D94B2F10D94B2F190
:10E080000D94B2F10D94B2F10D94B2F10D94B2F180
:10E090000D94B2F10D94B2F10D94B2F10D94B2F170
:10E0A0000D94B2F10D94B2F10D94B2F10D94B2F160
:10E0B0000D94B2F10D94B2F10D94B2F10D94B2F150
:10E0C0000D94B2F10D94B2F10D94B2F10D94B2F140
:10E0D0000D94B2F10D94B2F10D94B2F10D94B2F130
:10E0E0000D94B2F141546D656761323536300041AF
:10E0F000726475696E6F206578706C6F72657220DE
:10E1000073746B3530305632206279204D4C530099
:10E11000426F6F746C6F616465723E004875683F52
:10E1200000436F6D70696C6564206F6E203D200048
:10E130004350552054797065202020203D20005FF9
:10E140005F4156525F415243485F5F3D2000415658
:10E1500052204C696243205665723D20004743437C
:10E160002056657273696F6E203D20004350552024
:10E1700049442020202020203D20004C6F7720663D
:10E18000757365202020203D20004869676820665F
:10E190007573652020203D200045787420667573D6
:10E1A00065202020203D20004C6F636B2066757336
:10E1B000652020203D20004D617220203720323024
:10E1C000313300312E362E3800342E332E350056A2
:10E1D00023202020414444522020206F7020636F70
:10E1E00064652020202020696E73747275637469E1
:10E1F0006F6E2061646472202020496E74657272B3
:10E20000757074006E6F20766563746F7200726A49
:10E210006D702020006A6D70200057686174207056
:10E220006F72743A00506F7274206E6F7420737541
:10E2300070706F72746564004D7573742062652030
:10E2400061206C6574746572002000577269747483
:10E25000696E672045450052656164696E672045B7
:10E26000450045452065727220636E743D00504F35
:10E27000525400303D5A65726F2061646472003FF1
:10E280003D43505520737461747300403D454550C3
:10E29000524F4D207465737400423D426C696E6B41
:10E2A000204C454400453D44756D70204545505215
:10E2B0004F4D00463D44756D7020464C415348001B
:10E2C000483D48656C70004C3D4C69737420492F83
:10E2D0004F20506F72747300513D51756974005234
:10E2E0003D44756D702052414D00563D73686F7707
:10E2F00020696E7465727275707420566563746FF0
:10E30000727300593D506F727420626C696E6B00BD
:10E310002A0011241FBECFEFD1E2DEBFCDBF01E046
:10E320000CBF12E0A0E0B2E0EEE1FDEF03E00BBFB6
:10E3300002C007900D92A030B107D9F712E0A0E01B
:10E34000B2E001C01D92AE30B107E1F70F9460F367
:10E350000D948DFE01E20EBF0FEF0DBF11241FBE05
:10E360000D9460F30D9400F020E030E040ED57E0B4
:10E3700005C0FA013197F1F72F5F3F4F2817390792
:10E38000C0F308959C01260F311DC901A0E0B0E043
:10E390002F5F3F4FABBFFC018791882361F08093D3
:10E3A000C6008091C00086FFFCCF8091C0008064D1
:10E3B0008093C000EACF08958DE08093C6008091DD
:10E3C000C00086FFFCCF8091C00080648093C000B5
:10E3D0008AE08093C6008091C00086FFFCCF8091C8
:10E3E000C00080648093C00008950F94C2F10F9420
:10E3F000DCF10895FC019081992359F09093C600B7
:10E400008091C00086FFFCCF8091C0008064809323
:10E41000C0003196992379F70895282F982F929567
:10E420009F70892F805D8A3308F0895F8093C600D2
:10E430008091C00086FFFCCF8091C00080648093F3
:10E44000C000822F8F70982F905D9A3308F0995FEB
:10E450009093C6008091C00086FFFCCF8091C000E1
:10E4600080648093C00008959C01FB01853691056E
:10E470001CF46330710594F0C90164E670E00F94F8
:10E480002EFE605D7F4F6093C6008091C00086FFC6
:10E49000FCCF8091C00080648093C0002B30310598
:10E4A00014F43297B4F0C90164E670E00F942EFEC4
:10E4B0006AE070E00F942EFE605D7F4F6093C600AF
:10E4C0008091C00086FFFCCF8091C0008064809363
:10E4D000C000C9016AE070E00F942EFEC0968093E0
:10E4E000C6008091C00086FFFCCF8091C000806490
:10E4F0008093C00008951F93182F8EE692EE60E07F
:10E500000F94C2F11093C6008091C00086FFFCCF2B
:10E510008091C00080648093C0000F94DCF11F9153
:10E5200008952F923F924F925F926F927F928F92B7
:10E530009F92AF92BF92CF92DF92EF92FF920F9392
:10E540001F93DF93CF93CDB7DEB762970FB6F894E2
:10E55000DEBF0FBECDBF382E622ECA01DB015C01CB
:10E560006D01772420E2222E2E010894411C511CBB
:10E570008BC081E0A81680E0B80681E0C80680E084
:10E58000D80628F0C601AA27BB270F940DF2BB2797
:10E59000AD2D9C2D8B2D0F940DF28A2D0F940DF225
:10E5A0002092C6008091C00086FFFCCF8091C00001
:10E5B00080648093C0009DE29093C6008091C0006B
:10E5C00086FFFCCF8091C00080648093C0002092C1
:10E5D000C6008091C00086FFFCCF8091C00080649F
:10E5E0008093C00019828601750188249924A1E0D6
:10E5F0003A1651F03A1620F0B2E03B1661F409C029
:10E600000BBFF701779007C0C7010F9477FE782EF4
:10E6100002C0F7017080872D0F940DF22092C60082
:10E620008091C00086FFFCCF8091C0008064809301
:10E63000C000872D8052F401EF70F0708F3520F408
:10E64000E40DF51D708204C0E40DF51D8EE280839B
:10E650000894E11CF11C011D111D0894811C911CE2
:10E6600090E18916910409F0C2CF80E190E0A0E02A
:10E67000B0E0A80EB91ECA1EDB1E198AC2010F9493
:10E68000FAF10F94DCF16A94662009F072CF629679
:10E690000FB6F894DEBF0FBECDBFCF91DF911F91B3
:10E6A0000F91FF90EF90DF90CF90BF90AF909F9031
:10E6B0008F907F906F905F904F903F902F90089534
:10E6C0002F923F924F925F926F927F928F929F9282
:10E6D000AF92BF92CF92DF92EF92FF920F931F9370
:10E6E000DF93CF93CDB7DEB7CD53D1400FB6F894BB
:10E6F000DEBF0FBECDBF01E20EBF0FEF0DBF94B75F
:10E70000F894A89514BE80916000886180936000A1
:10E7100010926000789493FF05C0E0910002F091A0
:10E7200001021995279A2F9A8091C00082608093E8
:10E73000C00080E18093C40088E18093C1000000A4
:10E74000EE24FF24870144E0A42EB12CCC24DD2448
:10E7500024C0C5010197F1F70894E11CF11C011DCB
:10E76000111D21E2E2162EE4F20620E0020720E06D
:10E77000120718F031E0C32ED12CC801B70127ECE5
:10E780003BE140E050E00F9441FE611571058105C9
:10E79000910519F485B1805885B98091C00087FD35
:10E7A00003C0C114D104A9F2A6014F5F5F4FC25E3E
:10E7B000DE4F59834883CE51D140C25EDE4F8881FF
:10E7C0009981CE51D140019711F00D9410FEC05D9A
:10E7D000DE4F19821882C053D14060E0C15DDE4F28
:10E7E0001882CF52D14088249924C35DDE4F19820C
:10E7F0001882CD52D140C05EDE4F188219821A8233
:10E800001B82C052D140CE5CDE4F188219821A8220
:10E810001B82C253D140EE24FF2487010BBFF701B6
:10E8200007911691C45CDE4F19830883CC53D14005
:10E830000D940BFEC25EDE4F28813981CE51D1404E
:10E840002130310509F52091C600C25EDE4F1982E4
:10E850001882CE51D14022C02F5F3F4F4F4F5F4FA4
:10E86000213082E138078AE7480780E0580780F0C6
:10E87000C45CDE4FE881F981CC53D140EF5FFF4F9C
:10E8800019F0EE27FF27099420E030E040E050E047
:10E890008091C00087FFE0CF2091C600C35DDE4FAE
:10E8A00048815981CD52D1404F5F5F4FC35DDE4FEC
:10E8B00059834883CD52D140213209F063C64A3092
:10E8C000510508F05FC60894811C911C53E0851621
:10E8D000910409F059C600E010E018C081E280936D
:10E8E000C6008091C00086FFFCCF8091C00080648C
:10E8F0008093C0002F5F3F4F2931310579F70F9486
:10E90000DCF10F5F1F4F0530110519F020E030E0FA
:10E91000E5CF10920A0210920B0210920C02109294
:10E920000D02109206021092070210920802109235
:10E930000902109202021092030210920402109235
:10E9400005028FEE90EE60E00F94F5F180E191EE1C
:10E9500060E00F94C2F18091C00087FFFCCF9091DE
:10E96000C600903608F09F759032B8F09093C600BC
:10E970008091C00086FFFCCF8091C00080648093AE
:10E98000C000A0E2A093C6008091C00086FFFCCF2B
:10E990008091C00080648093C000983409F4D7C18E
:10E9A0009934B8F4923409F459C1933458F490333B
:10E9B00019F1903308F4E3C59F33A1F1903409F0C5
:10E9C000DEC5BDC0953409F470C1963409F0D7C5D1
:10E9D00098C1923509F42BC2933538F49C3409F46C
:10E9E000F5C1913509F0CBC518C2963509F445C279
:10E9F000993509F0C4C567C483E792EE62E00F94CD
:10EA0000F5F110920602109207021092080210927D
:10EA1000090210920A0210920B0210920C0210923C
:10EA20000D0213C18FE792EE62E00F94F5F18FEEC5
:10EA300090EE60E00F94F5F181E291EE60E00F94CA
:10EA4000C2F187EB91EE60E00F94F5F180E391EE77
:10EA500060E00F94C2F184EE90EE60E00F94F5F167
:10EA60008FE391EE60E00F94C2F186E090E061E008
:10EA700070E00F9434F20F94DCF18DE591EE60E0DC
:10EA80000F94C2F189EC91EE60E00F94F5F18EE401
:10EA900091EE60E00F94C2F183EC91EE60E00F9490
:10EAA000F5F18CE691EE60E00F94C2F18EE10F94E7
:10EAB0000DF288E90F940DF281E00F940DF20F949E
:10EAC000DCF18BE791EE60E00F94C2F119E0E0E039
:10EAD000F0E010935700E4918E2F0F940DF20F94F5
:10EAE000DCF18AE891EE60E00F94C2F1E3E0F0E03F
:10EAF00010935700E4918E2F0F940DF20F94DCF1D8
:10EB000089E991EE60E00F94C2F1E2E0F0E0109349
:10EB10005700E4918E2F0F940DF20F94DCF188EAE8
:10EB200091EE60E00F94C2F1E1E0F0E01093570045
:10EB30001491812F0F940DF20F94DCF107CF8BE825
:10EB400092EE62E00F94F5F18BE492EE60E00F94A8
:10EB5000F5F10F94DCF100E010E019C0C8016F2D51
:10EB60000F947FFEFF2031F489E492EE60E00F9471
:10EB7000C2F10BC0F092C6008091C00086FFFCCFAE
:10EB80008091C00080648093C0000F5F1F4FC80158
:10EB900081519F41A0E0B0E0ABBFFC01F790BAE229
:10EBA000FB1621F0E2E000301E07C1F60F94DCF105
:10EBB0000F94DCF187E592EE60E00F94F5F10F948D
:10EBC000DCF1CC24DD2400E010E01EC0C8010F946D
:10EBD00077FEF82E882331F489E492EE60E00F94FA
:10EBE000C2F10BC08093C6008091C00086FFFCCFAD
:10EBF0008091C00080648093C000FE1419F00894D6
:10EC0000C11CD11C0F5F1F4FC80181519F41A0E063
:10EC1000B0E0ABBFFC01E790FAE2EF1621F022E092
:10EC20000030120799F60F94DCF10F94DCF182E6C4
:10EC300092EE60E00F94C2F1C60161E070E00F94C3
:10EC400034F20F94DCF10F94DCF110920202109276
:10EC50000302109204021092050278CE89E992EE26
:10EC600062E00F94F5F1279A2F9A16C02F9880E052
:10EC700090E0E0EDF7E03197F1F7019684369105E9
:10EC8000C1F72F9A80E090E0E0EDF7E03197F1F7DF
:10EC9000019684369105C1F78091C00087FFE6CFC9
:10ECA0008091C00087FFFCCF64C485EA92EE62E0E9
:10ECB0000F94F5F140910202509103026091040219
:10ECC0007091050281E020E10F9491F2809102029F
:10ECD00090910302A0910402B091050280509F4FD1
:10ECE000AF4FBF4F8093020290930302A0930402A0
:10ECF000B093050280509041A040B04008F426CE69
:10ED0000A4CF83EB92EE62E00F94F5F140910602FE
:10ED100050910702609108027091090280E020E1A1
:10ED20000F9491F28091060290910702A09108023F
:10ED3000B091090280509F4FAF4FBF4F80930602A2
:10ED400090930702A0930802B0930902FFCD80ECD4
:10ED500092EE62E00F94F5F183E792EE60E00F949B
:10ED6000F5F18FE792EE60E00F94F5F18BE892EE0B
:10ED700060E00F94F5F189E992EE60E00F94F5F10F
:10ED800085EA92EE60E00F94F5F183EB92EE60E09D
:10ED90000F94F5F180EC92EE60E00F94F5F187ECC2
:10EDA00092EE60E00F94F5F188ED92EE60E00F9442
:10EDB000F5F18FED92EE60E00F94F5F18AEE92EEB0
:10EDC00060E00F94F5F183E093EEBDCD87EC92EE19
:10EDD00062E00F94F5F181E40F947BF282E40F94EA
:10EDE0007BF283E40F947BF284E40F947BF285E45E
:10EDF0000F947BF286E40F947BF287E40F947BF20E
:10EE000088E40F947BF28AE40F947BF28BE40F94F6
:10EE10007BF28CE40F947BF299CD88ED92EE62E068
:10EE20000F94F5F1772473948824992409C48FED05
:10EE300092EE62E00F94F5F140910A0250910B02BC
:10EE400060910C0270910D0282E020E10F9491F22A
:10EE500080910A0290910B02A0910C02B0910D02D8
:10EE600080509F4FAF4FBF4F80930A0290930B0289
:10EE7000A0930C02B0930D0269CD8AEE92EE62E08F
:10EE80000F94F5F184EE90EE60E00F94F5F18FECC5
:10EE900091EE60E00F94F5F1662477244301CC5D98
:10EEA000DE4F19821882C452D140D401C301B695F5
:10EEB000A79597958795CA5DDE4F88839983AA8326
:10EEC000BB83C652D140CC5DDE4FA881B981C4520C
:10EED000D1401196CC5DDE4FB983A883C452D14096
:10EEE000CD0162E070E00F9434F2B0E2B093C6005E
:10EEF0008091C00086FFFCCF8091C0008064809329
:10EF0000C000EDE2E093C6008091C00086FFFCCF18
:10EF10008091C00080648093C000F0E2F093C6004E
:10EF20008091C00086FFFCCF8091C00080648093F8
:10EF3000C000CA5DDE4FE880F9800A811B81C6529D
:10EF4000D140BB27A12F902F8F2D0F940DF2CA5DBA
:10EF5000DE4F8881C652D1400F940DF2B0E2FB2EF5
:10EF6000F092C6008091C00086FFFCCF8091C00067
:10EF700080648093C0000DE30093C6008091C000C0
:10EF800086FFFCCF8091C00080648093C00010E2B7
:10EF90001093C6008091C00086FFFCCF8091C00016
:10EFA00080648093C0008BBEF3012791C65DDE4F65
:10EFB0002883CA52D140A22EBB24CC24DD2408943D
:10EFC000611C711C811C911C8BBEF3018791282E42
:10EFD0003324442455240894611C711C811C911C09
:10EFE0008BBEF3013791C55DDE4F3883CB52D140E4
:10EFF0000894611C711C811C911C8BBEF30147910C
:10F00000C45DDE4F4883CC52D140ADEFEA2EAFEF66
:10F01000FA2EAFEF0A2FAFEF1A2F6E0C7F1C801E57
:10F02000911E142D032DF22CEE24EA0CFB1C0C1D5A
:10F030001D1D0F940DF220E22093C6008091C000A8
:10F0400086FFFCCF8091C00080648093C000C65DC5
:10F05000DE4F8881CA52D1400F940DF230E23093D6
:10F06000C6008091C00086FFFCCF8091C000806404
:10F070008093C000C45DDE4F8881CC52D1400F9494
:10F080000DF240E24093C6008091C00086FFFCCFA5
:10F090008091C00080648093C000C55DDE4F888190
:10F0A000CB52D1400F940DF250E25093C6008091A4
:10F0B000C00086FFFCCF8091C00080648093C000B8
:10F0C0008FEFE8168FEFF80680E0080780E018075A
:10F0D00031F484E092EE60E00F94C2F1DFC0D80119
:10F0E000C7018070907CA070B0708050904CA040A0
:10F0F000B040D1F52FEF3FE340E050E0E222F322B1
:10F1000004231523CA5DDE4FA880B980CA80DB8046
:10F11000C652D140AE0CBF1CC01ED11EAA0CBB1CD7
:10F12000CC1CDD1C8EE092EE60E00F94C2F1BB2798
:10F13000A12F902F8F2D0F940DF28E2D0F940DF285
:10F1400030E23093C6008091C00086FFFCCF8091F2
:10F15000C00080648093C0004EE34093C60080915D
:10F16000C00086FFFCCF87C08EE09EEFA0E0B0E03D
:10F17000E822F9220A231B239CE0E91694E9F90608
:10F1800090E0090790E0190709F088C0C45DDE4FE0
:10F19000A881CC52D140EA2EFF2400E010E0102FCD
:10F1A0000F2DFE2CEE24C55DDE4FB881CB52D14031
:10F1B000EB0EF11C011D111DD601C501817090706F
:10F1C000A070B070DC0199278827E80EF91E0A1F8D
:10F1D0001B1F20EF30E040E050E0A222B322C42207
:10F1E000D52241E1AA0CBB1CCC1CDD1C4A95D1F7F1
:10F1F000EA0CFB1C0C1D1D1D81E090E0A0E0B0E0BE
:10F20000282239224A225B2235E1220C331C441C7D
:10F21000551C3A95D1F7E20CF31C041D151D57013E
:10F220006801AA0CBB1CCC1CDD1C85E192EE60E0E1
:10F230000F94C2F1C801AA27BB270F940DF2BB2778
:10F24000A12F902F8F2D0F940DF28E2D0F940DF274
:10F2500090E29093C6008091C00086FFFCCF809121
:10F26000C00080648093C000AEE3A093C60080918C
:10F27000C00086FFFCCF8091C00080648093C000F6
:10F28000C601AA27BB270F940DF2BB27AD2D9C2DDD
:10F290008B2D0F940DF28A2D0F940DF20F94DCF14B
:10F2A000CC5DDE4FE881F981C452D140F99709F471
:10F2B0004DCBF4E0EF2EF12C012D112D6E0C7F1CA7
:10F2C000801E911EF2CD83E093EE62E00F94F5F183
:10F2D0008AE192EE60E00F94C2F18091C00087FF56
:10F2E000FCCF1091C6001F751093C6008091C0001E
:10F2F00086FFFCCF8091C00080648093C0000F9493
:10F30000DCF1812F81548A3108F036C1163409F4BA
:10F3100095C0173490F4133409F44EC0143430F40B
:10F320001134F1F0123409F01DC130C0143409F465
:10F3300059C0153409F016C16BC01A3409F4C4C0A1
:10F340001B3438F4173409F48FC0183409F00AC19B
:10F35000A1C01B3409F4D2C01C3409F003C1E8C0B9
:10F360008FEF81B90DC082B1809582B980E090E0C5
:10F37000E0EDF7E03197F1F70196883C9105C1F790
:10F380008091C00087FFEFCF12B8EFC08FEF84B934
:10F390000DC085B1809585B980E090E0E0EDF7E0A3
:10F3A0003197F1F70196883C9105C1F78091C00033
:10F3B00087FFEFCF15B8D9C08FEF87B90DC088B1DF
:10F3C000809588B980E090E0E0EDF7E03197F1F7C3
:10F3D0000196883C9105C1F78091C00087FFEFCF6F
:10F3E00018B8C3C08FEF8AB90DC08BB180958BB9A7
:10F3F00080E090E0E0EDF7E03197F1F70196883C8E
:10F400009105C1F78091C00087FFEFCF1BB8ADC059
:10F410008FEF8DB90DC08EB180958EB980E090E0F0
:10F42000E0EDF7E03197F1F70196883C9105C1F7DF
:10F430008091C00087FFEFCF1EB897C08FEF80BBD1
:10F440000DC081B3809581BB80E090E0E0EDF7E0F6
:10F450003197F1F70196883C9105C1F78091C00082
:10F4600087FFEFCF11BA81C08FEF83BB0DC084B38C
:10F47000809584BB80E090E0E0EDF7E03197F1F714
:10F480000196883C9105C1F78091C00087FFEFCFBE
:10F4900014BA6BC08FEF809301010FC080910201FD
:10F4A00080958093020180E090E0E0EDF7E03197F5
:10F4B000F1F70196883C9105C1F78091C00087FF64
:10F4C000EDCF1092020151C08FEF809304010FC065
:10F4D0008091050180958093050180E090E0E0ED4A
:10F4E000F7E03197F1F70196883C9105C1F78091DB
:10F4F000C00087FFEDCF1092050137C08FEF8093DA
:10F5000007010FC08091080180958093080180E079
:10F5100090E0E0EDF7E03197F1F70196883C910536
:10F52000C1F78091C00087FFEDCF109208011DC088
:10F530008FEF80930A010FC080910B01809580931B
:10F540000B0180E090E0E0EDF7E03197F1F70196F4
:10F55000883C9105C1F78091C00087FFEDCF1092E4
:10F560000B0103C085E292EEEEC98091C00087FFD7
:10F57000FCCF8091C600EAC988E392EEE4C98CE131
:10F5800091EEE1C988249924933011F1943028F444
:10F59000913089F09230B8F408C0953061F195301F
:10F5A000F0F0963009F048C043C02B3109F042C951
:10F5B00091E06BE13FC96227C15DDE4F2883CF52E6
:10F5C000D14092E037C9B22FA0E0622793E032C960
:10F5D000822F90E0A82BB92B622794E02BC92E3004
:10F5E00009F039C3622795E0C05DDE4F19821882A9
:10F5F000C053D1401FC9E1E0F0E0EC0FFD1FC05D3A
:10F60000DE4F08811981C053D140E00FF11F2083E4
:10F610000F5F1F4FC05DDE4F19830883C053D14079
:10F6200062270A171B0709F005C9D80196E002C92D
:10F63000261709F010C303C0973009F0FBC87724E0
:10F640009981933109F412C19431C8F4963009F4C8
:10F65000D8C0973050F4923009F406C1933009F4C1
:10F660006DC0913009F059C253C0913109F477C08F
:10F67000923108F0BBC0903109F04FC2F5C098310B
:10F6800009F487C0993150F4953109F4EFC09531F0
:10F6900008F4C6C1963109F040C2C2C19A3109F4DA
:10F6A0006CC09A3108F491C09B3109F45BC09D3164
:10F6B00009F033C29D81903359F48F81882311F46E
:10F6C0009EE11CC0813011F091E018C098E916C08D
:10F6D000892F807591F0903539F4E0E0F0E089E011
:10F6E0008093570094910AC0983539F4E3E0F0E034
:10F6F00089E080935700949101C090E01A821B82A8
:10F700008D818C831D829E831F8227E030E009C299
:10F710001A8288E08B8381E48C8386E58D8382E581
:10F720008E8389E48F8383E5888780E589878FE5E9
:10F730008A8782E38B872BE030E0F3C18A818139AD
:10F7400041F0823941F0803911F48FE005C080E04A
:10F7500003C082E001C08AE01A828B8344C0772410
:10F76000739482C08D81882311F48EE12CC0813086
:10F7700011F081E028C088E926C01A82E1E0F0E0BB
:10F7800089E08093570084918B831C8224E030E0D1
:10F79000C8C18B81803589F48C81883039F4E2E0EE
:10F7A000F0E089E08093570084910DC0E0E0F0E044
:10F7B00089E080935700849106C0E3E0F0E089E09F
:10F7C0008093570084911A82DFCF8D81836C99E0FA
:10F7D000E1E0F0E0082E90935700E89507B600FCB2
:10F7E000FDCF1A821B8223E030E09BC180EC8A832C
:10F7F000CE5CDE4F188219821A821B82C253D1401E
:10F800008EC18A8190E0A0E0B0E0582F44273327D2
:10F8100022278B8190E0A0E0B0E0DC0199278827C7
:10F82000282B392B4A2B5B2B8D8190E0A0E0B0E098
:10F83000282B392B4A2B5B2B8C8190E0A0E0B0E089
:10F84000BA2FA92F982F8827282B392B4A2B5B2BCF
:10F85000220F331F441F551FC05EDE4F288339839C
:10F860004A835B83C052D1401A8259C13A81C95C34
:10F87000DE4F3883C753D140CA5CDE4F1882C6536F
:10F88000D1408B81C82EDD24CA5CDE4F488159816E
:10F89000C653D140C42AD52A933109F082C0CE5C28
:10F8A000DE4F88819981AA81BB81C253D1408050AB
:10F8B000904CA340B04030F583E0CE5CDE4FE88052
:10F8C000F9800A811B81C253D140F70100935B008C
:10F8D00080935700E89507B600FCFDCFCE5CDE4F65
:10F8E000088119812A813B81C253D14000501F4FAA
:10F8F0002F4F3F4FCE5CDE4F088319832A833B8313
:10F90000C253D140C05EDE4F488159816A817B81FC
:10F91000C052D140DE011B9631E08C9111962C91A2
:10F9200011971296C75CDE4F2883C953D140C85C3B
:10F93000DE4F1882C853D14090E0C85CDE4FE881AA
:10F94000F981C853D1408E2B9F2B0C01FA01609393
:10F950005B0030935700E89511244E5F5F4F6F4F67
:10F960007F4F0EEFE02E0FEFF02ECE0CDF1CC114F8
:10F97000D10499F685E0C05EDE4F088119812A81A5
:10F980003B81C052D140F80120935B008093570027
:10F99000E89507B600FCFDCF81E180935700E8951C
:10F9A00035C0C05EDE4F88819981AA81BB81C0527B
:10F9B000D140B695A795979587957C018601ABE0D8
:10F9C000AA2EB12CAC0EBD1E0BC0D5016D915D01F0
:10F9D000C7010F947FFE0894E11CF11C01501040F8
:10F9E0000115110591F7A60160E070E0440F551F65
:10F9F000661F771FC05EDE4FE880F9800A811B8199
:10FA0000C052D1404E0D5F1D601F711F1A82C05E33
:10FA1000DE4F488359836A837B83C052D1407FC0C5
:10FA2000FA80C55CDE4FF882CB53D140C65CDE4F16
:10FA30001882CA53D1408B81C82EDD24C65CDE4FAC
:10FA400008811981CA53D140C02AD12A1A828981DA
:10FA5000BE016D5F7F4F843121F59601C05EDE4FA0
:10FA6000E880F9800A811B81C052D1400BBFF701A9
:10FA700087919691DB018C9311969C936E5F7F4FDB
:10FA8000D801C7010296A11DB11DC05EDE4F88835B
:10FA90009983AA83BB83C052D14022503040F1F6F3
:10FAA00036C0C05EDE4F288139814A815B81C052F9
:10FAB000D1400894C108D108760100E010E0089414
:10FAC000C11CD11C0894E11CF11C011D111DE20E8A
:10FAD000F31E041F151F21BDBB27A52F942F832FB5
:10FAE00082BD2F5F3F4F4F4F5F4FF89A80B5DB01CC
:10FAF0008D93BD012E153F054007510761F7C05E8C
:10FB0000DE4F288339834A835B83C052D1409601FC
:10FB10002D5F3F4FFB01108204C080EC8A8322E0FE
:10FB200030E08BE18093C6008091C00086FFFCCF5F
:10FB30008091C00080648093C000C15DDE4FF88179
:10FB4000CF52D140F093C6008091C00086FFFCCF19
:10FB50008091C00080648093C000432F3093C60022
:10FB60008091C00086FFFCCF8091C00080648093AC
:10FB7000C000922F2093C6008091C00086FFFCCF6A
:10FB80008091C00080648093C0008EE08093C600A6
:10FB90008091C00086FFFCCF8091C000806480937C
:10FBA000C00065E1C15DDE4FE880CF52D1406E25D7
:10FBB00069276427FE01319610C090819093C6009A
:10FBC0008091C00086FFFCCF31968091C000806498
:10FBD0008093C0006927215030402115310569F715
:10FBE0006093C6008091C00086FFFCCF8091C0006A
:10FBF00080648093C00085B1805885B9772081F4F6
:10FC0000C15DDE4F0881CF52D1400F5FC15DDE4F35
:10FC10000883CF52D14090E0A0E0B0E00D941AF4F8
:10FC200027982F9880E090E020ED37E0F901319798
:10FC3000F1F7019684369105C9F700008091C00064
:10FC40008D7F8093C00081E180935700E895EE2777
:10FC5000FF270994FFCF90E00D941AF497FB092E2B
:10FC600007260AD077FD04D02ED006D000201AF443
:10FC7000709561957F4F0895F6F7909581959F4F08
:10FC80000895A1E21A2EAA1BBB1BFD010DC0AA1FDD
:10FC9000BB1FEE1FFF1FA217B307E407F50720F0F5
:10FCA000A21BB30BE40BF50B661F771F881F991F70
:10FCB0001A9469F760957095809590959B01AC01B9
:10FCC000BD01CF010895AA1BBB1B51E107C0AA1FAC
:10FCD000BB1FA617B70710F0A61BB70B881F991FED
:10FCE0005A95A9F780959095BC01CD010895F99991
:10FCF000FECF92BD81BDF89A992780B50895262F31
:10FD0000F999FECF1FBA92BD81BD20BD0FB6F89400
:0EFD1000FA9AF99A0FBE01960895F894FFCF63
:040000033000E000E9
:00000001FF