:1000000027C100007DC7000050C7000023C70000C3
:10001000F6C60000C9C600009CC600006FC60000FE
:1000200042C6000046C1000044C1000042C10000B9
:1000300040C100003EC100003CC100000C945D08BE
:1000400038C1000036C1000034C1000032C10000D8
:1000500030C100002EC100002CC10000DAC5000034
:1000600028C1000090C3000065C3000022C1000049
:1000700020C100001EC100001CC100001AC1000008
:1000800018C1000016C1000014C1000012C1000018
:1000900010C100000EC100000CC100000AC1000028
:1000A00008C1000006C1000004C1000002C1000038
:1000B00000C10000FEC00000FCC00000FAC000004B
:1000C000F8C00000F6C00000F4C00000F2C000005C
:1000D000F0C00000EEC00000ECC00000EAC000006C
:1000E000E8C0000089028C027B027F028502C30205
:1000F000900294029A029E02A202A802AC02B002EE
:10010000C302B602BA02BE025C0461046604700453
:100110007A04F30484048C0494049E04A804B204B6
:10012000C104CB04F304D504DF04E904000021007A
:10013000240027002A002D003000330001010000B8
:10014000040107010A0100002200250028002B00FD
:100150002E003100340002010000050108010B01EE
:10016000000020002300260029002C002F00320070
:100170000001000003010601090105050505070549
:1001800008080808020202020A0A08080404040413
:10019000010101010101010103030303030303033F
:1001A000040707070C0C0C0C0C0C0C0C02020202CE
:1001B00006060606060606060B0B0B0B0B0B0B0BB7
:1001C0000102102020080810204010204080020169
:1001D000020108040201010204081020408080404E
:1001E000201008040201800402018040201008044D
:1001F00002010804020101020408102040800102EB
:1002000004081020408000000A0B02090C0D0E08A3
:1002100007030401000000000000000000000000CF
:1002200000000000000000000000000000000000CE
:10023000000012111000000000000000000000008B
:10024000000000000000000000000000750C160B0C
:1002500011241FBECFEFD1E2DEBFCDBF00E00CBF47
:1002600012E0A0E0B2E0E8EDFFE100E00BBF02C069
:1002700007900D92AC3CB107D9F724E0ACECB2E0AA
:1002800001C01D92AA36B207E1F711E0C7E2D1E042
:1002900000E006C021970109802FFE010E94BE0DDB
:1002A000C632D10780E00807A9F70E94340B0C94EE
:1002B000DB0FA6CE1092DE020895089580E090E054
:1002C0000895FC01538D448D252F30E0842F90E05C
:1002D000821B930B541710F0CF9608950197089541
:1002E000FC01918D828D981761F0828DDF01A80F3E
:1002F000B11D5D968C91928D9F5F9F73928F90E060
:1003000008958FEF9FEF0895FC01918D828D9817CE
:1003100031F0828DE80FF11D858D90E008958FEF0B
:100320009FEF0895FC01918D228D892F90E0805CD4
:100330009F4F821B91098F739927089583EE92E056
:10034000F1DF21E0892B09F420E0822F0895FC01E0
:10035000848DDF01A80FB11DA35ABF4F2C91848D4E
:1003600090E001968F739927848FA689B7892C9383
:10037000A089B1898C91837080648C93938D848DD6
:10038000981306C00288F389E02D80818F7D8083D9
:100390000895EF92FF920F931F93CF93DF93EC0199
:1003A00081E0888F9B8D8C8D981305C0E889F98931
:1003B000808185FD25C0F62E0B8D10E00F5F1F4F4D
:1003C0000F731127E02E8C8DE8120BC00FB607FCBF
:1003D000FACFE889F989808185FFF5CFCE01B7DFB3
:1003E000F2CF8B8DFE01E80FF11DE35AFF4FF08233
:1003F0009FB7F8940B8FEA89FB89808180620AC0DD
:100400009FB7F894EE89FF896083E889F989808134
:100410008370806480839FBF81E090E0DF91CF9103
:100420001F910F91FF90EF900895CF93DF93EC0110
:10043000888D8823C1F0EA89FB89808185FD05C00C
:10044000A889B9898C9186FD0EC00FB607FCF5CF3F
:10045000808185FFF2CFA889B9898C9185FFEDCF86
:10046000CE0175DFE8CFDF91CF91089580E090E075
:10047000892B19F063DF811125C080E090E0892B82
:1004800041F080E090E0892B21F00E940000811172
:100490001CC080E090E0892B41F080E090E0892B47
:1004A00021F00E940000811113C080E090E0892BB0
:1004B000A1F080E090E0892B81F00E940000811182
:1004C0000AC008950E940000D8CF0E940000E1CF2A
:1004D0000E940000EACF0C940000089590E0FC0117
:1004E0003197E231F10508F04EC08827EE58FF4FF2
:1004F0008F4F0C94BE0D809180008F7703C0809148
:1005000080008F7D80938000089580918000877F98
:10051000F9CF84B58F7702C084B58F7D84BD0895EF
:100520008091B0008F7703C08091B0008F7D809361
:10053000B0000895809190008F7707C0809190005F
:100540008F7D03C080919000877F809390000895F5
:100550008091A0008F7707C08091A0008F7D03C09D
:100560008091A000877F8093A00008958091200152
:100570008F7707C0809120018F7D03C0809120017B
:10058000877F809320010895CF93DF93282F30E059
:10059000F901EA5FFD4F8491F901E054FE4FD491D7
:1005A000F901E658FE4FC491CC2389F0811196DF02
:1005B000EC2FF0E0EE0FFF1FE05AFE4FA591B49133
:1005C000EC91ED2381E090E021F480E002C080E036
:1005D00090E0DF91CF9108951F93CF93DF93282F61
:1005E00030E0F901EA5FFD4F8491F901E054FE4FDC
:1005F000D491F901E658FE4FC491CC23B9F0162FDF
:1006000081116CDFEC2FF0E0EE0FFF1FEA5BFE4F75
:10061000A591B4919FB7F894111104C08C91D09515
:10062000D82302C0EC91DE2BDC939FBFDF91CF91EA
:100630001F9108953FB7F8948091DA029091DB0200
:10064000A091DC02B091DD0226B5A89B05C02F3F2A
:1006500019F00196A11DB11D3FBFBA2FA92F982FE8
:100660008827820F911DA11DB11DBC01CD0142E063
:10067000660F771F881F991F4A95D1F7089508952F
:10068000CF93DF93EC0160E08A81A6DF60E08C818C
:10069000A3DF19861886DF91CF910895CF93DF935A
:1006A000EC0160E08A8198DF61E08C8195DF81E078
:1006B00090E099878887DF91CF91089521E020937A
:1006C000D8022091D702222369F0E091D502F0915F
:1006D000D602309731F4E091D302F091D4023097F2
:1006E00009F01994089521E02093D7022091D802AF
:1006F000222369F0E091D502F091D602309731F4CF
:10070000E091D302F091D402309709F01994089542
:10071000E0910204F091030467E879E0808191811F
:1007200000C7E0910204F09103046FEE79E080814C
:100730009181F7C61F920F920FB60F9211240BB63C
:100740000F922F933F934F935F936F937F938F936A
:100750009F93AF93BF93EF93FF9383EE92E0F7DD08
:10076000FF91EF91BF91AF919F918F917F916F9189
:100770005F914F913F912F910F900BBE0F900FBE45
:100780000F901F9018951F920F920FB60F92112481
:100790000BB60F922F938F939F93EF93FF93E0915C
:1007A000F302F091F4028081E091F902F091FA02F3
:1007B00082FD12C090818091FC028F5F8F73209127
:1007C000FD02821751F0E091FC02F0E0ED51FD4F87
:1007D000958F8093FC0201C08081FF91EF919F91E2
:1007E0008F912F910F900BBE0F900FBE0F901F9007
:1007F0001895CF93DF9390E0FC01E054FE4F2491D5
:10080000FC01E658FE4F8491882361F190E0880F47
:10081000991FFC01E45DFE4FC591D491FC01EA5B98
:10082000FE4FA591B491611109C09FB7F8948881DA
:10083000209582238883EC912E230BC0623061F4D3
:100840009FB7F8948881322F309583238883EC9169
:100850002E2B2C939FBF06C08FB7F894E8812E2BC8
:1008600028838FBFDF91CF9108951F93CF93DF939C
:10087000182FEB0161E0BDDF209711F460E004C0A8
:10088000CF3FD10531F461E0812FDF91CF911F91EE
:10089000A3CEE12FF0E0EA5FFD4FE4918E2F90E0D0
:1008A000FC013197E231F10508F09DC08827EC5733
:1008B000FF4F8F4F0C94BE0D84B5806884BDC7BDBB
:1008C00097C084B5806284BDC8BD92C0809180000D
:1008D000806880938000D0938900C093880088C08E
:1008E00080918000806280938000D0938B00C093C1
:1008F0008A007EC080918000886080938000D093C1
:100900008D00C0938C0074C08091B000806880938B
:10091000B000C093B3006CC08091B000806280933F
:10092000B000C093B40064C0809190008068809350
:100930009000D0939900C09398005AC08091900085
:10094000806280939000D0939B00C0939A0050C027
:1009500080919000886080939000D0939D00C09318
:100960009C0046C08091A00080688093A000809188
:10097000A0008F7B8093A000D093A900C093A80013
:1009800037C08091A00080628093A000D093AB001C
:10099000C093AA002DC08091A00088608093A00021
:1009A000D093AD00C093AC0023C08091200180683B
:1009B00080932001D0932901C093280119C0809110
:1009C0002001806280932001D0932B01C0932A01E3
:1009D0000FC080912001886080932001D0932D0169
:1009E000C0932C0105C0C038D1050CF04CCF46CFC8
:1009F000DF91CF911F910895FC0120813181848581
:100A00009585281B390B82859385293E334014F048
:100A1000449701C00A979387828762857385868190
:100A200024CFFC012485358580819181281B390BD9
:100A300082859385293E334014F00A9601C00596BD
:100A4000938782876285738586810FCF0F931F936B
:100A5000CF93DF93C0910404D091050488859985D4
:100A60009C01215031092230310508F056C088819F
:100A70009981FC01408151812485358524173507F2
:100A80005CF4BADFFE01E05CFF4F80819181019749
:100A900019F48E819F81B0DF88819981FC014081AA
:100AA000518124853585421753075CF4BADFFE0176
:100AB000E05CFF4F80819181019719F48E819F81C5
:100AC000B0DF8A819B81FC0140815181248535857D
:100AD000241735075CF490DFFE01E05CFF4F808156
:100AE0009181019719F48C819D8186DF8A819B8198
:100AF000FC014485558520813181241735070CF090
:100B000072C08FDFFE01E05CFF4F80819181019711
:100B100009F069C08C819D814EC0089761F588817C
:100B20009981FC0140815181248535858E01005CCD
:100B30001F4F4217530784F474DF8A819B8171DF52
:100B4000F801808191810197B1F48C819D8169DFE9
:100B50008E819F8166DF0FC04FDF8A819B814CDFD2
:100B6000F80180819181019731F48C819D8144DF6E
:100B70008E819F8141DF888599850797A1F5EA815C
:100B8000FB814081518124853585888199818E0141
:100B9000005C1F4F421753079CF443DF8A819B81FF
:100BA00040DFF801808191810197E9F48C819D817A
:100BB00038DF8E819F81DF91CF911F910F9131CFCF
:100BC0001BDF8A819B8118DFF80180819181019769
:100BD00051F48C819D8110DF8E819F81DF91CF91B7
:100BE0001F910F9109CFDF91CF911F910F91089520
:100BF000FC0177FF02C060E070E06F3F710519F003
:100C000014F06FEF70E07587648773876287868161
:100C10002CCE1F920F920FB60F9211242F933F9359
:100C20008F939F93AF93BF938091DF029091E002E7
:100C3000A091E102B091E2023091D90223E0230FAA
:100C40002D3720F40196A11DB11D05C026E8230F04
:100C50000296A11DB11D2093D9028093DF029093CB
:100C6000E002A093E102B093E2028091DA02909157
:100C7000DB02A091DC02B091DD020196A11DB11D45
:100C80008093DA029093DB02A093DC02B093DD0242
:100C9000BF91AF919F918F913F912F910F900FBE78
:100CA0000F901F9018951F920F920FB60F9211245C
:100CB0000BB60F922F933F934F935F936F937F9356
:100CC0008F939F93AF93BF93EF93FF93E0910E02A7
:100CD000F0910F021995FF91EF91BF91AF919F9104
:100CE0008F917F916F915F914F913F912F910F90D5
:100CF0000BBE0F900FBE0F901F9018951F920F9272
:100D00000FB60F9211240BB60F922F933F934F9370
:100D10005F936F937F938F939F93AF93BF93EF9363
:100D2000FF93E0910C02F0910D021995FF91EF9164
:100D3000BF91AF919F918F917F916F915F914F91F3
:100D40003F912F910F900BBE0F900FBE0F901F90F1
:100D500018951F920F920FB60F9211240BB60F9297
:100D60002F933F934F935F936F937F938F939F93B3
:100D7000AF93BF93EF93FF93E0910202F0910302D0
:100D80001995FF91EF91BF91AF919F918F917F91B5
:100D90006F915F914F913F912F910F900BBE0F90EC
:100DA0000FBE0F901F9018951F920F920FB60F92C3
:100DB00011240BB60F922F933F934F935F936F9332
:100DC0007F938F939F93AF93BF93EF93FF93E091A4
:100DD0000002F09101021995FF91EF91BF91AF913F
:100DE0009F918F917F916F915F914F913F912F9143
:100DF0000F900BBE0F900FBE0F901F9018951F9273
:100E00000F920FB60F9211240BB60F922F933F93B0
:100E10004F935F936F937F938F939F93AF93BF9302
:100E2000EF93FF93E0910A02F0910B021995FF9165
:100E3000EF91BF91AF919F918F917F916F915F9152
:100E40004F913F912F910F900BBE0F900FBE0F90BF
:100E50001F9018951F920F920FB60F9211240BB688
:100E60000F922F933F934F935F936F937F938F9343
:100E70009F93AF93BF93EF93FF93E0910802F0919C
:100E800009021995FF91EF91BF91AF919F918F91B9
:100E90007F916F915F914F913F912F910F900BBE7A
:100EA0000F900FBE0F901F9018951F920F920FB6C4
:100EB0000F9211240BB60F922F933F934F935F9392
:100EC0006F937F938F939F93AF93BF93EF93FF9312
:100ED000E0910602F09107021995FF91EF91BF9101
:100EE000AF919F918F917F916F915F914F913F91C2
:100EF0002F910F900BBE0F900FBE0F901F90189563
:100F00001F920F920FB60F9211240BB60F922F93D0
:100F10003F934F935F936F937F938F939F93AF9381
:100F2000BF93EF93FF93E0910402F09105021995AE
:100F3000FF91EF91BF91AF919F918F917F916F91B1
:100F40005F914F913F912F910F900BBE0F900FBE6D
:100F50000F901F901895CF93DF93EC0161E08A8189
:100F60003BDB60E08C8138DB82E090E0998788870A
:100F7000DF91CF9108950F931F93CF93DF93EC01EF
:100F80008B017B876A878881998132DEB8018A81EB
:100F90009B812EDEFE01E05CFF4F808191810197F5
:100FA00061F4B8018C819D8123DEB8018E819F811F
:100FB000DF91CF911F910F911BCEDF91CF911F91A8
:100FC0000F910895CF93DF93EC011FA21EA219A6E3
:100FD00018A61AA61EA61DA618AA1FA619AA8881B9
:100FE00099815CDB8A819B8159DBFE01E05CFF4FCC
:100FF00080819181019731F48C819D814FDB8E81BD
:101000009F814CDB6A857B85CE01B5DF81E090E076
:1010100099878887DF91CF910895CF93DF93FC0163
:10102000208531852130310579F1EC0116A615A610
:1010300010AA17A611AA24E1269FC001279F900D90
:10104000112497A386A351A740A781E082A781E03E
:1010500090E0918780878081918120DB8A819B81CC
:101060001DDBFE01E05CFF4F80819181019731F42F
:101070008C819D8113DB8E819F8110DB6A857B854E
:10108000CE01DF91CF9177CFDF91CF910895E0919D
:101090000204F09103044AE859E065E070E08081C1
:1010A0009181BBCFE0910204F091030443EF59E03A
:1010B00065E070E080819181B0CF1F920F920FB6F2
:1010C0000F9211240BB60F922F933F934F935F9380
:1010D0006F937F938F939F93AF93BF93EF93FF9300
:1010E0008091D1029091D2028093B2008091CD0282
:1010F0009091CE02A091CF02B091D0020196A11D95
:10110000B11D8093CD029093CE02A093CF02B093F5
:10111000D0028091CD029091CE02A091CF02B091E9
:10112000D0028091CC02811118C081E08093CC0262
:101130008091CD029091CE02A091CF02B091D002C9
:101140008093CD029093CE02A093CF02B093D002B1
:10115000E0E0F0E019951092CC02FF91EF91BF9181
:10116000AF919F918F917F916F915F914F913F913F
:101170002F910F900BBE0F900FBE0F901F901895E0
:101180000F931F93CF93DF9300D000D0CDB7DEB77E
:1011900060E572E0CE010196FED1CE0101964FD1FD
:1011A000CE010196F4D10091040410910504F801D8
:1011B00080859185892B19F117A216A211A610A678
:1011C00012A616A615A610AA17A611AA80819181AB
:1011D00057DAF8018281938153DAF801E05CFF4F1E
:1011E00080819181019741F4F8018481958148DAE9
:1011F000F8018681978144DAF801118610862696D7
:101200000FB6F894DEBF0FBECDBFDF91CF911F9117
:101210000F910895CF93DF9300D000D0CDB7DEB704
:1012200061E672E0CE010196B6D1CE01019607D1FA
:10123000CE010196ACD18091040490910504FC018B
:10124000208531852130310509F0BCDE26960FB6A8
:10125000F894DEBF0FBECDBFDF91CF9108950F93FD
:101260001F93CF93DF9300D000D0CDB7DEB7E091CE
:101270000204F091030400811181F80180859185B9
:10128000079709F439C016A615A610AA17A611AA21
:1012900088E592E097A386A380EC98E091A780A7C9
:1012A00081E082A787E090E09187808780819181AB
:1012B00052DEF80182819381F1D9F801E05CFF4FA1
:1012C00080819181019741F4F80184819581E6D96B
:1012D000F80186819781D4D9F80162857385C801A8
:1012E0004ADE61E772E0CE01019655D1CE0101964A
:1012F000A6D0CE0101964BD126960FB6F894DEBF4C
:101300000FBECDBFDF91CF911F910F910895A7CF51
:10131000A6CFA5CFA4CF0F931F93CF93DF9300D079
:1013200000D0CDB7DEB7E0910204F0910304008154
:101330001181F80180859185089709F445C088E0FE
:1013400090E0918780878AE099E09093D60280931D
:10135000D5021092D4021092D30228E532E036A7CB
:1013600025A78EE593E090AB87A781E081AB37A3FB
:1013700026A323E733E031A720A782A780819181AC
:101380008DD9F80182819381E6DDF801E05CFF4FA1
:1013900080819181019741F4F801848195817ED902
:1013A000F80186819781D7DDF80162857385C801D0
:1013B000E2DD61E772E0CE010196EDD0CE0101964B
:1013C0003ED0CE010196E3D026960FB6F894DEBF4C
:1013D0000FBECDBFDF91CF911F910F9108959BCF8D
:1013E0009ACF99CF98CF97CFCF92DF92EF92FF927B
:1013F0000F931F93CF93DF936C017A018B01C0E0B1
:10140000D0E0CE15DF0581F0D8016D918D01D601B8
:10141000ED91FC910190F081E02DC6011995892B89
:1014200011F02196EECF7E01C701DF91CF911F9180
:101430000F91FF90EF90DF90CF900895A8D5CF93B4
:10144000DF93FC01448155816081718183EE92E0DC
:10145000CBDFEC0142E050E069EC72E083EE92E019
:10146000C3DF8C0F9D1FDF91CF910895E3EEF2E073
:10147000A089B18982E08C93A485B5851C92A6854C
:10148000B7858FEC8C93108EA489B58986E08C93F8
:10149000A289B3898C9180618C93A289B3898C9144
:1014A00088608C93A289B3898C9180688C93028820
:1014B000F389E02D80818F7D80830895CF92DF9224
:1014C000EF92FF920F931F932FB7F894C090DF0213
:1014D000D090E002E090E102F090E2022FBFDC0148
:1014E000CB018C0D9D1DAE1DBF1D4FB7F894009113
:1014F000DF021091E0022091E1023091E2024FBF41
:101500000C151D052E053F0528F080179107A20731
:10151000B30758F71F910F91FF90EF90DF90CF9096
:101520000895CF93DF93FC0120853185223031056A
:1015300059F1EC0116A615A610AA17A611AA84E661
:1015400090E097A386A371A760A781E082A782E0BD
:1015500090E09187808780819181FDDC8A819B81E9
:10156000FADCFE01E05CFF4F80819181019731F44C
:101570008C819D81F0DC8E819F81EDDC6A857B858D
:10158000CE01DF91CF91F7CCDF91CF910895FC018F
:101590008081918193C3EF92FF920F931F93CF931A
:1015A000DF93EC01198218821B821A821D821C8231
:1015B00061157105A1F17B01FB0101900020E9F7A4
:1015C00031978F01061B170BB8016F5F7F4F80E0CB
:1015D00090E0FDD3009759F0998388831B830A8399
:1015E0002C813D81232B79F4FC0110820CC0888171
:1015F0009981009709F062D3198218821D821C829A
:101600001B821A820CC01D830C83B70188819981CB
:10161000DF91CF911F910F91FF90EF90C5C4DF91A3
:10162000CF911F910F91FF90EF90089586EC93E07A
:10163000AEDF8CEC93E0ABDF82ED93E0A8DF88EDCA
:1016400093E0A5DF8EED93E0A2DF84EE93E09FDFD1
:101650008AEE93E09CDF80EF93E099DF86EF93E0E2
:1016600096DF8CEF93E093CFCF93DF9300D000D041
:10167000CDB7DEB7789484B5826084BD84B58160CF
:1016800084BD85B5826085BD85B5816085BD80914D
:101690006E00816080936E001092810080918100C5
:1016A00082608093810080918100816080938100BD
:1016B000809180008160809380008091B10084607F
:1016C0008093B1008091B00081608093B0008091E0
:1016D000910082608093910080919100816080935D
:1016E0009100809190008160809390008091A10092
:1016F00082608093A1008091A10081608093A1000D
:101700008091A00081608093A0008091210182607F
:10171000809321018091210181608093210180913A
:10172000200181608093200180917A008460809301
:101730007A0080917A00826080937A0080917A00AA
:10174000816080937A0080917A00806880937A002B
:101750001092C1001092C2031092C3031092C403EE
:101760001092C50310928203109283031092840397
:101770001092850368EB7BE080E090E09FDE0E94A2
:101780001A034B015C0188EEC82E83E0D82EE12CB1
:10179000F12C0E941A03DC01CB0188199909AA09CE
:1017A000BB09883E9340A105B10598F321E0C21A18
:1017B000D108E108F10888EE880E83E0981EA11C8C
:1017C000B11CC114D104E104F10419F74FDE2FB7A5
:1017D000F8948091DF029091E002A091E102B09133
:1017E000E2022FBF8093820390938303A09384032C
:1017F000B093850340E150E068E272E083EE92E04E
:10180000F3DD6AE070E080E090E058DE81E08093F4
:1018100096032CDE69E372E0CE010196BCDECE01B8
:1018200001960DDECE010196B2DE64EF71E088E034
:1018300094E0A1DB8091100490911104019719F0BC
:1018400088E094E0BFDB009106041091070482E277
:101850000E94C402019731F469E879E0F8018081BF
:1018600091815FDE82E20E94C402019741F442EF5F
:1018700059E065E070E0F80180819181CEDB88E27B
:101880000E94C402019731F468E879E0F801808190
:10189000918147DE88E20E94C402019731F461EF32
:1018A00079E0F801808191813CDE84E30E94C402EA
:1018B000892B31F460EF79E0F8018081918131DE8C
:1018C0008091DE02882341F0F80180819181FC0142
:1018D00020853185232B19F00E943602B4CF4AE5CA
:1018E00051E06EE170E099DBF7CFEF92FF920F933A
:1018F0001F93CF93DF93E3EEF2E01382128288EE20
:1019000093E0A0E0B0E084839583A683B7838AE167
:1019100092E09183808385EC90E09587848784ECC6
:1019200090E09787868780EC90E0918B808B81ECAC
:1019300090E0938B828B82EC90E0958B848B86EC8D
:1019400090E0978B868B118E128E138E148EE0E8AA
:10195000F3E016821782108611861286138614868B
:10196000158616861786108A118A128A138A148A97
:10197000158A6BE772E08CEF93E00DDE63E872E0AE
:1019800086EF93E008DE6DE872E080EF93E003DE1F
:1019900065E972E08AEE93E0FEDD6AE972E084EECA
:1019A00093E0F9DD65EA72E08EED93E0F4DD6BEA39
:1019B00072E088ED93E0EFDD67EB72E082ED93E09B
:1019C000EADD6FEB72E08CEC93E0E5DD64EC72E055
:1019D00086EC93E0E0DD88E5E82E84E0F82EF70160
:1019E000118210821186108613861286158614863F
:1019F00080E290E0938382838EE190E095838483FC
:101A000086E090E09783868361E080E20E94F9039C
:101A100061E08EE10E94F90361E086E00E94F90333
:101A20000AE414E0F80111821082118610861386F0
:101A30001286158614868AE190E0938382838CE176
:101A400090E09583848387E090E09783868361E0CC
:101A50008AE10E94F90361E08CE10E94F90361E0F0
:101A600087E00E94F903C8E0D4E0198618861B8637
:101A70001A861D861C861F861E86188A198A1A8A4F
:101A80001B8A1C8A1D8A1E8A1F8A188E198E1A8E1E
:101A90001B8E1C8E1D8E1E8E1F8E18A219A21AA2BE
:101AA0001BA21DA21CA219AE18AE1BAE1AAE1DAE13
:101AB0001CAE1FAE1EAE19830883FB82EA82D09350
:101AC0000504C093040482E090E09093490480935D
:101AD0004804FFAAEEAA1DAB0CAB86E295E09BABD7
:101AE0008AAB82E090E052D0FC01D183C083909316
:101AF00003048093020460E082E20E94F90360E044
:101B000084E20E94F90360E086E20E94F90360E04B
:101B100088E20E94F90360E08AE20E94F90360E033
:101B20008CE20E94F90360E08EE20E94F90360E01B
:101B300080E30E94F90360E082E30E94F90360E021
:101B400084E30E94F90360E084E30E94F90360E00B
:101B500084E30E94F90360E084E30E94F90360E0FB
:101B600084E30E94F9031092070410920604DF91A7
:101B7000CF911F910F91FF90EF900895EE0FFF1FEF
:101B8000881F8BBF0790F691E02D19940F931F9338
:101B9000CF93DF938230910510F482E090E0E091E2
:101BA0006804F091690420E030E0A0E0B0E03097F4
:101BB00019F1408151810281138148175907C8F0FA
:101BC0008417950769F4109731F012960C931297C9
:101BD00013961C9327C0009368041093690422C0D5
:101BE0002115310519F04217530718F49A01BD0168
:101BF000EF01DF01F801DBCF21153105F9F0281BDA
:101C0000390B2430310580F48A819B81611571057F
:101C100021F0FB019383828304C090936904809335
:101C20006804FE01329644C0FE01E20FF31F819367
:101C3000919322503109398328833AC02091660458
:101C400030916704232B41F420911202309113024A
:101C500030936704209366042091100230911102A2
:101C60002115310541F42DB73EB740911402509132
:101C70001502241B350BE0916604F0916704E2170E
:101C8000F307A0F42E1B3F0B2817390778F0AC019F
:101C90004E5F5F4F2417350748F04E0F5F1F50937C
:101CA0006704409366048193919302C0E0E0F0E002
:101CB000CF01DF91CF911F910F910895CF93DF93C3
:101CC000009709F481C0FC01329713821282A0911F
:101CD0006804B0916904109781F420813181820FEA
:101CE000931F20916604309167042817390751F536
:101CF000F0936704E093660467C0ED0120E030E0F4
:101D0000CE17DF0740F44A815B819E0141155105E2
:101D1000F1F0EA01F5CFD383C28340815181840F72
:101D2000951FC817D90759F488819981840F951F89
:101D30000296918380838A819B819383828321157C
:101D4000310529F4F0936904E09368043DC0E9018A
:101D5000FB83EA8349915991C40FD51FEC17FD0706
:101D600061F480819181840F951F0296E901998326
:101D70008883828193819B838A83E0E0F0E01296DE
:101D80008D919C911397009719F0FD01DC01F7CF1D
:101D90008D919C9111979D012E5F3F4F820F931F54
:101DA00020916604309167042817390769F4309749
:101DB00029F4109269041092680402C013821282FE
:101DC000B0936704A0936604DF91CF9108956F925A
:101DD0007F928F929F92AF92BF92CF92DF92EF92BB
:101DE000FF920F931F93CF93DF93009781F4CB0162
:101DF000DF91CF911F910F91FF90EF90DF90CF90E7
:101E0000BF90AF909F908F907F906F90BFCEFC015E
:101E1000E60FF71F9C0122503109E217F30708F47F
:101E2000A5C0EC01D9010D911C9111970617170758
:101E3000A8F00530110508F497C0C801049786176B
:101E4000970708F491C002501109061B170B019364
:101E500011936D937C93CF0131DF86C05B01A01A93
:101E6000B10A4C01800E911EA0916804B0916904E2
:101E7000612C712CE12CF12C109709F446C08D9146
:101E80009C911197A815B905B1F56C0142E0C40EFB
:101E9000D11CCA14DB0478F14C018A189B08640138
:101EA00042E0C40ED11C1296BC9012971396AC91CE
:101EB000B5E0CB16D10440F0B282A3839182808238
:101EC000D9016D937C9309C00E5F1F4F800F911F46
:101ED000F90191838083EB2DFA2FE114F10431F0A5
:101EE000D7011396FC93EE9312973EC0F0936904CA
:101EF000E093680439C06816790608F43C017D0156
:101F000012960D90BC91A02DB7CF80916604909150
:101F1000670488169906E1F466167706C8F480917E
:101F2000100290911102009741F48DB79EB7409135
:101F3000140250911502841B950BE817F907B0F4B1
:101F4000F0936704E0936604F901718360830CC029
:101F5000CB011CDE7C01009749F0A801BE011BD01B
:101F6000CE01ACDEC70104C0CE0102C080E090E02B
:101F7000DF91CF911F910F91FF90EF90DF90CF9065
:101F8000BF90AF909F908F907F906F90089581E069
:101F900090E0F89410C0FB01DC0102C001900D92AA
:101FA00041505040D8F70895FB01DC0101900D929B
:101FB0000020E1F7089511E0C7E2D1E000E005C09C
:101FC000802FFE01DBDD2196011DC832D10780E0A4
:081FD0000807B1F7F894FFCFF8
:101FD8003F033F033F033F033F033F033F033F03E9
:101FE80000006A04800000000000C901F4096101D2
:101FF8001502920170018401564D4450565F317CA0
:10200800315F564D4450560A0077656C636F6D65B5
:1020180020746F20636C65616E20726F626F74004C
:102028007475726E52696768742066696E69736840
:10203800007475726E4C6566742066696E697368A3
:10204800007475726E5269676874007370656564B0
:102058007570007370656564646F776E0073706582
:1020680065646174006C656674007475726E6C6585
:1020780066746174007269676874007475726E7250
:1020880069676874617400666F7277617264006270
:0C20980061636B0073746F70000D0A0030
:00000001FF
