:100000001AC100000C9461080C9436080C940B087B
:10001000D7C70000AAC700007DC7000050C7000076
:1000200023C7000039C1000037C1000035C10000FE
:1000300033C1000031C100002FC100000C947509CC
:100040002BC1000029C1000027C1000025C100000C
:1000500023C1000021C100001FC10000BBC6000079
:100060001BC1000071C4000046C4000015C100009F
:1000700013C1000011C100000FC100000DC100003C
:100080000BC1000009C1000007C1000005C100004C
:1000900003C1000001C10000FFC00000FDC000005E
:1000A000FBC00000F9C00000F7C00000F5C0000070
:1000B000F3C00000F1C00000EFC00000EDC0000080
:1000C000EBC00000E9C00000E7C00000E5C0000090
:1000D000E3C00000E1C00000DFC00000DDC00000A0
:1000E000DBC00000B702BA02A902AD02B102F10200
:1000F000BE02C202C802CC02D002D602DA02DE027E
:10010000F102E402E802EC023D0542054705510513
:100110005B05D40565056D0575057F0589059305A6
:10012000A205AC05D405B605C005CA05000021002E
:10013000240027002A002D003000330001010000B8
:10014000040107010A0100002200250028002B00FD
:100150002E003100340002010000050108010B01EE
:1001600005050505070508080808020202020A0A33
:100170000808040404040101010101010101030351
:10018000030303030303040707070C0C0C0C0C0CFC
:100190000C0C0202020206060606060606060B0BF9
:1001A0000B0B0B0B0B0B010210202008081020403A
:1001B000102040800201020108040201010204082B
:1001C00010204080804020100804020180040201B9
:1001D0008040201008040201080402010102040802
:1001E00010204080010204081020408000000A0B0B
:1001F00002090C0D0E0807030401000000000000B6
:1002000000000000000000000000000000000000EE
:1002100000000000000000001211100000000000AB
:1002200000000000000000000000000000000000CE
:1002300000005E0C360C11241FBECFEFD1E2DEBFF2
:10024000CDBF00E00CBF13E0A0E0B2E0E6EFFFE1BD
:1002500000E00BBF02C007900D92AE31B107D9F795
:1002600024E0AEE1B3E001C01D92A93BB207E1F783
:1002700011E0CAE1D1E000E006C021970109802F1A
:10028000FE010E94CD0DC931D10780E00807A9F712
:100290000E943E0B0C94EA0FB3CECF92DF92EF9206
:1002A000FF920F931F93CF93DF936C017A018B0121
:1002B000C0E0D0E0CE15DF0581F0D8016D918D0151
:1002C000D601ED91FC910190F081E02DC6011995C8
:1002D000892B11F02196EECF7E01C701DF91CF91DE
:1002E0001F910F91FF90EF90DF90CF9008950895A8
:1002F00080E090E00895FC01538D448D252F30E07F
:10030000842F90E0821B930B541710F0CF96089522
:1003100001970895FC01918D828D981761F0828D6F
:10032000DF01A80FB11D5D968C91928D9F5F9F7329
:10033000928F90E008958FEF9FEF0895FC01918DCB
:10034000828D981731F0828DE80FF11D858D90E038
:1003500008958FEF9FEF0895FC01918D228D892FD5
:1003600090E0805C9F4F821B91098F7399270895BD
:1003700084E393E0F1DF21E0892B09F420E0822F70
:100380000895FC01848DDF01A80FB11DA35ABF4F52
:100390002C91848D90E001968F739927848FA68984
:1003A000B7892C93A089B1898C91837080648C93D8
:1003B000938D848D981306C00288F389E02D808187
:1003C0008F7D80830895EF92FF920F931F93CF93B9
:1003D000DF93EC0181E0888F9B8D8C8D981305C095
:1003E000E889F989808185FD25C0F62E0B8D10E006
:1003F0000F5F1F4F0F731127E02E8C8DE8120BC07B
:100400000FB607FCFACFE889F989808185FFF5CF1F
:10041000CE01B7DFF2CF8B8DFE01E80FF11DE35A5D
:10042000FF4FF0829FB7F8940B8FEA89FB89808198
:1004300080620AC09FB7F894EE89FF896083E889DB
:10044000F98980818370806480839FBF81E090E020
:10045000DF91CF911F910F91FF90EF900895CF936F
:10046000DF93EC01888D8823C1F0EA89FB898081C4
:1004700085FD05C0A889B9898C9186FD0EC00FB68F
:1004800007FCF5CF808185FFF2CFA889B9898C91CF
:1004900085FFEDCFCE0175DFE8CFDF91CF910895D5
:1004A00080E090E0892B19F063DF811125C080E0A6
:1004B00090E0892B41F080E090E0892B21F00E94B0
:1004C000000081111CC080E090E0892B41F080E0A9
:1004D00090E0892B21F00E940000811113C080E080
:1004E00090E0892BA1F080E090E0892B81F00E94C0
:1004F000000081110AC008950E940000D8CF0E9418
:100500000000E1CF0E940000EACF0C9400000895A3
:10051000362F90E0FC01E451FE4F4491FC01EA5576
:10052000FE4F2491FC01E05AFE4F9491992309F467
:100530006CC0442309F455C050E0FA013197E23110
:10054000F10508F04EC08827EE58FF4F8F4F0C94EE
:10055000CD0D809180008F7707C0809180008F7DC6
:1005600003C080918000877F809380003AC084B56B
:100570008F7702C084B58F7D84BD33C08091B00079
:100580008F7703C08091B0008F7D8093B00029C029
:10059000809190008F7707C0809190008F7D03C07D
:1005A00080919000877F809390001BC08091A00075
:1005B0008F7707C08091A0008F7D03C08091A0003D
:1005C000877F8093A0000DC0809120018F7707C0A6
:1005D000809120018F7D03C080912001877F8093CF
:1005E0002001E92FF0E0EE0FFF1FEA5BFE4FA5911F
:1005F000B4919FB7F894311104C08C9120952823B1
:1006000002C0EC912E2B2C939FBF08953FB7F89416
:100610008091280390912903A0912A03B0912B0384
:1006200026B5A89B05C02F3F19F00196A11DB11D4D
:100630003FBFBA2FA92F982F8827820F911DA11D88
:10064000B11DBC01CD0142E0660F771F881F991FC5
:100650004A95D1F70895089521E02093260320912B
:100660002503222369F0E0912E03F0912F033097A8
:1006700031F4E0912C03F0912D03309709F0199497
:10068000089521E02093250320912603222369F079
:10069000E0912E03F0912F03309731F4E0912C0379
:1006A000F0912D03309709F0199408950E94D60F08
:1006B000E0915304F091540480819181FC012085E4
:1006C00031852730310509F08EC70895E091530434
:1006D000F091540480819181FC012085318527307F
:1006E000310509F080C70895E0915304F091540456
:1006F00080819181FC01208531852830310509F008
:100700000CC70895E0915304F091540480819181C5
:10071000FC01208531852830310509F0FEC6089599
:10072000FC01808191810C946D0EEF92FF920F93EA
:100730001F93CF93DF93EC01198218821B821A82D8
:100740001D821C8261157105B9F17B01FB010190CD
:100750000020E9F731978F01061B170BB8016F5F77
:100760007F4F80E090E00E94F60E009759F0998349
:1007700088831B830A832C813D81232B81F4FC0118
:1007800010820DC088819981009711F00E946D0E32
:10079000198218821D821C821B821A820DC01D8341
:1007A0000C83B70188819981DF91CF911F910F91BF
:1007B000FF90EF900C94E30FDF91CF911F910F9179
:1007C000FF90EF900895CF93DF9300D000D0CDB786
:1007D000DEB768E272E0CE010196A7DFCE01019696
:1007E0009FDFE0915304F091540480819181FC01DA
:1007F000208531852130310519F068E573E060D638
:1008000026960FB6F894DEBF0FBECDBFDF91CF9115
:100810000895CF93DF9300D000D0CDB7DEB76BE360
:1008200072E0CE01019681DFCE01019679DFE09181
:100830005304F091540480819181FC01208531851D
:100840002130310519F064E773E03AD626960FB6E9
:10085000F894DEBF0FBECDBFDF91CF910895CF9347
:10086000DF9300D000D0CDB7DEB76FE472E0CE01E9
:1008700001965BDFCE01019653DFE0915304F091C6
:10088000540480819181FC0120853185223031051D
:1008900019F066E673E0E7D526960FB6F894DEBF4A
:1008A0000FBECDBFDF91CF910895CF93DF9300D0DE
:1008B00000D0CDB7DEB765E672E0CE01019635DF38
:1008C000CE0101962DDFE0915304F0915404808114
:1008D0009181FC01208531852230310519F062E8D3
:1008E00073E0C1D526960FB6F894DEBF0FBECDBF1C
:1008F000DF91CF9108951F920F920FB60F9211249E
:100900000BB60F922F933F934F935F936F937F9309
:100910008F939F93AF93BF93EF93FF9384E393E001
:1009200030DDFF91EF91BF91AF919F918F917F91BA
:100930006F915F914F913F912F910F900BBE0F9050
:100940000FBE0F901F9018951F920F920FB60F9227
:1009500011240BB60F922F938F939F93EF93FF93D6
:10096000E0914403F09145038081E0914A03F091C6
:100970004B0382FD12C0908180914D038F5F8F7376
:1009800020914E03821751F0E0914D03F0E0EC5CB2
:10099000FC4F958F80934D0301C08081FF91EF91B3
:1009A0009F918F912F910F900BBE0F900FBE0F90C4
:1009B0001F901895CF93DF9390E0FC01EA55FE4F0E
:1009C0002491FC01E05AFE4F8491882361F190E06C
:1009D000880F991FFC01E45DFE4FC591D491FC0185
:1009E000EA5BFE4FA591B491611109C09FB7F894DD
:1009F0008881209582238883EC912E230BC062305E
:100A000061F49FB7F8948881322F309583238883CF
:100A1000EC912E2B2C939FBF06C08FB7F894E881E2
:100A20002E2B28838FBFDF91CF9108951F93CF93F3
:100A3000DF93182FEB0161E0BDDF209711F460E038
:100A400004C0CF3FD10531F461E0812FDF91CF9118
:100A50001F915ECDE12FF0E0E451FE4FE4918E2F27
:100A600090E0FC013197E231F10508F09DC0882744
:100A7000EC57FF4F8F4F0C94CD0D84B5806884BD2B
:100A8000C7BD97C084B5806284BDC8BD92C0809147
:100A90008000806880938000D0938900C093880094
:100AA00088C080918000806280938000D0938B000A
:100AB000C0938A007EC0809180008860809380000F
:100AC000D0938D00C0938C0074C08091B00080687A
:100AD0008093B000C093B3006CC08091B00080627E
:100AE0008093B000C093B40064C08091900080688F
:100AF00080939000D0939900C09398005AC0809141
:100B00009000806280939000D0939B00C0939A00E5
:100B100050C080919000886080939000D0939D0099
:100B2000C0939C0046C08091A00080688093A00084
:100B30008091A0008F7B8093A000D093A900C093E8
:100B4000A80037C08091A00080628093A000D0935D
:100B5000AB00C093AA002DC08091A0008860809354
:100B6000A000D093AD00C093AC0023C080912001C1
:100B7000806880932001D0932901C093280119C077
:100B800080912001806280932001D0932B01C0933B
:100B90002A010FC080912001886080932001D093AA
:100BA0002D01C0932C0105C0C038D1050CF04CCFED
:100BB00046CFDF91CF911F910895FC0120813181B3
:100BC00084859585281B390B82859385293E334082
:100BD00014F0449701C00A979387828762857385D2
:100BE000868124CFFC012485358580819181281B55
:100BF000390B82859385293E334014F00A9601C053
:100C00000596938782876285738586810FCF0F93C0
:100C10001F93CF93DF93C0915504D09156048885DC
:100C200099859C01215031092230310508F056C0C8
:100C300088819981FC014081518124853585241763
:100C400035075CF4BADFFE01E05CFF4F80819181E3
:100C5000019719F48E819F81B0DF88819981FC0111
:100C60004081518124853585421753075CF4BADFF2
:100C7000FE01E05CFF4F80819181019719F48E8124
:100C80009F81B0DF8A819B81FC0140815181248555
:100C90003585241735075CF490DFFE01E05CFF4FDB
:100CA00080819181019719F48C819D8186DF8A81F1
:100CB0009B81FC01448555852081318124173507AE
:100CC0000CF072C08FDFFE01E05CFF4F80819181EC
:100CD000019709F069C08C819D814EC0089761F52C
:100CE00088819981FC0140815181248535858E015F
:100CF000005C1F4F4217530784F474DF8A819B8185
:100D000071DFF801808191810197B1F48C819D811F
:100D100069DF8E819F8166DF0FC04FDF8A819B81F3
:100D20004CDFF80180819181019731F48C819D81A4
:100D300044DF8E819F8141DF888599850797A1F5E2
:100D4000EA81FB81408151812485358588819981A3
:100D50008E01005C1F4F421753079CF443DF8A81CA
:100D60009B8140DFF801808191810197E9F48C81BA
:100D70009D8138DF8E819F81DF91CF911F910F91EF
:100D800031CF1BDF8A819B8118DFF801808191813F
:100D9000019751F48C819D8110DF8E819F81DF91BD
:100DA000CF911F910F9109CFDF91CF911F910F919B
:100DB0000895FC0177FF02C060E070E06F3F7105AD
:100DC00019F014F06FEF70E075876487738762879E
:100DD00086812CCE1F920F920FB60F9211242F9363
:100DE0003F938F939F93AF93BF93809130039091E4
:100DF0003103A0913203B09133033091270323E0F4
:100E0000230F2D3720F40196A11DB11D05C026E842
:100E1000230F0296A11DB11D209327038093300359
:100E200090933103A0933203B0933303809128034E
:100E300090912903A0912A03B0912B030196A11D43
:100E4000B11D8093280390932903A0932A03B093A4
:100E50002B03BF91AF919F918F913F912F910F9055
:100E60000FBE0F901F9018951F920F920FB60F9202
:100E700011240BB60F922F933F934F935F936F9371
:100E80007F938F939F93AF93BF93EF93FF93E091E3
:100E90000E02F0910F021995FF91EF91BF91AF9162
:100EA0009F918F917F916F915F914F913F912F9182
:100EB0000F900BBE0F900FBE0F901F9018951F92B2
:100EC0000F920FB60F9211240BB60F922F933F93F0
:100ED0004F935F936F937F938F939F93AF93BF9342
:100EE000EF93FF93E0910C02F0910D021995FF91A1
:100EF000EF91BF91AF919F918F917F916F915F9192
:100F00004F913F912F910F900BBE0F900FBE0F90FE
:100F10001F9018951F920F920FB60F9211240BB6C7
:100F20000F922F933F934F935F936F937F938F9382
:100F30009F93AF93BF93EF93FF93E0910202F091E1
:100F400003021995FF91EF91BF91AF919F918F91FE
:100F50007F916F915F914F913F912F910F900BBEB9
:100F60000F900FBE0F901F9018951F920F920FB603
:100F70000F9211240BB60F922F933F934F935F93D1
:100F80006F937F938F939F93AF93BF93EF93FF9351
:100F9000E0910002F09101021995FF91EF91BF914C
:100FA000AF919F918F917F916F915F914F913F9101
:100FB0002F910F900BBE0F900FBE0F901F901895A2
:100FC0001F920F920FB60F9211240BB60F922F9310
:100FD0003F934F935F936F937F938F939F93AF93C1
:100FE000BF93EF93FF93E0910A02F0910B021995E2
:100FF000FF91EF91BF91AF919F918F917F916F91F1
:101000005F914F913F912F910F900BBE0F900FBEAC
:101010000F901F9018951F920F920FB60F921124E8
:101020000BB60F922F933F934F935F936F937F93E2
:101030008F939F93AF93BF93EF93FF93E091080239
:10104000F09109021995FF91EF91BF91AF919F9196
:101050008F917F916F915F914F913F912F910F9061
:101060000BBE0F900FBE0F901F9018951F920F92FE
:101070000FB60F9211240BB60F922F933F934F93FD
:101080005F936F937F938F939F93AF93BF93EF93F0
:10109000FF93E0910602F09107021995FF91EF91FD
:1010A000BF91AF919F918F917F916F915F914F9180
:1010B0003F912F910F900BBE0F900FBE0F901F907E
:1010C00018951F920F920FB60F9211240BB60F9224
:1010D0002F933F934F935F936F937F938F939F9340
:1010E000AF93BF93EF93FF93E0910402F091050259
:1010F0001995FF91EF91BF91AF919F918F917F9142
:101100006F915F914F913F912F910F900BBE0F9078
:101110000FBE0F901F901895CF93DF93EC0160E006
:101120008A81F6D960E08C81F3D919861886DF911F
:10113000CF9108950F931F93CF93DF9300D000D0EA
:10114000CDB7DEB76CE772E0CE010196EEDACE01E4
:101150000196E6DA0091550410915604F801808555
:101160009185892B19F117A216A211A610A612A615
:1011700016A615A610AA17A611AA80819181CCDF08
:10118000F80182819381C8DFF801E05CFF4F808124
:101190009181019741F4F80184819581BDDFF801C7
:1011A00086819781B9DFF8011186108626960FB6E1
:1011B000F894DEBF0FBECDBFDF91CF911F910F918D
:1011C0000895CF93DF93EC0161E08A81A1D960E0BB
:1011D0008C819ED982E090E099878887DF91CF91BA
:1011E0000895CF93DF93EC0160E08A8191D961E0AB
:1011F0008C818ED981E090E099878887DF91CF91AB
:1012000008950F931F93CF93DF93EC018B017B879E
:101210006A8788819981CDDDB8018A819B81C9DD8A
:10122000FE01E05CFF4F80819181019761F4B8017C
:101230008C819D81BEDDB8018E819F81DF91CF9130
:101240001F910F91B6CDDF91CF911F910F9108950E
:10125000CF93DF93EC011FA21EA219A618A61AA60F
:101260001EA61DA618AA1FA619AA88819981B9DFF2
:101270008A819B81B6DFFE01E05CFF4F8081918116
:10128000019731F48C819D81ACDF8E819F81A9DF34
:101290006A857B85CE01B5DF81E090E099878887FC
:1012A000DF91CF910895CF93DF9300D000D0CDB7D9
:1012B000DEB765EB72E0CE01019637DACE0101961A
:1012C0002FDA8091550490915604FC0120853185D8
:1012D0002130310509F0BCDF26960FB6F894DEBF49
:1012E0000FBECDBFDF91CF9108951F920F920FB621
:1012F0000F9211240BB60F922F933F934F935F934E
:101300006F937F938F939F93AF93BF93EF93FF93CD
:1013100080912303909124038093B20080911F0356
:1013200090912003A0912103B09122030196A11D69
:10133000B11D80931F0390932003A0932103B093CA
:10134000220380911F0390912003A0912103B0916B
:10135000220380911E03811118C081E080931E0337
:1013600080911F0390912003A0912103B09122034B
:1013700080931F0390932003A0932103B093220333
:10138000E0E0F0E0199510921E03FF91EF91BF91FC
:10139000AF919F918F917F916F915F914F913F910D
:1013A0002F910F900BBE0F900FBE0F901F901895AE
:1013B000E4E3F3E0A089B18982E08C93A485B5854C
:1013C0001C92A685B7858FEC8C93108EA489B58965
:1013D00086E08C93A289B3898C9180618C93A289D9
:1013E000B3898C9188608C93A289B3898C91806831
:1013F0008C930288F389E02D80818F7D808308950E
:10140000CF92DF92EF92FF920F931F932FB7F89432
:10141000C0903003D0903103E0903203F09033035A
:101420002FBFDC01CB018C0D9D1DAE1DBF1D4FB725
:10143000F8940091300310913103209132033091E0
:1014400033034FBF0C151D052E053F0528F08017EF
:101450009107A207B30758F71F910F91FF90EF90E4
:10146000DF90CF900895CF93DF93EC011EA61DA6C9
:1014700018AA1FA619AA84E690E09FA38EA379A7B5
:1014800068A781E08AA782E090E0998788878881B1
:10149000998197DE8A819B8194DEFE01E05CFF4F9B
:1014A00080819181019731F48C819D818ADE8E81CA
:1014B0009F8187DE6A857B85CE01DF91CF91A1CEAA
:1014C000CF93DF93EC011EA61DA618AA1FA619AA8A
:1014D00084E690E09FA38EA379A768A781E08AA7FE
:1014E00081E090E099878887888199817ADE8A8176
:1014F0009B8177DEFE01E05CFF4F80819181019747
:1015000031F48C819D816DDE8E819F816ADE6A85DA
:101510007B85CE01DF91CF9174CE0F931F93CF9334
:10152000DF9300D000D0CDB7DEB7FC0117A216A222
:1015300011A610A612A616A615A610AA17A611AADD
:1015400080859185089709F443C08F0188E090E079
:101550009187808783E599E090932F0380932E03F2
:1015600010922D0310922C0328E532E036A725A710
:101570008CE293E090AB87A781E081AB37A326A3F1
:1015800021E433E031A720A782A78081918129DE61
:10159000F8018281938115DEF801E05CFF4F8081C4
:1015A0009181019741F4F801848195811ADEF80157
:1015B0008681978106DEF80162857385C80121DE88
:1015C00063E173E0CE010196B0D8CE010196A8D8B0
:1015D00026960FB6F894DEBF0FBECDBFDF91CF9138
:1015E0001F910F9108950F931F93CF93DF9300D016
:1015F00000D0CDB7DEB78C01FC0116A615A610AA47
:1016000017A611AA88E592E097A386A38AE998E035
:1016100091A780A781E082A787E090E091878087EB
:1016200080819181CEDDF80182819381DADDF8013C
:10163000E05CFF4F80819181019741F4F801848142
:101640009581CFDDF8018681978166DDF80162859D
:101650007385C801D6DD63E173E0CE01019665D8DC
:10166000CE0101965DD826960FB6F894DEBF0FBE68
:10167000CDBFDF91CF911F910F910895CF93DF934D
:1016800000D000D0CDB7DEB7789484B5826084BD39
:1016900084B5816084BD85B5826085BD85B5816076
:1016A00085BD80916E00816080936E0010928100F4
:1016B00080918100826080938100809181008160AF
:1016C0008093810080918000816080938000809170
:1016D000B10084608093B1008091B00081608093FC
:1016E000B000809191008260809391008091910080
:1016F0008160809391008091900081608093900040
:101700008091A10082608093A1008091A1008160FE
:101710008093A1008091A00081608093A0008091BF
:101720002101826080932101809121018160809359
:1017300021018091200181608093200180917A00B5
:10174000846080937A0080917A00826080937A002E
:1017500080917A00816080937A0080917A0080681D
:1017600080937A001092C100109213041092140416
:1017700010921504109216041092D3031092D40301
:101780001092D5031092D60368EB7BE080E090E0E6
:1017900037DE0E9406034B015C0188EEC82E83E011
:1017A000D82EE12CF12C0E940603DC01CB01881914
:1017B0009909AA09BB09883E9340A105B10598F390
:1017C00021E0C21AD108E108F10888EE880E83E012
:1017D000981EA11CB11CC114D104E104F10419F735
:1017E000E7DD2FB7F8948091300390913103A091F9
:1017F0003203B09133032FBF8093D3039093D4036C
:10180000A093D503B093D60340E150E06DE872E0B9
:1018100084E393E00E944D016AE070E080E090E094
:10182000EFDD81E08093E703C3DD8091A100887F35
:1018300085608093A1006EE972E0CE0101960E945E
:101840009503CE0101960E9490036CE870E087E555
:1018500094E0D7DC80915F0490916004019719F0C7
:1018600087E594E0F5DC0E945002FDCF87E194E02B
:101870000E9490038DE194E00E94900383E294E043
:101880000E94900389E294E00E9490038FE294E02A
:101890000E94900385E394E00E9490038BE394E020
:1018A0000E94900381E494E00E94900387E494E016
:1018B0000E9490038DE494E00C949003EF92FF92C9
:1018C0000F931F93CF93DF93E4E3F3E0138212822D
:1018D00088EE93E0A0E0B0E084839583A683B7838D
:1018E0008AE192E09183808385EC90E095878487FC
:1018F00084EC90E09787868780EC90E0918B808BDA
:1019000081EC90E0938B828B82EC90E0958B848BC2
:1019100086EC90E0978B868B118E128E138E148E30
:10192000E1EDF3E016821782108611861286138687
:101930001486158616861786108A118A128A138ACB
:10194000148A158A65EC72E08DE494E00E94950398
:101950006DEC72E087E494E00E94950367ED72E01D
:1019600081E494E00E9495036FED72E08BE394E0D4
:101970000E94950364EE72E085E394E00E94950373
:101980006FEE72E08FE294E00E94950365EF72E0E3
:1019900089E294E00E94950361E073E083E294E0C1
:1019A0000E94950369E073E08DE194E00E94950345
:1019B0006EE073E087E194E00E94950387EAE82EE9
:1019C00084E0F82EF70111821082118610861386AA
:1019D00012861586148680E290E0938382838EE1DE
:1019E00090E09583848386E090E09783868361E02E
:1019F00080E20E94DA0461E08EE10E94DA0461E094
:101A000086E00E94DA0409E914E0F80111821082EC
:101A10001186108613861286158614868AE190E058
:101A2000938382838CE190E09583848387E090E0C8
:101A30009783868361E08AE10E94DA0461E08CE1A9
:101A40000E94DA0461E087E00E94DA04C7E5D4E08E
:101A5000198618861B861A861D861C861F861E867A
:101A6000188A198A1A8A1B8A1C8A1D8A1E8A1F8A4A
:101A7000188E198E1A8E1B8E1C8E1D8E1E8E1F8E1A
:101A800018A219A21AA21BA21DA21CA219AE18AE5E
:101A90001BAE1AAE1DAE1CAE1FAE1EAE1983088360
:101AA000FB82EA82D0935604C093550482E090E012
:101AB0009093980480939704FFAAEEAA1DAB0CABF9
:101AC00087E096E09BAB8AAB82E090E06ED0FC01B1
:101AD000D183C083909354048093530460E082E2E6
:101AE0000E94DA0460E084E20E94DA0460E086E2A8
:101AF0000E94DA0460E088E20E94DA0460E08AE290
:101B00000E94DA0460E08CE20E94DA0460E08EE277
:101B10000E94DA0460E080E30E94DA0460E082E37D
:101B20000E94DA0460E084E30E94DA04A0E0B2E0FC
:101B300083EE93E019969C938E931897E9E6F0E074
:101B400080818F7C80628083EA9A89E094E01B9692
:101B50009C938E931A9780818F7380688083EB9A11
:101B60008FE294E015969C938E93149780818C7FDE
:101B700082608083E89A85E594E017969C938E9323
:101B800016978081837F88608083E99ADF91CF9167
:101B90001F910F91FF90EF900895EE0FFF1F881F88
:101BA0008BBF0790F691E02D19940F931F93CF935D
:101BB000DF938230910510F482E090E0E091B70469
:101BC000F091B80420E030E0A0E0B0E0309719F1E7
:101BD000408151810281138148175907C8F0841749
:101BE000950769F4109731F012960C93129713969B
:101BF0001C9327C00093B7041093B80422C021158A
:101C0000310519F04217530718F49A01BD01EF018D
:101C1000DF01F801DBCF21153105F9F0281B390B65
:101C20002430310580F48A819B816115710521F092
:101C3000FB019383828304C09093B8048093B7041C
:101C4000FE01329644C0FE01E20FF31F819391938F
:101C500022503109398328833AC02091B50430914C
:101C6000B604232B41F420911202309113023093D9
:101C7000B6042093B5042091100230911102211571
:101C8000310541F42DB73EB7409114025091150231
:101C9000241B350BE091B504F091B604E217F3076D
:101CA000A0F42E1B3F0B2817390778F0AC014E5FCC
:101CB0005F4F2417350748F04E0F5F1F5093B6044F
:101CC0004093B5048193919302C0E0E0F0E0CF012E
:101CD000DF91CF911F910F910895CF93DF930097DC
:101CE00009F481C0FC01329713821282A091B704DB
:101CF000B091B804109781F420813181820F931F35
:101D00002091B5043091B6042817390751F5F093A6
:101D1000B604E093B50467C0ED0120E030E0CE17D3
:101D2000DF0740F44A815B819E0141155105F1F0C6
:101D3000EA01F5CFD383C28340815181840F951F7F
:101D4000C817D90759F488819981840F951F029685
:101D5000918380838A819B819383828321153105BE
:101D600029F4F093B804E093B7043DC0E901FB8384
:101D7000EA8349915991C40FD51FEC17FD0761F40F
:101D800080819181840F951F0296E9019983888350
:101D9000828193819B838A83E0E0F0E012968D91AB
:101DA0009C911397009719F0FD01DC01F7CF8D91FD
:101DB0009C9111979D012E5F3F4F820F931F2091A1
:101DC000B5043091B6042817390769F4309729F41F
:101DD0001092B8041092B70402C013821282B0931A
:101DE000B604A093B504DF91CF9108956F927F92CE
:101DF0008F929F92AF92BF92CF92DF92EF92FF921B
:101E00000F931F93CF93DF93009781F4CB01DF9162
:101E1000CF911F910F91FF90EF90DF90CF90BF90E7
:101E2000AF909F908F907F906F90BFCEFC01E60F98
:101E3000F71F9C0122503109E217F30708F4A5C0EF
:101E4000EC01D9010D911C91119706171707A8F005
:101E50000530110508F497C0C80104978617970745
:101E600008F491C002501109061B170B019311933E
:101E70006D937C93CF0131DF86C05B01A01AB10A5C
:101E80004C01800E911EA091B704B091B804612C52
:101E9000712CE12CF12C109709F446C08D919C9186
:101EA0001197A815B905B1F56C0142E0C40ED11C1B
:101EB000CA14DB0478F14C018A189B08640142E0E3
:101EC000C40ED11C1296BC9012971396AC91B5E03B
:101ED000CB16D10440F0B282A38391828082D901D3
:101EE0006D937C9309C00E5F1F4F800F911FF90106
:101EF00091838083EB2DFA2FE114F10431F0D701A7
:101F00001396FC93EE9312973EC0F093B804E093BF
:101F1000B70439C06816790608F43C017D011296B1
:101F20000D90BC91A02DB7CF8091B5049091B604CF
:101F300088169906E1F466167706C8F480911002B7
:101F400090911102009741F48DB79EB74091140211
:101F500050911502841B950BE817F907B0F4F09324
:101F6000B604E093B504F901718360830CC0CB0122
:101F70001CDE7C01009749F0A801BE011BD0CE01F8
:101F8000ACDEC70104C0CE0102C080E090E0DF916A
:101F9000CF911F910F91FF90EF90DF90CF90BF9066
:101FA000AF909F908F907F906F90089581E090E028
:101FB000F89410C0FB01DC0102C001900D92415069
:101FC0005040D8F70895FB01DC0101900D920020EC
:101FD000E1F7089511E0CAE1D1E000E005C0802FEB
:101FE000FE01DBDD2196011DCB31D10780E0080722
:061FF000B1F7F894FFCFE9
:101FF6002B032B032B032B032B032B032B032B036B
:102006000000B904800000000000E3014D017B01DF
:102016002F02AC018A019E016F6E5F6261636B5F86
:102026006C6566745F6372617368006F6E5F626190
:10203600636B5F72696768745F6372617368006F70
:102046006E5F666F72776172645F6C6566745F63FC
:1020560072617368006F6E5F666F72776172645F3C
:1020660072696768745F6372617368007475726E13
:1020760052696768742066696E69736800564D44D4
:1020860050565F317C315F564D4450560A00776595
:102096006C636F6D6520746F20636C65616E207272
:1020A6006F626F74007475726E4C65667420666933
:1020B6006E6973680073706565647570007370652A
:1020C6006564646F776E0073706565646174006C37
:1020D600656674007475726E6C6566746174007200
:1020E60069676874007475726E7269676874617482
:1020F60000666F7277617264006261636B0073746D
:0E2106006F70007475726E5269676874000025
:00000001FF
